:020000040000FA
:10000000180501203518000007B90100211800006B
:1000100021180000211800002118000021180000FC
:10002000000000000000000000000000991900001E
:100030002118000000000000311900002118000004
:10004000311B0000311B0000311B0000311B000080
:10005000311B0000311B0000311B0000311B000070
:10006000311B0000311B0000311B0000311B000060
:10007000311B0000311B0000311B0000311B000050
:10047000311B0000311B0000311B00004FF0FF0C4E
:100480001CEAD0521EBF1CEAD15392EA0C0F93EA29
:100490000C0F6FD01A4480EA010C400218BF5FEACB
:1004A00041211ED04FF0006343EA501043EA51113E
:1004B000A0FB01310CF00040B1F5000F3EBF490038
:1004C00041EAD3715B0040EA010062F17F02FD2A3C
:1004D0001DD8B3F1004F40EBC25008BF20F001001F
:1004E000704790F0000F0CF0004C08BF49024CEA36
:1004F000502040EA51207F3AC2BFD2F1FF0340EAC8
:10050000C250704740F400004FF00003013A5DDC38
:1005100012F1190FDCBF00F000407047C2F1000279
:10052000410021FA02F1C2F1200200FA02FC5FEA66
:10053000310040F1000053EA4C0308BF20EADC70B0
:10054000704792F0000F00F0004C02BF400010F422
:10055000000F013AF9D040EA0C0093F0000F01F0CF
:10056000004C02BF490011F4000F013BF9D041EAF1
:100570000C018FE70CEAD15392EA0C0F18BF93EAF3
:100580000C0F0AD030F0004C18BF31F0004CD8D11D
:1005900080EA010000F00040704790F0000F17BFA4
:1005A00090F0004F084691F0000F91F0004F14D0EA
:1005B00092EA0C0F01D142020FD193EA0C0F03D142
:1005C0004B0218BF084608D180EA010000F0004045
:1005D00040F0FE4040F40000704740F0FE4040F420
:1005E0004000704780F0004002E000BF81F0004111
:1005F00042001FBF5FEA410392EA030F7FEA226CC9
:100600007FEA236C6AD04FEA1262D2EB1363C1BF58
:10061000D218414048404140B8BF5B42192B88BFC7
:10062000704710F0004F40F4000020F07F4018BFEA
:10063000404211F0004F41F4000121F07F4118BF0A
:10064000494292EA030F3FD0A2F1010241FA03FCB2
:1006500010EB0C00C3F1200301FA03F100F000439A
:1006600002D5494260EB4000B0F5000F13D3B0F162
:10067000807F06D340084FEA310102F10102FE2AD1
:1006800051D2B1F1004F40EBC25008BF20F0010041
:1006900040EA03007047490040EB0000013A28BFE0
:1006A000B0F5000FEDD2B0FA80FCACF1080CB2EB63
:1006B0000C0200FA0CF0AABF00EBC25052421843E1
:1006C000BCBFD0401843704792F0000F81F4000186
:1006D00006BF80F400000132013BB5E74FEA410359
:1006E0007FEA226C18BF7FEA236C21D092EA030FC5
:1006F00004D092F0000F08BF0846704790EA010F3F
:100700001CBF0020704712F07F4F04D1400028BF6B
:1007100040F00040704712F100723CBF00F500004D
:10072000704700F0004343F0FE4040F40000704783
:100730007FEA226216BF08467FEA2363014642022F
:1007400006BF5FEA412390EA010F40F48000704742
:100750004FF0000304E000BF10F0004348BF4042E8
:100760005FEA000C08BF704743F0964301464FF024
:1007700000001CE050EA010208BF70474FF0000380
:100780000AE000BF50EA010208BF704711F00043C1
:1007900002D5404261EB41015FEA010C02BF844691
:1007A0000146002043F0B64308BFA3F18053A3F5F0
:1007B0000003BCFA8CF2083AA3EBC25310DB01FA37
:1007C00002FC634400FA02FCC2F12002BCF1004FBB
:1007D00020FA02F243EB020008BF20F0010070474C
:1007E00002F1200201FA02FCC2F1200250EA4C00A0
:1007F00021FA02F243EB020008BF20EADC707047E6
:100800004FF0FF3C06E000BF4FF0010C02E000BFDC
:100810004FF0010C4DF804CD4FEA40024FEA41037E
:100820007FEA226C18BF7FEA236C11D001B052EA34
:10083000530C18BF90EA010F58BFB2EB030088BFFA
:10084000C81738BF6FEAE17018BF40F00100704769
:100850007FEA226C02D15FEA402C05D17FEA236C4B
:10086000E4D15FEA412CE1D05DF8040B704700BF92
:10087000844608466146FFE70FB5FFF7C9FF002829
:1008800048BF10F1000F0FBD4DF808EDFFF7F4FF62
:100890000CBF012000205DF808FB00BF4DF808EDFB
:1008A000FFF7EAFF34BF012000205DF808FB00BF1E
:1008B0004DF808EDFFF7E0FF94BF012000205DF840
:1008C00008FB00BF4DF808EDFFF7D2FF94BF0120F1
:1008D00000205DF808FB00BF4DF808EDFFF7C8FFEA
:1008E00034BF012000205DF808FB00BF4FEA400242
:1008F000B2F1FE4F0FD34FF09E03B3EB12620DD94E
:100900004FEA002343F0004310F0004F23FA02F0B7
:1009100018BF404270474FF00000704712F1610F5E
:1009200001D1420205D110F0004008BF6FF0004035
:1009300070474FF00000704742000ED2B2F1FE4FF8
:100940000BD34FF09E03B3EB126209D44FEA00239E
:1009500043F0004323FA02F070474FF00000704765
:1009600012F1610F01D1420202D14FF0FF30704706
:100970004FF00000704700BF7BB972B90029BEBFBD
:1009800000204FF0004106E008BF00281CBF6FF0B8
:1009900000414FF0FF3000F057B8ADF1080C6DE9A1
:1009A00004CE002909DB002B1ADB00F057F8DDF834
:1009B00004E0DDE9022304B07047404261EB4101ED
:1009C000002B1BDB00F04AF8DDF804E0DDE9022330
:1009D00004B0404261EB4101524263EB4303704774
:1009E000524263EB430300F039F8DDF804E0DDE93F
:1009F000022304B0404261EB41017047524263EB75
:100A0000430300F02BF8DDF804E0DDE9022304B035
:100A1000524263EB4303704753B94AB9002908BFF8
:100A200000281CBF4FF0FF314FF0FF3000F00CB832
:100A3000ADF1080C6DE904CE00F010F8DDF804E02B
:100A4000DDE9022304B07047704700BF034613F886
:100A5000012B002AFBD1181A013870472DE9F04705
:100A600086468C460846089E154674461946002B55
:100A700040F0C1808542B2FA82F245D94AB1C2F152
:100A8000200300FA02FC954094402EFA03F343EA57
:100A90000C0C4FEA154EA8B2230CBCFBFEF80EFB63
:100AA00018CC08FB00F943EA0C43994528D9EB1808
:100AB00008F1FF3704D2994502D9A8F102072B4467
:100AC000A3EB0903A4B2B3FBFEFC0EFB1C330CFB2F
:100AD00000F044EA0344A04214D92C190CF1FF336E
:100AE00004D2A04202D9ACF102032C44241A43EAF6
:100AF00007401EB1D440002334607360BDE8F08726
:100B00004746DDE76346F1E792BB431B01214FEA0D
:100B1000154EAFB2200CB3FBFEFC0EFB1C330CFBDE
:100B200007F840EA0343984561D9EB180CF1FF3010
:100B300004D2984502D9ACF102002B44A3EB080380
:100B4000A4B2B3FBFEFC0EFB1C330CFB07F744EA1C
:100B50000344A7424DD92C190CF1FF3304D2A7420C
:100B600002D9ACF102032C44E41B43EA0040C0E785
:100B7000C2F120039540944020FA03F12EFA03F3CA
:100B80004FEA154E9040AFB20343B1FBFEFC0EFBA3
:100B90001C10190C0CFB07F841EA0041884522D9CA
:100BA00069180CF1FF3004D2884502D9ACF102007B
:100BB0002944A1EB08019BB2B1FBFEFC0EFB1C110A
:100BC0000CFB07F743EA01439F420ED9EB180CF1E7
:100BD000FF3104D29F4202D9ACF102012B44DB1B4E
:100BE00041EA004193E76046E3E76146F7E7604684
:100BF000A4E76346B8E7834206D916B90021084640
:100C00007CE7C6E900E0F9E7B3FA83F78FB98342DE
:100C100001D3724508D8BEEB020460EB0303012048
:100C20009C461EB9002169E73846FAE7C6E9004C40
:100C3000F8E7C7F1200CBB400EFA07F522FA0CF4D6
:100C40002EFA0CF1BA401C4320FA0CF3B8404FEADC
:100C5000144901431FFA84FEB3FBF9F809FB18306D
:100C60000B0C08FB0EFA43EA00439A4540D9E318FF
:100C700008F1FF3004D29A4502D9A8F102002344BA
:100C8000A3EB0A0389B2B3FBF9F809FB183308FB9D
:100C90000EFE41EA03418E452CD9611808F1FF335D
:100CA00004D28E4502D9A8F10203214443EA004050
:100CB000A1EB0E01A0FB02984145CE46434602D36C
:100CC00006D14D4504D20138B9EB020E68EB04039E
:100CD000002EA7D0B5EB0E0261EB030101FA0CFC6C
:100CE00022FA07F3F9404CEA0303C6E9003199E719
:100CF0004046C5E74346D9E72DE9F0410D4617497F
:100D00001446FFF7BBFB064619F0EEFA144B80467B
:100D10001888FFF721FD294607464046FFF7AEFB3E
:100D200001463846FFF764FCFFF7E0FD20603046DF
:100D300019F07AFC0B4B07461888FFF70DFD294682
:100D400006463846FFF79AFB01463046FFF74EFC51
:100D5000FFF7CCFD6060BDE8F08100BF35FA8E3C46
:100D600096EB002094EB00202DE9F84F3C24B0FBDB
:100D7000F4F7824604FB1700FFF7EAFC40490646F9
:100D8000FFF77CFB01463F48FFF730FC0546B7FB09
:100D9000F4F004FB1070FFF7DBFC39498346FFF7E2
:100DA0006DFB394904463046FFF768FB0146204693
:100DB000FFF71EFC01463348FFF718FC334F344C55
:100DC0003B88344E2360338880466360324B1888FA
:100DD000FFF7BEFC4FF46163BAFBF3FA0C238146C4
:100DE000BAFBF3F003FB10A0FFF7B2FC2B49FFF7AF
:100DF00045FB4FF07C5182465846FFF73FFB0146CA
:100E00005046FFF7F5FB01461E48FFF7EFFB49464A
:100E100004F10802FFF770FF214B214602221868F7
:100E20002FF0B0FB1F4C3B8804F108092360338886
:100E300063601D4B1888FFF78BFC4A46014640460D
:100E4000FFF75AFF194B2146022218682FF09AFB30
:100E5000174C3B882360338804F108066360154B08
:100E60001888FFF775FC324601462846FFF744FF15
:100E7000114B214618680222BDE8F84F2FF082BBC3
:100E80000000C0400000B442CDCCCC3D96EB002029
:100E90004C86002094EB002090EB00200000F041F5
:100EA000648600203C8600208EEB002060860020B7
:100EB0002C8600208CEB00205C8600202DE9F04F72
:100EC000CE48ADF5097D1AF010FBCD4C204631F02F
:100ED0009EFE30B9CB480DF5097DBDE8F04F1AF004
:100EE00004BBA5686B680BB12046984710AE4FF461
:100EF000F072FF21304632F042FA4FF4F072C24BEA
:100F00000024CDE90D23F023BD4F0F930096A2B22C
:100F100000213846D5F808C00DAB0134E047F02C6D
:100F2000F4D1BA481AF0E1FA06F0C4FF044606F01C
:100F3000D1FFDFF8DC82DFF8DC92A8F80000204661
:100F400006F0D8FFB8F8003080B2DFF8CCA29842A3
:100F50004FEA5302A9F80000AAF800204FEA500215
:100F600028BF18464010AD49DFF8B4B20A3880B245
:100F70000A80ABF80000FFF7EFFBAA490446FFF731
:100F80007DFAFFF7D9FCA84BA84918802046FFF747
:100F900075FAFFF7D1FCA64BA64918802046FFF74B
:100FA0006DFAFFF7C9FCA44BA44E188007F066F851
:100FB000044600202AF0D8FCC0F307238DF81C005B
:100FC000C0F307408DF81D308DF81E00002220462A
:100FD00007991EF0BCFF0022FF2120461EF0C6FF2D
:100FE000204612F039FF054695492FF041F90623B6
:100FF0002846002202211DF009FA0023914D1846CF
:101000000593FFF7A9FB9049FFF738FA01468F488F
:10101000FFF7ECFA0746BBF80000FFF799FB8C4995
:101020000390FFF7E3FA2A46039904903846FFF746
:1010300063FE05F1080238460499FFF75DFE20467D
:1010400013F0BCFF0022042130601EF09DFF6FF002
:101050007F4056F8047B2AF087FC8DF82000C0F30F
:101060000722C0F307408DF821208DF822000022CE
:10107000384608991EF096FF0022012156F8040C0C
:101080001EF089FF2946022256F8040C2FF07AFA46
:10109000059B103501330C2BB1D1204613F08EFF88
:1010A0006C4E0022062130601EF06EFF6FF07F4014
:1010B00035682AF059FCC0F307238DF82400C0F3EB
:1010C00007408DF825308DF8260000222846099922
:1010D0001EF068FF0022012130681EF05CFF2046F0
:1010E00013F06CFF5C4E0022042130601EF04CFFB8
:1010F0005A4835682AF038FCC0F307238DF82800D9
:10110000C0F307408DF829308DF82A0000222846C8
:101110000A991EF047FF0022012130681EF03BFFB4
:10112000204613F04BFF4E4E0022022130601EF08D
:101130002BFF4C4835682AF017FCC0F307238DF8C5
:101140002C00C0F307408DF82D308DF82E000022C2
:1011500028460B991EF026FF0022012130681EF060
:101160001AFF204604F062F9044605F0E3FC6FF034
:101170007F402AF0F9FBC0F307238DF83000C0F35D
:1011800007408DF831308DF83200002220460C994E
:101190001EF0DDFE20460022FF211EF0E7FE204665
:1011A000002247F6FF711EF013FF0A222046114667
:1011B0001DF0FFF8194BBAF800101A8820462A4C87
:1011C000053A05391DF0BCF82068FFF7CDFD224631
:1011D0004FF47A7125480CF03BFF00201FF0BDFA58
:1011E000B9F80020B8F8001021481AF07EF90CF088
:1011F00065FF00219D2017F053FCF8E78C6D03007C
:10120000F8360300966D0300F0000100AD6D030099
:101210009AEB002098EB002096EB002094EB002046
:1012200092EB0020CDCC0C3F90EB002014AE473F5A
:101230008EEB00209A99593F8CEB0020FC85002012
:10124000D06D03003C8500200000F0410000B44256
:10125000000020416486002060860020C0C0C000DD
:101260005C8600204444FF003885002013AF010055
:10127000DA6D0300014B1B68184700BFD000002047
:10128000014B1860704700BFD000002030B585B01A
:1012900004460D4610220021684632F070F8022301
:1012A0008DF80230044B2A4621466846019318F017
:1012B000C1FD05B030BD00BF7512000080B5054608
:1012C0000E461746984617F03DFC034632F0C8F824
:1012D0000446DFF81890424649F800303946304657
:1012E000A84754F8090000F00DFB00BF08000000FB
:1012F0002DE9F047058B04462807904611D40229B2
:1013000005F0070540F0CC8020461AF0FBF878B1D4
:101310000138218B042811D8DFE800F0C2106D8558
:10132000950001290CBF45F0100545F020052583E7
:1013300088F31188BFF36F8FBDE8F08701F0070ACB
:10134000AA4500F0A5800027B9463E46A368002BB9
:1013500000F0BC8041F00801218388F31188BFF3BD
:101360006F8FA168002900F0BA800D68002900F095
:10137000B680334652462046D1F80480C047002D3F
:1013800076D02B6829461D46F0E701F007035A1F67
:10139000012A1BD8002221F00701062B276889B2F9
:1013A000C4E9002209D13B4603E0628B013262832B
:1013B0001B68002BF9D141F00201204621831AF06D
:1013C000A1F800287AD041F0200176E0042B0AD160
:1013D00021F0070189B2204621831AF093F810B159
:1013E00041F020012183218B01F0070AAA454FD04B
:1013F0000027B946AAE7236921F0070141F0060159
:10140000062DD3F8009021832DD1B9F1000F3FD0E4
:1014100041F00801218388F31188BFF36F8F2046C4
:101420003949C84729E021F00701236941F0040147
:1014300089B2042DD3F804902183E6D000274FF021
:10144000040A3E4682E721F00701236941F00501C5
:1014500089B2052DD3F808902183D6D000274FF00C
:10146000050A3E4672E700274FF0060A3E466DE742
:101470002B4687E7B9F1000FD1D1EFF31188202374
:1014800083F31288BFF36F8F238B23F0080323832A
:10149000258BEA062ED525F01003238305F00705DA
:1014A0006669218B002EBFF670AF00232768C4E960
:1014B000003321F0070141F001012183218B4FF01E
:1014C000000901F0070AAA457FF440AF002F9CD025
:1014D00041F00801218388F31188BFF36F8F002F3B
:1014E000C8D03D6839463346524620461AF036F891
:1014F0002F46F4E7AB067FF51BAF25F020032383CF
:1015000005F0070500E700BF89B50100014B036046
:1015100000207047D840030008B5044819F0E5FFE3
:10152000BDE80840024819F0E0BF00BF0E6E03009E
:10153000436E030030BFFFF7FDBF00BF2DE9F04150
:1015400005460B4EDFF82C80324606EB0807CC1B15
:101550002046094931F0ECFEA01942460021083C22
:1015600031F00DFFC5F8804007F10800BDE8F081BB
:10157000000000000400000080400300054B5A6991
:101580009B689A421FBF044A536843F080535360DC
:10159000704700BF60E5002000ED00E0154B9A6A3F
:1015A00012F0007F9A6A14BF1E201D2012F0807F67
:1015B0009A6A18BF1F2012F4801F9A6A18BF02206F
:1015C00012F4002F9A6A18BF212012F4802F9A6A11
:1015D00018BF222012F4003F9A6A18BF232012F489
:1015E000803F9A6A18BF24206FEA02426FEA1242D3
:1015F0009A62704700ED00E010B5194B0246986AF8
:101600009C6A10F4805F14BF1720162014F4006F3A
:101610009C6A18BF1820A40509D5986B986A000425
:1016200004D51AB19A6A22F400429A6219200C4B2E
:101630009A6A12F4806F9A6A18BF1A20D2050CD4E5
:101640009B6A13F4005F18BF1C20054A936A43F499
:101650007F43936200230B7010BD1B20F5E700BF92
:1016600000ED00E010B51C4B0246986A9C6A10F031
:10167000100F14BF1120102014F0080F9C6A18BF1F
:101680001220A40709D5586B986A000604D51AB130
:101690009A6A22F080029A6213200F4B9A6A12F023
:1016A000010F9A6A18BF142012F0200F9A6A18BF0F
:1016B0001520D40658BF9B6A074B9A6A920642BF10
:1016C0005A6A22F400525A629A6A42F0FF029A62FF
:1016D00000230B7010BD00BF00ED00E0F0B5474BDC
:1016E00004465B6800258BB0C3F3080385F31188BB
:1016F000BFF36F8F02F07F40B0F17F4F11D102F046
:101700000C0008280DD010074CBF0C460125002204
:10171000033B8DF80720032B05D8DFE803F0246294
:10172000665F2C46F3E700239DF80720CAB902AE96
:1017300004F12007324620686168083403C2BC42C5
:101740001646F7D1099A002D53D0C2F3080121B9EA
:101750006FEA52226FEA42220992184602A91AF051
:10176000C8F80BB0F0BD254BDA6A9107DBD4DA6A12
:10177000002AD8DBDA6A5200D5D55A69A16942F449
:1017800080725A61BFF34F8FBFF36F8F5A6931F880
:10179000021C22F480725A61BFF34F8FBFF36F8F28
:1017A0004DF60272914209D09A6AD2B242B101203A
:1017B0000DF10701FFF756FF0346B5E72368B3E7CE
:1017C0009A6A12F47F4F05D001200DF10701FFF74F
:1017D00013FFF1E79B6AB3F5803FA4D3FFF7DEFE6A
:1017E000EAE700200DF10701E4E700200DF1070111
:1017F000EDE722F4FF7222F00102ADE700ED00E018
:10180000064B5A6942F010025A615A6942F48062EA
:101810005A615A6922F008025A61704700ED00E0EF
:10182000EFF30880EFF3098101B57246FFF756FF29
:1018300001BD00BF002080F31488BFF36F8F00202C
:1018400080F30A8880F30B880F4880F3088801F042
:1018500013FE00200D490860BFF34F8F00F02CF8F5
:10186000202080F311880A484FF40061401880F36B
:101870000988EFF314800221084380F31488BFF332
:101880006F8F00F0EFF800001805012094ED00E0E4
:10189000D8EB0020002318460649D1F89020C2F367
:1018A0000722934200DB7047C1F89830C1F8A000CE
:1018B0000133F6E700ED00E010B572B6002484F3C2
:1018C0001388FFF7E7FF23464FF0FF300C4A03F180
:1018D00020010133102B42F82100F8D100234FF0F2
:1018E000FF30074A03F160010133102B42F8210059
:1018F000F8D162B6BFF34F8FBFF36F8F10BD00BF3B
:1019000000E100E0084B9B6883420BD1EFF30583B5
:1019100043B1064B5A6842F080525A605A6A22F428
:1019200000425A6217F014B960E5002000ED00E0B3
:1019300016498A684FF030001044EFF3098C80E8B4
:10194000F01F202080F31288BFF36F8F104F4FF0ED
:1019500000664A698A603E60D2F880000D4C2060C3
:10196000D2F884000023C2F8843080F3118802F199
:10197000300090E8F01F8CF3098802F1000004B5F4
:1019800019F0CCFFBDE804407047000060E500207E
:1019900004ED00E0808600201EF0040F0CBFEFF382
:1019A0000880EFF30980816911F8021C0229FFD039
:1019B00001B5724619F0A3FF01BD00BF00B20028B7
:1019C00007DB01234109034A00F01F00834042F86E
:1019D0002130704700E100E000B200280CDB01225A
:1019E0000649430900F01F008240203341F82320BC
:1019F000BFF34F8FBFF36F8F704700BF00E100E070
:101A0000054B420953F82220012300F01F0003FA7E
:101A100000F01040704700BF00E100E000B2002875
:101A200001F10101ACBF00F16040064B4FEA4111EA
:101A3000C9B2ABBF00F5614000F00F0080F80013A1
:101A40001954704714ED00E0044B054A23F07F035E
:101A50009360BFF34F8FBFF36F8F7047000000009C
:101A600000ED00E008B5FFF7EFFF074AD2F8883035
:101A700023F47003C2F8883016F058FB17F08AF987
:101A800000F046F816F092FB00ED00E042F8203C32
:101A9000009B0B4942F81C3C019B21F0010142F8DC
:101AA000183C029B42F8081C42F8143C4FF080732B
:101AB00042F8043C0023203A0265C0F884307047A5
:101AC000BD12000000B50B4B15469860D0F8802081
:101AD000094B0E461A60036F83F30B882C4686F37E
:101AE00009880020054B984720460021002200234A
:101AF000034C204760E500208086002025B90100C6
:101B0000BD1200001022014B1A61704700ED00E089
:101B10000023202040F20F1210B5044CE1180133CD
:101B2000934281F80003F9D110BD00BF00E100E04D
:101B300008B5EFF30583064A103B02EBC30152F8E8
:101B4000330049688847BDE80840FFF717BD00BF6C
:101B50001C3703001FB5094C094A234601210948D7
:101B600000F0FAF800230393074B0121E41A01A8BF
:101B70000193029400F0FAF804B010BD00F00220C6
:101B800000000020F04003001803002010B50C7A7C
:101B90000B6804F01F0223F01F031A43CB6864098B
:101BA00023F01F03054943EA440343F00103C1F84E
:101BB0009800C1F89C20C1F8A03010BD00ED00E0F5
:101BC00010B5074BD3F89030C3F30723013B98427D
:101BD00002D8FFF7DBFF10BD6FF01500FBE700BF79
:101BE00000ED00E02DE9F04F0F46144606464FF099
:101BF00000084D4D85B0B84580F29280D6F804902B
:101C0000B9F1000F36D0B9F11F0F40F2878019F0FB
:101C10001F0F40F08380D6F800A01AF01F0F7DD16F
:101C2000504619F0A2FE834609EB0A00013819F06C
:101C30009CFE834572D11BF1160F6FD05C456DDDA4
:101C4000C5F898B0D5F89C10C5F898B0D5F8A03074
:101C500021F01F0143F01F0AD6E900321A449942CD
:101C600002F1FF391ED1CA4508D131465FFA8BF027
:101C700019F084FE08F101080C36BCE73146C5F8BE
:101C800098B0D5F89C3022F01F0203F01F031343D5
:101C9000C5F89C30E0B219F071FE10F1160F3DD07E
:101CA000441CE7E7C5F898B0D5F8A020013B23F025
:101CB0001F0302F01F021343CA453146E0B2C5F8C4
:101CC000A030E8D019F05AFE10F1160F26D0C5F852
:101CD00098B0D5F89C209DF808300AF1FF3A62F3DD
:101CE00004038DF80830D5F8A0309DF808205B0873
:101CF00063F347128DF80820D6E9003213440093AD
:101D000023F01F035344A3EB0903013023F01F0307
:101D10006946C0B20393FFF753FFBEE76FF01504A7
:101D2000204605B0BDE8F08F00ED00E00522044B31
:101D3000C3F89420BFF34F8FBFF36F8F704700BF7E
:101D400000ED00E0BFF35F8F0022024BC3F8942048
:101D5000704700BF00ED00E010B5034C2278FFF79C
:101D600041FF207010BD00BF9CEB00202DE9F74F14
:101D7000294D8A4606464FF00008AB46274FD0450E
:101D80001BDAD6F80490B9F1000F3FD0316808464D
:101D9000019119F0EAFD0199044609EB01000138AF
:101DA00019F0E3FD84424FF014021D4B08D002FBF2
:101DB00008F36FF015024BF8032003B0BDE8F08F75
:101DC00014F1160F2C60F8D01978A142F5DD02FB52
:101DD00008B0C7F89840C7F89840D7F89C4000F181
:101DE0000801007B64F304000871D7F8A0000C79A7
:101DF000400860F347140C71D7F89C1021F01F01C4
:101E00006960D7F8A01021F01F01296108F10108CD
:101E100014350C36B3E700BF8486002000ED00E0E7
:101E20009CEB0020F0B54149414CD1F89030256839
:101E3000C3F307239D4287B075D80020FFF782FFC8
:101E40003C4BC1F8C030854216D13B4C01A82570EF
:101E5000FFF75CFB00250646384FAE4213D1002049
:101E600023783249D1F89020C2F30722934254DB01
:101E7000FFF75CFF00202FE0616801EB0011FFF726
:101E800085FE0130DFE70199280101EB0513DA68CF
:101E90003A40B2F5001F21D0B2F5800F2BD0B2F539
:101EA000801F38D15A689B680958013B22F01F00F7
:101EB00003440120844623F01F0340EA4C10CDE97F
:101EC00002218DF8100002A920780593FFF778FE13
:101ED00000281DDA6FF0150007B0F0BD5A689B6846
:101EE0000958013B22F01F0003444FF0020C01206F
:101EF00023F01F03E1E75A689B680958013B22F071
:101F00001F0003444FF0000C062023F01F03D4E70A
:101F100023780133237001359FE7C1F89830C1F869
:101F2000A00001339EE74FF0FF30D5E700ED00E061
:101F3000FC400300AAFF44009CEB00200000F0FFDF
:101F400008B5024B1B689847002008BD9886002002
:101F5000034B044A1860937843F002039370704770
:101F600098860020D400002008B50649064821F0D4
:101F70000701C1F1005202F53C3219F05CFA002071
:101F800008BD00BF1F0502209C86002008B5234A1B
:101F9000234B1A6000F05EF84FF47A612148D0F8C4
:101FA0002436C3F30802C3F309434B4382F480721F
:101FB0001D49883201FB02334FF4FA215B00B3FB69
:101FC000F1F201FB12331949B3F57A3F28BF013210
:101FD000C1F80429D0F820364FF47A60C3F3080220
:101FE000C3F30943434342F6041082F4807202F2C1
:101FF000172200FB02334FF47A701B0AB3FBF0F296
:1020000000FB1233B3F5FA7F4FF0010328BF013212
:10201000C1F81C27C1F80036002008BD0020A10728
:10202000D801002000C0FF001027008000001250DF
:1020300048B1054B054A1B68B3FBF2F35843044B08
:1020400043F0010318477047D801002040420F00B9
:10205000C04003000122024BC3F80424704700BFB4
:10206000002008E0084B70B5C31A0D4607499B10C5
:10207000044659434022064819F0A7FC2B46014666
:102080002046BDE870401847BC860020B76DDBB61F
:1020900024350300402373B50B4C0093041B0B46FF
:1020A0000D460A49A41061430646094A094819F039
:1020B000B8FC011E05DA30462B4602B0BDE8704080
:1020C000184702B070BD00BFBC860020B76DDBB6FC
:1020D0008DBA01002435030010B5EFF311842023DD
:1020E00083F31288BFF36F8F074A136823F002014E
:1020F000DB07116002D401201AF06DFA84F3118815
:10210000BFF36F8F10BD00BF0C87002070B5002299
:102110000121044640F20510FFF780FC0F4801F052
:10212000F1FA0F4B984215D101F0FCFA26690D49DE
:10213000304619F036FA00280BDB01253564246996
:10214000084904F11C0019F02CFA002801DB0020DA
:10215000E56470BD6FF00400FBE700BFB1BA010099
:102160000000AD0B244103001FB500220123CDE97F
:1021700002236B46084ACDF800D0CDF804D019F000
:102180007EFC002805DB43F609520023684616F062
:1021900071F905B05DF804FBABBA01000C22104BDD
:1021A000014602FB0033002030B4D3E90E5298639D
:1021B000EFF31180202484F31288BFF36F8F1C6C1F
:1021C00004F0C00444F002041C6480F31188BFF3DF
:1021D0006F8F1DB12B4630BC0248184730BC70478A
:1021E000BC8600202435030010B4EFF311822023B5
:1021F00083F31288BFF36F8F1648016841F0020421
:102200000460C80707D482F31188BFF36F8F0120E1
:1022100010BC01F0A3BA1049D1F80C14C903F2D5CF
:10222000EFF3118083F31288BFF36F8F0B490B6CB0
:1022300003F0C00343F002030B6480F31188BFF383
:102240006F8F82F31188BFF36F8F002010BCFFF7F0
:10225000A5BF00BF0C87002000E01050BC86002006
:102260002DE9F041012207463449D1E8EF3FC1E8AA
:10227000E02F0028F9D133B9314932484B60CB60A7
:102280008A6019F0A1F97B1E012B28D8012F06D1F5
:102290002D4BD3F8503403F00303012B1FD030F043
:1022A0000DFD0546E8B9294B1B78D3B1042206463B
:1022B000254BC3F80823244CDFF89480D4F84C2431
:1022C000D4F84C34D20315D503F00303012B01D00D
:1022D000012F0FD165B386F31188BFF36F8FBDE86F
:1022E000F081EFF31186202383F31288BFF36F8F01
:1022F0000125E0E7BDB1304619F028FBD4F84034A1
:1023000013F0FF03DAD1D4F80821002AD6D0C4F89C
:102310000831D4F8083120220123C4F84034C8F829
:10232000A0212361CAE70021202016F0B9FBE5E7D0
:102330000422054BC3F80423D1E700BFB886002070
:10234000A8860020D886002000E01050D3EB0020A3
:1023500000E100E008B5074830F059FC38B1064804
:10236000FFF7F6FD0448FEF78BFF002008BD6FF075
:102370001200FBE7B43503007D2300000A2838B5BE
:102380000446074D04D1AB680D2128465B68984789
:10239000AB6803485B68E1B29847204638BD00BF90
:1023A000B43503002DE9F04143680446186883689A
:1023B000D96841B140F6354200238847002802DB46
:1023C0000A2019F079FC204619F06AFC6568AE6AAB
:1023D000286830F01CFC002800F093800023FE21C8
:1023E0001A46606819F08AFB002810DB0023EF21F1
:1023F0001A46606819F082FB002808DB09D0012327
:10240000C3216068F21819F079FB002816DABDE8DC
:10241000F08180463C4F3A4617F8013C17F8021C01
:10242000606819F06BFB0028F1DB08F10108B8F1D6
:10243000200FE4D00E370028EDD0E0E70123C421BF
:102440006068B21C19F05AFB0028E0DB0123C921A7
:102450006068F21C19F052FB0028D8DB0623F0213B
:102460006068321D19F04AFB0028D0DB0623F121F9
:10247000606806F10A0219F041FB0028C7DB062359
:10248000F221606806F1100219F038FB0028BEDB6B
:102490000623F321606806F1160219F02FFB0028CD
:1024A000B5DB0123E821606806F11C0219F026FB68
:1024B0000028ACDB002335211A46606819F01EFBAA
:1024C000002802DA00EAE070A1E72046297F19F02F
:1024D000C8FB00289BDB2046A97F19F0A1FB002840
:1024E00095DB95F8243060681BB9606819F0F6FB3D
:1024F000E8E7002321211A4619F000FB0028F4DA4E
:1025000085E76FF0120082E7B56E030070B545688D
:1025100006462B69E3B11035284601F0AFFD0446AD
:10252000B0B90146284601F069FD0E4B984215D11D
:10253000224628460C4901F035FD22460121DB20C8
:10254000FFF76CFA2246012140F20D10FFF766FA00
:102550003046BDE87040054919F0C1B86FF004007D
:1025600070BD00BF0000AD0BF9260000C5BD010025
:102570002DE9F04340F206354668D00648BF0320F7
:10258000337B02EA050558BFC2F3401087B001F063
:102590001F07B5F5837F144647EA43178DF80300FC
:1025A00045D00FD8062D44D007D8B5B1022D14D090
:1025B0006FF0150007B0BDE8F083B5F5807FF7D167
:1025C00001250AE040F20222954234D0B5F5407F61
:1025D00033D0B5F5007FEBD1042522032FD501239D
:1025E00072688B405360326982BB5F2F07F01F0314
:1025F0004FEA571177D83E4A52F8212084F48031AF
:1026000002EB8302D2F88030C1F30041C4F34044AE
:1026100023F4706344EA410423F00F031C4344EAAB
:10262000800444EA0524C2F880400020C2E709255E
:10263000D3E70825D1E70625CFE70525CDE76303D6
:1026400041BF012372688B409360CCE71036394656
:1026500030460DF1020201F0B3FC14F4403F804615
:102660000CD1394630461AF08DF8224B9845DCD112
:1026700030469DF8021001F00FFDD6E74FF000093B
:1026800001AB3946304603AACDE90439CDE90199B9
:10269000CDF80C9001F006FB164B984288D114F44B
:1026A000003315D09DF8033084F48034C4F3004423
:1026B0008DF80E3039464B46304603AA8DF80C5043
:1026C0008DF80D4001F0DAFB0A4B9842CDD06FE750
:1026D000CDE9043339460DF10303304603AA0393D1
:1026E00001F0E0FAF0E7203352F82330FFDE00BFBC
:1026F0006C4103000000AD0B4209022A034670B58D
:1027000003D0012A18D0CAB170BD0E4E326951688B
:102710000029F9D0012503F01F030C689D40002912
:10272000F2D08A682A4002D030464B6898473CB1C4
:10273000236821461C46F2E7034EE7E7034EE5E730
:102740002346F6E7903503006C3503004835030057
:10275000F0B51646426801F01F04107B87B044EACA
:1027600040141069002871D0B6F5001F02F1100561
:1027700006D1214628461AF007F8002007B0F0BD20
:102780000027B6F5800F01A8019747603BD1B3F150
:10279000007F14BF052304238DF804300023CDE906
:1027A0000403039393680DF1030723FA01F111F079
:1027B00001013DD1B6F1A07F3AD104F01F035F2C97
:1027C0004FEA541003F1200346D8254A52F820203E
:1027D00052F82330DB072BD43A462146284601F035
:1027E000EFFB204B984219D002972146284603AAB6
:1027F00001F058FA1C4B98422BD101222146284661
:1028000001F05AFCB9E7B3F1C06F05D0B3F1007F16
:1028100014BF01230223BFE70323BDE7394628463F
:1028200001F042FC104B9842DED06FF00B00A5E7A0
:102830003A462146284601F0C3FB0B4B9842D4D1BF
:1028400028469DF8031001F027FCCEE76FF08500C5
:1028500094E76FF0150091E751F82330FFDE00BFD9
:102860006C4103000400AD0B0000AD0B10B50B4C28
:10287000204630F0CCF968B12269A168136820467F
:1028800023F0020313600B6800220121984700EA3D
:10289000E07010BD6FF01200FBE700BF4835030089
:1028A00002780B69012A08D0022A08D04AB9064AE0
:1028B0001A6203F1100015F0A9BD044AF8E7044AB2
:1028C000F6E7044AF4E700BF0000AD0B0100AE0BD1
:1028D0000200AE0B0100AD0B2DE9F04F87B0049361
:1028E0004368D0F810B0D3F828809B8B1746039329
:1028F0004FF0FF324FF0FF3305460C4619F088FACF
:102900000BF1100302930026002300220BF11000AC
:1029100015F0B0FD3346BE4201D300234DE0207ACE
:10292000010776D40136BE4221680BD2820709D452
:10293000227D80EA020C0CF0010C02F004025CEA39
:10294000020C08D023B901F06042B2F1005F1AD046
:102950004FF0000901E04FF001096268DDF80CE07A
:1029600003EB020CF44557D8C00705D408EB03006D
:10297000059330F0DDFC059B62681A4493B2B9F10F
:10298000000F2FD113BB4FF00009D4F800A0A3888B
:10299000049A217A28460092524600F06DF8031EF0
:1029A0000BDB43F609520023029815F063FD80B15A
:1029B000284600F037F86FF004032846029319F018
:1029C0002AFA029B184607B0BDE8F08F9946C24626
:1029D000DEE7DBF82030124A9342ECD1237ADB07A2
:1029E00002D400230C3496E7C245FAD1A24609E08E
:1029F000A9EB02011FFA81F9DAF80C0018FA81F14B
:102A000030F096FCDAF80420AAF10C0A9145EFD2D6
:102A1000E7E76FF08503D0E76FF01B03CDE700BF5A
:102A20000000AD0B73B544680DF107012368D3F8BE
:102A30000056D3F8046618F03DFE9DF8073013B930
:102A4000204602F04DFA3146284602F051FC9DF82E
:102A50000710054629B9606A19F0E0F9204602F02E
:102A60002FFA044B9D4214BF6FF00F00002002B0FC
:102A700070BD00BF0000AD0BF0B50C461D461646FC
:102A800087B04768122200210DF1060030F077FC74
:102A900004F001038DF80430BDF8303002958DF854
:102AA0000530BB8D0496AB4214D384F00202C2F30E
:102AB00040023846520101A902F05AFA084B9842E6
:102AC0000BD00B33984214BF6FF004006FF00F006F
:102AD00007B0F0BD6FF01B00FAE70020F8E700BF79
:102AE0000000AD0B38B5044645682B6A98470121B4
:102AF000686A19F093F923462846AA6905F1080186
:102B000002F0A4F9054B984205D12046BDE83840B3
:102B1000034918F0E4BD6FF0040038BD0000AD0BB0
:102B2000A1BE0100036803F01F025F2B02604FEAA1
:102B300053129ABF024B53F822000020704700BF87
:102B4000784203002DE9F04F9346074640F2FF1804
:102B5000DFF86091DFF860A185B000EB8101B94238
:102B600003D1002005B0BDE8F08F3B68C3F3C3225A
:102B7000082AC3F3080400F29980444508BF4FF0C7
:102B8000FF34B3F1B05F19F802604FEA13620ED25E
:102B9000152A0ED8DFE802F010161C341F25340D5C
:102BA0000D0D0D37630D0D0D0D0D0D0D6669382AD8
:102BB0005ED06FF08500D5E7CBF80446621C6AD181
:102BC0000437CCE7CBF80C46631CF9D000256BE04A
:102BD000CBF81046F2E7631CCBF80046F0D0002596
:102BE00004E0CBF80446601CEAD0012503A8039456
:102BF000FFF798FF0122039B02FA03F383600BE0C7
:102C0000CBF80846E0E7CBF80046002EDCD1651C87
:102C1000D6D0002508262A463B68039403F40040DA
:102C2000002818BF002203A818BF012501930092B5
:102C3000FFF778FF039C019B00EB8400D0F88040F5
:102C4000C3F3412C009A330243EA8C03134304EA92
:102C50000A04234343EA4503C0F88030B0E7CBF8C9
:102C60000446D2E7CBF84045BDE7CBF84445ABE797
:102C700003A80394FFF756FF039B621C00EB83003D
:102C8000D0F8803023F0E04343F08043C0F8803038
:102C900096D0012508E0012503A80394FFF742FF21
:102CA000039B05FA03F343602A46B5E76FF015006E
:102CB00058E700BFAA700300F0F0FCFF38B50546E6
:102CC00000220121C620FEF7A9FEC620FEF776FEEF
:102CD0006C680121E06819F0A8FA6B6819686369EB
:102CE000C1F82435E28BA38BA07E1343228C1343BF
:102CF000628C1343627E9BB20243207E02431343E5
:102D0000C1F86C3569680B68D3F8002242F4802260
:102D1000C3F800220822C3F800254A6A0121C3F83B
:102D20003C270022C3F840271965D3F83011002949
:102D3000FBD0C3F800252846BDE83840014918F00B
:102D4000CEBC00BF49C201002DE9F34104460D4647
:102D500047682FF0B3FFA8B92B4B1B7893B14FF006
:102D60002008642663681B68D3F83031002B39D102
:102D7000012019F02EFC013EF4D10021202015F095
:102D80008FFEEEE72022EFF311831E4682F31288B6
:102D9000BFF36F8F61680968D1F8301121B983F3EF
:102DA0001188BFF36F8FEEE77B6A20461D70636862
:102DB0000DF107017F6A1D6818F07CFC9DF8072063
:102DC0004AB90123C5F83C77C5F84037C5F830212A
:102DD000D5F830212B6586F31188BFF36F8F02B0D1
:102DE000BDE8F081EFF311831E4688F31288BFF32C
:102DF0006F8F62681268D2F83021002AD4D183F331
:102E00001188BFF36F8FB8E7D3EB00202DE9F843AB
:102E10004468066905460021E06B19F09FFA002816
:102E200021DB216C481C15D10127636B9847B468DE
:102E30000834D6E9023203EBC203A4F1080293423C
:102E400013D8304619F0E9FA2846BDE8F8431E4980
:102E500018F045BC04F1440000F018FA10F1130F0B
:102E600001D0411DE0D1BDE8F88354F8080C2FF0E3
:102E7000CEFE28B354F8080C14F8041C34F8023CB5
:102E8000D0F810E0DA0754BF43F4B01383F4D01342
:102E9000DEF800C023F4801207FA01F8DB074CBF0C
:102EA00048EA0C032CEA0803D0F80890CEF800306A
:102EB000D9F800309847002804F10804B9DAD2E7BD
:102EC0006FF01200CFE700BFA3C301002DE9FF415F
:102ED00005690646AA6CD0F804802B6D002A35D10E
:102EE000002B53D0B8F83840686C9C4228BF1C4671
:102EF000EF6CEB6C53B12A6D42B107F06042B2F156
:102F0000005F03D0082C28BF08246F6E6A6CAC6584
:102F10001AB1AA6C002A18BF224601921BB12B6D70
:102F2000002B18BF234600900022694640460393B9
:102F3000029701F059FD184B984229D06FF0040117
:102F4000304604B0BDE8F04119F089BA696CEF6C05
:102F50000846B8F83840ABB1934228BF13469C42AC
:102F600028BF1C460029C4D001F06043B3F1005FC4
:102F7000BFD0082C28BF0824286E224630F0D8F98C
:102F8000286EB6E7944228BF1446EBE71946D7E708
:102F900004B0BDE8F08100BF0000AD0B2DE9F04F9B
:102FA0008FB001934368074602938B8804699804A5
:102FB000884691462DD44FF0FF324FF0FF3304F195
:102FC000100015F057FAC4F80480D7F804B0D7F809
:102FD00010A0DBF8083003939AF85D3023B1DAF8DB
:102FE0000030984500F08A80B8F804C01CF4006FE7
:102FF00016D06FF0850523689B8813F4005304D125
:10300000636004F1100015F001FA28460FB0BDE826
:10301000F08FA369002BCED163689942CBD1D4E75E
:103020001CF0090F02D06FF01505E4E7CCF345134F
:10303000082BF8D1D8F800E0814B9E45F3D904ADB8
:103040000BF10C060FCE0FC50FCE0FC5039B96E8F4
:103050000300734594BF0993CDF824E01CF0020FE0
:1030600085E803000CF0040336D0002B14BF0323C3
:1030700002238DF82830CCF300138DF82930DBF8CB
:103080000030D3F80036591C11D01CF0020F03F0A9
:103090001F026C484FEA5313CCF3400120D1022B9E
:1030A00000F2C98050F82310012393408B609AF8F6
:1030B0005D302BB1584601F051FC00238AF85D3099
:1030C0003B465846604A04A901F00EFC5F4B98420B
:1030D0000FD06FF004058EE7003B18BF0123C8E74F
:1030E000022B00F2AA8050F82310012393404B607A
:1030F000DDE70123CAF800808AF85D30012384F8F7
:103100005C30029B196C4A1C03D003F1440019F097
:1031100010FAB9F1000F68D1C4F834900023A3630A
:1031200004F1480204F1380104F1340019F003F904
:10313000019B6064002B60D1E3630023236404F1EE
:10314000500204F1400104F13C0019F0F4F80025AC
:1031500001212A46E0642563204619F03EF93846ED
:10316000FFF7B4FE2A462B46A06B83424DD10023C5
:103170001946256CA9424FD19A4238BF1A462646B5
:103180004FF4FA534FF0000803FB02F556F8203BCA
:1031900047F6122C1B684146B5FBF3F540F2E730C9
:1031A000C8354FF47A720023E5FB0C01FDF734FCBF
:1031B00002460B46304615F05DF9024618B9256BFC
:1031C00015F1740F2FD10298C4F8588001F0C6FB96
:1031D0006FF07301384684F85D8019F040F930468D
:1031E00015F06EF96FF0730505E7D9F800306363E9
:1031F000002B93D0D9F8043091E7019B1B68E3635F
:10320000002B9AD0019B5B6898E7616B01EBC301CF
:10321000496801330A44A8E7E06B00EBC10040684D
:1032200001310344A6E7002D3FF4E5AE01463869BD
:1032300019F0D3F8DFE68960FFDE00235B60FBE76F
:1032400047E80100A043030081C401000000AD0B6A
:103250005F2810B500F01F034FEA50140DD8094A3B
:1032600052F8242002EB8302D2F88000064B034080
:1032700043EA8103C2F8803010BD0022203352F8A7
:103280002330FFDE40440300F0F0FCFF0123F0B5E3
:1032900087B08DF80230022300248DF804306B448F
:1032A00003930F4601AB0DF1030104930546029110
:1032B000059400F0F9FE0C4B064698420FD13946B2
:1032C000284603AA00F0EEFCB0420BD028469DF839
:1032D000031000F0E1FE6FF0040007B0F0BD6FF0E6
:1032E0001200FAE72046F8E70000AD0B70B514466F
:1032F0001D4619F046F9A042A94113D30A4AD2E962
:103300000061A41B24F01F0365EB01009B1941EB36
:103310000001C2E90031640944EAC060BDE87040C0
:1033200015F014BE70BD00BF2003002010B50022B0
:103330000121E420FEF772FB174A0020D2F818376B
:1033400023F44033C2F8183700F094FF134B0446BF
:10335000984208D10120124901F01CF8A04205D082
:10336000104B984214D04FF0FF3010BD19F009F9FE
:1033700067220D4B20F01F00C3E900010B4BC3E98E
:1033800000010B4B02201A60FEF76AFF0020ECE7F9
:103390006FF00B00E9E700BF00200E500000AD0BFE
:1033A000D40100200200AD0B2003002018030020F0
:1033B000E487002008B519F0E4F8054AD2E90032A4
:1033C000C01A61EB0201400940EAC16008BD00BFBC
:1033D0002003002037B5431C0CBF6FF0004420EAE7
:1033E000E07419F0CEF80D4BD3E90025801A61EB9B
:1033F00005032021C4FB0103402873F100042CBF06
:1034000020F01F01002352184FF0010145EB030388
:103410000091034801F022F803B030BD20030020E2
:10342000CC010020064BD3F840231C2A05D1D3F849
:103430004403431E5842584170470020704700BF64
:1034400000C0FF0003689A070CD50368DB070DD5A1
:103450000922074BC3F80C250F22C3F804250122CB
:103460001A60FEE7034B0360EF3B0360704700BF49
:1034700000801050F000FA5008B501233E4A3F4842
:10348000C2F800383E4AD2F840231C2A04BF3D4A05
:10349000C2F80C34FFF7D6FF0830FFF7D3FF08302F
:1034A000FFF7D0FF0830FFF7CDFF00F5F470FFF70E
:1034B000C9FF354AD2F88C3043F44063C2F88C30EF
:1034C0000022D30003F57F0303F54043D3F8001433
:1034D00001310AD0D3F8001439B1D3F80014013205
:1034E000D3F80434402A0B60EBD1234BD3F84024AB
:1034F000002A3DD0FFF796FF48B1214BD3F8342383
:10350000224B9A429EBF1C4B214AC3F84026FFF72C
:1035100089FF18B11F4B204AC3F8AC27FFF782FF81
:1035200048B13422144BC3F82426D3F83C2622F4A5
:103530000022C3F83C26124BD3F840331C2B08D191
:10354000164BD3F80026D20744BF6FF00102C3F830
:1035500000260323124A0C49C2F81835D1F88C30E2
:1035600043F44063C1F88C300023C2F8A03508BD95
:10357000C822C3F84024BDE70000125000C50D501A
:1035800000C0FF000030055000ED00E0001D0A18EB
:1035900040E0A91E00A0085078000A0400E0105086
:1035A00000B0045030B50468ACB1B4FA84F3012221
:1035B000C3F11F03DBB29A4024EA0202D0E8EF5FB6
:1035C000A54204D1C0E8EC2FBCF1000FF6D1EAD13E
:1035D00002480B7030BD0248FCE700BF0000AD0B95
:1035E0000200AD0B10B50368CB40DB0710D40123FC
:1035F0008B40026843EA0201D0E8EF4F944204D1C5
:10360000C0E8EC1FBCF1000FF6D1F2D1014810BDAB
:103610000148FCE70000AD0B0400AD0BF7B5054613
:1036200048B3012825D104224FF480737120324918
:103630000024C1F80803012002F1A04203F1A043D5
:1036400003F5871302F5871210601C601B682B4B73
:10365000D3F840331C2B13D0854201D10DF1070460
:10366000002342F21076244F8DF8073065B1012D0A
:103670002ED003B0F0BD14224FF484730420D6E79B
:10368000012DEDD1CD60E9E7D7F84C3403F4803358
:103690006CB9002BEDD0012018F09BFF013EF3D157
:1036A000E7E7012018F095FF013EDFD1E1E7D7F809
:1036B0004C2402F003022270002BDAD09DF8073070
:1036C000002BEED0012DD4D100220D4B5A71D0E742
:1036D000D7F80C3403F480333CB9002BF4D001202C
:1036E00018F077FF013EF3D1C3E7002B0CBF012395
:1036F00000232370E2D1E7E700E0105000C0FF0094
:10370000E8870020044B1A7922B9012218601A7147
:103710000248704702487047E88700200000AD0B60
:103720000C00AD0B08B50A4B1B6843B140F2051005
:10373000FEF766F918B940F20510FEF73FF90022CE
:10374000044BC3F840240122034B1A7008BD00BF8C
:10375000E887002000E01050D2EB002010B510B137
:10376000012845D010BD324BD3F84C14D3F84C246B
:10377000C80324D502F00303012B04D013B10020A9
:10378000FFF74CFF00232A4A0420C2F840341022DD
:103790004FF48473002103F1A04303F587131960EC
:1037A0001C68012402F1A04202F587121460214A2C
:1037B0001268002A36D01E4BC3F80403D2E7D3F8B0
:1037C0004824D107DED5D3F850249207D7D4194A1C
:1037D00012681AB10422C3F80423C3E7D3F80821FE
:1037E000002AFBD00022C3F80821D3F80831B9E73A
:1037F00000220F4BC3F81021D3F81011C3F8182181
:10380000D3F81811C3F81421D3F814210A4AD2F8B6
:1038100040231C2A04D000224FF480737120B9E7A2
:103820009860F8E71A68002AFCD019601B6899E7CD
:1038300000E01050E887002000C0FF0070B50025B0
:103840001E4C1F4ED4F80C3303B970BDB3FA83F38A
:10385000C3F11F039A0002F5807292B202F1A042F6
:1038600002F58712156012680122D8B202FA03F33A
:10387000DBB2102BC4F8083311D0402B1BD0042B23
:1038800016D1D4F84C14D4F84C14890710D1C4F8CC
:103890004024C4F804332261D4F80C33D4E7022363
:1038A0007371C4F81451D4F814312023C4F80433CC
:1038B00033689847F0E77571FAE700BF00E01050F1
:1038C000E8870020036803F01F025F2B02604FEAC5
:1038D00053129ABF024B53F822000020704700BFDA
:1038E0004C440300034A4309D35C00F01F00184412
:1038F000C0B27047EF70030070B505460846FFF789
:10390000F1FF3C212A79184B01FB0202083233F8FF
:103910001200C10526D578240026C0F3432120F4E7
:10392000F85023F812002A7904FB02340E3434F8DC
:10393000020F10F4807F03D0C0F34320814211D0E6
:103940000136232EF3D10020C2EB02120A4443F8C1
:10395000320078202A79BDE8704000FB02306030E8
:10396000FFF740BE70BD00BFF0870020F0B50646EF
:10397000002487B0114F019117F8012B06AB03EB20
:10398000D20313F8143C02F00702D34013F00103F2
:1039900006D10134032CEFD10023184607B0F0BD47
:1039A000074A03AD07CA85E8070055F824100A6ADC
:1039B00046F824200A62002AEBD0EEE7FF700300ED
:1039C0008040030010B504460846FFF78BFF3C23F8
:1039D00003FB0400024B083033F81000400B10BD0D
:1039E000F087002010B504460846FFF77BFF3C2314
:1039F00003FB0400034B083033F81000C0F3400011
:103A000010BD00BFF087002010B504460846FFF740
:103A100069FF3C2303FB0400034B083033F810001C
:103A2000C0F3401010BD00BFF087002078232DE9BF
:103A3000F04F6F4C0E460C1BB4FBF3F4D0F814138C
:103A4000DFF8B0B1C9B28BB041F400315BF834207B
:103A5000009018F04BFE8103054638D50023E7009F
:103A60000BEBC404CDE907330993636807A8194633
:103A70000193FFF77BFF3B1D03934FF0000A5E4B62
:103A80000DF11C090293029A12F8013B0292039A6B
:103A900002EBD3021BF8022003F0070322FA03F320
:103AA000DA071AD40AF1010ABAF1030F09F104097D
:103AB000E9D14FF400310022009818F017FE019967
:103AC00007A8FFF753FF0028D7D125F400350124BC
:103AD000002D76D10BB0BDE8F08F484B53440493D2
:103AE000D9F800100029DDD091FAA1F1B1FA81F1E5
:103AF000049B1C7841EA44142046FFF7F3FE08308B
:103B000036F81080C8084FEA98030593012319F886
:103B1000002001F0070103FA01F122EA010209F88D
:103B2000002006A80694FFF7CDFE069A059B2032DA
:103B300050F82220C8F382075B07B846C2F301425F
:103B400023D53046D7B22146424618F09EFD06A83E
:103B50000694FFF7B7FE069B203350F82330C3F3DB
:103B600001439F4207D10021204618F07FFD3946CE
:103B7000204618F07BFD06A80694FFF7A3FE01225D
:103B8000069B02FA03F30362AAE7022A0DD103217E
:103B9000204618F06BFD07F00503012BEBD14246E0
:103BA0002146304618F071FDE5E7022120460592D6
:103BB00018F05CFD032FF2D0059A032ADBD1022F07
:103BC000ECE795FAA5F3B3FA83F3009904FA03F24C
:103BD00025EA020503F5A27251F8222006EB430301
:103BE0003046B3F86410C2F3014218F04EFD6FE79F
:103BF000F087002058440300FF700300FF700300AB
:103C00002DE9F74305460846FFF76CFE3C222B7969
:103C1000204F02FB0303083337F813300E46DB074F
:103C2000044635D5284618F088FD95F804903146AD
:103C30004846FFF7E9FE60B14846FFF7C3FE0022A1
:103C4000D5F8008000B208EB8003C3F81025C3F854
:103C5000102528463146FFF74FFE3C222B7901A85C
:103C600002FB03440023083427F814300196FFF7C1
:103C700029FE019B00EB8300D0F88020064B134007
:103C800043F00203C0F88030044803B0BDE8F0837D
:103C90000348FAE7F0870020F0F0FCFF0000AD0BCE
:103CA0000400AD0B2DE9F04F9046044685B0084660
:103CB000FFF718FED8F800900F4606462579B9F1AF
:103CC000000F23D02846FFF78DFE18B12846FFF7D6
:103CD0009BFE58BB00230DF10F02CDE900338DF898
:103CE0000E308DF80F300DF10E014B46384618F0AE
:103CF00074FC3C2303FB05635D49083331F8132052
:103D000022F0020242F0010221F81320D8F8043018
:103D1000002B3FD03946207993F80090D3F804A0C7
:103D2000FFF760FE20B1BAF1000F26D0514835E010
:103D30003C226A43DFF838E102EB060C0CF1080C78
:103D40003EF81C3023F02003DB04DB0C2EF81C3083
:103D5000BAF1000F11D0B9F1030FE7D8D8F8041069
:103D60002068496891F800A000EB8A00B9F1000FC3
:103D700017D1C0F81095C0F810953C2303FB0565DA
:103D80003B4A083532F8153023F01C0343EA890317
:103D900022F81530D8F8083063BB374805B0BDE8C5
:103DA000F08FD0F810B552442BF0030BC0F810B5CB
:103DB000206843EA4A3300EB8A01D1F810050EEB84
:103DC000420220F4473020F47C70C1F8100541F61F
:103DD000F070D1F810B500EA071040EA094040EA57
:103DE0000B0043F02003C1F81005A2F864702EF810
:103DF0001C30C2E73946D3E900852046FFF77CFD39
:103E0000B8F1000FC9D078232079194F4343FA182D
:103E1000FB58984504D153689D4201D100220CE023
:103E2000782303FB00700DF10F016030FFF7BAFB40
:103E3000114B9842B2D19DF80F203C212379C3EB5E
:103E40000313134447F833802379C3EB031313445C
:103E500007EBC3035D60237901FB0363083337F885
:103E6000131041EA422242F4807227F8132094E7AB
:103E7000F08700200400AD0B0000AD0B2DE9FF47DB
:103E80000546084617461E46FFF72CFD89460446A0
:103E900087B395F804804046FFF7A4FD18B9404663
:103EA000FFF7B2FD68BB3C2303FB0848DFF8E4A042
:103EB00008F108083AF8183013F01C0F02D07B788C
:103EC000012B1ED001238DF80F3000237A1CCDE981
:103ED00000734846BB1C0DF10F0118F07EFB3C221D
:103EE0002B7902FB034308333AF8132042F0030214
:103EF0002AF81320002E4BD049462879FFF772FD8F
:103F000018B9254804B0BDE8F08700214FF03C0CFB
:103F100030782B68820003EB8003C3F81015C3F8D8
:103F200010152B791B490CFB0343083331F8137030
:103F300027F4604727F0200721F8137077783FB304
:103F40002B68B6781A44D2F810E5144B3F040EEAF9
:103F50000303C2F8103541F6F07307F4403703EA63
:103F600009133605D2F810E53B4306F480163343B7
:103F700043EA0E03C2F810352B790CFB03440834D6
:103F800031F8143043EA403343F0200321F8143071
:103F90000348B7E7F08700200400AD0B0FE0ECFF0B
:103FA0000000AD0B30B578250479044B05FB0434D3
:103FB000A160017905FB0133DA6030BDF087002094
:103FC00070B5067914463046FFF71EFD68B1084605
:103FD000FFF788FC3C2303FB0600054B083033F851
:103FE000103004485B0B237070BD0348FCE700BF32
:103FF000F08700200000AD0B0400AD0BF8B50646BD
:1040000007797820194D00FB075393F8744054BB8F
:1040100018464622214610302FF0B1F93179144A62
:10402000336852F8316021468E4212D10022C3F328
:104030000830C3F844210130D3F84421FDF7BEFC19
:10404000782303FB075501230A4885F874302B6653
:10405000F8BDCAB2920002F58070442A04BF1C5019
:104060001A580131E0E70448F2E700BFF08700206A
:10407000584403000000AD0B0C00AD0B7821027911
:10408000044B01FB023393F87400003818BF012081
:10409000704700BFF08700200079024B03EB8000DF
:1040A000FFF7A0BADC0100200079024B03EB80008F
:1040B000FFF778BADC0100202DE9F74390F804906F
:1040C000044648461746FFF79FFC0D46266800B396
:1040D0004846FFF787FC8046D8B94846FFF772FC90
:1040E00005B2AD0005F5807246F802802168B2582D
:1040F0002944D1F8102542F00102C1F810252FB152
:104100000122216802FA00F3C1F8143303B0BDE8BC
:10411000F083D6F8143328469B035CBF4FF400337A
:10412000C6F81433FFF7DEFB3C22237902FB0300C1
:104130000E4B083033F81030C3F38203042B11D038
:10414000052B11D001A80195FFF7BCFB019BC168AD
:10415000D94001F001010231284603B0BDE8F04327
:1041600018F084BA0321F7E70221F5E7F087002071
:1041700001490248FFF75ABCF087002000A00D500B
:1041800001490248FFF752BC6888002000C0105067
:1041900010B50024037A0D49CA181B0103F1A0438E
:1041A00003F5622392F85420C3F82C450C2303FB3B
:1041B00002130468DC6042681A610122007A1875F3
:1041C0008B68824013438B6010BD00BF400000200D
:1041D000074B027AD3F8101521F001010A43C3F806
:1041E00010250268C3F8A4264268C3F8AC267047BD
:1041F00000200E50012303FA00F010F0670F0AD0E0
:10420000064B5B68DB4303F067030342044B05483E
:1042100018BF184670470448704700BF4000002090
:104220000000AD0B0400AD0B0800AD0B2DE9F0480C
:10423000EFF31181202383F31288BFF36F8F4FF0C8
:10424000FF356FF04044094ED6E900BC5D4574EB84
:104250000C07F9D3CCF31303C0E900B381F3118841
:10426000BFF36F8F0248BDE8F08800BF40270E50B3
:104270000000AD0BF0B53C4D85B02C78002C6FD113
:104280003A4A01AB07CA83E8070039491846D1F812
:10429000102522F00202C1F81025FFF799FF07232D
:1042A000672202F001012144013BCCB24FEA5202E5
:1042B000F7D1052C56D119464FF0010C2A4E002497
:1042C0006720CFB204E00CFA02F220EA02000134C7
:1042D00090FAA0F25FFA84FEBE45B2FA82F2F2D3FF
:1042E0000131327505292A4482F8547006F10C0612
:1042F000E5D1012100241F489A0801FA02F212F0C8
:10430000670F18BF1C500433302BF5D1E420FDF7A4
:1043100055FB174B1849D3F8102503F5C07322F04D
:104320000202C3F8902340F6FF72C3F8A8210022CE
:104330001A60A3F5807004338B420260F8D1012427
:104340000B4B0E4A1C660E4B5D201B68B3FBF2F351
:1043500058430C4B234398470B482C7005B0F0BDD5
:104360000A48FBE70A48F9E7400000208C400300B8
:1043700000200E5000210E50B0210E5040420F0080
:10438000D8010020D04003000000AD0B0C00AD0BA5
:104390000100AD0B73B52A4C054663680E4603F069
:1043A000010304F1140101A80193FFF7FBF8254B69
:1043B00098423DD100233370636823F001036360AA
:1043C000A36843F00103A3601F4BD3F810259607A1
:1043D00032D4D3F8102542F00202C3F81025C5B13B
:1043E000D3F8482712F0010202BFD3F8481741F072
:1043F0000101C3F84817144BD3F84017D3F84417FA
:104400004C00F9D42AB9D3F8482722F00102C3F8A6
:1044100048270E4B0E4A1B68B3FBF2F30A4A03EB24
:1044200043135BB1D2F84017D2F84417490001D4C6
:1044300002B070BD013BF4E70648F9E70648F7E72C
:10444000400000200000AD0B00200E50D8010020DD
:1044500040420F000C00AD0B0700AD0B2DE9F04101
:104460000446007A1D46FFF7C5FE1E4B9046984253
:1044700006469DF8187031D12046FFF789FEEFF30C
:104480001180202383F31288BFF36F8F227A164B9B
:104490009200134400221A60217AC5F31305090122
:1044A00001F1A04101F56221C1F82085C1F8245530
:1044B00080F31188BFF36F8F87B10123227A0B49F4
:1044C00003FA02F2D1E8EF5F1543C1E8E05F00288C
:1044D000F8D1227A9340064AC2F824333046BDE828
:1044E000F08100BF0000AD0B00210E50C80000207D
:1044F00000200E50F7B5284B284CD3F82C6304F15C
:1045000088070EB903B0F0BD96FAA6F00123B0FA01
:1045100080F08340DA43224926EA0306231893F801
:104520005450830019440C2303FB0543DB6873B329
:10453000D7E8EF3F03EA020CC7E8EECFBEF1000F69
:10454000F6D1C340DB0719D5020102F1A04202F502
:104550006222D2F82435D2F82025D1F800C0BCF16F
:10456000000FCED04FF0000CC1F800C00C2101FBB1
:10457000054529690091E9688847C2E705F10C0300
:1045800004EBC30C54F83320DCF80430E5E70A6888
:10459000002AB6D00B60B4E700200E504000002087
:1045A00000210E5010B5184BD3F80443E1040AD58E
:1045B000D3F830213AB10022C3F83021D3F830319A
:1045C000124B1B689847A2040BD50F4BD3F834212C
:1045D0003AB10020C3F83401D3F834310C4B1B68D6
:1045E000984763040ED5084BD3F8382152B1002206
:1045F000C3F83821D3F83831054B0120BDE810400D
:104600001B68184710BD00BF00E01050E488002070
:10461000E0880020044B40EA0120C3F80005D3F8ED
:104620000024D207FBD5704700B00450036803F0A4
:104630001F025F2B02604FEA53129ABF024B53F8DE
:1046400022000020704700BF6844030037B51446BD
:10465000421C054618D0012902D1BBB118F0F5F86B
:1046600001A80195FFF7E2FF019B0A4A00EB8300D6
:10467000D0F88050A30043EA41030B432A40134380
:1046800043F4A063C0F8803003B030BD18F0E9F8FF
:10469000E6E700BFF0F0FCFF03460E4A10B50E48F7
:1046A0000E4CA34218BF1046B0FBF1F201FB120002
:1046B00082420DD912F001000AD17E2A07D8A34206
:1046C00014BF022304239A4234BF0020012010BDEE
:1046D0000020FCE70024F4000020A10700A0045003
:1046E0002DE9F74F91F8213005460C4690F804A0CB
:1046F000002B00F0B0804FF0010891F822902A685A
:104700006848694F69496369824208BF0F46B7FB31
:10471000F3F7674B674ED3F840331C2B14D1022FAD
:1047200040F29D80237E13F0FD0F40F098807B08BF
:104730000133DBB2994538BF9946242303FB0A6352
:104740009A7F42F008029A77242202FB0A6394F8C7
:104750002300997F60F3000199772B79217C02FB7C
:1047600003639A7F61F341029A7794F823B0BBF117
:10477000000F21D1237E0121012B94BF00230123AF
:104780005A462068FFF762FF5B465A466068FFF7AB
:104790005DFF5B465946A27EA068FFF757FF0121E7
:1047A000237C5A46E06883F00103FFF74FFF0B4676
:1047B0005A46E069FFF74AFF2423B8F1000F55D0AD
:1047C0004FF0FF3203FB0A631A62A07C217E627EF7
:1047D000D4F80CC094F8108094F824E094F820A049
:1047E0002B68BEF1000F16D1D4E900BECDF804E06D
:1047F000D4F808E0E469C3F800B6DDF804B0C3F803
:1048000004B6C3F808E6C3F80C46C3F810C6C3F8EC
:10481000B885C3F8B095003A18BF01220229C3F841
:10482000C005C3F82C7533D0032934D0012901D138
:1048300042F00202C3F854252422C3F8ACA52B7918
:104840005343F35853B32868C0F3083003B0BDE8AE
:10485000F04FFDF7B3B898464FF002094FE7242315
:1048600003FB0A639A7F6FF3C3026CE703FB0A6AD8
:10487000E2689AF81E30CAF82020227C4FF0FF3CF4
:1048800062F341038AF81E30A07C217E627EA3E79A
:1048900042F00402CEE742F00602CBE703B0BDE8E7
:1048A000F08F00BF00A004500024F4000020A107F6
:1048B00000C0FF00E8880020431C07B50ED001901F
:1048C00001A8FFF7B3FE019B00EB8300D0F8802026
:1048D000044B134043F00203C0F8803003B05DF88E
:1048E00004FB00BFF0F0FCFF2DE9F84F242590F801
:1048F00004A0164C05FB0AF504EB050B98469BF843
:104900001C3006460F469146DBB9B1B149690068D3
:10491000FFF7C2FEB8B13946304644F80590CBF8EF
:104920000480FFF7DDFE242303FB0A4400236377A2
:10493000012307482377BDE8F88F6251CBF8048044
:10494000F1E70448F7E70448F5E700BFE8880020EE
:104950000000AD0B0C00AD0B0400AD0B2DE9F041D8
:104960000446067900681E4DC0F30830FDF734F8A0
:1049700024237343EB5853B123681A4A06EBC6014C
:10498000C3F80823206805EB810117F076FF242186
:1049900001FB06512368D3F80006D3F80476D3F858
:1049A00008868B7FDB0714D4FFF786FF4046FFF7AE
:1049B00083FF3846FFF780FF086AFFF77DFF236813
:1049C000D3F80C06D3F81016FFF776FF0846FFF76A
:1049D00073FF242303FB065500232B77BDE8F081EA
:1049E000E88800200700F81F24232DE9F043077909
:1049F0005E4E7B439046F2180D46517F814685B04E
:104A0000002940F0B080F35823B118F0140F04BF10
:104A100001235377242495E80F0004FB076404F175
:104A20000C0C8CE80F00206A431C04D0A37F9C0769
:104A30001AD517F00AFF2B68D9F8004023B103F00C
:104A40006043B3F1005F06D1AB6883B103F060430C
:104A5000B3F1005F0BD02423002203FB076344481B
:104A60005A7705B0BDE8F08317F0FBFEE3E718F0D6
:104A7000010318BF0123C4F84C3718F0020318BF14
:104A80000123EC46C4F8143795E80F00C4F83C073E
:104A90008CE80F00C4F84017C4F804270022039BD9
:104AA000C4F80837C4F80821D4F808310723C4F83B
:104AB0000035304BD3F840331C2B11D124237B43DA
:104AC000F118897F08070BD58221F358C4F8841C9C
:104AD00033B1C4F80021D4F800310123C4F8043301
:104AE00018F0080505D124237B43F25801232360E5
:104AF0001AB324237B43F218F3585BBB1D49D1F84A
:104B000040131C2904D1927F110748BFC4F8843C8C
:104B1000242303FB0763186A421C04D09B7F9B0776
:104B200015D517F09EFE35B907EBC707204606EBF3
:104B3000870117F0A2FE104893E7D4F80831002B44
:104B4000FBD062460421204617F041FED1E717F062
:104B50007CFEE8E7042318F0040F14BFC4F8083300
:104B6000C4F80433E7E705487BE700BFE888002086
:104B70000A00AD0B00C0FF000000AD0B0B00AD0B39
:104B800010B51E4BD3F840331C2B15D11C4B9B7F0B
:104B9000180711D51B4BD3F80423D1070CD5D3F834
:104BA00000214AB10022C3F80021D3F80011C3F854
:104BB000842C0122C3F808230421134A114817F05A
:104BC00006FEC8B10E4C206A421C04D0A37F9B078E
:104BD0000FD517F046FE637F1BB10949094817F04E
:104BE0004CFE002323720948D4E90031BDE810408F
:104BF000184717F02AFEEEE710BD00BF00C0FF0007
:104C0000E888002000A00450F4880020F0880020EC
:104C100010B4CC7B8A6803682CB9D1E90041C3F891
:104C20000046C3F80416C3F8242528220379534309
:104C3000054AD3582BB1006810BCC0F30830FCF70C
:104C4000BDBE10BC704700BF0C8900205F2800F07B
:104C50001F034FEA50110DD8094A52F8212002EBE8
:104C60008302D2F88010074B0B4043F00203C2F8D6
:104C7000803070470022203352F82330FFDE00BF1F
:104C800074440300F0F0FCFF70B5817B29BB02681F
:104C90005F2A02F01F034FEA521420D8124E134D20
:104CA00056F8242040F60C0402EB8302D2F8803040
:104CB0002B402343C2F8803042685F2A02F01F0372
:104CC0004FEA52100BD856F8202002EB8302D2F89C
:104CD00080302B402343C2F88030012070BD203348
:104CE00051F82330FFDE00BF74440300F0F0FCFFF6
:104CF00070B50C4686B00221054617F019FE20213A
:104D00000646284617F014FED0B1D6B9A3684FF472
:104D10008041C5F808330223A360A3682846C5F87C
:104D2000043317F005FE18B1D5F800329B0502D404
:104D300001232B616B60012384F8233006B070BD22
:104D40008EB3E3695E060AD494F823303BB921465A
:104D5000284617F0ABFD80F0010084F82300E369DA
:104D600013F0040337D1C5F83831D5F83821C5F828
:104D70003431D5F8343194F8253013B194F8233018
:104D8000F3B100230122C5F80032A3602D4BC5F317
:104D90000431C5F808338A40C5F343432A496033D8
:104DA00041F823200CE04FF48061284617F0C0FD45
:104DB00094F82030002B2FD194F82530002BE1D02F
:104DC000238CADF80430E36804932369029363698C
:104DD0000593A3690393D5F8C4349807C5F8C43480
:104DE0002AD459072AD4DA072AD494F823309B000E
:104DF000DBB28DF8003094F825300BB984F82430FC
:104E0000E3695B0703D594F82330002B96D0D4E9EF
:104E100000316846984791E74FF40073C5F80032B7
:104E20002223A360074BC5F80833A368C5F80433F1
:104E300001232B652B6181E70123DAE70223D8E701
:104E40000323D6E72264F81F00E100E02DE9F041DA
:104E5000074690F80480282000FB08F0144E0C460A
:104E6000351895F82210F1B9A96032506B6085F8B9
:104E7000251085F824106CB1A37B204685F82730D7
:104E8000FFF702FF88B1637B2146384685F826305C
:104E9000FFF7BEFE282303FB08660123054886F8BA
:104EA0002230BDE8F0810448FBE70448F9E700BF81
:104EB0000C8900200000AD0B0C00AD0B0400AD0B05
:104EC000062103680279C3F800152821034B01FB72
:104ED0000233022283F82220704700BF0C89002091
:104EE000282110B5002402790B4B01FB02339C6092
:104EF00001680A4AC1F80823D1F8002222F0FF52C3
:104F000022F4BC52C1F800220122C1F8004583F806
:104F1000222083F8244010BD0C8900202264F81F51
:104F200070B5044606790068104DC0F30830FCF7F0
:104F300053FD2046FFF7D4FF282303FB065393F8C5
:104F4000272062B993F826304BB92368D3F80006BE
:104F5000D3F80446FFF77AFE2046FFF777FE2823B2
:104F600003FB0655002385F8223070BD0C89002014
:104F700028232DE9F74F9246002290F80490B84D6F
:104F8000046803FB095383F823204B680E4633B1B2
:104F9000CB6803F06043B3F1005F40F07E8133786B
:104FA000023B012B06D8336903F06043B3F1005F85
:104FB00040F073811AF0030F40F07181A94BC4F8DF
:104FC0000833282303FB095393F8242002F0FF0140
:104FD0003AB19B68A44FC4F80433384603B0BDE827
:104FE000F08F1AF0140F0CBF0122002283F8242046
:104FF000327809EB890883F82020727805EBC8081D
:1050000083F82120F268DA6072681A6132695A61A5
:10501000B268C3F81CA09A61CAF3001283F8252075
:105020007378C4F88835C4F83811D4F83831C4F826
:105030002811D4F82831C4F81411D4F81431C4F864
:105040000411D4F804313378032B00F2A280DFE896
:1050500003F0779760024FF48073C4F80032D8E908
:105060000323C4F83C27C4F84037012323654FF0DD
:105070000061204617F05CFC0028F8D1D8E9052330
:10508000C4F83C27C4F8403728234FF4806203FB60
:1050900009539A60754F282303FB09F3E858E91870
:1050A0001AF0080313D13278032A10D0012A40F0F5
:1050B0008580A26200286ED0282303FB09F3726862
:1050C000EB5822B9002B00F0AE8001236360282347
:1050D00003FB09F3EA18EB58002B00F0A4801AF048
:1050E000040F1CBF002393601AF0400F06D1282341
:1050F00003FB09539A6842F002029A60282303FBDB
:1051000009539A6842F020029A609B68C4F80433FD
:1051100063E7D8E90323C4F83C27C4F84037D8E94B
:105120000523C4F80427C4F808374FF48453C4F89F
:105130000032012323612823022203FB0953A8E73D
:105140001AF0200FD8E90323C4F83C2714BF4FF40A
:1051500080724FF40072C4F840374FF0280315BF37
:10516000C4F80022C4F800224FF48062022214BF67
:1051700003FB095303FB09539A600123236189E769
:10518000D8E90323C4F80427C4F808374FF4805340
:10519000CDE7374F7FE70B6903B9626040F2024BFE
:1051A00040F22241204617F0C3FB012310F0200FEC
:1051B00018BF636010EA0B0FF2D07DE70122226571
:1051C00000287FF479AF096931B340F2024B13EA4A
:1051D0000B0F7FF471AF40F22241204617F0A8FB7D
:1051E00081060346F3D501904FF48041204617F025
:1051F0009FFBD4F8002288B112F40071019B03D107
:105200000123236163600B46D205E0D54FF4806132
:10521000204617F08DFB04E06260D6E7012323618E
:1052200063600023D3E7282202FB09550022D4F84B
:10523000C434C4F8C43485F824200BB30D4A13F0E9
:10524000010F0D4F18BF174613F0020F02F10102B4
:1052500018BF174613F0040F084B18BF1F46BCE6D3
:105260000C8900202264F81F0B00AD0B0000AD0B71
:105270000400AD0B0000AE0B0100AD0B0200AE0B45
:105280001AF0400F7FF4A9AE4146204617F00EFBFE
:10529000044B002808BF1F469FE6034F9DE6034FBF
:1052A0009BE600BF0100AD0B0A00AD0B0300AD0B88
:1052B00001490248FFF71CBD0C89002000800C50FA
:1052C00001490248FFF714BD348900200040105006
:1052D000036803F01F025F2B02604FEA53129ABF6C
:1052E000024B53F822000020704700BF80440300A7
:1052F000F7B5064617F046FB084617F043FB01A832
:105300000196FFF7E5FF0C4640F60D01019B2B4D82
:1053100000EB8300D0F8803001942B400B43C0F8A1
:10532000803001A8FFF7D4FF019B012700EB830029
:10533000D0F880302B400B43C0F88030042017F0A9
:1053400048F9092501A80194FFF7C2FF019AC36833
:10535000D340DB0714D401A80196FFF7B9FF019BE6
:10536000013D07FA03F38360042017F032F9304659
:1053700017F008FB042017F02CF915F0FF05E1D118
:1053800001A80194FFF7A4FF0123019A93408360D1
:10539000042017F01EF9204617F0F4FA042017F045
:1053A00018F901A80194FFF793FF019AC368044814
:1053B000D34003F00103C01A03B0F0BDF0F0FCFFCE
:1053C0000100AD0B2021014826F0B0BE90890020DD
:1053D000014B186C704700BF5C89002010B5044673
:1053E000064A074917F0F6FA63692BB120B920463F
:1053F000BDE810400121184710BD00BF89C202005E
:105400007DC2020010B504460649074A17F0E2FAC9
:105410006369014623B118B92046BDE8104018471A
:1054200010BD00BF83C2020091C20200014610B548
:10543000044800F009F8044608B118F098F920462D
:1054400010BD00BF8C44030070B506460D462B4AC4
:1054500020B1036A1A4212D0C3F30F1009F066F9A3
:10546000044648B1C0E900657DBB02F023FD064655
:1054700038B9204609F06CF90024204670BD006858
:10548000E6E7D0F8B80208B9C6F8D452D6F8D41274
:105490000131890009F066F90028EAD00025D6F824
:1054A000D432C6F8B8025A1CC6F8D42240F82340B9
:1054B0002846C4E9055502F00DFD0138E061284693
:1054C00002F018FD01382062D7E7AB6813B928460F
:1054D00018F0FDF8AA68138E01331386AE68318E7A
:1054E0003068890009F03EF93060AA68138E1268AE
:1054F00003F18043013B42F82340BEE7F0FF0F0079
:1055000030B589B0002864D00023CDE904329DF87D
:105510001C30CDE9010023F0070301A803918DF8A9
:105520001C3008F0DFFA06F0EFF930B19DF81C30BE
:1055300013F0020446D1D80745D4019B9D6805B1FC
:1055400008350122284601A926F0AAFB01280446B5
:1055500039D19DF81C0010F0020033D101A918F0D8
:1055600054FD012804462ED19DF81C2012F00202A1
:1055700028D1284601A926F093FB0128044622D110
:105580009DF81C3099071DD401981AF070FD04464F
:10559000C0B19DF81C305A0714D4039B2B3B012B40
:1055A0000ED94FF48041019817F056FE50B1039B7D
:1055B000163B1E2B04D8084A22FA03F3DB0701D45A
:1055C0000194B0E7012401A808F094FA204609B03C
:1055D00030BD0124FAE700BFF19F78588268531E5E
:1055E000032B05D9192A05D8034BD340DB0701D576
:1055F00026F0F5BB0020704700DF3B0337B50B49B1
:10560000054617F02FFE044610B1002003B030BD50
:1056100028461AF02CFD0028F7D0162221461AF051
:105620009DF880B2003818BF0120EFE701000600A6
:1056300007B50022054B3421CDE900236A46FFF768
:105640005FFF009803B05DF804FB00BF010000E0BD
:10565000002307B5054A3421CDE900236A46FFF748
:105660004FFF019803B05DF804FB00BF010000E0AC
:105670002DE9F04F87B08146FFF7C0FF05460028AF
:1056800040F0188148461AF0F2FC0822294682466A
:1056900048461AF063F809220590044683462946D5
:1056A00048461AF05BF8064605900090BAF1000FE4
:1056B00007D102462146484607B0BDE8F04F19F031
:1056C000E7B8504618F0F8FE8046504618F004FF40
:1056D00004F0C043B3F1005F07461FD16FF0604391
:1056E00024F0C0449C4219D00122294650461AF0A9
:1056F00035F86FF040439842059000F094804FF0E9
:10570000640BB4F1805FA2BFC4F17F6404F57F2411
:1057100004F6FF7404FB08F494FBFBFB06F0C043A3
:10572000B3F1005F1DD16FF0604326F0C0449C428E
:1057300017D00222002150461AF010F86FF04043B3
:105740009842059071D0B4F1805F05DBC4F17F64AD
:1057500004F57F2404F6FF7464237C4394FBF3F385
:1057600000936A220021484619F0F8FF6B220021BD
:10577000059003900646484619F0F0FF09F114041D
:10578000CDE901000590204625F0F9FF05462046A9
:1057900025F0FAFFDDE90112039B044603F0C04047
:1057A000B0F1005F12D16FF0604023F0C04383423C
:1057B0000CD06426B3F1805FA2BFC3F17F6303F511
:1057C0007F2303F6FF736B4393FBF6F602F0C043AF
:1057D000B3F1005F12D16FF0604322F0C0429A42F1
:1057E0000CD06423B2F1805FA2BFC2F17F6202F5E8
:1057F0007F2202F6FF72624392FBF3F15E44DDF812
:1058000000B00A2248468B44002119F0A7FF0590FA
:1058100010F0FF000BD1504618F059FC012825D19B
:10582000A8EB050521E0AB4678E7002494E70238B1
:1058300007281BD801A353F820F000BF5D580000D3
:105840002158000083580000735800008958000058
:10585000955800008F580000A558000005EBD5753D
:1058600008EBD8786D10C5EB68052E445A463146D2
:1058700021E705EBD57508EBD8786D10C5EB680509
:105880002E443C1BA344F1E7A8EB0505F8E7A8EB81
:1058900005052E4404EBD47407EBD7776410C4EBF2
:1058A0006704EFE705EBD57508EBD8786D10C5EB0D
:1058B0006805EEE707B0BDE8F08F00BF2DE9F04FB7
:1058C00090F82B30044603F00C030C2B91B003D15D
:1058D000002011B0BDE8F08F1AF0C9FB0646002881
:1058E000F6D094F82B1004F1140311F00801019381
:1058F00063D0184625F043FF94F82B10074611F0AB
:10590000040100F0AF81019825F03EFF05460198A3
:1059100025F035FF874200F08A82204618F0A1FF6B
:10592000636930460893A3690CA90993E3690A9354
:10593000236A0B9318F0E0FD00220CA908A825F0BB
:105940008FFC804610B9304619F085FDA3692046CA
:105950001D44013D256218F0BAFB01280BBFE36925
:105960006369DB1BFF180BBF013307F1FF3763616E
:10597000E761312108AA2046FFF7C2FD22462A210D
:105980003046FFF7BDFD204618F06BFF94F82A3033
:10599000002243F00203019884F82A300CA925F074
:1059A0005FFCB8F1000F00D110B1304619F053FD83
:1059B000204618F002FB01208BE70122204619F057
:1059C000CDFE00F0C043B3F1005F804605460C9069
:1059D000304605D16FF0604328F0C0479F4234D174
:1059E00018F06AFD6FF040439845029040F0A480A3
:1059F000204619F03DF9A36803900BB100221A620A
:105A0000204618F055FC8046204618F069FB824677
:105A10002046FFF70DFE0AEB000520461AF05DFB5D
:105A20000490204618F053FB01284FF0000BDFF8DC
:105A30002C92454475D0049AA3685A4540F0A08042
:105A4000864A914574D0C8448EE06FF0404818F003
:105A500033FD45450290CBD096F82B1011F008018C
:105A600040F0DD800122304619F078FE40450C9070
:105A700040F0D580204618F033FB0546204618F04C
:105A800017FC054458E01B68754953F82B703846DD
:105A900017F0E8FB002842D13846FFF7AFFD01467A
:105AA00060B90A22384619F059FE0C90C0B2082895
:105AB00009D840F24913C340DA0704D5E3697A698B
:105AC0009B1A013317E008220021384619F046FEE0
:105AD0000C90002844D1069007F1140025F04FFEE9
:105AE0001A2208EB000306993846059319F036FE92
:105AF000059B0C9003441A2200213846059319F0A7
:105B00002DFE059B0C901844484508DB1A22002105
:105B1000384619F023FE059B0C9003EB00090BF1AE
:105B2000010B049AA3685A45ADD14C4A914519D14D
:105B300013B1039A52421A6204220021204619F03E
:105B40000DFE052207460C900021204619F006FEA6
:105B5000394602460C90029B284618F046FFCBE6D9
:105B60003E4BC8E70AEB0908A26812B1039B5B42EF
:105B700013623A4B9845DFD04545B8BF4546DBE751
:105B80001B68374953F82B70384617F06BFB002819
:105B900040D13846FFF732FD014658B90A2238464F
:105BA00019F0DCFD0C90C0B2072808D89323C3403D
:105BB000DB0704D5FB6962699B1A013316E00822F2
:105BC0000021384619F0CAFD0C9030BB069007F151
:105BD000140025F0D4FD1B220AEB00030699384679
:105BE000059319F0BBFD059B0C9003441B2200217B
:105BF0003846059319F0B2FD059B0C9018444845B2
:105C000008DB1B220021384619F0A8FD059B0C90EB
:105C100003EB00090BF1010B0DE7104BE6E7B7F1C1
:105C2000805FA4BFC7F17F6707F57F27029BA8BFEE
:105C300007F6FF775F4364231A220021204697FB73
:105C4000F3F719F08BFD1B2205460C90002120462E
:105C500019F084FD0C9028443D1A6DE7010000E026
:105C6000010004000222204619F078FD00F0C04334
:105C7000B3F1005F814605460C90304605D16FF0C8
:105C8000604329F0C048984549D118F025FC6FF0D1
:105C90004043994582462ED1204618F0EEFFA36876
:105CA00004900BB100225A62204618F0E7FA0290E5
:105CB000204618F0C9FA03902046FFF7C9FC029B62
:105CC0004FF0000B1D18039B20461D441AF005FAE7
:105CD000DFF868910590059AA3685A453BD113B146
:105CE000049A52425A62554B994504D0039B4B4447
:105CF0009D42B8BF1D4606220021204619F02EFD08
:105D0000072280460C900021204619F027FD5346BB
:105D100002460C904146284618F067FEF6E56FF003
:105D2000404918F0D9FB4D458246B5D096F82B1066
:105D300011F004015CD10222304619F00FFD4845F4
:105D40000C9055D1204618F099FA0546204618F0D7
:105D50007BFA0544CFE71B68394953F82B8040464E
:105D600017F080FA00283ED14046FFF747FC014675
:105D700048B906900A22404619F0F0FC0C90C0B2D7
:105D80000328069905D8D8F82030A2699B1A013358
:105D900015E00922404619F0E1FC0C9030BB079059
:105DA00008F1140025F0F0FC029B18220344079927
:105DB0004046069319F0D2FC069B0C90034419222E
:105DC00000214046069319F0C9FC069B0C9018442C
:105DD000484508DB19220021404619F0BFFC069B0C
:105DE0000C9003EB00090BF1010B74E7134BE6E792
:105DF0006422B8F1805FA2BFC8F17F6808F57F28F0
:105E000008F6FF780AFB08F3002193FBF2F820461E
:105E1000182219F0A3FC192205460C9000212046F7
:105E200019F09CFC0C902844A8EB000563E701984E
:105E300025F0AAFC85427FF470AD49E5010000E041
:105E40000100040038B50D4D95F8603063B90123A9
:105E500085F860301AF003F9044694F82A3013F0FC
:105E6000040202D185F8602038BD6FF3820320461A
:105E700084F82A3018F0F3FDEFE700BF5C890020BA
:105E80002DE9F04F0E4685B0074693469846DDF85B
:105E90003890FFF7D7FF1EB938461AF0E8F80646E3
:105EA00038461AF0E4F8824618F01AF90190504684
:105EB00018F0E4F90290304618F012F90546304621
:105EC00018F0DCF90446BBF1000F10D1304618F091
