:020000040017E3
:1094000097410000938181C2EF206010B3020000F9
:109410009382320073905230970200009382820E42
:1094200073907230A1AB000000000000000000004B
:10943000000000000000000000000000000000002C
:10944000000000000000000000000000000000001C
:10945000000000000000000000000000000000000C
:1094600000000000000000000000000000000000FC
:1094700000000000000000000000000000000000EC
:1094800000000000000000000000000000000000DC
:1094900000000000000000000000000000000000CC
:1094A00000000000000000000000000000000000BC
:1094B00000000000000000000000000000000000AC
:1094C000000000000000000000000000000000009C
:1094D000000000000000000000000000000000008C
:1094E000000000000000000000000000000000007C
:1094F000000000000000000000000000000000006C
:10950000EAE10320EAE10320EAE10320EAE10320A3
:10951000EAE10320EAE10320EAE10320EAE1032093
:10952000EAE10320EAE10320EAE10320EAE1032083
:10953000EAE10320EAE10320EAE10320EAE1032073
:10954000EAE10320EAE10320EAE10320EAE1032063
:10955000EAE10320EAE10320EAE10320EAE1032053
:10956000EAE10320EAE10320EAE10320EAE1032043
:10957000EAE10320EAE10320EAE10320EAE1032033
:109580005EE403203ED103207CD10320EAE10320E6
:10959000EAE10320EAE10320EAE10320EAE1032013
:1095A000EAE10320EAE10320EAE10320EAE1032003
:1095B000EAE10320EAE10320EAE10320EAE10320F3
:1095C000EAE10320EAE10320EAE10320EAE10320E3
:04997C0021200000A6
:029980008280E3
:10998400732540F181426303550019A81721000093
:10999400130101268562938202801691EF109005CF
:1099A40009A073005010F5BF000082805C41411192
:1099B40022C626C432C0A5CB130700023347B70220
:1099C400B70304201386838283442600834716004A
:1099D4002301B6000346360037033000A2075206BF
:1099E4003376660093F70770D18F7D631396C500B5
:1099F40033766600D18F7D171377F70F2384E382C4
:109A04001377F703D98F7390B7BC37071F00939769
:109A14000501F98F93E747003EC201439382838295
:109A24005C416366F3003244A244410182805C419C
:109A34000547B3876740638EE70009476383E70AF6
:109A44001841814731C71C4113172300BA979C431F
:109A540081A003C6120083C722007D642206B207D8
:109A6400E18F137606705D8E0347850083C732004D
:109A7400370430007D17D2071377F70FE18F238463
:109A8400E382D18F1377F703D98F7390B7BC5C450A
:109A9400638B95007327E0BC1377F70F65FF1247BC
:109AA400731037BEAE84034705011376F70F2DCB31
:109AB40005476314E600739097BC63120302824760
:109AC40083C7070089EFB68791E28547939607011C
:109AD400C1827390567D824705472380E7000503C2
:109AE40081B703C6120083C722007D642206B20731
:109AF400E18F137606705D8E0347950083C73200AD
:109B0400370430007D17D2071377F70FE18F2384D2
:109B1400E382D18F1377F703D98F7390B7BC0DB756
:109B2400739087BC59BF411122C406C626C22A8439
:109B3400A30101008357A505739017BC81475146C3
:109B440091463387C702229758432DEF8507E39A3E
:109B5400D7FE8D470547638AE7060D47638AE70604
:109B6400814689E78346040593F6F60F37070420F8
:109B74002305D7827350017D03574405420741836F
:109B84007326307DC1756D8E518F7310377D735080
:109B940030BC37061F0013970601718F1367470007
:109BA400731037BE5147B387E7020546A297D843DF
:109BB4006303C7020946630CC70C93070002B3C7CB
:109BC400D70221A893F7F70F71B78346140569BF2D
:109BD4008346340551BF83C787007390E7BC83472E
:109BE400840503476405DDE78547B397E700C207AB
:109BF400C18373B007BCF32400BC834504058356BA
:109C040044051306310022855533834514058356D4
:109C140044051306310013054401493B83452405DB
:109C240083564405130631001305840241338345EA
:109C3400340583564405130631001305C403BD33AC
:109C44008347E405A5E3856785077390B7BC3707A9
:109C54000200939714007917F98F739047BC7350DF
:109C6400007D7350507D8347740589EF83478405D5
:109C740003476405BDE38547B397E700C207C18383
:109C840073A007BCB240224492444101828083C73E
:109C94009700A1B78547B397E700C207C18373A0B4
:109CA40007BC91BFF327E0BC93F7F70FE5FF7350B0
:109CB400007D856785077390B7BC0347E405854736
:109CC4006315F70073F000BC69BF0347E4058D47D3
:109CD400E319F7F873E000BC69B78547B397E70069
:109CE400C207C18373B007BC71BF1301C1FD22CE8B
:109CF40026CC06D083473505930400022A84B3C4D6
:109D0400F402834735058346350538410343750519
:109D14004C5D0345E5050D4693F7F70F93F6F60FF3
:109D24001373F30FFD1493F4F40F6319C500034682
:109D340044047D161376F60F2302C40403468405F7
:109D440003456405631B061805463316A600420640
:109D54004182733006BC732600BC484032C009E51A
:109D6400084C19E1485415C1232004040545A30BEC
:109D7400A40422852ECA1AC83AC636C43EC2653324
:109D8400D24542433247A246924738C0A30B6404EB
:109D9400034334050545631AA3140355A40542057A
:109DA40041816D9942054181231DA4040355A405F5
:109DB400731015BC735031BC37051F00C206E98E01
:109DC40013E54600731035BE73D0E0BC7350017DBB
:109DD4007350117D03554405420541817323307D41
:109DE400C17233735300336565007310357D0355B9
:109DF4004405420541817323307D06054203050570
:109E0400135303014205336565007310357D7D6589
:109E1400B207E98F3703200013F5F4035D8D1303B4
:109E24000340336565007310B5BC735090BC0545A1
:109E34006314A70C8342440409456397A220035783
:109E44004405C1654D8F7310277DF325507D73271D
:109E5400507DC2054207C1814183E398E5FE024774
:109E640013168701731096BC739036BE834634056F
:109E74002147639FE6067327A0BC418338C473500F
:109E8400007D7350107D93F4F403DD8C7390B4BCA7
:109E94008347740591EF8347840503476405639EF4
:109EA40007248547B397E700C207C18373A007BCA3
:109EB400034734058547631CF7008357A40593E7DC
:109EC4004700231DF4048357A405739017BC8250E4
:109ED4007244E24413014102828005463316A6000F
:109EE40042064182732006BCBDB50355C405C9B5FD
:109EF4007327A0BC618359B709456318A7160345A6
:109F0400540475151375F5035D8D33656500731081
:109F1400B5BC83444404035544054163FD1493F4E0
:109F2400F40F336565007310257D7325A0BC3703DA
:109F3400200013F5F4035D8D1303034033656500BE
:109F44007310B5BC7D5679178942930300026316DA
:109F5400C714F325507D7327507DC2054207C18184
:109F64004183E398E5FE024713168701731096BCFC
:109F7400739036BE8346E4050D476392E616F326D6
:109F8400A0BC735030BC0356440513073002637CF5
:109F9400C7007350007D035744051307D7FD4207DC
:109FA40041837310577D41677D17732620BC420699
:109FB4004182E30CE6FE0356440513073002637442
:109FC400C7007350A07D732620BC4206418273E013
:109FD40000BC8345340511476380E5100943914271
:109FE4009395860113D786014D8FC16513D58600DD
:109FF400938505F06D8D83433405498FA20637059B
:10A00400FF00E98E558F3376560083464404335659
:10A01400664033177700518F034634058506B386AF
:10A02400C60213060002B306D6403317D700131630
:10A03400870193568701D18E135687006D8E2207B0
:10A04400D18E698F558F1DBD034544047515137555
:10A05400F5035D8D336565007310B5BC0145094397
:10A0640063166502834454047DB5834234051305A5
:10A0740000023345550275151375F5035D8D33657F
:10A0840065007310B5BC1305F7FFD1BF0345340554
:10A0940093040002B3C4A402BDBD05456309A7002F
:10A0A4006309570283443405B3C4930219A083445B
:10A0B4004404FD1493F4F40F7325A0BC88C113F574
:10A0C400F4035D8D336565007310B5BC91057D1790
:10A0D400BDBD83445404F1BF0543F94211B773274E
:10A0E400A0BC03464404834634053306D6029306D3
:10A0F4000002918E3357D70051B38547B397E700D9
:10A10400C207C18373B007BC65B3411106C616C448
:10A114001AC21EC0F322203473231034F3233034C4
:10A1240016859A851E868A86EF00607EB240A2421A
:10A1340012438243410173002030130181FD2ACA76
:10A1440037F50320130585AC06D216D01ACE1ECCE3
:10A154002EC832C636C43AC23EC0413E92508252E4
:10A164007243E2435245C2453246A24612478247F1
:10A174001301810273002030130181FD2ACA37F5CF
:10A184000320130585AC06D216D01ACE1ECC2EC8D9
:10A1940032C636C43AC23EC07932925082527243B9
:10A1A400E2435245C2453246A24612478247130152
:10A1B4008102730020300DCE9377F6017D1615824F
:10A1C400050650C19DE71C4181CB1C4158410A073B
:10A1D400BA9783A7C7FF5CC5130700029307000261
:10A1E400B3C7B7023347B7022304F500A304E5005D
:10A1F400828033C7B7028546631CD7025441637912
:10A20400D70218410DC3184103234500144150419E
:10A214000A031A970A06B29683A6C6FF0347B7FF36
:10A22400A206558F58C5A10793F7F70F61474DBF95
:10A23400184111E7232605001307000255B71841FA
:10A2440054418A0636970327C7FF58C5F5B701114D
:10A2540026CAAA84370504208327C58206CE22CCC9
:10A2640003C7070090402EC41377F70F3AC09946EE
:10A27400631BD626F327C07CC58B93E70710739026
:10A28400C77C8327C58283D6670002479947B7F303
:10A294000320B307F702138683B28542C206C18244
:10A2A40036C63E9683554600B7F70320138487AC21
:10A2B400C205C181231AB40403432600B7F5032061
:10A2C4009385058B9A9583C505000323C58293F571
:10A2D400F50F230BB404834533001AC293F5F50F2D
:10A2E400A30BB4048345160093F5F50F230FB404B0
:10A2F4008345360093F5F50F230CB404834506001B
:10A3040037E603201306867A8A052E96104230C853
:10A3140083451300C8401146B305B6408E05B315F6
:10A32400B500CCC083452300138587AC0D8E8C44C7
:10A334000E063396C50090C42308540013864400C7
:10A3440010C02322040083450405034613000E06AF
:10A354009D3585422302540212431386840050C85B
:10A36400232C0400834514050346230037F50320FA
:10A374001305C5AD0E0681358542230C54021243E4
:10A38400232404022326040203462300D145B246B3
:10A394003336C0003306B602B7F30320938783B283
:10A3A4001305F0033EC2B305C40003C68500369608
:10A3B400634EC51203C68500B29693F6F60F238446
:10A3C400D50023060404232004049040994637F55D
:10A3D40003206319D612232E0402D0448345340586
:10A3E400130545B00E06C13BA2475CDC8247994683
:10A3F400B386D7029247BE9603C6160089466318F1
:10A40400D60294400D465143E91693B61600158EB4
:10A414001145B3056602A29583A24500638E020E20
:10A4240083C68500850693F6F60F2384D5008247FC
:10A4340099461247B387D702BA9703C617000F008D
:10A44400F00F98406311D70EB71600F0F842136767
:10A454001700F8C2545C2C443040034754040345AD
:10A4640034052EC83307A702034544048347340543
:10A474003305F50293070002B382E7406386E702DF
:10A48400854763F3C70293172600E117B69703A322
:10A494000700B393E500B3D555003353530033633A
:10A4A400730023A067002EC82A971307F7FD0A0636
:10A4B4000D839305C6FF0507814701463385C60012
:10A4C4000008110622960346C6FF2E958507230031
:10A4D400C50093F7F70F3E86E3E2E7FEF2406244DD
:10A4E400D2440561828083D6470045B38345240561
:10A4F4000346240537F50320130505AF3306D602BA
:10A504005D39C1B59448130545B054DCD044834546
:10A5140034050E064D31D9BD850693F6F60F7D162A
:10A52400E399A6EE29B7371700F03C4793E71700E5
:10A534003CC76DB7311106C822C626C40441114771
:10A5440003C404009307E4FF93F7F70F6368F73A33
:10A5540037E703208A0713078777BA979C438287D4
:10A56400B7F60320A38B068AB7F70320B7F20320BC
:10A57400238B028A138787AC231D0704B7F50320B6
:10A58400231E07047D561387858A2300C700A30072
:10A59400C7002301C700A301C7002302C700A30209
:10A5A400C7002303C700A303C7001386858A32C2EA
:10A5B40037E603201306467C37F5032001479387CB
:10A5C40087AC32C01305058B03C644006367C70418
:10A5D40083D7A705739017BCB7F70320938787B277
:10A5E4007D572381E7002384E7002387E700238A3C
:10A5F400E700238DE700B7F503209387C58B2380FD
:10A6040087003244C240A24437F5032011469385A3
:10A61400C58B1305858951012DA113162700269694
:10A6240010461303F01F9375F61F638965063DC634
:10A63400135386019305E3FB91437D8A63E4B306D8
:10A64400024383C5768B1A9603460600AA95238097
:10A65400C50003D6A70583C5768BAA9503C3050059
:10A664008545339365003366660042064182239D27
:10A67400C70403D6C70503C3768B2A930343030099
:10A68400B39565004D8E42064182239EC70403C6DE
:10A69400768B05061376F60FA38BC68A0507137708
:10A6A400F70F1DB7930563FC9D4363ECB3040243AA
:10A6B4001A961243034606009A952380C50003D3D5
:10A6C400A70583C305000546B313760033637300FF
:10A6D400420313530301239D670403D3C70583C5B2
:10A6E40005003316B6001346F6FF3373C300239EEA
:10A6F400670403C6628B05061376F60F238BC28AA2
:10A7040071BF93059003E31BB3F8B7E5032093856A
:10A71400457CB29503C6050037F303208545A30A9B
:10A72400C38A03D6A7058343538BB393750033665B
:10A73400760042064182239DC70403D6C70503431E
:10A74400538BB39565004D8E42064182239EC70408
:10A75400B1B703C54400994637F703203305D50242
:10A76400130787B21946938564003A95EF00107376
:10A7740083C74400994637F70320B387D7021307EA
:10A7840087B23E978346370003472700B7F7032075
:10A794009387078BBA9703C707008547B397E700EA
:10A7A400C207C183B1E673A007BCB7F70320938740
:10A7B400878A03C7640083C6270015EF1307F00FC9
:10A7C400E38BE6E283C63700E387E6E283C627002D
:10A7D40005474166B316D7007D16F18E73A006BCFB
:10A7E40083C737003317F700718F732007BC21B577
:10A7F40073B007BC5DBF05474166B316D7007D162D
:10A80400F18E73B006BC83C737003317F700718F1E
:10A81400733007BCCDB303C7440099459387440004
:10A824003307B70237060420B7F603202326F6823F
:10A83400938786B2BA9783C7170093F7F70F7327E6
:10A8440000BC894542074183938686B26387B70675
:10A8540063E6F504B7F50320B9E703C5558B8545D1
:10A86400B395A50093C5F5FF6D8F731007BC93E7EF
:10A8740007017390C77C8327C682194783C70700E3
:10A88400B387E7020547BE9683D74600E365F7D64C
:10A89400B70705509387074098DBB1BB8D45638AA2
:10A8A400B7028147D9B783C5558B8547B397B7009E
:10A8B40093C7F7FF7D8F85474DBFB7F7032083C547
:10A8C400578B8547B397B700D98F139707014183F7
:10A8D400DDB7B7F7032083C5578B8547B397B70018
:10A8E400D98F1397070141836DBF81452685853232
:10A8F40019B3DC44E38107D08C48CDBF2144E5B9CA
:10A9040037F503208545130545896F00704F4111C4
:10A914009D47A301F100B7C7032006C69387073EEE
:10A9240088C3CCC390C737F50320D4C70546930525
:10A93400310013058589312201A0B7D703209387FD
:10A94400E710739057308280411106C622C4F53750
:10A95400856702C09387F776024763F8E70837E410
:10A964000320130504735D2063560500930780F8E4
:10A974006311F50837E60320B7F503201306C678FC
:10A98400938585891305047371286344050637F498
:10A994000320F95513054489EF00F047058975D95B
:10A9A400014689454545852045458520371400F0F5
:10A9B4007C400146894593E707107CC04945A120A6
:10A9C4004945A1203C4493E707103CC4F327007C8D
:10A9D400370783AF7917F98F37077D500507D98F6C
:10A9E4007390077CEF00C07BF5BF024705073AC0B0
:10A9F400A5B7B240224401454101828082806F00A4
:10AA040030176F0010186F00F018828011C51C45B4
:10AA140091C79C4391C78287295582806D55828056
:10AA24000145828019C991C909CA184509CB5447FF
:10AA340099C688C15C4791058287295582806D55E6
:10AA44008280AA87B28611C9084111C9184511CB61
:10AA5400184701CB2E86CC4302872955828079552D
:10AA640082806D558280014582800C4948418DA6C3
:10AA7400AA879C4B484123A00500144EBE8521069D
:10AA8400B9AC0C49484145AE6F005036AA87CC4357
:10AA940008411C459C4399C301468287130580FAEB
:10AAA4008280511122C206C42A8408418129634F3D
:10AAB40005000840B7F50320354693854586692986
:10AAC40063460500B14763C7A7002955A240124455
:10AAD400310182800145DDBF130181CE93078501D9
:10AAE400232881302A843E85232A1130232691305D
:10AAF4003EC0EF00702F8D46630ED508AA8463C351
:10AB0400A60285466305D50289466302D50E8144B3
:10AB1400832041310324013126858324C13013016C
:10AB2400813182809306B5FF0546E362D6FE484034
:10AB340001468145A12B9307F5FF3EC09306F02FF4
:10AB440063E8F61248406C001306003081239946EE
:10AB5400AA856383D4128546639AD4143147E37873
:10AB6400A7FA37F5032035466C0013054586EF0038
:10AB7400903051FD1844184319C348440297954531
:10AB84001305840111374840014681450123B3343C
:10AB9400A00099A848401306A1006C00492921E9A6
:10ABA4008356A10035476394E6043245B7F5032084
:10ABB400354693854586EF00102C15E92285D53559
:10ABC400635F05001844584719C74C4437F5032000
:10ABD400130585840297814502457D350DBF854562
:10ABE400130584015535854408484D3515B708408B
:10ABF4009D2B03574401131605014182AA849356E1
:10AC040005016300C70631CE084036C2C52C924602
:10AC1400635D05001844584719C74C4437F50320B1
:10AC2400130585840297914545BF835564014840C7
:10AC3400231A9400C204C58D36C0252B0357640122
:10AC440082468144E392E6FA0357440151DF994571
:10AC540013058401153D1844184351D748440297FD
:10AC640059B703566401E394C6EAE30207EAC5B799
:10AC74009946E39ED4E8814508402EC2ED2103574E
:10AC84004401420541819245630DA7009145130596
:10AC94008401DD3B18445843E30B07E6484402971C
:10ACA400BDB582471307F02FE363F7E6184418474E
:10ACB40001EB484001468145D12EB334A00089BD43
:10ACC400504468000297F5B7511122C206C4328479
:10ACD4002285193575FDA24012443101828011117B
:10ACE40022CA26C806CC2E84834505019307840115
:10ACF4003EC232C436C68547AA84639FF50605461C
:10AD0400814513058401EF00900C02C0930780F87D
:10AD140031CDA247484004C81CC4B2475CC4212CAE
:10AD2400AA876347050603C704018547630DF70433
:10AD3400084015299357050108403EC42D21A24718
:10AD440093150501C181231A04008505C205C1813B
:10AD5400E38DF5FEFDD94840231BB4001929824731
:10AD640095CF26852533AA8763440502E2405244E1
:10AD7400C2443E8571018280130584013133937787
:10AD8400F50F3EC079B72285293BAA87E35905FC14
:10AD9400124581453EC0CD398247C9BF8844CC4461
:10ADA4001C45DC4381E7930780FADDB737E60320CF
:10ADB400A2861306C6CC8297AA8779F98844CC4424
:10ADC4001C459C4BEDD305468297AA8759D9C9B730
:10ADD400511122C226C006C40347050185472A84AF
:10ADE400AE846305F700C840814561262285793920
:10ADF40081451385840149399377F50F014581CB4A
:10AE040008444C441C459C4B81EB130580FAA2403A
:10AE14001244824431018280014682976DF90844CC
:10AE24004C441C45DC43F5D31244A2408244814681
:10AE340001463101828731112AC01385850122C65A
:10AE440026C432C2AE8406C83684EF00E0791146C7
:10AE54009245634CA6002A8741556313C700228597
:10AE6400C2403244A24451018280130530FC6DD8A3
:10AE74008840131604014182C520AA846354050046
:10AE84002685F9BF130530FBE3EC84FC0245FD3E47
:10AE940065D9F9B7AA872DC11841295539CF9447E7
:10AEA400A9CE03A34701630A0304D0479145637302
:10AEB400B6001146B375C7022955A1E1B3F5C60220
:10AEC4008DEDCC43B362B30093F232006397020278
:10AED4009C4BAD4263F3F2028D8B85E3637FD70015
:10AEE40089C5637CB70063FAD500295563F766000A
:10AEF400329701456383E60029558280511122C2AD
:10AF040006C426C004412A84268569371DE123220C
:10AF14000400232404009C44584098C31C40184453
:10AF24009C4398C30F00F00FA240124482443101A5
:10AF340082802955D5BF511122C206C42A840841F2
:10AF4400913F09E92322040023240400A24012446F
:10AF5400310182802955DDBF09E9295582802955AF
:10AF6400F2406244D24405618280011122CC06CEB3
:10AF740026CA32846DD6E5D52A870F00F00F1C410E
:10AF840003A34701944B9C43904344419377360079
:10AF9400F9F7B387C44063F5C400B3879600918F73
:10AFA4001386C6FF1D8E930744005155E36AF6FAD3
:10AFB400B307930023A00700135684002380C7001F
:10AFC400A38087000F00F00F910463E4D400B3F46E
:10AFD400D402B38796406373F400A2873E86330598
:10AFE40093003AC836C63EC42EC21AC0452DA247A5
:10AFF40002439245B246424763FB87003306F4405E
:10B00400BE951A853AC236C0512D1247824693071F
:10B014003400A697F19B63E4D700B3F7D7025CC36F
:10B02400184318471CC30F00F00F228515BF19E100
:10B03400295582801C45EDFF0F00F00F1C419847F5
:10B044009C4B1443E3F6F6FEC1671387F6FFF9172A
:10B05400E3E0E7FE0F00F00F1C41C84B83471500E7
:10B0640003470500A207D98F13978700A183D98FBF
:10B07400C207C18313874700E3ECE6FA110588C1D0
:10B084002310F6000F00F00F0145828019E12955C5
:10B094008280211126C606CA22C8AA842E830F00E4
:10B0A400F00F1C41CC4B944B9C4783A207001C45DA
:10B0B400295513F732000DE701456383F202338704
:10B0C400F50003450700034717002207498F1314AF
:10B0D40087002183598C4204418063180300228530
:10B0E400D2404244B244610182805155E36A86FEF3
:10B0F4003387F24063F5F2003387F6401697130660
:10B1040044005555E36EC7FC138747006364D700BA
:10B114003377D702B387E6406373F400A28736C45B
:10B124003E86BA951A853EC23AC08D2B9247024795
:10B13400A24663FB870036C28C403306F4403E953A
:10B14400CC49A92B9246024793073400BA97F19B46
:10B1540063E4D700B3F7D70298409CC418431CC3D8
:10B164000F00F00FADBF1C41DC430F00F00F88430C
:10B1740082801C41DC438CC30F00F00F82808280EC
:10B18400828005AB37F50320B7F703201306458902
:10B19400938747BE3386C740814513054589D5B794
:10B1A400511106C4E93F73005010D93FA14773A061
:10B1B4000730A240310182801305050482805111B9
:10B1C40022C226C02E8406C4AA84B285F327203462
:10B1D400F327303422859122A2852685352E5111FC
:10B1E400014606C4E93F511106C4F32720348145C2
:10B1F4000545F537511106C471374D2EB7F70320B5
:10B2040037F70320938747BC1307073F23880700BA
:10B21400D8C3A14773A00730B7F703209387077FEC
:10B224003E81E7000500F377043001A01C41850747
:10B234001CC105458280130181FD06D222D026CE91
:10B244002AC22EC432C636C03AC8A9C23685AD3722
:10B254000247AA87585FBE84014401430246B245AF
:10B26400C2473ACC1ACA268582973DC552436247E3
:10B2740063749306B7D7032013864798637BC7028A
:10B284009848138644002683B284C9BF3E8789CB7D
:10B29400B7F70320938747BC9C47D1076318F7008F
:10B2A40037E703208A871307A72375B71C4358433E
:10B2B4005DB737E603201306666CE373C7FC2245CB
:10B2C40092472686BA85829701C90504A145984804
:10B2D40013864400E319B4FA92500254F244130161
:10B2E40081028280937735002A8795E799C5B7F75D
:10B2F400032083A747BC014585C3B7F70320938781
:10B3040007BF0145636AF700856693860680B69792
:10B314003335F700828001458280411137F60320DE
:10B3240006C6130646BC1046AA8637E7032037E54F
:10B334000320AE871307872E8A851305052302C0D1
:10B34400DD3DB240410182803727A10723A4E1807B
:10B3540001458280F327007C370783AF7917F98F83
:10B3640037077D500507D98F7390077C014582808C
:10B37400B71700F00A053E951C4193E707101CC15E
:10B384008280B71700F00A053E951C4193F7F7EF4A
:10B394001CC182808D47014763E7B7009A059385F6
:10B3A400F50313F7F50FB71700F00A053E951C4196
:10B3B4006207A207A183D98F1CC1828005458280C0
:10B3C400938705FF414793F7F70F2955639FE500DE
:10B3D4009395270037F703209107130787B48A074B
:10B3E400BA953E9790C154C701458280C1472955FB
:10B3F4006393F504511137F7032006C4130787B488
:10B404001C5F130580F893D60701858A01CE81EA73
:10B41400C166D58F41451CDFEFF06FDE0145A240C8
:10B4240031018280EDDEC176FD16F58F41451CDFCA
:10B43400EFF02FDDE5B78280511106C4FD5773B0DC
:10B44400077E014685454145EFF0EFDB4145EFF0CE
:10B45400CFDBA240014531018280130141FD22CCA2
:10B4640037F403203AC206D416D21AD01ECE2ACA02
:10B474002EC832C636C43EC0130744BC1C438507DD
:10B484001CC3C16773B0077EB7F70320938787B4E3
:10B494009843130444BC09CBD04F37E503208146BD
:10B4A400C1451305056F0297732520345205518158
:10B4B400EFE0CFCC1C40FD171CC06244A250925256
:10B4C4000253F2435245C2453246A24612478247CE
:10B4D4001301C1027300203001458280054582803A
:10B4E400D14729556392F502130560F811EEB707A9
:10B4F400100073A0277E37071000F327207EF98FF2
:10B50400EDDF7350207E014582808280F377043022
:10B5140001A0511106C4DD3F511106C422C2737447
:10B524000430C53F218873200430A2401244310105
:10B53400828013172500B7F7032005059387C78773
:10B544000A0551113E97AA9722C226C0004384439C
:10B5540006C463679400A24012448244310182808D
:10B56400484001C98347C501858B91E3C920210463
:10B57400CDB71C408297E5BF5111B7F703200547AB
:10B584000D4506C4238CE78A6D374D201145553788
:10B59400EFF08FBBB7F70320938747B803C7C70003
:10B5A400799B2386E700A240310182805111014535
:10B5B40006C4413701420545AD3F09459D3F37E586
:10B5C40003208146014681451305C5570539F377A4
:10B5D400043018416318B70010C10545A18B73A04E
:10B5E400073082800145DDBF08418280AA877377D6
:10B5F400043008418CC39377870073A0073082809E
:10B60400AA87737704300841C98D8CC39377870068
:10B6140073A007308280AA87737704300841E98DCC
:10B624008CC39377870073A0073082808280511186
:10B6340022C206C45C492A8499EF01455844330563
:10B64400A0408347170093E71700A300F700A24028
:10B6540012443101828082976DD19357F5413D8D1B
:10B664001D8D9307F00F63D4A7001305F00F5C44FE
:10B674002380A700E1B701476314E60001458280F7
:10B68400B307E5000507B386E50083C7070083C653
:10B69400F6FFE383D7FE3385D74082802A8309CA25
:10B6A40083830500230073007D16050385056DFA69
:10B6B40082802A8311C62300B3007D16050365FE2C
:02B6C400828082
:10B6C8004CE303200000000058E3032000000000C2
:10B6D80000000000F0E603200000000010E703204F
:08B6E8000000000030E7032020
:10B6F00074E803200000000064E7032036F803200C
:10B70000000000003CE403200000000000000000F6
:10B7100074E803200000000050E7032038F80320FD
:10B720000000000000000000000000000000000019
:10B73000D0E7032008E803201CE8032034F80320A6
:10B74000F0F703206ADA0320000000000000000088
:10B75000E4E4032000000000DCE40320E0E4032034
:10B760000000000000000000C4E30320000000000F
:08B77000C0E30320F0E3032015
:10B7780064D5032056D703201AD80320EED8032017
:10B78800F6D80320000000000000000004D90320C0
:10B798000000000038D50320000000000000000071
:10B7A8000101010102020202010101020102020279
:10B7B8000404040401010104010404040400010355
:10B7C8000205060708090A006970633000000000D6
:10B7D800F0BB032000000000F4BB032000000000C1
:10B7E800E8070000F8BB032000B4032000000000B5
:10B7F80004B4032000000000E807000008B4032098
:10B8080010E7032014000000F0E6032010000000F9
:10B8180001000000000000000000000086DA03209C
:10B8280074DA03206EDA0320000000000000000034
:10B838000000000000000000000000000000000000
:10B84800496E636F727265637420547820636F6EFB
:10B8580066696775726174696F6E0000456D316C59
:10B86800314B30726E336C69340000006D61696C65
:10B87800626F7800C8E60320C8E60320D8E60320F4
:0CB88800D8E60320F0E60320F0E60320E1
:10C7F00018F803200CF803200000000000000000DF
:10C80000000000000000000000000000D8E7032046
:10C810000000000000000000F0E70320000000001E
:10C8200000000000000000001F040100A0E8032039
:04C830000090D003A1
:08C834000000000000000000FC
:040000052003C40010
:00000001FF
