:020000040000FA
:10000000A02E0020B56000002BDD0000A1600000E4
:10001000A1600000A1600000A1600000A1600000DC
:100020000000000000000000000000000D62000061
:10003000A160000000000000B1610000A1600000AC
:1000400099630000996300009963000099630000C0
:1000500099630000996300009963000099630000B0
:1000600099630000996300009963000099630000A0
:100070009963000099630000996300009963000090
:1004800081F0004102E000BF83F0004330B54FEA45
:1004900041044FEA430594EA050F08BF90EA020FB2
:1004A0001FBF54EA000C55EA020C7FEA645C7FEA45
:1004B000655C00F0E2804FEA5454D4EB5555B8BF68
:1004C0006D420CDD2C4480EA020281EA030382EAD9
:1004D000000083EA010180EA020281EA0303362D6B
:1004E00088BF30BD11F0004F4FEA01314FF4801C3E
:1004F0004CEA113102D0404261EB410113F0004F50
:100500004FEA03334CEA133302D0524263EB430306
:1005100094EA050F00F0A780A4F10104D5F1200EA4
:100520000DDB02FA0EFC22FA05F2801841F10001FF
:1005300003FA0EF2801843FA05F359410EE0A5F1D3
:1005400020050EF1200E012A03FA0EFC28BF4CF004
:10055000020C43FA05F3C01851EBE37101F00045BA
:1005600007D54FF0000EDCF1000C7EEB00006EEBC7
:100570000101B1F5801F1BD3B1F5001F0CD3490851
:100580005FEA30004FEA3C0C04F101044FEA4452A8
:1005900012F5800F80F09A80BCF1004F08BF5FEA2F
:1005A000500C50F1000041EB045141EA050130BD0F
:1005B0005FEA4C0C404141EB0101013C28BFB1F521
:1005C000801FE9D291F0000F04BF01460020B1FA6C
:1005D00081F308BF2033A3F10B03B3F120020CDA3F
:1005E0000C3208DD02F1140CC2F10C0201FA0CF01D
:1005F00021FA02F10CE002F11402D8BFC2F1200C82
:1006000001FA02F120FA0CFCDCBF41EA0C01904037
:10061000E41AA2BF01EB0451294330BD6FEA040480
:100620001F3C1CDA0C340EDC04F11404C4F120026B
:1006300020FA04F001FA02F340EA030021FA04F37D
:1006400045EA030130BDC4F10C04C4F1200220FAD4
:1006500002F001FA04F340EA0300294630BD21FA12
:1006600004F0294630BD94F0000F83F4801306BFD8
:1006700081F480110134013D4EE77FEA645C18BFCC
:100680007FEA655C29D094EA050F08BF90EA020F63
:1006900005D054EA000C04BF1946104630BD91EA5B
:1006A000030F1EBF0021002030BD5FEA545C05D15E
:1006B0004000494128BF41F0004130BD14F580049D
:1006C0003CBF01F5801130BD01F0004545F0FE4111
:1006D00041F470014FF0000030BD7FEA645C1ABF46
:1006E000194610467FEA655C1CBF0B46024650EA7D
:1006F000013406BF52EA033591EA030F41F40021A9
:1007000030BD00BF90F0000F04BF0021704730B52E
:100710004FF4806404F132044FF000054FF0000103
:1007200050E700BF90F0000F04BF0021704730B5C4
:100730004FF4806404F1320410F0004548BF404299
:100740004FF000013EE700BF42004FEAE2014FEAEE
:1007500031014FEA02701FBF12F07F4393F07F4FC9
:1007600081F06051704732F07F4208BF704793F0CC
:100770007F4F04BF41F40021704730B54FF46074DF
:1007800001F0004521F000411CE700BF50EA0102E2
:1007900008BF704730B54FF000050AE050EA01028B
:1007A00008BF704730B511F0004502D5404261EBFB
:1007B00041014FF4806404F132045FEA915C3FF43C
:1007C000D8AE4FF003025FEADC0C18BF03325FEAD9
:1007D000DC0C18BF033202EBDC02C2F1200300FA8A
:1007E00003FC20FA02F001FA03FE40EA0E0021FAAF
:1007F00002F11444BDE600BF70B54FF0FF0C4CF49D
:10080000E06C1CEA11541DBF1CEA135594EA0C0F4E
:1008100095EA0C0F00F0DEF82C4481EA030621EA89
:100820004C5123EA4C5350EA013518BF52EA0335C4
:1008300041F4801143F4801338D0A0FB02CE4FF076
:100840000005E1FB02E506F00042E0FB03E54FF0A6
:100850000006E1FB03569CF0000F18BF4EF0010E9E
:10086000A4F1FF04B6F5007F64F5407404D25FEA9A
:100870004E0E6D4146EB060642EAC62141EA55514D
:100880004FEAC52040EA5E504FEACE2EB4F1FD0C8F
:1008900088BFBCF5E06F1ED8BEF1004F08BF5FEA0D
:1008A000500E50F1000041EB045170BD06F00046BF
:1008B00046EA010140EA020081EA0301B4EB5C046C
:1008C000C2BFD4EB0C0541EA045170BD41F4801164
:1008D0004FF0000E013C00F3AB8014F1360FDEBF89
:1008E000002001F0004170BDC4F10004203C35DA65
:1008F0000C341BDC04F11404C4F1200500FA05F3E8
:1009000020FA04F001FA05F240EA020001F0004288
:1009100021F0004110EBD37021FA04F642EB0601FE
:100920005EEA430E08BF20EAD37070BDC4F10C0428
:10093000C4F1200500FA04F320FA05F001FA04F2EC
:1009400040EA020001F0004110EBD37041F10001D8
:100950005EEA430E08BF20EAD37070BDC4F12005E3
:1009600000FA05F24EEA020E20FA04F301FA05F24B
:1009700043EA020321FA04F001F0004121FA04F2F3
:1009800020EA020000EBD3705EEA430E08BF20EAC3
:10099000D37070BD94F0000F0FD101F000464000FD
:1009A00041EB010111F4801F08BF013CF7D041EA7F
:1009B000060195F0000F18BF704703F00046520083
:1009C00043EB030313F4801F08BF013DF7D043EA54
:1009D0000603704794EA0C0F0CEA135518BF95EA0A
:1009E0000C0F0CD050EA410618BF52EA4306D1D191
:1009F00081EA030101F000414FF0000070BD50EAB0
:100A0000410606BF1046194652EA430619D094EA39
:100A10000C0F02D150EA013613D195EA0C0F05D123
:100A200052EA03361CBF104619460AD181EA030177
:100A300001F0004141F0FE4141F470014FF000002F
:100A400070BD41F0FE4141F4780170BD70B54FF0CA
:100A5000FF0C4CF4E06C1CEA11541DBF1CEA13554A
:100A600094EA0C0F95EA0C0F00F0A7F8A4EB05042C
:100A700081EA030E52EA03354FEA013100F0888023
:100A80004FEA03334FF0805545EA131343EA1263EC
:100A90004FEA022245EA111545EA10654FEA0026A1
:100AA0000EF000419D4208BF964244F1FD0404F55A
:100AB000407402D25B084FEA3202B61A65EB0305B6
:100AC0005B084FEA32024FF480104FF4002CB6EB73
:100AD000020E75EB030E22BFB61A754640EA0C00F3
:100AE0005B084FEA3202B6EB020E75EB030E22BF33
:100AF000B61A754640EA5C005B084FEA3202B6EB74
:100B0000020E75EB030E22BFB61A754640EA9C0032
:100B10005B084FEA3202B6EB020E75EB030E22BF02
:100B2000B61A754640EADC0055EA060E18D04FEAC0
:100B3000051545EA16754FEA06164FEAC30343EA60
:100B400052734FEAC2025FEA1C1CC0D111F4801F2D
:100B50000BD141EA00014FF000004FF0004CB6E726
:100B600011F4801F04BF01430020B4F1FD0C88BFC5
:100B7000BCF5E06F3FF6AFAEB5EB030C04BFB6EBD0
:100B8000020C5FEA500C50F1000041EB045170BDC3
:100B90000EF0004E4EEA113114EB5C04C2BFD4EBF0
:100BA0000C0541EA045170BD41F480114FF0000E74
:100BB000013C90E645EA060E8DE60CEA135594EAF0
:100BC0000C0F08BF95EA0C0F3FF43BAF94EA0C0FF3
:100BD0000AD150EA01347FF434AF95EA0C0F7FF468
:100BE00025AF104619462CE795EA0C0F06D152EABC
:100BF00003353FF4FDAE1046194622E750EA4106A0
:100C000018BF52EA43067FF4C5AE50EA41047FF4B0
:100C10000DAF52EA43057FF4EBAE12E74FF0FF3C15
:100C200006E000BF4FF0010C02E000BF4FF0010CE6
:100C30004DF804CD4FEA410C7FEA6C5C4FEA430C5F
:100C400018BF7FEA6C5C1BD001B050EA410C0CBFAE
:100C500052EA430C91EA030F02BF90EA020F002010
:100C6000704710F1000F91EA030F58BF994208BF77
:100C700090422CBFD8176FEAE37040F00100704734
:100C80004FEA410C7FEA6C5C02D150EA013C07D18B
:100C90004FEA430C7FEA6C5CD6D152EA033CD3D0D6
:100CA0005DF8040B704700BF8446104662468C46D0
:100CB0001946634600E000BF01B5FFF7B7FF002803
:100CC00048BF10F1000F01BD4DF808EDFFF7F4FF2C
:100CD0000CBF012000205DF808FB00BF4DF808EDB7
:100CE000FFF7EAFF34BF012000205DF808FB00BFDA
:100CF0004DF808EDFFF7E0FF94BF012000205DF8FC
:100D000008FB00BF4DF808EDFFF7CEFF94BF0120B0
:100D100000205DF808FB00BF4DF808EDFFF7C4FFA9
:100D200034BF012000205DF808FB00BF4FEA410CF2
:100D30007FEA6C5C02D150EA013C0AD14FEA430CD5
:100D40007FEA6C5C02D152EA033C02D14FF0000012
:100D500070474FF0010070474FEA410212F5001250
:100D600015D211D56FF47873B3EB625212D94FEAF2
:100D7000C12343F0004343EA505311F0004F23FADC
:100D800002F018BF404270474FF00000704750EA31
:100D9000013005D111F0004008BF6FF000407047EE
:100DA0004FF00000704700BF53B94AB9002908BF8F
:100DB00000281CBF4FF0FF314FF0FF3000F00CB89F
:100DC000ADF1080C6DE904CE00F010F8DDF804E098
:100DD000DDE9022304B07047704700BF034613F8F3
:100DE000012B002AFBD1181A013870472DE9F04772
:100DF00086468C460846089E154674461946002BC2
:100E000040F0C1808542B2FA82F245D94AB1C2F1BE
:100E1000200300FA02FC954094402EFA03F343EAC3
:100E20000C0C4FEA154EA8B2230CBCFBFEF80EFBCF
:100E300018CC08FB00F943EA0C43994528D9EB1874
:100E400008F1FF3704D2994502D9A8F102072B44D3
:100E5000A3EB0903A4B2B3FBFEFC0EFB1C330CFB9B
:100E600000F044EA0344A04214D92C190CF1FF33DA
:100E700004D2A04202D9ACF102032C44241A43EA62
:100E800007401EB1D440002334607360BDE8F08792
:100E90004746DDE76346F1E792BB431B01214FEA7A
:100EA000154EAFB2200CB3FBFEFC0EFB1C330CFB4B
:100EB00007F840EA0343984561D9EB180CF1FF307D
:100EC00004D2984502D9ACF102002B44A3EB0803ED
:100ED000A4B2B3FBFEFC0EFB1C330CFB07F744EA89
:100EE0000344A7424DD92C190CF1FF3304D2A74279
:100EF00002D9ACF102032C44E41B43EA0040C0E7F2
:100F0000C2F120039540944020FA03F12EFA03F336
:100F10004FEA154E9040AFB20343B1FBFEFC0EFB0F
:100F20001C10190C0CFB07F841EA0041884522D936
:100F300069180CF1FF3004D2884502D9ACF10200E7
:100F40002944A1EB08019BB2B1FBFEFC0EFB1C1176
:100F50000CFB07F743EA01439F420ED9EB180CF153
:100F6000FF3104D29F4202D9ACF102012B44DB1BBA
:100F700041EA004193E76046E3E76146F7E76046F0
:100F8000A4E76346B8E7834206D916B900210846AC
:100F90007CE7C6E900E0F9E7B3FA83F78FB983424B
:100FA00001D3724508D8BEEB020460EB03030120B5
:100FB0009C461EB9002169E73846FAE7C6E9004CAD
:100FC000F8E7C7F1200CBB400EFA07F522FA0CF443
:100FD0002EFA0CF1BA401C4320FA0CF3B8404FEA49
:100FE000144901431FFA84FEB3FBF9F809FB1830DA
:100FF0000B0C08FB0EFA43EA00439A4540D9E3186C
:1010000008F1FF3004D29A4502D9A8F10200234426
:10101000A3EB0A0389B2B3FBF9F809FB183308FB09
:101020000EFE41EA03418E452CD9611808F1FF33C9
:1010300004D28E4502D9A8F10203214443EA0040BC
:10104000A1EB0E01A0FB02984145CE46434602D3D8
:1010500006D14D4504D20138B9EB020E68EB04030A
:10106000002EA7D0B5EB0E0261EB030101FA0CFCD8
:1010700022FA07F3F9404CEA0303C6E9003199E785
:101080004046C5E74346D9E782B02DE9F04F95B019
:101090001EA981E80C00DDE91E34CDE90634DDE946
:1010A00020340590CDE90234DDE906010022D64B5B
:1010B000FFF7EAF9002282468B46DDE90201D34BB5
:1010C000FFF7E2F95246804689465B46504659464C
:1010D000FFF7DCF9C4A3D3E90023CDE908015046AA
:1010E0005946FFF789FB0246CDE90A010B46404607
:1010F0004946FFF781FB2BF00043CDF800A0019398
:10110000CDE90C01DDE900010BF050FB00220646A1
:101110000F46DDE90801BE4BFFF7B6F90022044691
:101120000D4640464946BB4BFFF766FB02460B4661
:1011300020462946FFF7AAF9ADA3D3E900230446C8
:101140000D4640464946FFF757FB42464B46FFF7E0
:1011500053FB02460B4620462946FFF797F9DDE987
:101160000C23FFF793F9A2A3D3E9002304460D460D
:1011700030463946FFF740FB02460B4620462946DB
:10118000FFF784F9002204460D4650465946A24B0B
:10119000FFF732FB98A3D3E90023FFF72DFB0BF0F9
:1011A000BFFA95A3D3E9002306460F46DDE90801FF
:1011B000FFF722FB0BF0B4FA0022CDE90801974BB0
:1011C00030463946FFF718FB002206460F46DDE998
:1011D0000801924BFFF710FB02460B46304639469A
:1011E000FFF754F902460B46FFF750F90022894BEE
:1011F000FFF72CFCCDE9080102460B4620462946A4
:10120000FFF744F97CA3D3E9002304460D4640468A
:101210004946FFF7F1FA02460B46CDE910230BF0E1
:101220007FFA002206460F4640464946794BFFF7B3
:101230000DFC71A3D3E90023FFF7DEFA0BF070FA7F
:101240000022CDE90E01754B30463946FFF7D4FA3E
:10125000002206460F46DDE90E01714BFFF7CCFA7E
:1012600002460B4630463946FFF710F902460B4658
:10127000FFF70CF90022674BFFF7E8FB22462B46ED
:10128000FFF704F90022CDE91201664B40464946BA
:10129000FFF7DCFB58A3D3E90023FFF7ADFA0BF00F
:1012A0003FFA0022604BCDE90E01DDE91001FFF7A6
:1012B000CDFB0BF035FACDE91001DDE900010BF0B3
:1012C00075FA4FA3D3E9002306460F465046594608
:1012D000FFF7DCF8424604460D464B464046494679
:1012E000FFF7D4F802460B4620462946FFF7CEF812
:1012F000DDE90A2304460D4650465946FFF77CFABD
:1013000002460B4620462946FFF7C0F8DDE90C23CC
:10131000FFF7BCF834A3D3E9002304460D4630465A
:101320003946FFF769FA02460B4620462946FFF781
:10133000ADF8DDE90823FFF7A9F82FA3D3E90023CF
:1013400004460D4650465946FFF756FA0BF0E8F9A9
:10135000002206460F46504659462E4BFFF776FBB5
:1013600025A3D3E90023FFF747FA0BF0D9F90022B0
:101370008046894630463946284BFFF73DFA002221
:1013800006460F4640464946254BFFF735FA0246CA
:101390000B4630463946FFF779F802460B46FFF711
:1013A00075F800221B4BFFF751FB22462B46FFF737
:1013B0006DF80022CDE900011A4B50465946FFF75F
:1013C00045FB0DA3D3E90023FFF716FA0BF0A8F9AC
:1013D00000228046894650465946134BFFF736FB9C
:1013E00024E000BFAFF300809A9999999999B93F89
:1013F0009A9999999999C93F182D4454FB2109400C
:101400000000000000C0724000405A40008041408F
:10141000000059400000084000001840000034401F
:10142000000044400000284000003E4064A3D3E98F
:101430000023FFF7E1F90BF073F9002282468B4697
:10144000DDE902016A4BFFF701FB5DA3D3E900234D
:10145000FFF7D2F906460F460BF062F95AA3D3E91B
:10146000002304460D46FFF7C7F922462B46FFF737
:10147000C3F902460B4600205E49FFF705F8024615
:101480000B46CDE908230BF091F904460D46304692
:1014900039460BF0FFF84EA3D3E9002306460F466A
:1014A00040464946FFF7A8F94BA3D3E900238046FD
:1014B000894650465946FFF79FF902460B4640467B
:1014C0004946FEF7E3FF02460B46FEF7DFFF002228
:1014D000494BFFF7BBFADDE90023FEF7D7FF0022F7
:1014E000434BFFF789F92246804689463CA1D1E962
:1014F00000012B46FFF7AAFA32463B46FFF77CF97C
:101500002FA3D3E90023FFF777F902460B464046A5
:101510004946FFF79BFADDE90623FEF7B7FF059B77
:101520000022C3E90001DDE90E01344BFFF764F945
:10153000002206460F46DDE91001314BFFF75CF94A
:1015400002460B4630463946FEF7A0FF02460B46E0
:10155000FEF79CFF0022284BFFF778FADDE9122303
:10156000FEF794FF0022224BFFF746F9224606467B
:101570000F46DDE908012B46FFF73EF902460B4610
:1015800019A1D1E90001FFF761FA0DA3D3E9002306
:10159000FFF732F902460B4630463946FFF756FA56
:1015A000DDE90223FEF772FF059BC3E9020118463D
:1015B00015B0BDE8F04F02B0704700BFAFF3008038
:1015C000182D4454FB2109400BEF80AF8F6A7B3FFD
:1015D0000000000000C062400000000000C0724037
:1015E00000000040C1545841C155E32D102B584113
:1015F000008066400000F03F0000084000006440AA
:10160000000074400000000000222DE9F04F8046E9
:101610008DB0AD4BC282059213F8012B242A40F005
:101620003B811A78472A40F037815A784E2A02D0F7
:10163000502A40F031819A78522A40F02D81DA7890
:101640004D2A40F029811A79432A40F0258100244F
:1016500000220023A146A24626462746CDE908449B
:10166000CDE90023DFF860B2059BF5181BF80530C3
:10167000002B3CD02C2B35D10137BFB2012F39D1F3
:101680005D446B782C2B2DD000210A200A4605E002
:1016900001315BB100FB0233A3F1300215FA81F393
:1016A0005B7803F0FD0CBCF12C0FF1D142F210730A
:1016B000B2FBF3F3DBB203F108015FFA81F96421B5
:1016C000B2FBF1F0B0FBF1F501FB102201FB1505B7
:1016D000D2B2EDB2B9F1170F0895099202D9103BB9
:1016E0005FFA83F901360C2FB6B2BDD10023002674
:1016F000002782E0022F07D15D446B78412B00F078
:10170000C98000242346F2E7032F5CD10BEB0503CD
:101710005A782C2AF5D09A460123029368A3D3E97C
:101720000023CDE90623002300220A930023CDE9FC
:1017300000231AF8013F2C2B00D053B9029A624BB8
:10174000013613442B4412FA86F693F801A0B6B280
:10175000C8E7029A2E2B02F10102029230D0303BF0
:101760000B930A9B9BB9DDE900010022574BFFF761
:1017700043F802460B460B98CDE90023FEF7D2FF53
:10178000DDE90023FEF782FECDE90001D1E70B98E9
:10179000FEF7C8FFDDE90623FFF72EF802460B46E9
:1017A000DDE90001FEF772FE45A3D3E90023CDE990
:1017B0000001DDE90601FFF71FF8CDE90601B8E7F2
:1017C00001230A93B5E7052F8CD101351BF80530AD
:1017D0002C2B96D03AA3D3E90023CDE90223002392
:1017E00000260027DFF8E0B005931BF805302C2B0E
:1017F00000D0D3B9AB449BF801304046DDE900127C
:1018000088F81030089BC8E9006788F81330099BF6
:10181000C8E9021288F811A088F8129088F81430EC
:1018200088F815400DB0BDE8F08F2E2B2FD0303B3F
:101830000693059B93B90022244B30463946FEF7A8
:10184000DBFF06460F460698FEF76CFF32463B4626
:10185000FEF71CFE06460F460135C6E70698FEF762
:1018600061FFDDE90223FEF7C7FF02460B46304663
:101870003946FEF70BFE12A3D3E9002306460F46B6
:10188000DDE90201FEF7B8FFCDE90201E4E701233B
:101890000593E1E7012425E7059A0132B2F5487F77
:1018A00005927FF4B9AE002400210022A146A24691
:1018B00023460E461746CDE90844CDE900129CE7C1
:1018C0009A9999999999B93FED1600200000244002
:1018D0002DE9F0474E4B8AB08246D3E90201D3E9A5
:1018E0000023CDE90401CDE90223DDE90401DDE9AE
:1018F00002238DE8030006A8FFF7C6FBDDE90667B3
:10190000DDE9088932463B4630463946FEF774FF2A
:10191000424604460D464B4640464946FEF76CFF9C
:1019200002460B4620462946FEF7B0FD0AF03EFF70
:101930002DA3D3E9002304460D4640464946FEF751
:101940005BFF0AF0EDFE2AA3D3E90023FEF754FF64
:1019500022462B46FEF79AFD324604460D463B468C
:10196000404649460DF0C4FF1FA3D3E9002380463B
:10197000894630463946FEF73FFF0AF08BFE1EA32C
:10198000D3E90023FEF738FF42464B46FEF77EFDC3
:1019900006460F460AF07EFE8046894630463946A6
:1019A0000AF0BEFE424606460F464B4620462946F2
:1019B000FEF722FF12A3D3E90023FEF767FD3246AC
:1019C000CAE900013B4620462946FEF715FF0EA353
:1019D000D3E90023FEF75AFDCAE9020150460AB0D6
:1019E000BDE8F087AFF300804E04C777102E4A4061
:1019F000F168E388B5F8F43E54E41071732AC93EE7
:101A000039B4C876BE9F7A3FFA7E6ABC7493783F39
:101A1000F8040020000000002DE9F04F144697B0B4
:101A20001D46476A8346239ECDE904457FB91020B1
:101A300009F054FB0246CBF8240020B9A24BEA215E
:101A4000A24809F01BFBC0E901770760C760DBF81B
:101A50002430196859B15A680123584693404A60A6
:101A60008B600AF0D1FADBF8243000221A602B1EBA
:101A7000B7BF23F00043002301220593A8BF3360C2
:101A8000059F934BB8BF3260BB4319D142F20F732D
:101A9000229A1360C7F31303234300F0E085249BCD
:101AA00053B98C4B21E08C4B08930833249A136074
:101AB000089817B0BDE8F08F864B08930333F5E71D
:101AC000DDE90423CDE90C23DDE90C01002200232C
:101AD000FFF7FAF8804650B10123229A1360249B45
:101AE00013B17E4B249A13607D4B0893E0E714AB4F
:101AF000C7F30A565846019315AB0093DDE90C2352
:101B00000AF008FD0390002E78D00D9BA6F2FF3658
:101B1000CDF84C80C3F3130343F07F53DDE90C0190
:101B200043F44013194600226E4BFEF7ADFC60A350
:101B3000D3E90023FEF760FE5FA3D3E90023FEF79D
:101B4000A5FC04460D463046FEF7ECFD5CA3D3E948
:101B50000023FEF751FE02460B4620462946FEF7BB
:101B600095FC04460D46FFF7F7F8002207460023D0
:101B700020462946FFF7B2F840B13846FEF7D2FDBD
:101B800022462B46FFF7A0F800B9013F162F54D884
:101B9000554B03EBC703DDE90C01D3E90023FFF745
:101BA0009DF800284BD0013F00231293149B9B1BF0
:101BB0005A1E4CBFC3F1010300230A9245BF06938E
:101BC000002306930A93002F3BDB0A9B0F973B44AD
:101BD0000A9300230B93209B092B00F28980052B8D
:101BE000C5BF043B002401242093209B023B032B10
:101BF00000F28980DFE803F02D3A3859DDE91463FB
:101C00001E4406F23243202BC9BFC3F14003C3F187
:101C100020039F4006F21243D8BF04FA03F006F1F6
:101C2000FF36C4BF24FA03F347EA0300FEF76AFD58
:101C30000122A1F1F873139274E70123B5E7129022
:101C4000B4E7069BDB1B06937B420B9300230F93A9
:101C5000C1E700230E93219B002B57DC01239946FB
:101C60001A46099321920CE00123F3E700230E9317
:101C7000219BFB1803F1010909934B46012BB8BFC7
:101C80000123DBF824000021042202F114059D4207
:101C900040D9416058460AF077F9089000283CD1B5
:101CA000124B02464FF4D571CAE60123DFE700BFAD
:101CB00061436F63A787D23FB3C8608B288AC63F52
:101CC000FB799F501344D33FA92D0100C02D010083
:101CD0000000F07FA52D01009C2D01004E20010089
:101CE0004D2001000000F83FB0050100342E010036
:101CF000012400230E9420934FF0FF3300229946D5
:101D000009931223AEE701230E93F5E7219B994631
:101D10000993B6E701315200B7E7DBF82430B9F197
:101D20000E0F089A1A606FD8002C6DD0002F36DD88
:101D300007F00F02A04BF80503EBC203D3E9003410
:101D4000CDE910344FEA271417D59C4B04F00F044B
:101D50004FF00308D3E90823DDE90C01FEF776FE16
:101D6000CDE90401954D5CB9DDE91023DDE90401FD
:101D7000FEF76CFECDE904012BE04FF00208F1E71D
:101D8000E10709D508F10108DDE91001D5E90023D3
:101D9000FEF732FDCDE9100164100835E3E700F0ED
:101DA00007817C42844B854D4FF0020804F00F02FE
:101DB000241103EBC203DDE90C01D3E90023FEF794
:101DC0001BFD0023CDE90401002C40F0E580002B31
:101DD000D0D1129BDDE90445002B00F04C8100229C
:101DE000774B20462946FEF779FF002800F0438113
:101DF000B9F1000F00F03F81099B002B00F3E48054
:101E0000DDE90C34CDE90434159B002B02DB0E2FE9
:101E100040F342820E9A002A40F067820B9C002514
:101E2000DDF81880B8F1000F0DD00A9B002B0ADDF9
:101E30004345069AA8BF4346D21AA8EB0308069268
:101E40000A9AD31A0A930B9B0BB30E9B002B00F03C
:101E5000A682002C00F0A1822946224658460AF0AC
:101E6000FDF9039A0146054658460AF04DF90399D3
:101E7000064658460AF0C8F80B9B1B1B0B9300F054
:101E800091820B9A314658460AF0E8F903900121F5
:101E900058460AF023F90F9B0446002B00F0848279
:101EA0001A46014658460AF0D9F9209B0446012BF0
:101EB00003DC049B002B00F07C820026236904EBEA
:101EC000830318690DF03AFCC0F120000F960A9BBD
:101ED000184410F01F0000F09182C0F12003042B81
:101EE00040F38182C0F11C00069B034480440693AA
:101EF0000A9B03440A93069B002B05DD1A460399AF
:101F000058460AF005FA03900A9B002B05DD21468E
:101F10001A4658460AF0FCF90446129B002B00F0C2
:101F20007682214603980DF058FC002880F26F82DB
:101F300000230A22039958460AF088F80E9B7E1E59
:101F40000390002B00F05C82002329460A225846A9
:101F50000AF07CF8099B0546002B03DC209B022B32
:101F600000F35E82B8F1000F05DD2946424658466F
:101F70000AF0CEF905460F9B002B00F0D08269686D
:101F800058460AF001F80746002840F07F820D4BC2
:101F9000024640F2EA2153E5E20706D508F10108BE
:101FA000D5E90023FEF728FC0123641008350BE770
:101FB0004FF002080DE700BFB005010088050100E1
:101FC0000000F03F342E010020460022AC4B294691
:101FD000FEF712FC7E1E08F10108099CCDE9040100
:101FE0004046FEF79FFBDDE90423FEF705FCA54B09
:101FF0000022FEF74BFAA1F15073CDE910011193C5
:10200000002C3BD10022A04BDDE90401FEF73CFA95
:1020100002460B46CDE90423DDE91023FEF77CFEE2
:10202000002840F05781DDE9102101F10043DDE98E
:102030000401FEF753FE00283FF4E2AE00242546DB
:10204000219BDDF820A0DE434FF0000821465846D2
:1020500009F0DAFF002D00F0A980B8F1000F05D0DB
:10206000A84503D04146584609F0CEFF29465846B8
:1020700009F0CAFF9AE03E464C46B1E7834B03EBBA
:10208000C40353E90201089B1C440E9B002B4AD059
:1020900002460B4600207E49FEF7D8FCDDE91023FE
:1020A000FEF7F2F9DDF820A0CDE91001DDE9040129
:1020B000FEF752FE0546FEF735FB024630350B466D
:1020C000DDE90401FEF7E0F90AF8015B02460B4680
:1020D000CDE90401DDE91001FEF71EFE002865D1FF
:1020E00000206C49DDE90423FEF7CEF902460B46D9
:1020F000DDE91001FEF710FE002840F00D81A24539
:1021000000F0EA8000225E4BDDE91001FEF774FB6F
:1021100000225B4BCDE91001DDE90401FEF76CFB09
:10212000CDE90401C2E7DDE91023FEF765FBA04617
:10213000DDF820A0CDE91001DDE90401FEF70CFE79
:102140000546FEF7EFFA024630350B46DDE904019D
:10215000FEF79AF90AF8015B02460B46A245CDE963
:1021600004234FF0000223D1494BDDE91001FEF7B3
:102170008DF902460B46DDE90401FEF7CDFD00288E
:1021800040F0CA8000204249DDE91023FEF77CF9C7
:1021900002460B46DDE90401FEF7A0FD70B1C24620
:1021A00008F1FF381AF8013C302BF8D0374655E0DB
:1021B000334BFEF721FBCDE90401BDE7DDE90C342B
:1021C000CDE90434159B002BFFF628AE0E2F3FF708
:1021D00025AE2E4B03EBC703D3E90034CDE906341B
:1021E000219B002B02DAB9F1000F64D0DDF820A0AA
:1021F000DDE90445DDE9062320462946FEF726FCF5
:10220000FEF7AAFD0646FEF78DFADDE90623FEF786
:10221000F3FA0246204606F130040B462946FEF743
:1022200033F90AF8014B089C02460B46AAEB04045A
:10223000A14540F08280FEF729F904460D46DDE90C
:102240000623FEF769FD002865D120462946DDE911
:102250000623FEF739FD08B1F3075CD4039958460D
:1022600009F0D2FE002301378AF80030229B1F605C
:10227000249B002B3FF41CACC3F800A018E400BF63
:102280000000244000001C4000001440B005010084
:102290000000E03F0000F03FA24B03EBC703D3E98F
:1022A0000034CDE90634219B002B9FDAB9F1000FF1
:1022B0009CDC7FF4C3AE00229B4BDDE90601FEF7F8
:1022C0009BFADDE90423FEF71DFD044600287FF498
:1022D000B5AE3E462546B4E0DDE90C34CDE9043424
:1022E000159B002B01DB0E2FD6DD209A012A36DC50
:1022F000139A82B303F233430B9CDDF81880069ADD
:10230000012158461A4406920A9A1A440A9209F080
:10231000E5FE054686E53E4653469A4613F8012DEE
:10232000392A06D1089A9A42F7D130220899013603
:102330000A701A7801321A7038E700227B4BFEF7D8
:102340005BFA0022002304460D46FEF7BDFC002880
:102350003FF450AF82E7149BC3F13603CCE709F199
:10236000FF340B9BA34208DBB9F1000FA3EB04047D
:102370000EDBDDF818804B46C1E70B9B0F9AE31A82
:102380000B94DDF8188000241A444B460F92B6E7F0
:10239000069BA3EB09080023B1E7039E71E50B9AA6
:1023A000039970E5039672E5209B012B17DC049BD3
:1023B000ABB9059BC3F313039BB9059B23F0004600
:1023C000360D360536B1069B0126013306930A9B6E
:1023D00001330A930F9B002B7FF470AD0F96012001
:1023E00075E50026F6E73FF486AD1C33069A1A44DD
:1023F000984406920A9A1A440A927CE50346F4E746
:10240000099B002B2BDC209B022B09DC27E0B9F178
:10241000000F1DDC209B022B1ADD3E46CDF82490D8
:10242000099B002B7FF40CAE21460522584609F08B
:102430000DFE0146044603980DF0CFF900287FF702
:10244000FFADDDF820A0312301360AF8013BFBE5A2
:102450000E9B3E46CDF82490002B7FF483AD089F61
:10246000214603980CF0F6FF089B00F13009099A09
:1024700007F8019BFB1A9A4240F3CB8000230A2203
:102480000399584609F0E2FD0390E9E72A6905F14E
:102490000C010C30023292000CF05DFE0122394634
:1024A000584609F035FF089BA846054603F1010A86
:1024B000DDE9082313440A93049B03F001030B9303
:1024C0000AF1FF332146039806930CF0C3FF4146FF
:1024D000099000F1300903980DF07FF92A46214652
:1024E0000746584609F080FFC268014602B35846C5
:1024F00009F08AFD002F3ADA01220399584609F0C3
:1025000007FF214603900DF068F9002803DC29D16C
:1025100019F0010F26D0B9F1390F1DD132E028464C
:10252000C1E700BFB00501000000144000002440D6
:102530000E9003980DF051F90E990C90584609F041
:1025400063FD0C9A5ABB209B53B90B9B43B9B9F15D
:10255000390F17D0002F05DD099B03F1310901E088
:10256000002F2ADADDF818A00AF8019B6EE5209BFF
:102570003B4304D1049B03F00103002BBCD0B9F111
:10258000390F36D1069F392307F8013BBA46013F80
:102590001AF8013C392B5AD001333B7056E5002F15
:1025A00006DB209B3B4306D1049B03F0010313B9D8
:1025B000002AA1DCD6E7002AE1DC0A9B57460AF88C
:1025C000019C53452ED000230A220399584609F056
:1025D0003DFDA84503904FF000034FF00A0241462D
:1025E00058460BD109F032FD804605460AF1010A32
:1025F00066E7DDF818A009F10109B5E709F026FD45
:102600002946804600230A22584609F01FFD054648
:10261000ECE7099B4FF00008002BCCBF1F460127B9
:10262000089B1F4401220399584609F071FE214678
:1026300003900DF0D2F80028A8DC02D119F0010FA8
:10264000A4D1BA4617F8013D302BFAD0FEE4089B1E
:10265000BB429BD13123089A01361370F6E4249BC8
:10266000002B7FF420AA014BFFF73FBA9C2D0100FD
:102670002DE9F84F17469046994623F000427B42D9
:10268000DFF884A104460D463B4342EAD373534529
:1026900009D8464221F000438E468346064343EA6A
:1026A000D676564508D942464B4620462946FDF780
:1026B000EDFE04460D4616E009F1404606F580168B
:1026C0003E4303D1BDE8F84F00F016BC4FEAA976AF
:1026D00053EA0B0B06F0020646EAD17607D1022E2A
:1026E00064D0032E66D020462946BDE8F88F1743F4
:1026F00006D1BEF1000F68DA37A5D5E90045F2E74B
:1027000052450FD1934206F1FF3607D1022E55D81C
:102710003E4B03EBC603D3E90045E4E7022E51D854
:102720003B4BF6E75345E4D09B1AB3F1747F4FEA75
:10273000235221DAB9F1000F01DA3C3220DB4246A4
:102740004B4620462946FEF781F90DF0D3F800F0FC
:10275000D3FB04460D46012E15D0022E17D0002EB5
:10276000C1D0204629461EA3D3E90023FDF78CFEE5
:102770001DA3D3E9002316E01DA5D5E90045EAE72E
:1027800000240025E7E705F100431D46ABE714A34D
:10279000D3E9002320462946FDF776FE02460B4684
:1027A00011A1D1E90001FDF76FFE82E70EA5D5E981
:1027B000004598E710A5D5E9004594E710A5D5E9AF
:1027C000004590E7002400258DE709A5D5E90045DF
:1027D00089E700BFAFF30080182D4454FB21F9BFF7
:1027E000075C143326A6A13C182D4454FB21094054
:1027F000182D4454FB21F93F182D4454FB2109C0E6
:10280000182D4454FB21E93F0000F07F90060100A1
:1028100078060100000000002DE9F04FC44B21F0C4
:1028200000488DB0064698450F461446049107D8D7
:102830000023C2E900670022C4E90223002526E044
:10284000BC4B984576D8049BBB4D002BAAA3D3E97B
:10285000002338DDFDF718FEA84506460F461AD0BE
:10286000A7A3D3E90023FDF70FFE02460B468046DF
:10287000894630463946FDF707FEA1A3D3E9002378
:102880000125FDF701FEC4E90089C4E902012846DB
:102890000DB0BDE8F08F9CA3D3E90023FDF7F4FD54
:1028A00006460F469AA3D3E90023FDF7EDFD024645
:1028B0000B468046894630463946FDF7E5FD94A330
:1028C000D3E90023DCE7FDF7E1FDA84506460F4606
:1028D00018D08BA3D3E90023FDF7D8FD02460B46A1
:1028E0008046894630463946FDF7CEFD84A3D3E9BC
:1028F0000023FDF7CBFD4FF0FF35C4E90089C4E9A3
:102900000201C4E780A3D3E90023FDF7BFFD06461B
:102910000F467FA3D3E90023FDF7B8FD02460B461F
:102920008046894630463946FDF7AEFD78A3D3E9A7
:102930000023DEE7814B984500F2CF800CF0DAFFF0
:1029400006460F4674A3D3E90023FDF755FF002286
:102950007B4BFDF79BFDFEF7FFF90546FDF7E2FE19
:1029600002460B46CDE9022363A3D3E90023FDF71A
:1029700043FF02460B4630463946FDF785FD824649
:102980008B465FA3D3E90023DDE90201FDF734FFA5
:102990001F2D06460F460CDC6A1E6A4B53F8223088
:1029A000434506D032463B4650465946FDF76CFD3E
:1029B0000EE03B46324650465946FDF765FD4FEA6C
:1029C00028530593C1F30A53C3EB1853102B02DCB1
:1029D000C4E9000139E04CA3D3E90023DDE9020199
:1029E000FDF70AFF06460F4602460B46504659467B
:1029F000FDF74AFD02460B46804689465046594639
:102A0000FDF742FD32463B46FDF73EFD06460F46CA
:102A10003FA3D3E90023DDE90201FDF7EDFE3246D5
:102A20003B46FDF731FD02460B4606460F46404643
:102A30004946FDF729FD059AC1F30A53D31A312BF4
:102A400020DCC246CB46C4E90001D4E900895046E7
:102A5000594642464B46FDF717FD3B463246FDF7C9
:102A600013FD049B002BC4E90201BFF610AF09F16E
:102A70000043C4F80080A060636001F10043E3609C
:102A80006D4204E726A3D3E90023DDE90201FDF747
:102A9000B3FE06460F4602460B4640464946FDF742
:102AA000F3FC02460B4682468B4640464946FDF7FC
:102AB000EBFC32463B46FDF7E7FC06460F461AA301
:102AC000D3E90023DDE90201FDF796FE32463B46DD
:102AD000FDF7DAFC06460F4664E71B4B984535D9EF
:102AE00002460B46FDF7D0FCC4E90201C4E900012F
:102AF000A4E600BFAFF3008000004054FB21F93F83
:102B00003163621A61B4D03D0000601A61B4D03DF7
:102B10007370032E8A19A33B83C8C96D305FE43FED
:102B20000000002E8A19A33BC14920259A837B39D6
:102B3000FB21E93F7BD90240FB21F93FFB213941D1
:102B40000000E03FF41D0100FFFFEF7F4FEA285532
:102B50000DF13009A5F21645A8EB05514FF0030819
:102B60000F46FEF7F9F8FDF7DDFD02460B4630464D
:102B70003946CDE90623FDF787FC00221F4BFDF700
:102B80003BFE0F460646FEF7E7F8FDF7CBFD024693
:102B90000B463046394600260027CDE90823FDF7CD
:102BA00073FC0022154BFDF727FECDE90A013246E2
:102BB0003B46C24608F1FF3879E90201FEF784F886
:102BC0000028F4D10E4B2A46214606A80193022381
:102BD0000093534609F0CEFE049B0546002BBFF63A
:102BE00056AED4E9002101F10043C4E90023D4E941
:102BF000022101F10043C4E9022341E700007041D2
:102C0000741E0100000000002DE9F74F21F000467E
:102C100080468946B6F1795FCDE9002304D2FEF7FC
:102C20009BF8002800F0868042464B4640464946C5
:102C3000FDF7E2FD04460D4600224D4BFDF7DCFD9D
:102C400082468B46204629463DA3D3E90023FDF763
:102C5000D3FD3DA3D3E90023FDF718FC22462B4604
:102C6000FDF7CAFD3AA3D3E90023FDF70DFC224688
:102C70002B46FDF7C1FD38A3D3E90023FDF706FC81
:102C800022462B46FDF7B8FD35A3D3E90023FDF717
:102C9000FBFB22462B46FDF7AFFD33A3D3E9002310
:102CA000FDF7F4FB22462B46FDF7A6FD22462B46F8
:102CB000FDF7A2FD04460D4640464946DDE90023E6
:102CC000FDF79AFD0B46024629462046FDF7DCFB40
:102CD000284B804689469E420ED802460B465046F7
:102CE0005946FDF7D1FB02460B4600202249FDF76D
:102CF000CBFB03B0BDE8F08F204B002400201E4921
:102D00009E42224694BFA6F500151D4D2B46FDF7A9
:102D1000BBFB224606460F462B4650465946FDF75A
:102D2000B3FB42464B46FDF7AFFB02460B4630462F
:102D30003946DCE700201049DBE700BFAFF3008035
:102D4000D43888BEE9FAA8BDC4B1B4BD9EEE213E18
:102D5000AD529C804F7E923E9015CB19A001FA3E59
:102D60007751C1166CC1563F4C5555555555A53F29
:102D70000000E03F3233D33F0000F03F0000E93F66
:102D80000000D23F000000002DE9F04F1F4621F067
:102D9000004385B00446B3F1795F0D46164603D271
:102DA000FDF7DAFF002851D022462B46204629465F
:102DB000FDF722FD82468B4602460B4620462946F9
:102DC000FDF71AFD80468946504659463CA3D3E993
:102DD0000023FDF711FD3CA3D3E90023FDF754FBCD
:102DE00052465B46FDF708FD39A3D3E90023FDF702
:102DF0004DFB52465B46FDF7FFFC37A3D3E90023AA
:102E0000FDF742FB52465B46FDF7F6FC34A3D3E9DF
:102E10000023FDF73BFB0E9BCDE90001DBB9024629
:102E20000B4650465946FDF7E7FC2FA3D3E9002394
:102E3000FDF72AFB42464B46FDF7DEFC02460B46F9
:102E400020462946FDF722FB04460D46204629462A
:102E500005B0BDE8F08F0022254B30463946FDF71E
:102E6000CBFCDDE90023CDE9020140464946FDF7F0
:102E7000C3FC02460B46DDE90201FDF705FB5246A5
:102E80005B46FDF7B9FC32463B46FDF7FDFA0646C8
:102E90000F464046494614A3D3E90023FDF7ACFC96
:102EA00002460B4630463946FDF7F0FA02460B461D
:102EB00020462946FDF7E8FAC6E700BFAFF30080D9
:102EC0007CD5CF5A3AD9E53DEB9C2B8AE6E55A3EB4
:102ED0007DFEB157E31DC73ED561C119A0012A3F50
:102EE000A6F810111111813F495555555555C53F4B
:102EF0000000E03F000000002DE9F84F21F00046FF
:102F0000BB4B04460D469E428B4618D9B94B9E4298
:102F100001D809D140B122462B4620462946FDF76B
:102F2000B5FA04460D4606E0BBF1000F40F32381DD
:102F300093A5D5E9004520462946BDE8F88FAE4B5C
:102F40009E4211D8A3F1DE739E420AD88EA3D3E924
:102F50000023FDF79BFA0022A84BFDF7DDFE0028B9
:102F6000E9D14FF0FF3A27E00CF0C4FCA44B044633
:102F70000D469E4200F2B880A3F550239E4200F217
:102F80009C8002460B46FDF781FA00229B4B4FF0D6
:102F9000000AFDF779FA06460F4600224FF08043FB
:102FA00020462946FDF772FA02460B46304639465E
:102FB000FDF74CFD04460D4622462B462046294689
:102FC000FDF71AFC02460B4680468946FDF714FCC5
:102FD00006460F466EA3D3E90023FDF70DFC6EA352
:102FE000D3E90023FDF752FA32463B46FDF704FCD5
:102FF0006BA3D3E90023FDF749FA32463B46FDF7C0
:10300000FBFB69A3D3E90023FDF740FA32463B46B8
:10301000FDF7F2FB66A3D3E90023FDF737FA32464A
:103020003B46FDF7E9FB64A3D3E90023FDF72EFA45
:1030300042464B46FDF7E0FB80468946304639461E
:103040005FA3D3E90023FDF7D7FB5FA3D3E90023F8
:10305000FDF71AFA32463B46FDF7CEFB5CA3D3E9F7
:103060000023FDF711FA32463B46FDF7C5FB5AA394
:10307000D3E90023FDF708FA32463B46FDF7BCFBD7
:1030800057A3D3E90023FDF7FFF932463B46FDF78E
:10309000B3FB02460B4640464946FDF7F7F9224688
:1030A0002B46FDF7A9FBBAF1FF3F02460B4644D180
:1030B00020462946FDF7E8F933E700224F4BFDF79C
:1030C000E3F906460F4600224C4B204629464FF0B6
:1030D000010AFDF7DBF902460B4630463946FDF79B
:1030E000B5FC04460D4667E7464B9E421AD20022C5
:1030F000454BFDF7C9F9002206460F46424B2046D4
:1031000029464FF0020AFDF777FB00223B4BFDF703
:10311000BDF902460B4630463946FDF797FC04469A
:103120000D4649E702460B4600203849FDF78EFC64
:103130004FF0030A04460D463EE7354B354E03EB90
:10314000CA0306EBCA06D3E90023FDF79DF9224620
:103150002B46FDF799F902460B46D6E90001FDF72B
:1031600093F9BBF1000F04460D46BFF6E4AE01F142
:1031700000431D46DFE61CA5D5E90045DBE600BFA0
:10318000182D4454FB21F93F9C7500883CE4377EA0
:1031900011DA22E33AAD903FEB0D76244B7BA93F49
:1031A000513DD0A0660DB13F6E204CC5CD45B73F17
:1031B000FF8300922449C23F0D5555555555D53FC3
:1031C0002F6C6A2C44B4A2BF9AFDDE522DDEAD3FB7
:1031D0006D9A74AFF2B0B33F711623FEC671BC3F57
:1031E000C4EB98999999C93F182D4454FB21F9BF14
:1031F000FFFF0F440000F07FFFFFDB3F0000F03FC8
:10320000FFFFF23F008003400000F83F0000F0BFE6
:10321000E8060100080701002DE9F041C1F30A5753
:1032200002460B460C46A7F2FF3605468046132E93
:1032300036DC002E17DA34A3D3E90023FDF726F994
:1032400000220023FDF768FD50B1002C58DA24F06D
:1032500000442C430025AC422D4C08BF4FF00044E5
:1032600023462A4625E02B4F374101EA070C5CEA4A
:10327000000C1ED024A3D3E90023FDF707F9002298
:103280000023FDF749FD0028EAD0002C4FF000058F
:10329000BEBF4FF480133341E41824EA0704DFE78C
:1032A000332E0ADDB6F5806F03D1FDF7EFF8024645
:1032B0000B4610461946BDE8F081A7F213474FF0C0
:1032C000FF3C2CFA07F70742F3D00FA3D3E9002302
:1032D000FDF7DCF800220023FDF71EFD0028BFD01B
:1032E000002C0ADA142E01D1013406E0C6F13406AE
:1032F0000123B3401D444545F6D325EA0705AFE752
:1033000000252C46ACE700BF9C7500883CE4377E66
:103310000000F0BFFFFF0F002DE9F0481646C1F393
:103320000A5283468C460B4682B921F00043034380
:1033300035D02D4B0022FDF75FFA2C4B83468C468F
:103340009E420DDA24A3D3E900231CE040F2FF776C
:10335000BA4209D10246FDF799F883468C461EE031
:10336000C1F30A520B46363A324440F2FE718A42A9
:103370000CDD4FEADC711E4819A3D3E900231C467B
:1033800061F3DF742146FDF737FAE6E7002A0ADD2C
:1033900023F0FF4323F4E00343EA0255AC465846CA
:1033A0006146BDE8F08812F1350F09DA0CF00043F0
:1033B000104843F0D27141F4B73141F01F01C1E729
:1033C00023F0FF433632584623F4E00343EA025524
:1033D0000022094B2946D6E759F3F8C21F6EA50112
:1033E0009C7500883CE4377E00005043B03CFFFFF2
:1033F0009C75008859F3F8C20000903C73B50446F0
:10340000A3685B6D002B3DD1A3681B6D002B3FD1E2
:10341000A3685B6C53BBA3689B6A002BF0D00122AE
:1034200020460DF1070198470128E9D19DF80720B2
:103430001A4D0A2A2B681ED10022194E1949F2543E
:10344000304606220BF0D5FF28B106223046164939
:103450000BF0CFFF38B96422114914480BF0DBFFA1
:103460000122134B1A7000232B60C9E720469847AE
:103470000028C5D0CFE7622BF5DC591C296008492C
:10348000CA54BDE7204698470028BDD102B070BDA0
:10349000204698470028BBD1F8E700BF900D0020D8
:1034A000241600208C1F0100931F010089160020A4
:1034B00088160020024B014618688368DB691847AC
:1034C000940D002037B5194B44781B880546ADF89C
:1034D000043000230D208DF80630FFF7EBFF0A20A3
:1034E000FFF7E8FF0223EA5CDAB9114B220904F086
:1034F0000F049A5C1B5D28468DF804208DF805307A
:1035000009F07FFD2A20FFF7D5FF01A809F079FD1A
:103510000D20FFF7CFFF0A2003B0BDE83040FFF7D2
:10352000C9BF01335440DBB2DDE700BF68050100CD
:10353000B721010010B504460B4B86B0D3E9020158
:10354000D3E90023CDE90401CDE9022306AB13E959
:103550000300DDE902238DE803002046FDF794FD1A
:10356000204606B010BD00BFF80400202DE9F04F42
:1035700089B000AF05F0B2FA03218D4A8D4809F0F9
:103580002CFD8D4C8D4820600BF088F950B98C4A89
:103590000121884809F021FD4FF0FF302437BD4656
:1035A000BDE8F08F83480321864A09F016FD2068A4
:1035B0008368002B00F0F4809B6D002B00F0F080FE
:1035C000002281499847206883689B6B002B40F05C
:1035D000E98003217D4A774809F0FFFC7C48FFF72A
:1035E00071FF642009F0FBFC7A48FFF76BFF642051
:1035F00009F0F5FC0321784A6E4809F0EEFCDFF88B
:10360000DC916C4C99F80030002B00F0CF80002644
:10361000734B4FF44872184672490BF0FCFEE846B3
:1036200088B088B06A4689F800604FF400736E492C
:1036300093836E4BC2E9051042F8103F4FF4E651F8
:103640003346204601F050FFC546694D2846FDF738
:10365000DBFF20460321674A09F0BFFC8AB08AB02D
:103660006A46A87CE97C2B7D4FF0050BDFF888C10A
:10367000C2E90713C2E905C042F810BF4FF4235155
:103680003346204601F030FF6B7DC546012B40F0EC
:103690008B80D5E902018AB08AB06B7C6A46DFF87C
:1036A0005CC1C2E90601C2F814C0136242F810BF3F
:1036B0004FF423513346204601F016FFD5E90001AF
:1036C000C5468AB08AB02B7C6A464D4DC2E90601D8
:1036D0005561136242F810BF4FF423513346204620
:1036E00001F002FFC5463846FEF7F2F8D7E902239B
:1036F00088B088B06D464FF0040BAA464149C5E931
:10370000062369614AF810BF4FF40351204633463F
:10371000524601F0E9FED7E90001C54688B0AD4642
:10372000394BC5E906016B61C5F810B04FF4035180
:1037300033465246204601F0D7FEC54607F1100039
:10374000FFF7F8FED7E9060188B0AD462F4BC5E973
:1037500006016B61C5F810B04FF4035120463346A3
:10376000524601F0C1FED7E90401C54688B0AD4616
:10377000274BC5E906016B61C5F810B04FF4035142
:1037800052463346204601F0AFFEC546214A204648
:10379000032109F022FC4FF4FA6009F020FC31E724
:1037A0001D4AF5E6984714E71C4AF0E71C4AEEE785
:1037B0009A1F0100E0040100940D002034FA00007B
:1037C000BB1F0100D21F0100FD33000008200100D3
:1037D000202001004F2001005D20010088160020FC
:1037E000ED16002089160020892001000300000149
:1037F000F804002097200100A9200100C620010044
:10380000E1200100FD20010012210100282101001A
:103810003E21010055210100EB1F01007121010033
:103820009A2101002DE9F04F91B0009302F00403BA
:103830000293C2F3C2030133840705460E46DDF846
:1038400068800392059340F0BB81041D30B10729C5
:1038500009D86FF01B0011B0BDE8F08F01F007062A
:103860003444C6F10806009B4FF000094FF0040AEB
:10387000591E4FF0FF334F460193CB465346CDF8C8
:1038800010900DB1009A22600598002800F3E8809E
:103890009848009A824203D397488242C0F0E08061
:1038A000039AA4EB050E92074FEA9E0000F10381F4
:1038B0000F2F00F2B180002D00F0058107F14002CA
:1038C0000DEB020C019A0CF8200C0CF8102C04984B
:1038D00001300490E7E07A285DD84B280ED84728BD
:1038E00059D829282DD8252852D054D820287AD024
:1038F0002338D0F1000B4BEB000B74E04C382E2832
:1039000049D8DFE800F070484848484848484848E7
:1039100048484B484848484848484859484B4B59FC
:103920005959704B6D487048184B184848827F4B66
:1039300048484B487F0000204FF0000B4FF0040A2E
:1039400038E001222A38C0B202FA00F010EA0E0F65
:1039500049D110F0625C2FD110EA020B43D06046CF
:10396000013C5444B4FBFAF40AFB04F4002D61D08A
:10397000A3EB050CA444B4453FF66BAF002868D117
:10398000042B47D158F8043B2360042304342AE075
:10399000019A013A01924FF0000B24E011F8010C5A
:1039A0006C2834D1002011F8023C83466C2BC5D121
:1039B0004FF0080A5346D3E708F1070828F0070834
:1039C000073424F00704F8E802AB35B10698204428
:1039D000B0423FF63EAFC4E900AB4FF0000B0834F5
:1039E0004FF0080A534611F8010F002878D0BBF1B8
:1039F000000F7FF470AF2528F5D14FF0010B019B2C
:103A0000013301934FF0040AECE7584694E7002095
:103A10008346A5E7082B02D06FF015001BE708F1DD
:103A2000070828F00708F8E80223C4E90023082360
:103A30000834D8E768B9042B02D108F10408A4E7D8
:103A4000082BE9D108F1070828F0070808F1080851
:103A5000EDE7059A013A059258F8042B009210E719
:103A6000039A900720D54FF0010CA4EB050E4FEA06
:103A70009E00BEF5007FCFD20F2FCDD8F5B107F154
:103A800040020DEB020E019AC0B20EF8200C0EF8A7
:103A9000102CBCF1000F3FF41AAF60F07F000EF85D
:103AA000200C09F101090137C5F108024FF6DA7E51
:103AB0000434069297E74FF0000CDAE7BCF1000FF0
:103AC00001D00136EFE7029802360028EBD10098CA
:103AD000CDE90631FDF782F9DDE906310644E2E77A
:103AE000631BB3F5806F97D245B9A6F10804E018BF
:103AF000B1E600BF04F90000C02E0100029A9B0845
:103B000028602B709DF81030C2B1EB7085F80290E0
:103B1000B9F1000F05D0002208A8C5F1010C9742A9
:103B20000ED14FF0000AC5F101030DF120080193F9
:103B30000DF1300B574512D1601B8CE66B70E5E739
:103B400010F8013B190608D50CEB040EB64503F03E
:103B50007F033FF67EAE04F8013B0132DFE7B9F1A7
:103B6000000F03D098F90020002A17DB029BD3B185
:103B70001AF80B2004F8012B0022019B181910449D
:103B8000B0423FF666AE98F80000009904F8010BC9
:103B9000204603920BF0DFFA039A14440AF1010A5B
:103BA00008F10108C6E798F8002055F82230009384
:103BB000029B009845F82230FDF710F9421CDCE723
:103BC0006FF00D0047E600BF2DE9F04F97B000AF52
:103BD000D7F880B03B62CBF3C0030446894690F827
:103BE00002A0FA62BB6141B9457800780AEB800017
:103BF00020444D4517D8A0EB0409E378FB61BAF1E6
:103C0000000F02D01BF0010F16D1FB6953BBFB6AFA
:103C10001BB1494620463A6A98474D4628465C37CC
:103C2000BD46BDE8F08F461C3046FDF7D7F80130A1
:103C3000304409F10109DCE7626823787A62FA6AA4
:103C40009900796104EB8301002A40F001810E465E
:103C50004FF000084D4601EB0A094E454CD101EBEF
:103C60000A0610E01BF0020FD1D023789A007A6187
:103C7000626804EB83017A62FA6A002A77D14D46C2
:103C8000904601EB0A061BF0050F0CBF022301232F
:103C9000FB62FB6906EB430A0BF00203BB6256456D
:103CA000BCD016F8021B16F8013C54F82390994B2F
:103CB000994502D3984B994536D3BB69002B40D028
:103CC000786A09F0B8FA00283BD0E9468AB06A461B
:103CD000924B53617B6AC2E906314FF4007313843F
:103CE0008F4B42F8103F00234FF412518D4801F0E2
:103CF000FBFB023DCD46D2E716F8013BF96254F8D2
:103D00002300FDF76BF8D7F88430F96A01304BB126
:103D1000D7F8883098453EBFD7F8843023F818008C
:103D200008F10108054498E7BB6923B1786A09F0F6
:103D300082FA0028C9D11BF0010F05D1FB6AED1AE8
:103D4000ADE7BB6A002BAAD04846FDF747F8D7F885
:103D5000843053B1D7F8883098453FBFD7F88420D6
:103D6000431C22F8183008F10108054497E7BAF11E
:103D7000000F73D01BF0040673D0D046002607F165
:103D8000480052463B61B9620BF0E5F9B96A3B69FC
:103D900001EB0A02BA62FA69F9695200FA60BA6A7A
:103DA00002EB41023A610BF00202BA603A69B96A69
:103DB0008A4258D162781BF0020F18BF00217A6244
:103DC00008BF4FEA5801B2181BF0010FD2B240F001
:103DD0009F801BF0040F14BF40460020BB6162703F
:103DE000A070E17020463A6A7969FB6A9847051E1F
:103DF000FFF614AFBB69414623707B6A3A6A637071
:103E0000FB6984F802A0E37007F14800FB6A984759
:103E1000B0F10008C0F2BA807B69A9EB0A01C91AA7
:103E2000FB683A6AC91AD7E90A0398470028C0F222
:103E3000AF804FF0000BA84408EB000507F1380AEB
:103E4000B34571D300213A6A0846FB6A9847E5E614
:103E500056464FF0000807F1380092E75646D04624
:103E600096E7B04694E7BA6A12F8021B12F8015CB2
:103E7000BA6254F82500274A904202D3264A90425B
:103E80001ED3BA6932B1786A7B6009F0D4F97B68D5
:103E900000288BD1BA6802BB08F1280207F1300C68
:103EA00008F10100944407F1580208F1020852FA9F
:103EB00080F00CF8101C5FFA88F800F8105C75E7C9
:103EC000BA693AB1786A7B6009F0B5F97B68002875
:103ED0007FF46CAF1BF0010F09D006F1280207F147
:103EE0003000711C161806F8205CCEB25EE71BF09D
:103EF000040F3FF45BAF08F1280207F1300008F12E
:103F0000010102EB000808F8105C5FFA81F84DE748
:103F1000002063E704F90000C02E0100CF2101005A
:103F200004000001B80401001BF80A3054F8239083
:103F300087F83730D7F884302BB3D7F888309B45D3
:103F400021D2D7F8843033F81B8001213A6AFB6A0A
:103F500007F13700984700281ADB0544B8F1000F35
:103F600006D14846FCF73AFF00F101081FFA88F82D
:103F7000414648463A6AFB6A9847002808DB0544F0
:103F80000BF1010B5CE74FF00008DEE7454645E624
:103F9000054643E6014B1860704700BFD000002083
:103FA00030B5002587B0CDE903010446009503A98B
:103FB0000548059500F06EF8DDE904309842B8BF79
:103FC000255407B030BD00BF85D20000F0B50246D1
:103FD00001680A270020074E0B461C780131355D29
:103FE0006D0701D41360F0BD07FB0043A3F130005F
:103FF000F2E700BF5D2C01002DE9F84F15469A4607
:10400000D378234A6F2B12F803B081460F460BF08A
:10401000030B2BD026D8582B0CBF10260A26DDF810
:1040200028803246002348463946FCF7BDFE092A5F
:1040300008F1FF38D4B21ED83034B145E4B277F17C
:10404000000788F8004001D3D04511D82B789B0693
:1040500005D5082E15D1AB7843F00803AB70404668
:10406000BDE8F88F03F0F703702BD5E70826D6E7F5
:1040700081460F46D5E7BBF1010F0CBF37345734EB
:10408000DBE7102EEBD1AB7843F01003E6E700BF7F
:104090005D2C01002DE9F04F824617461C46002595
:1040A0009FB00391387810B9284600F0A1BD2528AB
:1040B00009D00399D0470028C0F29A857B1C0135AE
:1040C0000593059FEEE71822002110A80BF050F889
:1040D0007B78252B00F0BA80002398469E469C46AC
:1040E0001846791C0E4611F8012B2B2A00F0E180AE
:1040F00000F2D880202A00F0DF80232A00F0DF8041
:104100002BB19DF8483043F040038DF84830B8F1AA
:10411000000F05D09DF8483043F020038DF848305B
:10412000BEF1000F05D09DF8483043F010038DF824
:104130004830BCF1000F05D09DF8483043F008032B
:104140008DF8483028B19DF8483043F004038DF8CD
:1041500048309DF8483003F04401442903D16FF3FF
:1041600086138DF848309DF848302A2A43F08003A2
:104170000E968DF8483040F0A7809DF8493043F006
:1041800001038DF84930731C1A782E2A0CBF0121C7
:1041900000219DF8492061F341028DF849200CD19E
:1041A0005A1C0E925A782A2A40F09E809DF8492087
:1041B000023342F004028DF849201A786C2A00F08C
:1041C000BF8000F2A180682A00F0A7806A2A00F070
:1041D000C0804C2A00F0C58013F8012B782A059383
:1041E0008DF84B2000F205816D2A00F2C780692A04
:1041F00000F2FF80572A00F2DE80412A04D0A2F1AB
:104200004503022B00F2F58004219DF84A3002F0AC
:10421000DF02A2F1410661F3020372429DF84910E8
:10422000724162F3C7110A068DF84A308DF84910C1
:10423000CBB200F11D8103F07802182A40F007810B
:104240006FF3C6038DF849300023F6E08DF84B304C
:10425000BB1C05939DF849209DF84A30D10703F017
:10426000070040F1078154F8041B0029049108DA83
:104270009DF8481041F004018DF848100499494216
:104280000491560740F1FE8054F8046B002E80F232
:10429000FD809DF849206FF341028DF849204FF0D1
:1042A000FF36F3E02D2A0DD0302A7FF429AF012309
:1042B00018E74FF0010C15E74FF0010E12E74FF031
:1042C00001080FE701200DE70EA8FFF77FFE0E9B08
:1042D000B3423FF459AF9DF848201390C00F60F3EC
:1042E00041028DF848204FE70EA8FFF76FFE9DF8BA
:1042F00048301490C3F3400242EAD07262F34103A3
:104300008DF848300E9B58E7742A26D07A2A7FF41D
:1043100063AF06219DF849200CE05A78682A9DF881
:10432000492006D1012161F3C6028DF849200233EC
:1043300052E7022161F3C6028DF8492001334BE7B1
:104340005A786C2A9DF8492001D10421EBE703211A
:10435000F0E705219DF84920ECE707219DF8492069
:10436000E8E7BDF8482022F4F04222F0020242F4CD
:10437000804242F00202ADF84820DFE76E3AD3B245
:1043800001229A4040F282431A429DF8493037D1C7
:1043900012F0240F5FD1D1072BD503219DF84A20BD
:1043A00003F07803A3F1400061F3020243428DF869
:1043B0004A20434141E00120A2F15801C9B200FA6C
:1043C00001F111F4624F7FF41FAF40F6010319426F
:1043D0009DF849301AD111F4043F0AD09DF84A20C3
:1043E00060F3020203F07803402B8DF84A207FF43B
:1043F0002BAF9DF8483043F001038DF8483023E798
:1044000002219DF84A2061F30202EBE702209DF8A9
:104410004A1003F0780360F30201402B8DF84A1034
:1044200002BF9DF8481041F001018DF84810632A41
:104430007FF40AAF003B18BF01239DF84820C2F368
:1044400040010B4363F341028DF8482002E713F06B
:10445000380FCED1F8E603219DF84A2013F0780FEB
:1044600061F3020214BF012300238DF84A20E4E720
:104470000123E2E79DF948100029ACBF4FF0FF315E
:104480001399FDE691077FF50AAF149E00220428D8
:10449000CDE913229DF8491007D18A0705D49DF96B
:1044A0004920002AACBF06260D2603F00703012B86
:1044B000C1F3C30132D1CB1E042B04D8DFE803F0D3
:1044C000204545202000236801294FEAE372CDE909
:1044D00010321BD19DF94030DA17CDE91032043487
:1044E0009DF8483006939B074FD03A465046059BAF
:1044F000039908F02CFF0028C0F27A830544E0E518
:1045000054F8043BDA17CDE91032E9E70229E6D185
:104510001AB243F3C033CDE91023E0E7022B24D1D4
:10452000CB1E042B04D8DFE803F018101018180075
:1045300001294FF0000254F8043B14D00229CDE9C0
:104540001032CDD19BB21093CAE7073424F0070490
:10455000F4E80223CDE91023C2E754F8043B10939A
:1045600000231193BCE7DBB2CDE7042B08D107345D
:1045700024F00704D4E900230834CDE91023AFE781
:10458000032BADD154F8043BDDE79DF84B80B8F127
:10459000780F3FF696ADB8F1570F5CD8B8F1250FFC
:1045A00000F0A480B8F1240F7FF68BADB8F1410F75
:1045B00004D0A8F14503022B3FF683ADDDE91023BB
:1045C000002BC0F24D810699080700F14C81C1F320
:1045D00000194FEA4919C3F30A51C3F31303002921
:1045E00040F0448152EA030014BF4FF0010C4FF039
:1045F000000CD80240EA5250D702CDE90C70B8F155
:10460000460F47EA010740EAE17008BF4FF066082D
:10461000384300F0B781BCF1000F10D01B0343EA10
:10462000125317033A4618464FF0000C002880F248
:104630005681BCF1000F40F05981CDE90C730D9B00
:10464000A1F2FE3B43F000430D930021DDE90C2372
:104650000F46052060E1A8F15803202B3FF631AD4D
:1046600001A252F823F000BF33480000C34000000D
:10467000C3400000C3400000C3400000C34000002E
:10468000C3400000C3400000C3400000BD4500001F
:10469000C3400000DF470000F3470000BD450000B5
:1046A000BD450000BD450000C3400000F3470000C9
:1046B000C3400000C3400000C3400000C3400000EE
:1046C000394800003348000083470000C340000021
:1046D000C3400000FD460000C34000003348000016
:1046E000C3400000C3400000334800004046039927
:1046F000D0470028C0F27C820135E2E4002E109FF2
:104700003BDB314638460AF099FE002F3FF4D9AC26
:104710004FF000093E18F31B9DF84A2012F01001DB
:10472000069100F05A82023312F04002DDF84C800C
:10473000089218BF149A434418BF9B18049ACDF8E6
:104740001C80002A40F36482D31A9DF84820049309
:104750005007C2F3800B00F15B82510640F14B829F
:10476000B9F1000F07D048460399D0470028C0F29E
:104770003F82D946013530223EE23846FCF72EFB17
:10478000C6E71098002800F023820DF1750300930E
:10479000002117AB12AAFFF72FFC4FF000090746C4
:1047A000BDF84A3003F0EF0343F4F04343F0100345
:1047B000ADF84A30002E0CDB9DF848200DF1750352
:1047C000DB1B6FF386129E428DF8482001D9F31A45
:1047D0001393002F3FF475AC0DF175066DE0109B3F
:1047E0004FF000098DF85C300DF15D06012317AF25
:1047F00092E7069B1F0754BFC3F300194FF02B0924
:10480000DDE9102358BF4FEA4919002B06DA4FF0B3
:104810002D09524263EB4303CDE91023DDE910017A
:104820000DF17503009312AA17ABFFF7E5FB0746DE
:10483000C0E74FF00009F1E7109B07293FF641ACB4
:10484000DFE801F00C04060C08080C0C1D7038E4BD
:104850001D8036E4EA17C3E9005232E41D6030E4FB
:104860004FF02D09B7E64FF02B09B4E640F2FF7088
:10487000814231D1A14908F101085FFA88F811F8A5
:104880000810134301F003011ED101290BBF492376
:1048900069234E216E210CBF462266228DF85C30C2
:1048A0009DF848308DF85D106FF386138DF85E200B
:1048B0008DF848300DF15F0617AFF31BB9F1000F0B
:1048C0003FF42AAF013327E7012915BF6E234E239A
:1048D000612141211A46E1E74FF0000C89E6921868
:1048E0004FF0010C01F1FF3140419FE6CDE90C2072
:1048F000A5E6520842EAC3725B08B3F1333F59465A
:104900000BF1010BF5D201F1020B012100FB03FCBD
:10491000A2FB0023013F63441BF1020FE9DB09B155
:10492000CDE90C23DDE90C32BBF1000F2DDCCBF11E
:104930000401A1F120000BF11C0B02FA0BFB22FA7F
:1049400000F0CA40CB40079208F0DF0243EA0B03B5
:10495000472A43EA00037CD1F91C01DBBE422ADA74
:10496000A8F10208002E5FFA88F87BDD9DF8482048
:10497000013E920676D4B6F1000B18BF4FF0010B42
:10498000721C26E04FF0000B5FE6023342F100029A
:104990000CA80BF1FF3B0137CDE90C3208F0A8FC65
:1049A000DDE90C32DB185241002A0BF1FF3BF9DA4A
:1049B000CDE90C32B6E79DF84820F61B90064ED4A0
:1049C000B6F1000B18BF4FF0010BF2194FF066085B
:1049D0004BD4102AA8BF102210204FF000610B907A
:1049E0000020CDE90E01DDE90E01002A3FD1079A32
:1049F0001B1842EB0101B1F1805F47D2CDE90C31C8
:104A0000069BB8F1660F03F0200240F0C180002F32
:104A100047DC30238DF85C30002A71D1002E40F342
:104A2000B8812E238DF85D3087B17B42B342A8BF99
:104A30003346002B1393A6EB0306D4BF00230123B8
:104A40009DF84A2063F345128DF84A200DF15E036C
:104A500040E0B8F1660F4FF0000BB6D090E74FF092
:104A6000000BB2E74FF0000B8AE70022B4E74008E2
:104A700040EAC1704908CDE90E010EA8CDE908232E
:104A800008F036FC089A099B013AACE75B0843EA58
:104A9000C1730CA84908CDE90C31013708F028FC96
:104AA000AEE717AB0B9900290BDD0BA90CA8CDE9DC
:104AB000063208F035FC069B013F079A03F8010B0C
:104AC000F0D11397AAB9002E40F361812E2103F88B
:104AD000011B0027002E1CDD0B9A002A19DD0BA9F3
:104AE0000CA8069308F01CFC069B013E03F8010B82
:104AF000F0E72E2203F8012BEBE700BF5C2C01004E
:104B00002E238DF85D30002FA0D0002E8DDC0DF10E
:104B10005E03BBF1000F4FD114961E4608F0DF0371
:104B2000452B24D1002FBABF7F422D232B23632F87
:104B3000C8BF64227370C4BFB7FBF2F302FB1377E4
:104B40004FF00A02C8BF03F13001B7FBF2F3C8BF50
:104B5000B17003F1300102FB137386F8008003F19A
:104B60003003D4BF02360336317073700236139BA4
:104B7000002B2BDC149B002BD4BF002301239DF8BA
:104B80004A2063F3861200238DF84A20337093E69F
:104B90000BA90CA8069208F0C3FB069A30288DF8E2
:104BA0005C0018BF07F1FF3712B9002E40F3F18007
:104BB0002E238DF85D3049E71E4616F8012C013B87
:104BC000302AF9D02E2A08BF1E46A7E70123D6E7D0
:104BD000714E81460523771F9EE5110748BF0133BB
:104BE000A2E5104609920399D0470028099A05DAF0
:104BF0001FB0BDE8F08F2022DDF810B05946002923
:104C00000BF1FF3BEDDC049BCDF810B02B445D1A9B
:104C1000B9F1000F05D048460399D0470028E7DBDB
:104C20000135089B002B77D09DF94930002B28DBFC
:104C30003B46DFF8689118789B4619F8002001334D
:104C400052073FD49DF84A30EF1B98065F4407D4C3
:104C50004246002A08F1FF383BDC079B3B449F1A81
:104C60009BF800002E280AD10399D0470028BFDB0B
:104C7000B8F1000F07F1010731DC0BF1010B5D46C4
:104C800038E0B94699F80000C846702809F10109D2
:104C900013D1EF1B149D47443D44EB1B002B33DC29
:104CA000334642465046039908F051FB00289FDBEB
:104CB0003844049E0546064464E00399D047002822
:104CC000E0DA95E706930399D0470028069BB2DA0D
:104CD0008EE730200399D0470028B9DA88E73020E2
:104CE0000399D04708F1FF38C0E70399D04700285F
:104CF000FFF67EAF2878A84619F80030013559072D
:104D0000F3D4A7EB0B07C5E730200399D047002861
:104D1000FFF66EAF0137C0E79DF84A30DA0601D4DE
:104D20001B0706D530200399D0470028FFF660AF57
:104D30000135069B3BB103999DF84B00D0470028F5
:104D4000FFF656AF0135A84406E030200399D0475E
:104D50000028FFF64DAF0135A8EB0503002BF4DC6E
:104D600033463A465046039908F0F1FA0028FFF618
:104D70003FAF28449DE720200399D0470028FFF645
:104D800037AF0135731B002BF5DCFFF79AB91746D7
:104D9000BFE60DF15D03BCE6882201005D2C010039
:104DA0002DE9F047058B04462807904611D40229C7
:104DB00005F0070540F0CC80204608F04BFD78B1A7
:104DC0000138218B042811D8DFE800F0C2106D856E
:104DD000950001290CBF45F0100545F020052583FD
:104DE00088F31188BFF36F8FBDE8F08701F0070AE1
:104DF000AA4500F0A5800027B9463E46A368002BCF
:104E000000F0BC8041F00801218388F31188BFF3D2
:104E10006F8FA168002900F0BA800D68002900F0AA
:104E2000B680334652462046D1F80480C047002D54
:104E300076D02B6829461D46F0E701F007035A1F7C
:104E4000012A1BD8002221F00701062B276889B20E
:104E5000C4E9002209D13B4603E0628B0132628340
:104E60001B68002BF9D141F002012046218308F094
:104E7000F1FC00287AD041F0200176E0042B0AD121
:104E800021F0070189B22046218308F0E3FC10B12C
:104E900041F020012183218B01F0070AAA454FD060
:104EA0000027B946AAE7236921F0070141F006016E
:104EB000062DD3F8009021832DD1B9F1000F3FD0FA
:104EC00041F00801218388F31188BFF36F8F2046DA
:104ED0003949C84729E021F00701236941F004015D
:104EE00089B2042DD3F804902183E6D000274FF037
:104EF000040A3E4682E721F00701236941F00501DB
:104F000089B2052DD3F808902183D6D000274FF021
:104F1000050A3E4672E700274FF0060A3E466DE757
:104F20002B4687E7B9F1000FD1D1EFF31188202389
:104F300083F31288BFF36F8F238B23F0080323833F
:104F4000258BEA062ED525F01003238305F00705EF
:104F50006669218B002EBFF670AF00232768C4E975
:104F6000003321F0070141F001012183218B4FF033
:104F7000000901F0070AAA457FF440AF002F9CD03A
:104F800041F00801218388F31188BFF36F8F002F50
:104F9000C8D03D68394633465246204608F086FC64
:104FA0002F46F4E7AB067FF51BAF25F020032383E4
:104FB00005F0070500E700BFD9D800002DE9F0474C
:104FC000044607464FF00109DFF8508014B938460F
:104FD000BDE8F08794FAA4F5B5FA85F509FA05F36A
:104FE0002E0108EB05156FEA030A24EA03042B7B64
:104FF000002BEBD058F806301B694BB94644736858
:1050000004222846196807EA0A0708F02BFDDDE7A5
:10501000284698470028D9D1F0E700BF380501009D
:1050200030B5002289B00F490F4809F00FFE002269
:1050300000230024CDE906230E230C4DCDE90334D3
:105040004FF440722846CDE90144094B09490094C8
:1050500004F0F4FA0849284609F0D2FC204609B0C9
:1050600030BD00BF7D500000A809002010050020C1
:1050700095530000601A002089220100014804F0C5
:10508000C3B800BFCC0400202DE9F047804621487A
:105090000F4608F0CBFC0646002833D000252846F2
:1050A000BDE8F087237B83B12368DB680BB1204622
:1050B0009847636883F8069023681B69D3B96368CF
:1050C00004222046196808F0CDFC013610345445FE
:1050D000E8D3B8F1000FE2D0002DDFD02846FFF76B
:1050E0006DFF0546002FF7D0002140F2391004F083
:1050F00045FDF1E7204698470028E0D009FA06F37D
:105100001D43E2E705464FF00109034CDFF80CA010
:10511000DDE700BFA80D00203805010048050100AB
:10512000014B53F8200070473C07010008B50346C7
:1051300008462BB1044A136000F070FC002008BD43
:105140006FF01500FBE700BFD400002010B5044C41
:10515000237813B9034804F057F80123237010BDD6
:105160000D1A0020CC04002010B50446094808F0B0
:105170005DFC3CB1084BD3E8EF1F0139C3E8E21FE7
:10518000002AF8D1054809F06DFDBDE8104004483B
:1051900004F03AB8A00D0020A40D0020A8090020BA
:1051A000CC04002000200146034BD3E8EF0FC3E8F6
:1051B000E21F002AF9D17047A00D002070B5FFF75B
:1051C000F1FF0546074C084EB44200D370BD63683A
:1051D0005B792BB123685B6813B129462046984759
:1051E0001034F1E7380501004805010010B5044C02
:1051F0000449204608F0C7F9034B1C6010BD00BFEE
:10520000C803002028070100980D002000230D4A44
:1052100010B513700C4A0D4913600D4A0D48136008
:10522000FFF784FFFFF7E2FF0B4B0C4918468B4258
:1052300000D310BD1A1A5C681211013222711033AA
:10524000F5E700BF0E1A0020A00D002040420F001D
:10525000A40D002029DA00003805010048050100EE
:10526000014600220023014808F0AEB9C80300201F
:10527000014808F047BA00BFC8030020024B0146AE
:10528000186808F093BA00BF980D0020014808F094
:10529000C8BA00BFC803002070B5274B1878002893
:1052A00049D0FFF7E5FF0546002841D1234B244CA8
:1052B0001B68002B19DD09F0C7FC4FF47A75A0FBC1
:1052C000050647F61222002305FB0161FBF76CFD82
:1052D000D4E90032C01A40F2E93361EB020198428E
:1052E00071F1000101D3FFF769FFD4E9003213F532
:1052F0007A7342F10002C4E90032BDE87040FFF762
:10530000C5BF63685B7923B12368294620461B68C3
:1053100098471034B442F4D32846FFF7AFFF094B47
:10532000D3E8EF1F0139C3E8E21F002ABED0F7E738
:10533000054C064EEEE770BD0D1A0020A00D0020B2
:10534000A0090020A40D0020380501004805010037
:1053500070B50D4D297861B90120FFF795FE0B4C12
:105360000B4EB44206D3FFF797FF0028FBD1012371
:105370002B7070BD63685B791BB1236820469B6806
:1053800098471034EDE700BF0E1A002038050100E1
:105390004805010000212DE9F0470846FFF774FE9B
:1053A000044648B340F21B684FF0000904F038FC93
:1053B0001A4B186030B11A4B1B68092B02DD1948D3
:1053C00003F022FF0025184FDFF858A044B1204613
:1053D000FFF7F4FD044618B94FF0FF384FF0FF39DE
:1053E000FFF75AFF064628B9B5B942464B46504624
:1053F00003F03EFF3546E9E74FF0FF384FF0FF3945
:10540000D4E72B689B691BB10022284611469847B8
:105410001035BD42F5D3E8E7044DFAE79C0D0020B6
:10542000A40D0020CC04002048050100380501002F
:1054300013B5184808F0FAFA174B1B7873B1EFF35D
:105440001184202383F31288BFF36F8FFFF724FFAB
:1054500084F31188BFF36F8F02B010BD0F4B1B6830
:10546000002BF9D050B9002200230D48CDE90023CC
:1054700047F61222002304F0CFFEEDE70928EBD116
:10548000074809F0EFFB074802B0BDE8104003F001
:10549000BBBE00BFA40D00200E1A00209C0D0020F2
:1054A000A8090020CC04002010B5064B04461B6858
:1054B00098472146A060044808F005F9BDE810406F
:1054C000FFF7B6BFD4000020C8030020044A054BF4
:1054D0009B1AB1EBD30F34BF52F831000020704754
:1054E000B0040100380501002DE9F04F8FB0C1F381
:1054F0004A2804AF0D469146B8607B600C0DB8F1A8
:10550000000F63D000264FF0040B4FF00A0A07F19A
:105510001403C7F80C80C7E907667E620193CDF8D3
:1055200008B0CDF800A007F11C0332464846F968E0
:10553000FEF74AFBB0F5006F03461CD36C468AB0F9
:10554000D9F8041004AB26481A46C3E9050140F215
:10555000FF71D9614FF400711984224B42F8103F5A
:105560004FF4125133462048FFF7BEFFA5462C37B3
:10557000BD46BDE8F08FC0F30A0804F117001844D7
:1055800020F0070080083B60FFF76AFE68F35325B0
:10559000044690B13B6800F11001C7E9083607F1F5
:1055A0001403F961CDE900A3CDF808B048460F4ACD
:1055B000F96807F11C03FEF707FB68F353252A4639
:1055C00020467B68B96808F06CFAD0E704F1170050
:1055D00020F007008008FFF743FE0446EDE700BF18
:1055E0009E22010004000001F004010077DA0000AF
:1055F0002DE9F04F87B00446DDE9105ADDE9127954
:10560000934698460391BFB13B4652461021002075
:10561000CDF80090CDF81490FEF704F9B0F5006FC6
:1056200006460AD340F2FF730221174A174807B013
:10563000BDE8F04F08F08EBA3E4605F11700304441
:1056400020F007008008FFF70BFE04F007040BF0C2
:10565000070BE40044EA8B1444EA462444EA055468
:10566000054640B13FB13B4652463146CDF8009029
:105670001030FEF7D7F8434622462846039907B074
:10568000BDE8F04F08F00DBADD220100F004010082
:10569000406820B1034BC01A40F3CF0070474FF071
:1056A000FF307047B00401000EB403B503AB53F8EC
:1056B000042B01460448019308F07DFA02B05DF81E
:1056C00004EB03B0704700BFC5DB0000CA0605D479
:1056D0008B064CBF02490349FFF7E6BF704700BF86
:1056E00016230100152301002DE9F04F89B09A46D9
:1056F000149B9DF84CB00693159B04460593169B8E
:105700000D469046179E0493BBF1000F00F09D805C
:1057100006F48073079308F0A3F906F00209024625
:1057200000283ED020469249FFF7BEFF0746B9F158
:10573000000F08D016F0440F35D12A4620468D4977
:10574000FFF7B2FF074406F0010353B18A4B20462E
:1057500053F82B20894B8A49002A08BF1A46FFF7C5
:10576000A3FF06F48073002B49D006F00803002B3A
:1057700063D1B8F1000F66D0424620468149FFF759
:1057800093FF0546069B3D44002B6DD1049B002BE7
:1057900073D1F30700F1E58031462046FFF796FF0D
:1057A000D9E00746C3E7784B18680028CAD0774B82
:1057B0004FF47A791B684FF03C0CB5FBF3F5B5FB61
:1057C000F0F14FF4616300FB115509FB05F5B1FBE6
:1057D000F3F2B5FBF0FE03FB121100FB1E55B1FB0B
:1057E000FCF309FB05F5B5FBF0F50CFB13112046A6
:1057F0000091CDE901E56649FFF756FFA2E706F003
:105800000803EBB1634B204653F82B206249FFF7A6
:105810004BFF0546B8F1000F05D0424620465949D6
:10582000FFF742FF0544BAF1000FABD052462046C5
:105830005A49FFF739FF0544A4E74FF0000AE1E7B2
:1058400006F00805E6E745469CE7BAF1010F069B1E
:1058500006D1002B65D1049B002B7CD000250CE0E9
:10586000002BF8D04E485DE04E48069B22464E493C
:1058700007F0B0FC049B002B69D0DFF83081DFF823
:105880003091049F3146102F204628BF10274FF03B
:10589000000AFFF71BFF554546DC059B494620469D
:1058A0001A78FFF701FF4FF0010A1AF0070F03D132
:1058B00041462046FFF7F8FE57453CD9059B49462F
:1058C000204613F80A20FFF7EFFE0AF1010ABAF1A9
:1058D000100FEAD14FF0000A20463649FFF7E4FEE8
:1058E0005246059B20469A5C334B995C11F0970F0A
:1058F00008BF2E223149FFF7D7FE0AF1010ABAF19B
:10590000100F1DD01AF0070F03D141462046FFF7B4
:10591000CBFE57455246E4D841462046FFF7C4FE29
:10592000EBE720485D46A0E741462046FFF7BCFE76
:105930000AF1010AAFE720462149FFF7B5FEC4E7A7
:10594000059B3B440593049BDB1B049399D1BBF15E
:10595000000F7FF41EAF204609B0BDE8F04F08F0FD
:105960001DB92046054A0649FFF79EFE14E700BF11
:105970001D230100212301004C0701001823010011
:105980009420010046230100B00D0020AC0D002042
:105990002A230100600701004A230100502301006F
:1059A000F3DB0000C5DB0000B7DB00005D23010076
:1059B000552301005F2301005D2C0100FA20010046
:1059C0005B23010042F20F7373B58B4228BF0B4675
:1059D00005680446052168460D4A07F072FC064634
:1059E000636828460B225B680A4908F0C9F86368B7
:1059F0003246694628465B6808F0C2F863681B2295
:105A000028465B68044908F0BBF802B070BD00BFCF
:105A1000232A01007D2301006123010000210123CD
:105A2000064A904206D8064A01B901231360054B85
:105A300018607047012140085B00F2E740420F0008
:105A4000AC0D0020B00D00202DE9F34143680DF1AD
:105A500007011C681048656808F02EF930B99DF8F8
:105A60000710012902D10C4800F030F801232B75F2
:105A700025682F68D5E90136D3E9004824B96B6859
:105A80001C6002B0BDE8F081214630464246B8476E
:105A9000241A0644F2E700BF58FA0000F8B50D4694
:105AA0000446064F4618B44201D12846F8BD14F802
:105AB000011BBB680148DB699847F4E758FA00000E
:105AC000014B036000207047A807010070B5046A0D
:105AD0000D469CB31E4A2379565CB34231D01D4A11
:105AE000525C9A4230D1A3689847002810DA022D00
:105AF0000CD0032D0BD110F1860F07D0D4E8EF3F67
:105B000043F00203C4E8E23F002AF6E7267170BDC5
:105B1000022D267101D00020F9E7D4E8EF3F23F0F1
:105B20000403C4E8E23F002AF7D1D4E8EF3F23F0B2
:105B30000203C4E8E23F002AEDD0F6E76FF0570019
:105B4000E5E76FF07700E2E76FF08500DFE700BF81
:105B5000E6230100E223010008B5044807F0A4FB96
:105B6000BDE80840024807F09FBB00BFEA230100E0
:105B70001F2401002DE9F04706460C4600AF00291E
:105B800036D0D1E90012E9468AB06D46A3684FF0DD
:105B9000050AA8461F48C5E90723C5E9050148F8D5
:105BA00010AF002342464FF421511B48FFF79CFCE5
:105BB000D4E90312CD466369AD461848C5E9072309
:105BC000C5E90501C5F810A0002342464FF4215154
:105BD0001148FFF789FCCD46E3690121104A0E48C0
:105BE00007F0B8FFA36901210E4A0B4807F0B2FF86
:105BF000012E07D1EFF305830B4A31460648103BCF
:105C000007F0A8FF2146304602F0E2FFBD46BDE89E
:105C1000F08700BF4D240100100501007C24010025
:105C2000AB240100BA240100E824010030BFFFF7D3
:105C3000FDBF00BF054B5A699B689A421FBF044ACB
:105C4000536843F080535360704700BFE40F002057
:105C500000ED00E070B52A4C06460D4629482A4959
:105C600008F06AF8A36ADB0647D52648274908F0FA
:105C700063F81120A36A1C0704D52248244908F0C0
:105C80005BF812201E4CA36A990712D521491D48C2
:105C900008F052F8636BA26A120609D501211E4A68
:105CA000184807F057FF1EB1A36A23F08003A362D0
:105CB0001320134CA36ADE0704D51248174908F0D5
:105CC0003BF81420A36A9C0604D50E48144908F03A
:105CD00033F815200A4B9A6AD10658BF9A6A9A6A15
:105CE000920642BF5A6A22F400525A629A6A42F0FD
:105CF000FF029A6200232B7070BD1020BAE700BF2C
:105D000000ED00E010050100FB2401001125010059
:105D100044250100572501006F250100852501005C
:105D2000A425010010B5244C2449254808F004F8A6
:105D3000A36A99013ED52248224907F0FDFF1E20A3
:105D4000A36ADA0104D51E481F4907F0F5FF1F209A
:105D5000194CA36ADB0204D519481C4907F0ECFF73
:105D60000220A36A1C0304D51548194907F0E4FF73
:105D70002120114CA36A590304D51148154907F095
:105D8000DBFF2220A36A9A0304D50D48124907F0CD
:105D9000D3FF2320084CA36ADB0304D508480F492E
:105DA00007F0CAFF2420A36A6FEA03436FEA134394
:105DB000A36210BD1D20C3E700ED00E0D325010064
:105DC00010050100EB250100FE2501001826010049
:105DD0004226010060260100852601009F26010061
:105DE00070B5294C06460D462848294907F0A4FFFE
:105DF000A36AD9043CD52548264907F09DFF172002
:105E0000A36A1A0504D52148234907F095FF1820F5
:105E10001D4CA36A9B0512D51C48204907F08CFF36
:105E2000A36BA26A100409D501211D4A174807F087
:105E300091FE1EB1A36A23F40043A3621920124C01
:105E4000A36A590504D51148164907F075FF1A20B1
:105E5000A36ADA050ED50D48134907F06DFF1B2024
:105E6000094A936A43F47F43936200232B7070BD09
:105E70001620C5E7A36A9B04F2D504480B4907F036
:105E80005BFF1C20ECE700BF00ED00E01005010007
:105E9000CA260100E026010044250100F126010088
:105EA0000A2701001F2701003A270100A42501004D
:105EB0002DE9F0418AB0654B0446D3F804800026F2
:105EC00000AFC8F3080586F31188BFF36F8F02F0A7
:105ED0007F43B3F17F4F07D102F00C03082B12D19F
