:1000000080230020ED24000065910000D924000029
:10001000D9240000D9240000D9240000D9240000EC
:100020000000000000000000000000005126000059
:10003000D924000000000000E9250000D9240000B8
:10004000E9270000E9270000E9270000E927000070
:10005000E9270000E9270000E9270000E927000060
:10006000E9270000E9270000E9270000E927000050
:10007000E9270000E9270000E9270000E927000040
:1004800053B94AB9002908BF00281CBF4FF0FF31FB
:100490004FF0FF3000F00CB8ADF1080C6DE904CE60
:1004A00000F010F8DDF804E0DDE9022304B0704745
:1004B000704700BF034613F8012B002AFBD1181A1E
:1004C000013870472DE9F04786468C460846089E5D
:1004D000154674461946002B40F0C1808542B2FA99
:1004E00082F245D94AB1C2F1200300FA02FC9540DC
:1004F00094402EFA03F343EA0C0C4FEA154EA8B2CF
:10050000230CBCFBFEF80EFB18CC08FB00F943EAF9
:100510000C43994528D9EB1808F1FF3704D29945C7
:1005200002D9A8F102072B44A3EB0903A4B2B3FB41
:10053000FEFC0EFB1C330CFB00F044EA0344A0421B
:1005400014D92C190CF1FF3304D2A04202D9ACF11A
:1005500002032C44241A43EA07401EB1D44000236E
:1005600034607360BDE8F0874746DDE76346F1E736
:1005700092BB431B01214FEA154EAFB2200CB3FBD7
:10058000FEFC0EFB1C330CFB07F840EA03439845C6
:1005900061D9EB180CF1FF3004D2984502D9ACF1C7
:1005A00002002B44A3EB0803A4B2B3FBFEFC0EFB3A
:1005B0001C330CFB07F744EA0344A7424DD92C191E
:1005C0000CF1FF3304D2A74202D9ACF102032C4450
:1005D000E41B43EA0040C0E7C2F120039540944089
:1005E00020FA03F12EFA03F34FEA154E9040AFB212
:1005F0000343B1FBFEFC0EFB1C10190C0CFB07F8AF
:1006000041EA0041884522D969180CF1FF3004D233
:10061000884502D9ACF102002944A1EB08019BB244
:10062000B1FBFEFC0EFB1C110CFB07F743EA014378
:100630009F420ED9EB180CF1FF3104D29F4202D930
:10064000ACF102012B44DB1B41EA004193E7604619
:10065000E3E76146F7E76046A4E76346B8E783420D
:1006600006D916B9002108467CE7C6E900E0F9E79B
:10067000B3FA83F78FB9834201D3724508D8BEEB32
:10068000020460EB030301209C461EB9002169E7C8
:100690003846FAE7C6E9004CF8E7C7F1200CBB4042
:1006A0000EFA07F522FA0CF42EFA0CF1BA401C43AC
:1006B00020FA0CF3B8404FEA144901431FFA84FEB4
:1006C000B3FBF9F809FB18300B0C08FB0EFA43EAF0
:1006D00000439A4540D9E31808F1FF3004D29A4507
:1006E00002D9A8F102002344A3EB0A0389B2B3FBA9
:1006F000F9F809FB183308FB0EFE41EA03418E4569
:100700002CD9611808F1FF3304D28E4502D9A8F123
:100710000203214443EA0040A1EB0E01A0FB029832
:100720004145CE46434602D306D14D4504D2013859
:10073000B9EB020E68EB0403002EA7D0B5EB0E0256
:1007400061EB030101FA0CFC22FA07F3F9404CEAD1
:100750000303C6E9003199E74046C5E74346D9E7B8
:100760002DE9F04F91B002AF03218B4A8B4808F07E
:100770000CFC8B4D284609F012FA034698B96C46DA
:1007800088B0296802AA8748C2E905014FF40071C0
:100790009183854942F8101F4FF4E2517F4801F0E0
:1007A000A3F8A5460BE0AB6828461B687F4998472D
:1007B000031E09DA01217E4A784808F0EFFB002089
:1007C0003C37BD46BDE8F08F6C468AB02B6802AA64
:1007D00078494FF40076C2E905130123D361764BC3
:1007E000168442F8103F00234FF413516B4801F078
:1007F0007BF8A546DFF8C491484609F0D0F90346D6
:1008000040B988B0D9F8001002AA6D489683C2E9B1
:100810000501BEE78AB002AA6A4B002053616A4B09
:100820006A4993610623C2E9080142F8103F002398
:100830004FF44351594801F057F81422A5460021BE
:1008400007F1240009F092FD07F11603FB62022371
:100850003B630223BB6240F60C03BB86AB682846B1
:100860005B6807F124019847031E0BDA0121584AFF
:1008700000914A4808F09CFB002140F6354006F004
:1008800079F9E6E740F6FF73FE8ADFF83C8108FB62
:1008900006F2B2FBF3FAD9F808300021FB604748B2
:1008A0005B6807F118029847031E19DBD7E9064B6E
:1008B000A4FB082308FB0B334FF0FF387A60BB60C2
:1008C000D7E9010132A3D3E90023FFF7D9FD7B6803
:1008D000BA6898453F4B3860934107D26FF0850363
:1008E00001213D4A2D4808F059FB20E0AAFB0443B2
:1008F0000AFB0B3B26A3D3E9002359462046FFF70A
:10090000BFFD344AA04572EB0B0B0346E6D33A68B1
:10091000824202D26FF01503E2E700220092FA68E9
:100920000021146825483A68A047031ED8DBAB684D
:1009300002201B8907F118017343BB6102F01AFA08
:10094000031E14D1BB691B136C468AB002AAC2E90C
:10095000073A05232149C2E9051642F8103F002352
:100960004FF423510D4800F0BFFFA54684E70ADA93
:1009700002211B4A094808F011FB03213346194A9A
:10098000CDF800A075E73346DEE700BFAFF3008087
:1009900000CA9A3B0000000014C8000020B000000C
:1009A00064A6000044C8000003000001B2B00000CB
:1009B00067C800009AC800000400000188A6000073
:1009C000CDC80000EFC8000040420F0000408F403B
:1009D0001AC90000FFC99A3B43C90000C5C90000FD
:1009E0006BC9000099C900002DE9F04F91B0009348
:1009F00002F004030293C2F3C203013384070546E5
:100A00000E46DDF868800392059340F0BB81041D1B
:100A100030B1072909D86FF01B0011B0BDE8F08F85
:100A200001F007063444C6F10806009B4FF00009A8
:100A30004FF0040A591E4FF0FF334F460193CB4647
:100A40005346CDF810900DB1009A22600598002809
:100A500000F3E8809848009A824203D39748824284
:100A6000C0F0E080039AA4EB050E92074FEA9E00C7
:100A700000F103810F2F00F2B180002D00F00581FD
:100A800007F140020DEB020C019A0CF8200C0CF857
:100A9000102C049801300490E7E07A285DD84B28A8
:100AA0000ED8472859D829282DD8252852D054D8CF
:100AB00020287AD02338D0F1000B4BEB000B74E0E8
:100AC0004C382E2849D8DFE800F07048484848489C
:100AD0004848484848484B48484848484848485982
:100AE000484B4B595959704B6D487048184B184832
:100AF00048827F4B48484B487F0000204FF0000B56
:100B00004FF0040A38E001222A38C0B202FA00F09D
:100B100010EA0E0F49D110F0625C2FD110EA020BDF
:100B200043D06046013C5444B4FBFAF40AFB04F49D
:100B3000002D61D0A3EB050CA444B4453FF66BAF88
:100B4000002868D1042B47D158F8043B23600423C4
:100B500004342AE0019A013A01924FF0000B24E09C
:100B600011F8010C6C2834D1002011F8023C8346A6
:100B70006C2BC5D14FF0080A5346D3E708F107089C
:100B800028F00708073424F00704F8E802AB35B171
:100B900006982044B0423FF63EAFC4E900AB4FF0A8
:100BA000000B08344FF0080A534611F8010F0028D3
:100BB00078D0BBF1000F7FF470AF2528F5D14FF04E
:100BC000010B019B013301934FF0040AECE75846F7
:100BD00094E700208346A5E7082B02D06FF01500AC
:100BE0001BE708F1070828F00708F8E80223C4E922
:100BF000002308230834D8E768B9042B02D108F190
:100C00000408A4E7082BE9D108F1070828F0070831
:100C100008F10808EDE7059A013A059258F8042B07
:100C2000009210E7039A900720D54FF0010CA4EB37
:100C3000050E4FEA9E00BEF5007FCFD20F2FCDD814
:100C4000F5B107F140020DEB020E019AC0B20EF8A9
:100C5000200C0EF8102CBCF1000F3FF41AAF60F01E
:100C60007F000EF8200C09F101090137C5F10802D7
:100C70004FF6DA7E0434069297E74FF0000CDAE77D
:100C8000BCF1000F01D00136EFE7029802360028D0
:100C9000EBD10098CDE90631FFF70CFCDDE9063118
:100CA0000644E2E7631BB3F5806F97D245B9A6F11E
:100CB0000804E018B1E600BF64A4000064D6000098
:100CC000029A9B0828602B709DF81030C2B1EB701F
:100CD00085F80290B9F1000F05D0002208A8C5F1EF
:100CE000010C97420ED14FF0000AC5F101030DF13E
:100CF000200801930DF1300B574512D1601B8CE693
:100D00006B70E5E710F8013B190608D50CEB040EF3
:100D1000B64503F07F033FF67EAE04F8013B013297
:100D2000DFE7B9F1000F03D098F90020002A17DBA4
:100D3000029BD3B11AF80B2004F8012B0022019B6F
:100D400018191044B0423FF666AE98F800000099BA
:100D500004F8010B2046039209F0FBFA039A1444AD
:100D60000AF1010A08F10108C6E798F8002055F8D1
:100D700022300093029B009845F82230FFF79AFB3F
:100D8000421CDCE76FF00D0047E600BF2DE9F04F95
:100D900097B000AFD7F880B03B62CBF3C0030446F6
:100DA000894690F802A0FA62BB6141B945780078A3
:100DB0000AEB800020444D4517D8A0EB0409E378E6
:100DC000FB61BAF1000F02D01BF0010F16D1FB69D5
:100DD00053BBFB6A1BB1494620463A6A98474D46C9
:100DE00028465C37BD46BDE8F08F461C3046FFF70D
:100DF00061FB0130304409F10109DCE762682378C6
:100E00007A62FA6A9900796104EB8301002A40F062
:100E100001810E464FF000084D4601EB0A094E4590
:100E20004CD101EB0A0610E01BF0020FD1D0237861
:100E30009A007A61626804EB83017A62FA6A002A96
:100E400077D14D46904601EB0A061BF0050F0CBF0B
:100E500002230123FB62FB6906EB430A0BF002034A
:100E6000BB625645BCD016F8021B16F8013C54F87C
:100E70002390994B994502D3984B994536D3BB693A
:100E8000002B40D0786A07F069FC00283BD0E94687
:100E90008AB06A46924B53617B6AC2E906314FF4CD
:100EA000007313848F4B42F8103F00234FF412510C
:100EB0008D4800F019FD023DCD46D2E716F8013B02
:100EC000F96254F82300FFF7F5FAD7F88430F96A8D
:100ED00001304BB1D7F8883098453EBFD7F8843001
:100EE00023F8180008F10108054498E7BB6923B10D
:100EF000786A07F033FC0028C9D11BF0010F05D137
:100F0000FB6AED1AADE7BB6A002BAAD04846FFF793
:100F1000D1FAD7F8843053B1D7F8883098453FBF1D
:100F2000D7F88420431C22F8183008F10108054442
:100F300097E7BAF1000F73D01BF0040673D0D046C8
:100F4000002607F1480052463B61B96209F001FAF8
:100F5000B96A3B6901EB0A02BA62FA69F96952009F
:100F6000FA60BA6A02EB41023A610BF00202BA601F
:100F70003A69B96A8A4258D162781BF0020F18BFE9
:100F800000217A6208BF4FEA5801B2181BF0010F26
:100F9000D2B240F09F801BF0040F14BF40460020E7
:100FA000BB616270A070E17020463A6A7969FB6AA1
:100FB0009847051EFFF614AFBB69414623707B6A54
:100FC0003A6A6370FB6984F802A0E37007F1480095
:100FD000FB6A9847B0F10008C0F2BA807B69A9EBC0
:100FE0000A01C91AFB683A6AC91AD7E90A0398477D
:100FF0000028C0F2AF804FF0000BA84408EB0005BA
:1010000007F1380AB34571D300213A6A0846FB6AF2
:101010009847E5E656464FF0000807F1380092E79A
:101020005646D04696E7B04694E7BA6A12F8021BD5
:1010300012F8015CBA6254F82500274A904202D3A4
:10104000264A90421ED3BA6932B1786A7B6007F0B3
:1010500085FB7B6800288BD1BA6802BB08F12802A7
:1010600007F1300C08F10100944407F1580208F12F
:10107000020852FA80F00CF8101C5FFA88F800F8A9
:10108000105C75E7BA693AB1786A7B6007F066FB75
:101090007B6800287FF46CAF1BF0010F09D006F1CC
:1010A000280207F13000711C161806F8205CCEB239
:1010B0005EE71BF0040F3FF45BAF08F1280207F175
:1010C000300008F1010102EB000808F8105C5FFA3B
:1010D00081F84DE7002063E764A4000064D60000B7
:1010E00009CA000004000001D0AF00001BF80A305C
:1010F00054F8239087F83730D7F884302BB3D7F8DB
:1011000088309B4521D2D7F8843033F81B800121E9
:101110003A6AFB6A07F13700984700281ADB054452
:10112000B8F1000F06D14846FFF7C4F900F10108F5
:101130001FFA88F8414648463A6AFB6A98470028F1
:1011400008DB05440BF1010B5CE74FF00008DEE71C
:10115000454645E6054643E6014B1860704700BF2B
:101160007001002080B505460E461746984605F0EA
:1011700053FD034609F06CF90446DFF81890424627
:1011800049F8003039463046A84754F8090001F0C4
:1011900015FA00BF080000002DE9F047058B044652
:1011A0002807904611D4022905F0070540F0CC80AD
:1011B000204607F073FD78B10138218B042811D83F
:1011C000DFE800F0C2106D85950001290CBF45F0E5
:1011D000100545F02005258388F31188BFF36F8F34
:1011E000BDE8F08701F0070AAA4500F0A5800027B6
:1011F000B9463E46A368002B00F0BC8041F00801D0
:10120000218388F31188BFF36F8FA168002900F054
:10121000BA800D68002900F0B68033465246204659
:10122000D1F80480C047002D76D02B6829461D4692
:10123000F0E701F007035A1F012A1BD8002221F012
:101240000701062B276889B2C4E9002209D13B4671
:1012500003E0628B013262831B68002BF9D141F0FD
:1012600002012046218307F019FD00287AD041F0C1
:10127000200176E0042B0AD121F0070189B2204633
:10128000218307F00BFD10B141F020012183218B58
:1012900001F0070AAA454FD00027B946AAE72369FB
:1012A00021F0070141F00601062DD3F800902183BB
:1012B0002DD1B9F1000F3FD041F00801218388F30F
:1012C0001188BFF36F8F20463949C84729E021F0C4
:1012D0000701236941F0040189B2042DD3F8049079
:1012E0002183E6D000274FF0040A3E4682E721F032
:1012F0000701236941F0050189B2052DD3F8089053
:101300002183D6D000274FF0050A3E4672E700271A
:101310004FF0060A3E466DE72B4687E7B9F1000F0E
:10132000D1D1EFF31188202383F31288BFF36F8F9D
:10133000238B23F008032383258BEA062ED525F083
:101340001003238305F007056669218B002EBFF685
:1013500070AF00232768C4E9003321F0070141F092
:1013600001012183218B4FF0000901F0070AAA45F2
:101370007FF440AF002F9CD041F00801218388F317
:101380001188BFF36F8F002FC8D03D6839463346B0
:101390005246204607F0AEFC2F46F4E7AB067FF539
:1013A0001BAF25F02003238305F0070500E700BFEE
:1013B000218D00002DE9F047044607464FF0010952
:1013C000DFF8508014B93846BDE8F08794FAA4F5E8
:1013D000B5FA85F509FA05F32E0108EB05156FEA54
:1013E000030A24EA03042B7B002BEBD058F80630C9
:1013F0001B694BB94644736804222846196807EAFA
:101400000A0707F053FDDDE7284698470028D9D1A1
:10141000F0E700BF48B0000030B5002289B00F49A6
:101420000F4808F019FD002200230024CDE906230F
:101430000E230C4DCDE903344FF440722846CDE91C
:101440000144094B0949009405F0F6F8084928467B
:1014500008F0FFFB204609B030BD00BF7514000046
:10146000B8070020200300208D1700004013002043
:10147000BDCA0000014805F045B800BFF4020020D5
:101480002DE9F047804621480F4607F0F3FC064659
:10149000002833D000252846BDE8F087237B83B1A0
:1014A0002368DB680BB120469847636883F8069091
:1014B00023681B69D3B9636804222046196807F0C2
:1014C000F5FC013610345445E8D3B8F1000FE2D0F2
:1014D000002DDFD02846FFF76DFF0546002FF7D01F
:1014E000002140F2391005F045FBF1E7204698470E
:1014F0000028E0D009FA06F31D43E2E705464FF065
:101500000109034CDFF80CA0DDE700BF200A002032
:1015100048B0000058B00000014B53F8200070475D
:101520004CB1000008B5034608462BB1044A1360CD
:1015300000F070FC002008BD6FF01500FBE700BF55
:101540007401002010B5044C237813B9034804F04B
:10155000D9FF0123237010BD34130020F4020020B2
:1015600010B50446094807F085FC3CB1084BD3E8A8
:10157000EF1F0139C3E8E21F002AF8D1054808F03F
:1015800077FCBDE81040044804F0BCBF180A0020F6
:101590001C0A0020B8070020F402002000200146A9
:1015A000034BD3E8EF0FC3E8E21F002AF9D17047DD
:1015B000180A002070B5FFF7F1FF0546074C084EEA
:1015C000B44200D370BD63685B792BB123685B685C
:1015D00013B12946204698471034F1E748B000007F
:1015E00058B0000010B5044C0449204607F0EFF94C
:1015F000034B1C6010BD00BF5402002038B1000036
:10160000100A002000230D4A10B513700C4A0D4932
:1016100013600D4A0D481360FFF784FFFFF7E2FFE8
:101620000B4B0C4918468B4200D310BD1A1A5C684C
:101630001211013222711033F5E700BF351300207B
:10164000180A002040420F001C0A0020718E000082
:1016500048B0000058B000000146002200230148B5
:1016600007F0D6B954020020014807F06FBA00BF56
:1016700054020020024B0146186807F0BBBA00BFB5
:10168000100A0020014807F0F0BA00BF5402002001
:1016900070B5274B1878002849D0FFF7E5FF0546BD
:1016A000002841D1234B244C1B68002B19DD08F086
:1016B000D1FB4FF47A75A0FB050647F612220023F2
:1016C00005FB0161FEF7DCFED4E90032C01A40F2EE
:1016D000E93361EB0201984271F1000101D3FFF798
:1016E00069FFD4E9003213F57A7342F10002C4E9CC
:1016F0000032BDE87040FFF7C5BF63685B7923B176
:101700002368294620461B6898471034B442F4D316
:101710002846FFF7AFFF094BD3E8EF1F0139C3E8B5
:10172000E21F002ABED0F7E7054C064EEEE770BD7B
:1017300034130020180A0020B00700201C0A0020E3
:1017400048B0000058B0000070B50D4D297861B95F
:101750000120FFF795FE0B4C0B4EB44206D3FFF76A
:1017600097FF0028FBD101232B7070BD63685B7964
:101770001BB1236820469B6898471034EDE700BFF3
:101780003513002048B0000058B0000000212DE9BA
:10179000F0470846FFF774FE044658B340F21B6852
:1017A0004FF0000908F054FE1B4B1C4A1B581360F5
:1017B00033B11B4B1B68092B02DD1A4804F0A2FE53
:1017C0000025194FDFF85CA044B12046FFF7F2FD79
:1017D000044618B94FF0FF384FF0FF39FFF758FFB4
:1017E000064628B9B5B942464B46504604F0BEFEFF
:1017F0003546E9E74FF0FF384FF0FF39D2E72B6865
:101800009B691BB100222846114698471035BD42FE
:10181000F5D3E8E7054DFAE708000000140A0020B8
:101820001C0A0020F402002058B0000048B000005C
:1018300013B5184807F01EFB174B1B7873B1EFF375
:101840001184202383F31288BFF36F8FFFF720FFEB
:1018500084F31188BFF36F8F02B010BD0F4B1B686C
:10186000002BF9D050B9002200230D48CDE9002308
:1018700047F61222002305F0B9FCEDE70928EBD169
:10188000074808F0F5FA074802B0BDE8104004F038
:1018900039BE00BF1C0A002035130020140A0020A6
:1018A000B8070020F402002010B5064B04461B6860
:1018B00098472146A060044807F029F9BDE8104088
:1018C000FFF7B6BF7401002054020020044A054B04
:1018D0009B1AB1EBD30F34BF52F831000020704790
:1018E000C0AF000048B000002DE9F04F8FB0C1F349
:1018F0004A2804AF0D469146B8607B600C0DB8F1E4
:10190000000F63D000264FF0040B4FF00A0A07F1D6
:101910001403C7F80C80C7E907667E620193CDF80F
:1019200008B0CDF800A007F11C0332464846F9681C
:10193000FFF72CFAB0F5006F03461CD36C468AB053
:10194000D9F8041004AB26481A46C3E9050140F251
:10195000FF71D9614FF400711984224B42F8103F96
:101960004FF4125133462048FFF7BEFFA5462C37EF
:10197000BD46BDE8F08FC0F30A0804F11700184413
:1019800020F0070080083B60FFF766FE68F35325F0
:10199000044690B13B6800F11001C7E9083607F131
:1019A0001403F961CDE900A3CDF808B048460F4A09
:1019B000F96807F11C03FFF7E9F968F353252A4694
:1019C00020467B68B96807F090FAD0E704F1170069
:1019D00020F007008008FFF73FFE0446EDE700BF58
:1019E000D2CA000004000001F0AF0000BF8E00006A
:1019F0002DE9F04F87B00446DDE9105ADDE9127990
:101A0000934698460391BFB13B46524610210020B1
:101A1000CDF80090CDF81490FEF7E6FFB0F5006F1A
:101A200006460AD340F2FF730221174A174807B04F
:101A3000BDE8F04F07F0B2BA3E4605F1170030445A
:101A400020F007008008FFF707FE04F007040BF002
:101A5000070BE40044EA8B1444EA462444EA0554A4
:101A6000054640B13FB13B4652463146CDF8009065
:101A70001030FEF7B9FF434622462846039907B0C7
:101A8000BDE8F04F07F031BA11CB0000F0AF000015
:101A9000406820B1034BC01A40F3CF0070474FF0AD
:101AA000FF307047C0AF00000EB403B503AB53F86E
:101AB000042B01460448019301F0B6F802B05DF82A
:101AC00004EB03B0704700BFFF8F0000CA0605D4C7
:101AD0008B064CBF02490349FFF7E6BF704700BFC2
:101AE0004ACB000049CB00002DE9F04F89B09B465E
:101AF000149B9DF84CA00693159B04460593169BDA
:101B00000D469046179E0493BAF1000F00F09D8099
:101B100006F48073079307F0C7F906F0020902463E
:101B200000283ED020469149FFF7BEFF0746B9F195
:101B3000000F08D016F0440F35D12A4620468C49B4
:101B4000FFF7B2FF074406F0010353B1894B20466B
:101B500053F82A20884B8949002A08BF1A46FFF704
:101B6000A3FF06F48073002B49D006F00803002B76
:101B700063D1B8F1000F66D0424620468049FFF796
:101B800093FF0546069B3D44002B6DD1049B002B23
:101B900073D1F30700F1E48031462046FFF796FF4A
:101BA000D8E00746C3E7774B18680028CAD0764BC1
:101BB0004FF47A791B684FF03C0CB5FBF3F5B5FB9D
:101BC000F0F14FF4616300FB115509FB05F5B1FB22
:101BD000F3F2B5FBF0FE03FB121100FB1E55B1FB47
:101BE000FCF309FB05F5B5FBF0F50CFB13112046E2
:101BF0000091CDE901E56549FFF756FFA2E706F040
:101C00000803EBB1624B204653F82A206149FFF7E5
:101C10004BFF0546B8F1000F05D042462046584913
:101C2000FFF742FF0544BBF1000FABD05A462046F8
:101C30005949FFF739FF0544A4E74FF0000BE1E7EE
:101C400006F00805E6E745469CE7BBF1010F069B59
:101C500006D1002B64D1049B002B7BD000250CE027
:101C6000002BF8D04D485CE04D48069B22464D497C
:101C700006F043FD049B002B68D0DFF82C81DFF8D1
:101C80002C91049F3146102F204628BF10274FF07B
:101C9000000BFFF71BFF5D4545DC059B49462046D1
:101CA0001A78FFF701FF4FF0010B1BF0070F03D16C
:101CB00041462046FFF7F8FE5F453BD9059B494664
:101CC000204613F80B20FFF7EFFE0BF1010BBBF1E1
:101CD000100FEAD14FF0000B20463549FFF7E4FE24
:101CE0005A46059B20469A5CA2F120015F2928BF35
:101CF0002E223049FFF7D8FE0BF1010BBBF1100F7C
:101D00001DD01BF0070F03D141462046FFF7CCFE44
:101D10005F455A46E5D841462046FFF7C5FEEBE74A
:101D20001F485546A1E741462046FFF7BDFE0BF18F
:101D3000010BB0E720462049FFF7B6FEC5E7059B3B
:101D40003B440593049BDB1B04939AD1BAF1000F2B
:101D50007FF41FAF204609B0BDE8F04F07F042B94D
:101D60002046054A0549FFF79FFE15E751CB0000C5
:101D700055CB00005CB100004CCB00009DD10000B1
:101D80007ACB0000280A0020240A00205ECB000045
:101D900070B100007ECB000084CB00002D900000CD
:101DA000FF8F0000292C000091CB000089CB0000A0
:101DB00093CB000095CB00008FCB000042F20F7355
:101DC00073B58B4228BF0B4605680446052168465B
:101DD0000D4A06F02BF90646636828460B225B681D
:101DE0000A4907F0F1F863683246694628465B689D
:101DF00007F0EAF863681B2228465B68044907F08D
:101E0000E3F802B070BD00BFB4D10000B4CB000055
:101E100098CB000000210123064A904206D8064ACA
:101E200001B901231360054B186070470121400878
:101E30005B00F2E740420F00240A0020280A00203D
:101E40002DE9F34143680DF107011C6810486568EE
:101E500007F04FF930B99DF80710012902D10C485D
:101E600000F030F801232B7525682F68D5E901367D
:101E7000D3E9004824B96B681C6002B0BDE8F0816A
:101E8000214630464246B847241A0644F2E700BFCE
:101E9000B0A50000F8B50D460446064F4618B442FA
:101EA00001D12846F8BD14F8011BBB6801485B68E6
:101EB0009847F4E7B0A50000014B0360002070478D
:101EC000B8B1000070B5046A0D469CB31E4A237970
:101ED000565CB34231D01D4A525C9A4230D1A3685D
:101EE0009847002810DA022D0CD0032D0BD110F1E9
:101EF000860F07D0D4E8EF3F43F00203C4E8E23F87
:101F0000002AF6E7267170BD022D267101D000204F
:101F1000F9E7D4E8EF3F23F00403C4E8E23F002AE6
:101F2000F7D1D4E8EF3F23F00203C4E8E23F002AF0
:101F3000EDD0F6E76FF05700E5E76FF07700E2E7E6
:101F40006FF08500DFE700BF1DCC000019CC00005A
:101F500008B5044806F029FCBDE80840024806F030
:101F600024BC00BF21CC000056CC00002DE9F04776
:101F700006460C4600AF002936D0D1E90012E946EA
:101F80008AB06D46A3684FF0050AA8461F48C5E908
:101F90000723C5E9050148F810AF002342464FF476
:101FA00021511B48FFF7A0FCD4E90312CD46636919
:101FB000AD461848C5E90723C5E90501C5F810A0D5
:101FC000002342464FF421511148FFF78DFCCD46C6
:101FD000E3690121104A0E4806F0E0FFA3690121E0
:101FE0000E4A0B4806F0DAFF012E07D1EFF3058306
:101FF0000B4A31460648103B06F0D0FF21463046DA
:1020000004F022F8BD46BDE8F08700BF84CC000094
:1020100010B00000B3CC0000E2CC0000F1CC000016
:102020001FCD000030BFFFF7FDBF00BF2DE9F0411D
:1020300005460B4EDFF82C80324606EB0807CC1B1A
:102040002046094908F085F9A01942460021083CBC
:1020500008F08CF9C5F8804007F10800BDE8F08170
:10206000000000000400000058B00000054B5A6951
:102070009B689A421FBF044A536843F080535360E1
:10208000704700BF000D002000ED00E070B52A4C45
:1020900006460D4629482A4907F06BF8A36ADB0675
:1020A00047D52648274907F064F81120A36A1C0782
:1020B00004D52248244907F05CF812201E4CA36A7C
:1020C000990712D521491D4807F053F8636BA26A9E
:1020D000120609D501211E4A184806F05FFF1EB1FD
:1020E000A36A23F08003A3621320134CA36ADE07C4
:1020F00004D51248174907F03CF81420A36A9C063F
:1021000004D50E48144907F034F815200A4B9A6A92
:10211000D10658BF9A6A9A6A920642BF5A6A22F456
:1021200000525A629A6A42F0FF029A6200232B70B0
:1021300070BD1020BAE700BF00ED00E010B0000055
:1021400032CD000048CD00007BCD00008ECD0000D8
:10215000A6CD0000BCCD0000DBCD000010B5244CA6
:102160002449254807F005F8A36A99013ED522487D
:10217000224906F0FEFF1E20A36ADA0104D51E489C
:102180001F4906F0F6FF1F20194CA36ADB0204D595
:1021900019481C4906F0EDFF0220A36A1C0304D570
:1021A0001548194906F0E5FF2120114CA36A59038F
:1021B00004D51148154906F0DCFF2220A36A9A03D2
:1021C00004D50D48124906F0D4FF2320084CA36A19
:1021D000DB0304D508480F4906F0CBFF2420A36A8F
:1021E0006FEA03436FEA1343A36210BD1D20C3E7E8
:1021F00000ED00E00ACE000010B0000022CE00008A
:1022000035CE00004FCE000079CE000097CE000002
:10221000BCCE0000D6CE000070B5294C06460D4657
:102220002848294906F0A5FFA36AD9043CD52548CA
:10223000264906F09EFF1720A36A1A0504D52148F7
:10224000234906F096FF18201D4CA36A9B0512D562
:102250001C48204906F08DFFA36BA26A100409D523
:1022600001211D4A174806F099FE1EB1A36A23F406
:102270000043A3621920124CA36A590504D51148E2
:10228000164906F076FF1A20A36ADA050ED50D4826
:10229000134906F06EFF1B20094A936A43F47F43FB
:1022A000936200232B7070BD1620C5E7A36A9B04C0
:1022B000F2D504480B4906F05CFF1C20ECE700BF98
:1022C00000ED00E010B0000001CF000017CF0000CB
:1022D0007BCD000028CF000041CF000056CF00008A
:1022E00071CF0000DBCD00002DE9F0418AB0654BD5
:1022F0000446D3F80480002600AFC8F3080586F32F
:102300001188BFF36F8F02F07F43B3F17F4F07D186
:1023100002F00C03082B12D15B495C4806F029FF40
:10232000002634460023FB71EB1E092B00F2898046
:10233000DFE803F00A7F827B87878787878510071E
:102340004CBF0C460126EDE75149504806F011FFFD
:1023500000234C4DFB71EB6A9A0705D54D494B485C
:1023600006F007FF002331E0EB6A002B01DA4A494F
:10237000F5E7EB6A5B00F5D54849444806F0F9FEFD
:102380006B69A26943F480736B61BFF34F8FBFF336
:102390006F8F6B6932F8022C23F480736B61BFF38B
:1023A0004F8FBFF36F8F4DF602739A4207D0AB6A1F
:1023B000DBB26BB30120F91DFFF768FE37E023683D
:1023C0000121374A314806F0E9FD2368FA79DAB984
:1023D00007F1080504F1200C2A46206861680834DA
:1023E00003C264451546F7D17A6A002E45D0C2F380
:1023F000080121B96FEA52226FEA42227A62184636
:1024000007F10801FFF7B2FD2837BD46BDE8F081AE
:10241000AB6A13F47F4F04D00120F91DFFF7FCFED7
:1024200005E0AB6AB3F5803F9CD3FFF797FE034608
:10243000CCE70020F91DBFE70020F91DEEE71949A0
:102440008DE7194A18F4F87FE8468AB0174B18BF91
:1024500013466A461649103DC2E905134FF400734E
:102460001384144BD56142F8103F00234FF41151EF
:102470000648FFF739FAC54674E722F4FF7222F0E6
:102480000102BBE700ED00E0B7CF000010B0000094
:10249000E2CF0000F9CF00001AD0000028D00000E1
:1024A00047D0000063D000009ECF000089CF00001D
:1024B00087D0000004000001064B5A6942F0100268
:1024C0005A615A6942F480625A615A6922F00802DC
:1024D0005A61704700ED00E0EFF30880EFF30981E7
:1024E00001B57246FFF700FF01BD00BF002080F379
:1024F0001488BFF36F8F002080F30A8880F30B8865
:102500000F4880F3088801F0ABFE00200D490860F9
:10251000BFF34F8F00F02CF8202080F311880A4879
:102520004FF40061401880F30988EFF31480022112
:10253000084380F31488BFF36F8F00F0EFF80000BA
:102540008023002094ED00E0401600200023184670
:102550000649D1F89020C2F30722934200DB70476E
:10256000C1F89830C1F8A0000133F6E700ED00E0B3
:1025700010B572B6002484F31388FFF7E7FF2346F3
:102580004FF0FF300C4A03F120010133102B42F8C9
:102590002100F8D100234FF0FF30074A03F160011A
:1025A0000133102B42F82100F8D162B6BFF34F8FF0
:1025B000BFF36F8F10BD00BF00E100E0084B9B68C8
:1025C00083420BD1EFF3058343B1064B5A6842F0C7
:1025D00080525A605A6A22F400425A6204F022BBC6
:1025E000000D002000ED00E016498A684FF0300031
:1025F0001044EFF3098C80E8F01F202080F312884C
:10260000BFF36F8F104F4FF000664A698A603E60DB
:10261000D2F880000D4C2060D2F884000023C2F86C
:10262000843080F3118802F1300090E8F01F8CF3C1
:10263000098802F1000004B506F0A3FDBDE80440DE
:1026400070470000000D002004ED00E0500A00205B
:102650001EF0040F0CBFEFF30880EFF309808169CF
:1026600011F8021C0229FFD001B5724606F076FD72
:1026700001BD00BF00B2002807DB01234109034A66
:1026800000F01F00834042F82130704700E100E075
:1026900000B200280CDB01220649430900F01F00AC
:1026A0008240203341F82320BFF34F8FBFF36F8F59
:1026B000704700BF00E100E0054B420953F82220BB
:1026C000012300F01F0003FA00F01040704700BF24
:1026D00000E100E000B2002801F10101ACBF00F10F
:1026E0006040064B4FEA4111C9B2ABBF00F56140F3
:1026F00000F00F0080F800131954704714ED00E04B
:10270000044B054A23F07F039360BFF34F8FBFF361
:102710006F8F70470000000000ED00E008B5FFF784
:10272000EFFF074AD2F8883023F47003C2F88830EC
:1027300003F076FD04F098FB00F046F803F0B0FDDE
:1027400000ED00E042F8203C009B0B4942F81C3CA5
:10275000019B21F0010142F8183C029B42F8081C41
:1027600042F8143C4FF0807342F8043C0023203AB6
:102770000265C0F8843070476511000000B50B4B4E
:1027800015469860D0F88020094B0E461A60036FFA
:1027900083F30B882C4686F309880020054B984765
:1027A0002046002100220023034C2047000D00207A
:1027B000500A00208B910000651100001022014B8F
:1027C0001A61704700ED00E00023202040F20F1254
:1027D00010B5044CE1180133934281F80003F9D19C
:1027E00010BD00BF00E100E008B5EFF30583064A25
:1027F000103B02EBC30152F8330049688847BDE83B
:102800000840FFF733BC00BFACA600001FB5094C61
:10281000094A23460121094800F012F900230393D5
:10282000074B0121E41A01A80193029400F012F968
:1028300004B010BD00F0022000000020B8B100007C
:102840002003002010B50C7A0B6804F01F0223F05F
:102850001F031A43CB68640923F01F03054943EAA9
:10286000440343F00103C1F89800C1F89C20C1F86B
:10287000A03010BD00ED00E010B50A4BD3F8903049
:10288000C3F30723013B984208D901210346064AB6
:10289000064806F083FB6FF0150010BDFFF7D2FF6E
:1028A000FBE700BF00ED00E09ED0000008B0000094
:1028B0002DE9F04F8946144606464FF00008514D69
:1028C00085B0C84527DAD6F804A0BAF1000F44D085
:1028D000BAF11F0F17D91AF01F0F14D1D6F800B094
:1028E0001BF01F0F0FD1584606F072FC07460AEB8B
:1028F0000B00013806F06CFC874210D06FF0150712
:10290000414A3B4601E04346404A0121404806F027
:1029100045FB6FF01504204605B0BDE8F08F17F1B8
:10292000160FEDD0BC42EBDDC5F89870D5F89C10C1
:10293000C5F89870D5F8A03021F01F0143F01F0BA7
:10294000D6E900321A44994202F1FF3A1DD1D3452B
:1029500007D13146F8B206F044FC08F101080C3604
:10296000AFE73146C5F89870D5F89C3022F01F02C9
:1029700003F01F031343C5F89C30E0B206F031FCAE
:1029800010F1160FC5D0441CE7E7C5F89870D5F8CC
:10299000A020013B23F01F0302F01F021343D34585
:1029A0003146E0B2C5F8A030E8D006F01AFC10F1CC
:1029B000160FAED0C5F89870D5F89C209DF8083059
:1029C0000BF1FF3B62F304038DF80830D5F8A0301B
:1029D0009DF808205B0863F347128DF80820D6E9BC
:1029E00000321344009323F01F035B44A3EB0A035C
:1029F000013023F01F036946C0B20393FFF73CFF89
:102A0000BEE700BF00ED00E0E7D00000C4D000004A
:102A100008B000000522044BC3F89420BFF34F8F89
:102A2000BFF36F8F704700BF00ED00E0BFF35F8F13
:102A30000022024BC3F89420704700BF00ED00E075
:102A400010B5034C2278FFF733FF207010BD00BF94
:102A5000371300202DE9F74F294D8A4606464FF0DF
:102A60000008AB46274FD0451BDAD6F80490B9F1E1
:102A7000000F3FD031680846019106F0A9FB01998B
:102A8000044609EB0100013806F0A2FB84424FF036
:102A900014021D4B08D002FB08F36FF015024BF82F
:102AA000032003B0BDE8F08F14F1160F2C60F8D0AE
:102AB0001978A142F5DD02FB08B0C7F89840C7F8C5
:102AC0009840D7F89C4000F10801007B64F30400B3
:102AD0000871D7F8A0000C79400860F347140C7116
:102AE000D7F89C1021F01F016960D7F8A01021F0E1
:102AF0001F01296108F1010814350C36B3E700BF46
:102B0000540A002000ED00E037130020F0B54149E1
:102B1000414CD1F890302568C3F307239D4287B01C
:102B200075D80020FFF782FF3C4BC1F8C0308542CA
:102B300016D13B4C01A82570FFF7BEF900250646CB
:102B4000384FAE4213D1002023783249D1F890207B
:102B5000C2F30722934254DBFFF75CFF00202FE013
:102B6000616801EB0011FFF76DFE0130DFE70199AD
:102B7000280101EB0513DA683A40B2F5001F21D0B5
:102B8000B2F5800F2BD0B2F5801F38D15A689B6800
:102B90000958013B22F01F0003440120844623F022
:102BA0001F0340EA4C10CDE902218DF8100002A964
:102BB00020780593FFF760FE00281DDA6FF01500FE
:102BC00007B0F0BD5A689B680958013B22F01F000E
:102BD00003444FF0020C012023F01F03E1E75A6881
:102BE0009B680958013B22F01F0003444FF0000C82
:102BF000062023F01F03D4E7237801332370013527
:102C00009FE7C1F89830C1F8A00001339EE74FF06C
:102C1000FF30D5E700ED00E0C4B10000AAFF44009A
:102C2000371300200000F0FFF0B587B007460E46CE
:102C300014460021102268461D4607F097FB022328
:102C40008DF80230054B2A4621466846CDE90476C8
:102C5000019305F017FA07B0F0BD00BF1592000010
:102C600008B5024B1B689847002008BD680A002081
:102C7000034B044A1860937843F002039370704743
:102C8000680A00208001002008B50649064821F0A6
:102C90000701C1F1005202F53C3205F0D6FC0020DC
:102CA00008BD00BF872300206C0A002008B5234A16
:102CB000234B1A6000F082FB4FF47A612148D0F870
:102CC0002436C3F30802C3F309434B4382F48072F2
:102CD0001D49883201FB02334FF4FA215B00B3FB3C
:102CE000F1F201FB12331949B3F57A3F28BF0132E3
:102CF000C1F80429D0F820364FF47A60C3F30802F3
:102D0000C3F30943434342F6041082F4807202F293
:102D1000172200FB02334FF47A701B0AB3FBF0F268
:102D200000FB1233B3F5FA7F4FF0010328BF0132E5
:102D3000C1F81C27C1F80036002008BD0020A107FB
:102D4000FC01002000C0FF0010270080000012508E
:102D500048B1054B054A1B68B3FBF2F35843044BDB
:102D600043F0010318477047FC01002040420F0068
:102D700080B0000014280ED8084A12F8103053B161
:102D800002EB4002527832B10868434393FBF2F3FE
:102D900000200B6070476FF0150070471DD10000D8
:102DA00008B502F04BFF094B024698420CD0084888
:102DB000084906F03CFA6FF0040307484362BDE897
:102DC0000840143006F031BA08BD00BF0000AD0B5A
:102DD000C0AF000047D1000040000020044B93F832
:102DE0003A3013B1034802F0E3BFFFF7D9BF00BF89
:102DF00040000020F92D00002DE9F0410778002F58
:102E000040F08D80504CE26A94F850C025461CEA90
:102E1000020F0AD100224D4BC3F80025A36A6BBBF9
:102E20004B48BDE8F04106F000BA0123B0F808E0D5
:102E3000A66D4FEA4E0ED0B218420AD094F89820F0
:102E40000CEA030192B121B132460EEB0601914228
:102E500004D15B009BB26345EED9DBE732F9028B0C
:102E6000B8F1000FB8BF22F8027CF0E721B1B6F943
:102E700000100029B8BF32800236EAE7236CB4F8AC
:102E80004C2033B1334934489847012827D00228D1
:102E90003AD0B4F84C30B4F848209A4234D90133CF
:102EA000A4F84C3094F89830EBB9A36D94F8512005
:102EB00003EB4203A36594F85110A06D02F076FE77
:102EC000264B024698420ED02549264806F0AFF917
:102ED0006FF004031E48636206F0A7F903E094F85C
:102EE0009830002BE7D0E36B1BB9BDE8F041FFF74A
:102EF00075BFD5E8EF3F5A1EC5E8E12F0029F8D18C
:102F0000012BF2DCBDE8F081E36B002B88D094F854
:102F10009830002B84D1144806F0AAFF80E7022FD6
:102F20000FD102F08BFE0D4B02469842EAD00D48BD
:102F30000E4906F07CF96FF0040303484362143035
:102F40006FE7052FDED16BE74000002000500D50E9
:102F5000540000206800002064A600000000AD0BB3
:102F600065D10000C0AF0000A000002047D10000E4
:102F7000074BD3E8EF2F511CC3E8E01F0028F8D11E
:102F80000AB9FFF72BBF6FF00F025A62704700BFFC
:102F90004000002080B500AF88B06A46094BC2E906
:102FA00005304FF400739383074B42F8103F002322
:102FB0004FF4E2510548FEF797FC6FF00400BD4660
:102FC00080BD00BF80D1000003000001C0AF000041
:102FD00010B500220E4904460E4806F03DFF0020C1
:102FE00002F0FAFC0C4B984204D02068BDE8104077
:102FF000FFF7D0BF00220121D520FFF76BFB074868
:10300000C36813B9043006F010F9002010BD00BFEA
:10301000712F0000A00000200000AD0B4000002038
:1030200030B50C4689B00021142203A807F09EF9A0
:10303000207900F01F01C0F3040307298DF81C302C
:1030400008D90A464549464806F0F1F86FF01500E0
:1030500009B030BD6279531E0B2B01D94149F2E70B
:10306000414B10F0200053F82220059213D0A27992
:103070000C2A01D93D49E6E76AB153F8223006939C
:103080002378023B082B39D8DFE803F0082C2E30D8
:10309000323438360B004FF0FF33F0E707238DF85A
:1030A0000C306378042B04D0052B2DD101238DF82F
:1030B0000D30638853B3C3F30D029B0B012B14BF78
:1030C00001234FF47A7312FB03F27D2392B2B2FB19
:1030D000F3F3013B9BB2B3F5A07F01D27C2A16D853
:1030E000234A0CE00623DAE70523D8E70423D6E7D2
:1030F0000323D4E70223D2E70123D0E71D4A0121AD
:10310000174805F042FFA1E71B4AF8E74F230125C6
:103110001A4A05FA01F1ADF80E30C9B292F85030F2
:10312000B8B1A07908B18DF8105023EA010303A8C3
:1031300082F8503002F09AFC114B98420BD0237960
:1031400003F01F03012100900E4A054805F030FFEF
:103150007CE70B43EBE700207AE700BFA0D100003B
:10316000C0AF0000B7D10000ECB10000E0D100001A
:103170004CD2000009D2000028D2000040000020FC
:103180000000AD0B77D200002DE9F0430E4685B06C
:103190004FF0FF334FF0FF32784803F0E7F97768DC
:1031A0007B1EFE2B05D9764A0121764805F0EDFEFF
:1031B0000FE000252C4627FA05F3DA0714D502F0B4
:1031C00065FCE840C3070DD42A466F496D4806F0F8
:1031D0002EF86FF01504694806F027F8204605B070
:1031E000BDE8F0830134E4B20135082DE3D10CB918
:1031F000664AD9E7327CA2F10803062B0FD8DFE834
:1032000003F0100E120E040E0C000221012C727C31
:103210000BD0002A44D05E4AC6E70321F6E75D4999
:10322000D4E70021F2E70121F0E7082A06D8DFE819
:1032300002F0070707070707070707005649C5E712
:1032400033686BB3186801387F2829D88DF80820B7
:1032500000228DF809201B68504A1B01013BADF884
:103260000A300123384682F898308DF80C3002AAD3
:103270004B4B02F041FC4B4B9842AAD133686200A1
:1032800013B19B8903FB0222F368934211D20121FF
:1032900000923C48444A05F08BFE6FF00B049AE71D
:1032A00000203E4B83F8980038463D4B02F0F4FB7B
:1032B000E1E73A4D214685F85140B06895F89830DD
:1032C000A946A8652BB133689B89013313FB04F42D
:1032D000A1B202F06BFC334B8046984202D002460A
:1032E000324973E73746324C0FCF0FC43B68002793
:1032F00023606F623368002B3DD00FCB261D86E81C
:103300000F00EB6BAE62A5F84C70A3B3D9E8EF3FAA
:10331000C9E8E27F002AF9D195F89820D2B9EB6B81
:103320001F3342F100025B0943EAC2635209CDE94F
:10333000003204F128000022002303F057FF4FF071
:10334000FF324FF0FF331B4803F010F900B1686201
:103350006C6A40E702F072FC40450246EFD0164925
:10336000084805F064FF6FF00403A4F124006B62C9
:1033700005F05BFFE3E7FFF731FDE0E744000020E5
:1033800097D20000C0AF0000B5D20000CFD200003D
:103390000AD30000E5D200003CD30000400000202A
:1033A000F92D00000000AD0B5FD3000065D10000D7
:1033B000680000205400002084D300000122024B4A
:1033C000C3F80424704700BF002008E0084B70B524
:1033D000C31A0D4607499B1004465943402206482C
:1033E00005F033FF2B4601462046BDE870401847E4
:1033F0008C0A0020B76DDBB6FCA40000402373B537
:103400000B4C0093041B0B460D460A49A410614364
:103410000646094A094805F043FF011E05DA304611
:103420002B4602B0BDE87040184702B070BD00BF27
:103430008C0A0020B76DDBB609930000FCA40000E5
:1034400010B5EFF31184202383F31288BFF36F8F3D
:10345000074A136823F00201DB07116002D4012040
:1034600006F04AFA84F31188BFF36F8F10BD00BFD6
:10347000DC0A002070B500220121044640F205104C
:10348000FFF728F90F4801F031F80F4B984215D19A
:1034900001F03CF826690D49304605F04EFC002845
:1034A0000BDB012535642469084904F11C0005F093
:1034B00044FC002801DB0020E56470BD6FF00400CF
:1034C000FBE700BF2D9300000000AD0B1CB2000015
:1034D0001FB500220123CDE902236B46084ACDF82F
:1034E00000D0CDF804D005F008FF002805DB43F636
:1034F00009520023684603F039F805B05DF804FB73
:10350000279300000C22104B014602FB00330020E1
:1035100030B4D3E90E529863EFF31180202484F382
:103520001288BFF36F8F1C6C04F0C00444F00204D7
:103530001C6480F31188BFF36F8F1DB12B4630BC24
:103540000248184730BC70478C0A0020FCA40000D9
:1035500010B4EFF31182202383F31288BFF36F8F2F
:103560001648016841F002040460C80707D482F3DA
:103570001188BFF36F8F012010BC00F0E3BF10492A
:10358000D1F80C14C903F2D5EFF3118083F312883C
:10359000BFF36F8F0B490B6C03F0C00343F00203C2
:1035A0000B6480F31188BFF36F8F82F31188BFF330
:1035B0006F8F002010BCFFF7A5BF00BFDC0A002002
:1035C00000E010508C0A00202DE9F041012207464E
:1035D0003449D1E8EF3FC1E8E02F0028F9D133B9F1
:1035E000314932484B60CB608A6005F0B9FB7B1EE5
:1035F000012B28D8012F06D12D4BD3F8503403F0DE
:103600000303012B1FD006F01EFB0546E8B9294B2A
:103610001B78D3B104220646254BC3F80823244C5B
:10362000DFF89480D4F84C24D4F84C34D20315D568
:1036300003F00303012B01D0012F0FD165B386F3F3
:103640001188BFF36F8FBDE8F081EFF3118620235F
:1036500083F31288BFF36F8F0125E0E7BDB13046D9
:1036600005F0A7FDD4F8403413F0FF03DAD1D4F805
:103670000821002AD6D0C4F80831D4F80831202215
:103680000123C4F84034C8F8A0212361CAE700210F
:10369000202003F06FFAE5E70422054BC3F804236A
:1036A000D1E700BF880A0020780A0020A80A00207D
:1036B00000E010503D13002000E100E008B507488D
:1036C00006F06DFA38B10648FFF7D2FA0448FDF764
:1036D00043FD002008BD6FF01200FBE7B0A500001D
:1036E000E53600000A2838B50446074D04D1AB681A
:1036F0000D2128465B689847AB6803485B68E1B2D8
:103700009847204638BD00BFB0A5000070B5456899
:1037100006462B69E3B11035284601F0A3FB0446A9
:10372000B0B90146284601F05DFB0E4B984215D119
:10373000224628460C4901F029FB22460121DB20C4
:10374000FEF7C8FF2246012140F20D10FEF7C2FF2E
:103750003046BDE87040054905F0E0BC6FF004005C
:1037600070BD00BF0000AD0BF9380000DB93000016
:103770002DE9F04340F206354668D00648BF0320E5
:10378000337B02EA050558BFC2F3401087B001F051
:103790001F07B5F5837F144647EA43178DF80300EA
:1037A00045D00FD8062D44D007D8B5B1022D14D07E
:1037B0006FF0150007B0BDE8F083B5F5807FF7D155
:1037C00001250AE040F20222954234D0B5F5407F4F
:1037D00033D0B5F5007FEBD1042522032FD501238B
:1037E00072688B405360326982BB5F2F07F01F0302
:1037F0004FEA571177D83E4A52F8212084F480319D
:1038000002EB8302D2F88030C1F30041C4F340449C
:1038100023F4706344EA410423F00F031C4344EA99
:10382000800444EA0524C2F880400020C2E709254C
:10383000D3E70825D1E70625CFE70525CDE76303C4
:1038400041BF012372688B409360CCE71036394644
:1038500030460DF1020201F0A7FA14F4403F804611
:103860000CD13946304606F00CF9224B9845DCD194
:1038700030469DF8021001F003FBD6E74FF0000937
:1038800001AB3946304603AACDE90439CDE90199A7
:10389000CDF80C9001F0FAF8164B984288D114F448
:1038A000003315D09DF8033084F48034C4F3004411
:1038B0008DF80E3039464B46304603AA8DF80C5031
:1038C0008DF80D4001F0CEF90A4B9842CDD06FE74C
:1038D000CDE9043339460DF10303304603AA0393BF
:1038E00001F0D4F8F0E7203352F82330FFDE00BFB8
:1038F00040B200000000AD0B4209022A034670B539
:1039000003D0012A18D0CAB170BD0E4E3269516879
:103910000029F9D0012503F01F030C689D40002900
:10392000F2D08A682A4002D030464B6898473CB1B2
:10393000236821461C46F2E7034EE7E7034EE5E71E
:103940002346F6E768A5000044A5000020A5000076
:10395000F0B51646426801F01F04107B87B044EAB8
:1039600040141069002871D0B6F5001F02F110054F
:1039700006D12146284606F086F8002007B0F0BDA3
:103980000027B6F5800F01A8019747603BD1B3F13E
:10399000007F14BF052304238DF804300023CDE9F4
:1039A0000403039393680DF1030723FA01F111F067
:1039B00001013DD1B6F1A07F3AD104F01F035F2C85
:1039C0004FEA541003F1200346D8254A52F820202C
:1039D00052F82330DB072BD43A462146284601F023
:1039E000E3F9204B984219D002972146284603AAB2
:1039F00001F04CF81C4B98422BD10122214628465D
:103A000001F04EFAB9E7B3F1C06F05D0B3F1007F12
:103A100014BF01230223BFE70323BDE7394628462D
:103A200001F036FA104B9842DED06FF00B00A5E79C
:103A30003A462146284601F0B7F90B4B9842D4D1BB
:103A400028469DF8031001F01BFACEE76FF08500C1
:103A500094E76FF0150091E751F82330FFDE00BFC7
:103A600040B200000400AD0B0000AD0BB0B500AFDC
:103A7000224D284606F093F8034678BB6C4688B082
:103A800029686A461E48C2E905014FF40071918316
:103A90001C4942F8101F4FF4E2511B48FDF724FF68
:103AA000A5466FF012042046BD46B0BD2B686D469A
:103AB0008AB06A461549C2E905130123C2E90734F1
:103AC0004FF400739384124B42F8103F00234FF4DD
:103AD00031510D48FDF708FFAD46E4E72A69A968B2
:103AE0001368284623F0020313600B6800220121AB
:103AF0009847041EDADB0024D5E700BF20A50000AC
:103B00000BD4000003000001E8AF000022D4000045
:103B100005000001036803F01F025F2B02604FEAFB
:103B200053129ABF024B53F822000020704700BF87
:103B300094B200002DE9F04F1646834640F2FF187C
:103B4000DFF89091DFF890A185B000EB8101594535
:103B500003D1002005B0BDE8F08FDBF80030C3F3DF
:103B6000C322082AC3F3080400F2B180444508BF09
:103B70004FF0FF34B3F1D05F19F802704FEA1362CF
:103B800010D2192A10D8DFE802F012191F372228A4
:103B9000370F0F0F0F3A670F0F0F0F0F0F0F6A6DD1
:103BA0007085888B382A7ED06FF08500D2E7C6F802
:103BB0000446621C63D10BF1040BC8E7C6F80C463F
:103BC000631CF8D0002563E0C6F81046F1E7631CDB
:103BD000C6F80046EFD0002504E0C6F80446651C90
:103BE000E9D0012503A80394FFF794FF0122039B6A
:103BF00002FA03F383600BE0C6F80846E0E7C6F874
:103C00000046002FDCD1671CD5D0002508272A46A6
:103C1000DBF80030039403F40040002818BF0022B2
:103C200003A818BF012501930092FFF773FF039CBF
:103C3000019B00EB8400D0F88040C3F3412C009A34
:103C40003B0243EA8C03134304EA0A04234343EA96
:103C50004503C0F88030AEE7C6F80446D1E7C6F8A1
:103C60004045BCE7C6F84445AAE7C6F86045601C75
:103C7000DBF800309FD0C3F30043002BB1D0012507
:103C800003A80394FFF746FF039B05FA03F3436081
:103C90002A46BDE7C6F86445E9E7C6F86845E6E7A1
:103CA000C6F86C45E3E703A80394FFF733FF039BD3
:103CB000621C00EB8300D0F8803023F0E04343F037
:103CC0008043C0F880303FF476AF0125E0E76FF025
:103CD00015003FE765D40000F0F0FCFF036803F037
:103CE0001F025F2B02604FEA53129ABF024B53F838
:103CF00022000020704700BFA0B2000098B5044623
:103D000000220121D22000AFFEF7E4FC60682369A5
:103D1000124A00F1080101F025FC114B984217D01E
:103D200023686C4688B06A460E49C2E905134FF411
:103D3000007393830C4B42F8103F0C4800234FF460
:103D4000E251FDF7D1FD6FF00F00A546BD4698BDCD
:103D50002046074905F0E2F9F8E700BF0D9400009E
:103D60000000AD0B80D100000300000128B000006E
:103D7000399400002DE9F341BDF820C0032907461E
:103D80000D46466804690CF0010C06D90B464F4AF3
:103D900001214F4805F002F919E0B17F01294FF0E8
:103DA000010104BF5B08520801FA05F0002B65D041
:103DB0009A4266D9D4F800E072451DD094F804E028
:103DC0003EEA000E08D0434A414805F0DEF86FF0A5
:103DD000150002B0BDE8F0811146B1F5004F43D2A5
:103DE000226084F805E0326896F81E80C2F80CE57F
:103DF000C2F80485C2F808150121627923FA02F29B
:103E000092B2D7F804E08CF00108DEF828E042EA2C
:103E1000C8322EF815205FFA80F800293DD13268AB
:103E200005F5AC7552F82520002A0EDBBCF1000F19
:103E300047D0B3FA83F35B0933BB01A80192FFF7C4
:103E40004DFF0123019A93408360217921EA080103
:103E5000217139B3A37963BB10230122304606F1E7
:103E6000280101F0A5FB22E00EF1010EBEF1080FC2
:103E70004FEA5101B1D11346174A89E719461A464C
:103E8000BFE747F6FF72BCE701A80192FFF726FFE4
:103E90000123019A93404360D7E7237948EA03035B
:103EA0002371D7E7786801F0C3FB0123A3710020D9
:103EB0008FE70023A371304605F050FE0028FAD0AA
:103EC000CAE7003B18BF0123B6E700BF6ED400006D
:103ED00028B0000083D4000098D40000F8B54468EE
:103EE00000AF054605F000FBA06A28B9002128466E
:103EF00005F073FBBD46F8BD05F051FE0346B0B9B1
:103F0000A26A6C4688B011686A461548C2E9050184
:103F10004FF400719183134942F8101F12484FF477
:103F2000E251FDF7E1FC6FF01200A546E2E7E38DF8
:103F3000A06A94F82C1043F400320124066913F0AF
:103F4000010F336804FA01F414BF2343A343D0F8EC
:103F500008C03360DCF8003098470028C6DAC9E7AB
:103F6000D5D400000300000130B0000007B50021E7
:103F7000C06801AA05F037FA002804DA0121034AD3
:103F8000034805F002F803B05DF804FB24D50000F7
:103F900040B0000038B5054644680121E06805F0EE
:103FA000F3FB6B6819686369C1F82435E28BA38B56
:103FB000A07E1343228C1343628C1343627E9BB218
:103FC0000243207E02431343C1F86C3569680B68D5
:103FD000D3F8002242F48022C3F800220822C3F85A
:103FE00000254A6A0121C3F83C270022C3F8402774
:103FF0001965D3F830110029FBD0C3F800252846F5
:10400000BDE83840014905F089B800BFE3970000DA
:104010002DE9F34104460D46476805F014FEA8B9A2
:104020002B4B1B7893B14FF02008642663681B6804
:10403000D3F83031002B39D1012005F05BFC013E73
:10404000F4D10021202002F095FDEEE72022EFF3CD
:1040500011831E4682F31288BFF36F8F616809686F
:10406000D1F8301121B983F31188BFF36F8FEEE7D8
:104070007B6A20461D7063680DF107017F6A1D6829
:1040800005F037F89DF807204AB90123C5F83C77B9
:10409000C5F84037C5F83021D5F830212B6586F3B7
:1040A0001188BFF36F8F02B0BDE8F081EFF3118389
:1040B0001E4688F31288BFF36F8F62681268D2F8C9
:1040C0003021002AD4D183F31188BFF36F8FB8E772
:1040D0003D13002070B514461D4605F0E3FBA042D9
:1040E000A94113D30A4AD2E90061A41B24F01F039B
:1040F00065EB01009B1941EB0001C2E90031640945
:1041000044EAC060BDE8704002F08ABF70BD00BFE5
:10411000F807002010B500220121E420FEF7DAFAAA
:10412000174A0020D2F8183723F44033C2F8183762
:1041300000F094FF134B0446984208D10120124925
:1041400001F01CF8A04205D0104B984214D04FF05B
:10415000FF3010BD05F0A6FB67220D4B20F01F00BD
:10416000C3E900010B4BC3E900010B4B02201A60AD
:10417000FFF72AFA0020ECE76FF00B00E9E700BF39
:1041800000200E500000AD0BF80100200200AD0B26
:10419000F8070020F00700207C0B002008B505F090
:1041A00081FB054AD2E90032C01A61EB02014009E5
:1041B00040EAC16008BD00BFF807002037B5431CC6
:1041C0000CBF6FF0004420EAE07405F06BFB0D4B70
:1041D000D3E90025801A61EB05032021C4FB01030C
:1041E000402873F100042CBF20F01F010023521857
:1041F0004FF0010145EB03030091034801F022F861
:1042000003B030BDF8070020F0010020064BD3F8C2
:1042100040231C2A05D1D3F84403431E5842584179
:1042200070470020704700BF00C0FF0003689A0776
:104230000CD50368DB070DD50922074BC3F80C2505
:104240000F22C3F8042501221A60FEE7034B036026
:10425000EF3B0360704700BF00801050F000FA5041
:1042600008B501233E4A3F48C2F800383E4AD2F81A
:1042700040231C2A04BF3D4AC2F80C34FFF7D6FF86
:104280000830FFF7D3FF0830FFF7D0FF0830FFF703
:10429000CDFF00F5F470FFF7C9FF354AD2F88C3036
:1042A00043F44063C2F88C300022D30003F57F034F
:1042B00003F54043D3F8001401310AD0D3F80014B9
:1042C00039B1D3F800140132D3F80434402A0B601A
:1042D000EBD1234BD3F84024002A3DD0FFF796FFC3
:1042E00048B1214BD3F83423224B9A429EBF1C4B3A
:1042F000214AC3F84026FFF789FF18B11F4B204A17
:10430000C3F8AC27FFF782FF48B13422144BC3F83F
:104310002426D3F83C2622F40022C3F83C26124B74
:10432000D3F840331C2B08D1164BD3F80026D20704
:1043300044BF6FF00102C3F800260323124A0C4960
:10434000C2F81835D1F88C3043F44063C1F88C3092
:104350000023C2F8A03508BDC822C3F84024BDE739
:104360000000125000C50D5000C0FF000030055085
:1043700000ED00E0001D0A1840E0A91E00A0085052
:1043800078000A0400E0105000B0045030B5046812
:10439000ACB1B4FA84F30122C3F11F03DBB29A403B
:1043A00024EA0202D0E8EF5FA54204D1C0E8EC2F76
:1043B000BCF1000FF6D1EAD102480B7030BD0248C3
:1043C000FCE700BF0000AD0B0200AD0B10B50368A9
:1043D000CB40DB0710D401238B40026843EA020183
:1043E000D0E8EF4F944204D1C0E8EC1FBCF1000FBD
:1043F000F6D1F2D1014810BD0148FCE70000AD0B39
:104400000400AD0BF7B5054648B3012825D10422B9
:104410004FF48073712032490024C1F80803012051
:1044200002F1A04203F1A04303F5871302F58712BE
:1044300010601C601B682B4BD3F840331C2B13D02F
:10444000854201D10DF10704002342F21076244F7A
:104450008DF8073065B1012D2ED003B0F0BD1422C8
:104460004FF484730420D6E7012DEDD1CD60E9E748
:10447000D7F84C3403F480336CB9002BEDD0012015
:1044800005F038FA013EF3D1E7E7012005F032FAF2
:10449000013EDFD1E1E7D7F84C2402F0030222709D
:1044A000002BDAD09DF80730002BEED0012DD4D1AF
:1044B00000220D4B5A71D0E7D7F80C3403F4803347
:1044C0003CB9002BF4D0012005F014FA013EF3D1E1
:1044D000C3E7002B0CBF012300232370E2D1E7E7E1
:1044E00000E0105000C0FF00800B0020044B1A7940
:1044F00022B9012218601A710248704702487047B9
:10450000800B00200000AD0B0C00AD0B08B50A4B72
:104510001B6843B140F20510FEF7CEF818B940F21F
:104520000510FEF7A7F80022044BC3F8402401222F
:10453000034B1A7008BD00BF800B002000E0105034
:104540003C13002010B510B1012845D010BD324BEE
:10455000D3F84C14D3F84C24C80324D502F0030339
:10456000012B04D013B10020FFF74CFF00232A4A8F
:104570000420C2F8403410224FF48473002103F168
:10458000A04303F5871319601C68012402F1A042BF
:1045900002F587121460214A1268002A36D01E4B99
:1045A000C3F80403D2E7D3F84824D107DED5D3F803
:1045B00050249207D7D4194A12681AB10422C3F8BA
:1045C0000423C3E7D3F80821002AFBD00022C3F854
:1045D0000821D3F80831B9E700220F4BC3F81021A6
:1045E000D3F81011C3F81821D3F81811C3F8142107
:1045F000D3F814210A4AD2F840231C2A04D00022FE
:104600004FF480737120B9E79860F8E71A68002AC0
:10461000FCD019601B6899E700E01050800B002067
:1046200000C0FF0070B500251E4C1F4ED4F80C339F
:1046300003B970BDB3FA83F3C3F11F039A0002F507
:10464000807292B202F1A04202F5871215601268E0
:104650000122D8B202FA03F3DBB2102BC4F80833FC
:1046600011D0402B1BD0042B16D1D4F84C14D4F805
:104670004C14890710D1C4F84024C4F804332261D3
:10468000D4F80C33D4E702237371C4F81451D4F86E
:1046900014312023C4F8043333689847F0E7757168
:1046A000FAE700BF00E01050800B0020036803F021
:1046B0001F025F2B02604FEA53129ABF024B53F85E
:1046C00022000020704700BF88B40000034A43095D
:1046D000D35C00F01F001844C0B2704763D50000DF
:1046E00070B505460846FFF7F1FF3C212A79184BC3
:1046F00001FB0202083233F81200C10526D57824E6
:104700000026C0F3432120F4F85023F812002A7940
:1047100004FB02340E3434F8020F10F4807F03D00F
:10472000C0F34320814211D00136232EF3D1002063
:10473000C2EB02120A4443F8320078202A79BDE81D
:10474000704000FB02306030FFF740BE70BD00BF1C
:10475000880B0020F0B50646002487B0114F019168
:1047600017F8012B06AB03EBD20313F8143C02F04D
:104770000702D34013F0010306D10134032CEFD11B
:104780000023184607B0F0BD074A03AD07CA85E805
:10479000070055F824100A6A46F824200A62002A05
:1047A000EBD0EEE773D5000060B0000010B5044612
:1047B0000846FFF78BFF3C2303FB0400024B083045
:1047C00033F81000400B10BD880B002010B50446D4
:1047D0000846FFF77BFF3C2303FB0400034B083034
:1047E00033F81000C0F3400010BD00BF880B00205C
:1047F00010B504460846FFF769FF3C2303FB04009D
:10480000034B083033F81000C0F3401010BD00BF58
:10481000880B002078232DE9F04F6F4C0E460C1BBF
:10482000B4FBF3F4D0F81413DFF8B0B1C9B28BB015
:1048300041F400315BF83420009005F0D6F8810394
:10484000054638D50023E7000BEBC404CDE9073358
:104850000993636807A819460193FFF77BFF3B1D87
:1048600003934FF0000A5E4B0DF11C090293029A6C
:1048700012F8013B0292039A02EBD3021BF80220CA
:1048800003F0070322FA03F3DA071AD40AF1010A44
:10489000BAF1030F09F10409E9D14FF40031002204
:1048A000009805F0A2F8019907A8FFF753FF002828
:1048B000D7D125F400350124002D76D10BB0BDE809
:1048C000F08F484B53440493D9F800100029DDD0F1
:1048D00091FAA1F1B1FA81F1049B1C7841EA4414E8
:1048E0002046FFF7F3FE083036F81080C8084FEA7C
:1048F00098030593012319F8002001F0070103FA3A
:1049000001F122EA010209F8002006A80694FFF747
:10491000CDFE069A059B203250F82220C8F382076C
:104920005B07B846C2F3014223D53046D7B22146D1
:10493000424605F03BF806A80694FFF7B7FE069B33
:10494000203350F82330C3F301439F4207D10021A5
:10495000204605F01CF83946204605F018F806A850
:104960000694FFF7A3FE0122069B02FA03F30362FB
:10497000AAE7022A0DD10321204605F008F807F026
:104980000503012BEBD142462146304605F00EF8D7
:10499000E5E702212046059204F0F9FF032FF2D04B
:1049A000059A032ADBD1022FECE795FAA5F3B3FAB7
:1049B00083F3009904FA03F225EA020503F5A272D3
:1049C00051F8222006EB43033046B3F86410C2F3DB
:1049D000014204F0EBFF6FE7880B002094B4000065
:1049E00073D5000073D500002DE9F743054608464E
:1049F000FFF76CFE3C222B79204F02FB03030833A8
:104A000037F813300E46DB07044635D5284605F047
:104A100013F895F8049031464846FFF7E9FE60B177
:104A20004846FFF7C3FE0022D5F8008000B208EB2D
:104A30008003C3F81025C3F8102528463146FFF738
:104A40004FFE3C222B7901A802FB034400230834CB
:104A500027F814300196FFF729FE019B00EB830035
:104A6000D0F88020064B134043F00203C0F880309A
:104A7000044803B0BDE8F0830348FAE7880B002040
:104A8000F0F0FCFF0000AD0B0400AD0B2DE9F04F82
:104A90009046044685B00846FFF718FED8F8009007
:104AA0000F4606462579B9F1000F23D02846FFF7B7
:104AB0008DFE18B12846FFF79BFE58BB00230DF171
:104AC0000F02CDE900338DF80E308DF80F300DF167
:104AD0000E014B46384604F011FF3C2303FB0563EF
:104AE0005D49083331F8132022F0020242F001023E
:104AF00021F81320D8F80430002B3FD03946207914
:104B000093F80090D3F804A0FFF760FE20B1BAF14B
:104B1000000F26D0514835E03C226A43DFF838E1E7
:104B200002EB060C0CF1080C3EF81C3023F02003BD
:104B3000DB04DB0C2EF81C30BAF1000F11D0B9F1F8
:104B4000030FE7D8D8F804102068496891F800A04E
:104B500000EB8A00B9F1000F17D1C0F81095C0F82A
:104B600010953C2303FB05653B4A083532F81530A8
:104B700023F01C0343EA890322F81530D8F80830E3
:104B800063BB374805B0BDE8F08FD0F810B552448C
:104B90002BF0030BC0F810B5206843EA4A3300EB52
:104BA0008A01D1F810050EEB420220F4473020F4C0
:104BB0007C70C1F8100541F6F070D1F810B500EA2C
:104BC000071040EA094040EA0B0043F02003C1F817
:104BD0001005A2F864702EF81C30C2E73946D3E9FC
:104BE00000852046FFF77CFDB8F1000FC9D078237F
:104BF0002079194F4343FA18FB58984504D153685C
:104C00009D4201D100220CE0782303FB00700DF1DE
:104C10000F016030FFF7BAFB114B9842B2D19DF8FB
:104C20000F203C212379C3EB0313134447F833804F
:104C30002379C3EB0313134407EBC3035D602379AC
:104C400001FB0363083337F8131041EA422242F4B0
:104C5000807227F8132094E7880B00200400AD0B26
:104C60000000AD0B2DE9FF470546084617461E46D6
:104C7000FFF72CFD8946044687B395F8048040462B
:104C8000FFF7A4FD18B94046FFF7B2FD68BB3C230F
:104C900003FB0848DFF8E4A008F108083AF81830E8
:104CA00013F01C0F02D07B78012B1ED001238DF84E
:104CB0000F3000237A1CCDE900734846BB1C0DF170
:104CC0000F0104F01BFE3C222B7902FB0343083347
:104CD0003AF8132042F003022AF81320002E4BD09A
:104CE00049462879FFF772FD18B9254804B0BDE898
:104CF000F08700214FF03C0C30782B68820003EBEA
:104D00008003C3F81015C3F810152B791B490CFB51
:104D10000343083331F8137027F4604727F0200766
:104D200021F8137077783FB32B68B6781A44D2F81D
:104D300010E5144B3F040EEA0303C2F8103541F6A8
:104D4000F07307F4403703EA09133605D2F810E58B
:104D50003B4306F48016334343EA0E03C2F8103592
:104D60002B790CFB0344083431F8143043EA403308
:104D700043F0200321F814300348B7E7880B0020E4
:104D80000400AD0B0FE0ECFF0000AD0B30B5782553
:104D90000479044B05FB0434A160017905FB013360
:104DA000DA6030BD880B002070B5067914463046B5
:104DB000FFF71EFD68B10846FFF788FC3C2303FBA4
:104DC0000600054B083033F8103004485B0B2370A5
:104DD00070BD0348FCE700BF880B00200000AD0B4E
:104DE0000400AD0BF8B5064607797820194D00FB95
:104DF000075393F8744054BB18464622214610309E
:104E000005F0B4FA3179144A336852F8316021461A
:104E10008E4212D10022C3F30830C3F8442101307E
:104E2000D3F84421FDF726FC782303FB0755012323
:104E30000A4885F874302B66F8BDCAB2920002F5B4
:104E40008070442A04BF1C501A580131E0E704481E
:104E5000F2E700BF880B002094B400000000AD0B07
:104E60000C00AD0B78210279044B01FB023393F85F
:104E70007400003818BF0120704700BF880B002065
:104E80000079024B03EB8000FFF7A0BA000200207C
:104E90000079024B03EB8000FFF778BA0002002094
:104EA0002DE9F74390F80490044648461746FFF76B
:104EB0009FFC0D46266800B34846FFF787FC8046F6
:104EC000D8B94846FFF772FC05B2AD0005F580720F
:104ED00046F802802168B2582944D1F8102542F0E2
:104EE0000102C1F810252FB10122216802FA00F356
:104EF000C1F8143303B0BDE8F083D6F81433284664
:104F00009B035CBF4FF40033C6F81433FFF7DEFB9E
:104F10003C22237902FB03000E4B083033F810309B
:104F2000C3F38203042B11D0052B11D001A80195E6
:104F3000FFF7BCFB019BC168D94001F001010231C0
:104F4000284603B0BDE8F04304F021BD0321F7E794
:104F50000221F5E7880B002001490248FFF75ABCFF
:104F6000880B002000A00D5001490248FFF752BCF9
:104F7000000C002000C0105010B50024037A0D4929
:104F8000CA181B0103F1A04303F5622392F85420D1
:104F9000C3F82C450C2303FB02130468DC60426851
:104FA0001A610122007A18758B68824013438B6066
:104FB00010BD00BFE0000020074B027AD3F81015A7
:104FC00021F001010A43C3F810250268C3F8A426A2
:104FD0004268C3F8AC26704700200E50012303FA44
:104FE00000F010F0670F0AD0064B5B68DB4303F05C
:104FF00067030342044B054818BF1846704704482E
:10500000704700BFE00000200000AD0B0400AD0BB6
:105010000800AD0B2DE9F048EFF31181202383F355
:105020001288BFF36F8F4FF0FF356FF04044094E89
:10503000D6E900BC5D4574EB0C07F9D3CCF3130340
:10504000C0E900B381F31188BFF36F8F0248BDE858
:10505000F08800BF40270E500000AD0BF0B53C4D6E
:1050600085B02C78002C6FD13A4A01AB07CA83E88F
:10507000070039491846D1F8102522F00202C1F87C
:105080001025FFF799FF0723672202F00101214451
:10509000013BCCB24FEA5202F7D1052C56D119464A
:1050A0004FF0010C2A4E00246720CFB204E00CFA26
:1050B00002F220EA0200013490FAA0F25FFA84FEC4
:1050C000BE45B2FA82F2F2D30131327505292A4483
:1050D00082F8547006F10C06E5D1012100241F4826
:1050E0009A0801FA02F212F0670F18BF1C5004333D
:1050F000302BF5D1E420FDF7BDFA174B1849D3F852
:10510000102503F5C07322F00202C3F8902340F685
:10511000FF72C3F8A82100221A60A3F5807004333F
:105120008B420260F8D101240B4B0E4A1C660E4BD9
:105130005D201B68B3FBF2F358430C4B23439847A5
:105140000B482C7005B0F0BD0A48FBE70A48F9E7A8
:10515000E00000206CB0000000200E5000210E5036
:10516000B0210E5040420F00FC01002090B0000022
:105170000000AD0B0C00AD0B0100AD0B73B52A4C5C
:10518000054663680E4603F0010304F1140101A80B
:105190000193FFF7FBF8254B98423DD10023337074
:1051A000636823F001036360A36843F00103A36015
:1051B0001F4BD3F81025960732D4D3F8102542F0B0
:1051C0000202C3F81025C5B1D3F8482712F0010236
:1051D00002BFD3F8481741F00101C3F84817144B38
:1051E000D3F84017D3F844174C00F9D42AB9D3F8B0
:1051F000482722F00102C3F848270E4B0E4A1B68CD
:10520000B3FBF2F30A4A03EB43135BB1D2F8401746
:10521000D2F84417490001D402B070BD013BF4E755
:105220000648F9E70648F7E7E00000200000AD0B6C
:1052300000200E50FC01002040420F000C00AD0B7E
:105240000700AD0B2DE9F0410446007A1D46FFF73B
:10525000C5FE1E4B9046984206469DF8187031D107
:105260002046FFF789FEEFF31180202383F3128895
:10527000BFF36F8F227A164B9200134400221A60FC
:10528000217AC5F31305090101F1A04101F562215D
:10529000C1F82085C1F8245580F31188BFF36F8FC2
:1052A00087B10123227A0B4903FA02F2D1E8EF5FBA
:1052B0001543C1E8E05F0028F8D1227A9340064AFE
:1052C000C2F824333046BDE8F08100BF0000AD0BCA
:1052D00000210E506801002000200E50F7B5284B29
:1052E000284CD3F82C6304F188070EB903B0F0BD45
:1052F00096FAA6F00123B0FA80F08340DA432249FF
:1053000026EA0306231893F85450830019440C230B
:1053100003FB0543DB6873B3D7E8EF3F03EA020CF6
:10532000C7E8EECFBEF1000FF6D1C340DB0719D5B9
:10533000020102F1A04202F56222D2F82435D2F82D
:105340002025D1F800C0BCF1000FCED04FF0000CEA
:10535000C1F800C00C2101FB054529690091E968ED
:105360008847C2E705F10C0304EBC30C54F8332063
:10537000DCF80430E5E70A68002AB6D00B60B4E731
:1053800000200E50E000002000210E5010B5184BF8
:10539000D3F80443E1040AD5D3F830213AB100220E
:1053A000C3F83021D3F83031124B1B689847A20460
:1053B0000BD50F4BD3F834213AB10020C3F8340198
:1053C000D3F834310C4B1B68984763040ED5084B57
:1053D000D3F8382152B10022C3F83821D3F838313C
:1053E000054B0120BDE810401B68184710BD00BFE9
:1053F00000E010507C0C0020780C0020036803F0C3
:105400001F025F2B02604FEA53129ABF024B53F800
:1054100022000020704700BFA4B40000142370B520
:1054200005790A4C6B43E618E35833B9022100684A
:1054300004F06AFB08B101233372142303FB054413
:10544000207A023818BF012070BD00BF800C0020F8
:105450002DE9F3470B7F06460C46002B47D0617FB2
:10546000278B94F815E094F81680A27E94F81B9090
:10547000336861B9D4E90150E168D4F800C0C3F8D9
:1054800060C5C3F86455C3F86805C3F86C150025FA
:1054900042EA0922C3F80CE5C3F80485C3F808758D
:1054A000C3F8102530680F34C0F81051D0F810211F
:1054B000C0F80851D0F80821C0F80C51D0F80C21E0
:1054C000C0F30830FDF7D6F8012014F8011F336847
:1054D00000FA05F200293ED0D3F818150A43013529
:1054E000042DC3F81825F0D102B0BDE8F0870127DC
:1054F000DFF86C90043904F1100504F10C0851F840
:1055000004AFBAF1FF3F1AD02B78CDF804A001A860
:10551000D3B1FFF773FF019B07FA03F3436001A8C0
:10552000CDF804A0FFF76AFF019B00EB8300D0F8E1
:10553000803003EA090343F00303C0F88030884554
:1055400005F10105DBD18AE7FFF758FF019B07FA58
:1055500003F38360E3E7D3F8181521EA0202BEE7FC
:10556000F0F0FCFF2DE9F041142690F804800D4C7A
:1055700006FB08F6A71997F808C0BCF1000F0ED17A
:10558000A2517B6019B10B7F3B74FFF761FF1423BD
:1055900003FB0844012304482372BDE8F08103485B
:1055A000FBE700BF800C00200000AD0B0C00AD0B32
:1055B00070B40C4615461A4601791C4B01EB81016B
:1055C000266803EB81010368C3F80467A6887600A8
:1055D000C3F80867A668C3F82865E668C3F82C65B1
:1055E00003682668C3F82867A6887600C3F82C6786
:1055F000A668C3F84865E468C3F84C45046805F03C
:10560000010303EB5505C4F81455D4070CD412F06C
:10561000020403D0002B14BF082404240568C5F835
:10562000004270BC04F038BA1024F7E7800C002068
:10563000002238B503680579C3F800220122036807
:1056400004465A6071B12046FFF7E8FE0028FAD000
:1056500000222368C3F800251422054B02FB053302
:1056600001221A722046BDE83840FFF7D7BE00BFBE
:10567000800C0020B22110B51A4804F045FAC1068A
:10568000044608D5184BDA68520704D51A6812B1D7
:10569000012059689047A00608D5134BDA68110716
:1056A00004D51A6812B1022059689047220608D51D
:1056B0000D4BD86810F0100003D11A680AB1596870
:1056C0009047A3070DD50022064BC3F80025012201
:1056D000054B1A721A6822B1BDE8104003205968C0
:1056E000104710BD00200D50800C0020044B40EAF4
:1056F0000120C3F80005D3F80024D207FBD570477A
:1057000000B0045030B50A4B082493F862500122CF
:105710000023104203D0154208D00133DBB2013C14
:105720004FEA4202F5D103480B7030BD0248FCE756
:10573000940C00200000AD0B0400AD0B054B93F85A
:105740006000431E012B03D9043818BF01207047A5
:1057500000207047940C0020002010B5154A16490F
:10576000C2F8000591F86140D2F8043381F8604036
:105770000C6823F033030CB143F02303C2F81C017F
:10578000D2F81C41C2F81801D2F81841C2F8080139
:10579000D2F8082191F86520D00791F8662048BF1B
:1057A00043F08003D207034A48BF43F04003C2F8E6
:1057B000003310BD00500D50940C002070B5002334
:1057C00001264FF0FF340D4A92F8621018B90BB160
:1057D00082F8621070BD90FAA0F3B3FA83F306FA70
:1057E00003F5043342F8334002EBC3035C6020EA64
:1057F0000500012321EA0501E8E700BF940C002021
:1058000073B50023044601AA0E464FF4807101933C
:1058100004F0A9F94FF48A71204604F0A4F94FF47A
:1058200082710546204604F09EF920B11EB115B1E3
:10583000144BD3F8343601AA4FF48471204604F097
:1058400092F94FF48671204604F08DF94FF4887177
:10585000204604F088F90C4B234083B14FF48E7539
:10586000294601AA204604F07EF9291F0835204662
:1058700089B2ADB204F077F9B5F5AE7FF0D10198F9
:1058800002B070BD00500D50C0FF3F0010B543780E
:1058900002781B03120202F4E06203F4805344888E
:1058A0001343164A017C02EA044213438279120729
:1058B00002F0E04213434279D20202F40062134341
:1058C0000279D20392B213430A0102F1502202F587
:1058D0005022C2F818358468094B0A1D43F832403B
:1058E000C06803EBC2025060012202FA01F193F892
:1058F00062200A4383F8622010BD00BF0000FF0150
:10590000940C0020F0B50025314C059E84F86550BC
:1059100084F86650A5602561266084F86300A5833D
:105920002C4CC4F8F015C4F8F42516B32322C4F89F
:10593000002300254FF0010C254F264E0CFA05F2EE
:10594000024005F1510417D1210106EB04147250F5
:10595000626006EB0514D4F81815013521F40061D6
:1059600041EAC222082DC4F8182507F10807E5D13D
:10597000F0BDC4F80063DCE7D7E90821B2F1FF3FCE
:1059800023D05FEA123E05BF4FEA521E02F01F020B
:10599000A2F5805242EA0E2214BF42F0004242F0C9
:1059A00080424FEA041E46F80E204A1C0FBF002119
:1059B0004A0901F01F0141EA022118BF41F080416C
:1059C00006EB04141A466160C3E70022E9E700BF52
:1059D000940C002000500D5070B51F4D95F860409C
:1059E000002C37D10126FF2085F86060FFF7E6FE26
:1059F0001A4B1B49C3F80041D3F80021C3F80441F6
:105A0000D3F80421C3F81041D3F81021C3F814418E
:105A1000D3F814311C239A0806FA02F212F0330F5D
:105A20001FBFA3F1AF22A2F57202146012681A1F01
:105A3000920806FA02F212F0330F1CBF5C505A585B
:105A400008335C2BE7D1D520FCF714FE0023054872
:105A50002B6070BD0448FCE7940C002000500D50F2
:105A6000FC500D500000AD0B0C00AD0B08B502460C
:105A7000FFF764FE20B91046FFF708FF014808BD94
:105A80000148FCE70000AD0B0B00AD0B014B93F898
:105A900062007047940C00202DE9FF4105460F4637
:105AA00016469846FFF74AFEF0B928460DF10F0159
:105AB000FFF728FE0D4B0446984211D1331E18BF44
:105AC0000123324639462846CDF80080FFF71AFFF9
:105AD000074B9DF80F2083F86420022283F8602092
:105AE000204604B0BDE8F081024CF9E70000AD0BA0
:105AF000940C00200B00AD0B2DE9FF47074699469B
:105B0000FFF71CFE8A461446064600283FD1384659
:105B10000DF10F01FFF7F6FD1F4B0546984227D107
:105B200063889DF80F803BB3B8F1010F31D8B9F10C
:105B3000000F2ED02278637812B1B3FA83F676097B
:105B400051463846CDF80090FFF7DCFE6388134AD3
:105B50000BB143F48053C2F8F835114B83F86480DD
:105B6000227983F8686083F86720042283F8602034
:105B7000284604B0BDE8F08722786378002ADFD099
:105B8000002BDDD1B8F1010F03D80126D8E7054D70
:105B9000EEE7054DECE700BF0000AD0B00500D50E7
:105BA000940C00200B00AD0B0300AD0B10B51C4B8B
:105BB0001A6972BB00F06042B2F1005F2BD193F81A
:105BC0006420B1FBF2F402FB141434BB0CB2002CC1
:105BD00023DD93F86040052C05D8032C0BD8022C4C
:105BE0000ED0104810BD062CFBD10F4A4C00C2F855
:105BF0002C06C2F830469A6842B1C3E9040103E0BA
:105C00008A420AD1C3E902020848EBE7C3E902016C
:105C1000FAE70748E6E70748E4E70748E2E700BF96
:105C2000940C00200500AD0B00500D500000AD0B92
:105C30000C00AD0B0A00AD0B0600AD0B2DE9F341D6
:105C4000544CA368002B00F0A38094F86020022A33
:105C500005D0042A36D0504802B0BDE8F0810120BA
:105C60004E4AC2F80005E168256881404DB1032520
:105C700084F86050C2F82C36C2F8301610604848DC
:105C8000EAE7C2F82C36C2F8301610600021012075
:105C9000FFF7B6FD0028F9D00123404C414D636069
:105CA00029460220FFF7ACFD0028F9D00023C4F8F4
:105CB0000831D4F80821C4F80C31D4F80C21C4F808
:105CC0000035DCE70120354AC2F80005216839B10A
:105CD000052184F86010E168C2F82C368140CBE7DA
:105CE00094F86410A58B019103EB450349000093E0
:105CF000C2F82C36C2F83016106000210120FFF7E0
:105D00007FFD0028F9D094F868305BBB0123234D58
:105D10006B6069460220FFF773FD0028F9D000226E
:105D2000C5F80821D5F80831C5F80C21D5F80C3193
:105D3000A18B94F864300B44E1689BB28B42A3833F
:105D400021BF184BA283D3E9020122614FF0000268
:105D500028BFC3E90001114B2CBF11481248C3F8FA
:105D6000002579E74FF0010800260C4FD7F8F455CD
:105D7000EDB208FA05F5013DB542C7D9C7F8048070
:105D800000210420FFF73CFD0028F9D00136F3E79D
:105D9000064861E7940C00200500AD0B00500D5043
:105DA0000000AD0B9C0C00200B00AD0B0200AD0BF6
:105DB00070B50246FFF7C2FC002854D12B4E2C4C84
:105DC00096F86030726086F86130072386F860309C
:105DD0000123C4F80035D4F80453C4F80003E36089
:105DE0003AB125F0C00545F033052248C4F8005308
:105DF00070BD00211020FFF703FD0028F9D000231B
:105E0000C4F80431D4F804311B4BC4F82C360423F5
:105E1000C4F830360123236000210120FFF7F0FC95
:105E20000028F9D00123124CA36000212020FFF7A5
:105E3000E7FC0028F9D00023C4F80431D4F8042189
:105E4000C4F80831D4F80821C4F8003596F8612068
:105E500086F86020C4F81C31D4F81C21C4F818312D
:105E6000D4F81831C1E70548C2E700BF940C002000
:105E700000500D500000AD0BAC0C00200B00AD0B22
:105E80007FB533206349FFF7BBFC10F0100F0546C8
:105E9000604E0BD01022604BC3F80823B218C3F831
:105EA0002C260422C3F8302601221A605B4CAA0675
:105EB00094F8603010D5072B07D0574BD3F8343601
:105EC000C3F34E03E36000232361534BD3F8043341
:105ED000DB0601D5FFF740FCA80718D50022A16812
