:1000000040220020FD2400003D7D0000E924000086
:10001000E9240000E9240000E9240000E9240000AC
:100020000000000000000000000000006126000049
:10003000E924000000000000F9250000E924000088
:10004000F9270000F9270000F9270000F927000030
:10005000F9270000F9270000F9270000F927000020
:10006000F9270000F9270000F9270000F927000010
:10007000F9270000F9270000F9270000F927000000
:10047C0053B94AB9002908BF00281CBF4FF0FF31FF
:10048C004FF0FF3000F00CB8ADF1080C6DE904CE64
:10049C0000F010F8DDF804E0DDE9022304B0704749
:1004AC00704700BF034613F8012B002AFBD1181A22
:1004BC00013870472DE9F04786468C460846089E61
:1004CC00154674461946002B40F0C1808542B2FA9D
:1004DC0082F245D94AB1C2F1200300FA02FC9540E0
:1004EC0094402EFA03F343EA0C0C4FEA154EA8B2D3
:1004FC00230CBCFBFEF80EFB18CC08FB00F943EAFE
:10050C000C43994528D9EB1808F1FF3704D29945CB
:10051C0002D9A8F102072B44A3EB0903A4B2B3FB45
:10052C00FEFC0EFB1C330CFB00F044EA0344A0421F
:10053C0014D92C190CF1FF3304D2A04202D9ACF11E
:10054C0002032C44241A43EA07401EB1D440002372
:10055C0034607360BDE8F0874746DDE76346F1E73A
:10056C0092BB431B01214FEA154EAFB2200CB3FBDB
:10057C00FEFC0EFB1C330CFB07F840EA03439845CA
:10058C0061D9EB180CF1FF3004D2984502D9ACF1CB
:10059C0002002B44A3EB0803A4B2B3FBFEFC0EFB3E
:1005AC001C330CFB07F744EA0344A7424DD92C1922
:1005BC000CF1FF3304D2A74202D9ACF102032C4454
:1005CC00E41B43EA0040C0E7C2F12003954094408D
:1005DC0020FA03F12EFA03F34FEA154E9040AFB216
:1005EC000343B1FBFEFC0EFB1C10190C0CFB07F8B3
:1005FC0041EA0041884522D969180CF1FF3004D238
:10060C00884502D9ACF102002944A1EB08019BB248
:10061C00B1FBFEFC0EFB1C110CFB07F743EA01437C
:10062C009F420ED9EB180CF1FF3104D29F4202D934
:10063C00ACF102012B44DB1B41EA004193E760461D
:10064C00E3E76146F7E76046A4E76346B8E7834211
:10065C0006D916B9002108467CE7C6E900E0F9E79F
:10066C00B3FA83F78FB9834201D3724508D8BEEB36
:10067C00020460EB030301209C461EB9002169E7CC
:10068C003846FAE7C6E9004CF8E7C7F1200CBB4046
:10069C000EFA07F522FA0CF42EFA0CF1BA401C43B0
:1006AC0020FA0CF3B8404FEA144901431FFA84FEB8
:1006BC00B3FBF9F809FB18300B0C08FB0EFA43EAF4
:1006CC0000439A4540D9E31808F1FF3004D29A450B
:1006DC0002D9A8F102002344A3EB0A0389B2B3FBAD
:1006EC00F9F809FB183308FB0EFE41EA03418E456D
:1006FC002CD9611808F1FF3304D28E4502D9A8F128
:10070C000203214443EA0040A1EB0E01A0FB029836
:10071C004145CE46434602D306D14D4504D201385D
:10072C00B9EB020E68EB0403002EA7D0B5EB0E025A
:10073C0061EB030101FA0CFC22FA07F3F9404CEAD5
:10074C000303C6E9003199E74046C5E74346D9E7BC
:10075C00074B1A691268D20648BF80F0010020B11D
:10076C009B68DB681021024818479B681B69F9E7F6
:10077C00448F00002DE9F04F83B002AF0321804A73
:10078C00804807F0E8F9804E304607F00AFF034630
:10079C00C0B96C4688B0316802AA7C48C2E9050130
:1007AC004FF4007191837A4942F8101F4FF4E251D3
:1007BC00744801F09BF8A5464FF0FF300437BD4656
:1007CC00BDE8F08F734C204607F0EBFE034628B9CA
:1007DC0021686C4688B002AA6F48DFE7204607F014
:1007EC00E0FE034628B921686C4688B002AA6B4823
:1007FC00D4E74FF480316A4806F051FC054690B1BD
:10080C006C468AB0336802AA6649C2E905134FF4F4
:10081C000071002391846449C2E9073042F8101F2B
:10082C004FF43151C4E76149614806F038FC064683
:10083C0088B123686C468AB002AA5E49C2E90513E6
:10084C000523C2E907304FF400739384564B42F8EA
:10085C00103F2B46E4E74FF4D011574806F01FFC2D
:10086C00054688B123686C468AB002AA4D49C2E994
:10087C0005130423C2E907304FF4007393844A4BE9
:10088C0042F8103F3346CBE703214C4A3D4807F072
:10089C0062F903214A4A3B4807F05DF92E46DFF81E
:1008AC0024A13F4806F01AFC8346414806F016FC8A
:1008BC00BBF1000F044606DA5B46434A012131487E
:1008CC0007F052F978E7002802DA404A0346F5E7C8
:1008DC003F49B0FA80F90A68BBFA8BF8501C0860E3
:1008EC00642192FBF1F001FB10224FEA58184FEAF9
:1008FC00591932B903215B46364A2248009407F055
:10090C003DF9BBF1000F0CD15DB986F0010614B1B5
:10091C003046FFF71DFFE6B12F4A0321194807F0B7
:10092C001AF99AF80030B4B920462BBBFFF710FF28
:10093C002A4A0321134807F00EF90122284B1A709A
:10094C008AF8009040F21B60002104F0C5FE454679
:10095C00A7E7244AE1E7002BF2D0214C2378002BA7
:10096C00EED03046FFF7F4FE03211F4A054807F08E
:10097C00F2F800232370E3E7FFF7EAFEE0E700BF9D
:10098C0070B00000A4990000208F00009CB0000003
:10099C0003000001448F0000BAB00000DDB000007D
:1009AC00389A0000FAB000000500000110000100A8
:1009BC00309A000023B10000289A000051B10000C9
:1009CC008DB10000F1110020D1B10000F8B1000090
:1009DC00580900201AB200004BB200009AB2000075
:1009EC00F011002073B20000B9B200002DE9F04FF5
:1009FC0091B0009302F004030293C2F3C2030133DB
:100A0C00840705460E46DDF868800392059340F096
:100A1C00BB81041D30B1072909D86FF01B0011B040
:100A2C00BDE8F08F01F007063444C6F10806009BC0
:100A3C004FF000094FF0040A591E4FF0FF334F4698
:100A4C000193CB465346CDF810900DB1009A22601D
:100A5C000598002800F3E8809848009A824203D356
:100A6C0097488242C0F0E080039AA4EB050E9207EF
:100A7C004FEA9E0000F103810F2F00F2B180002D90
:100A8C0000F0058107F140020DEB020C019A0CF805
:100A9C00200C0CF8102C049801300490E7E07A2814
:100AAC005DD84B280ED8472859D829282DD8252869
:100ABC0052D054D820287AD02338D0F1000B4BEBED
:100ACC00000B74E04C382E2849D8DFE800F0704851
:100ADC00484848484848484848484B484848484887
:100AEC0048484859484B4B595959704B6D487048B8
:100AFC00184B184848827F4B48484B487F000020D1
:100B0C004FF0000B4FF0040A38E001222A38C0B233
:100B1C0002FA00F010EA0E0F49D110F0625C2FD1EE
:100B2C0010EA020B43D06046013C5444B4FBFAF487
:100B3C000AFB04F4002D61D0A3EB050CA444B445CE
:100B4C003FF66BAF002868D1042B47D158F8043B13
:100B5C002360042304342AE0019A013A01924FF0F5
:100B6C00000B24E011F8010C6C2834D1002011F892
:100B7C00023C83466C2BC5D14FF0080A5346D3E791
:100B8C0008F1070828F00708073424F00704F8E8F0
:100B9C0002AB35B106982044B0423FF63EAFC4E9F3
:100BAC0000AB4FF0000B08344FF0080A534611F815
:100BBC00010F002878D0BBF1000F7FF470AF25280F
:100BCC00F5D14FF0010B019B013301934FF0040A57
:100BDC00ECE7584694E700208346A5E7082B02D0A3
:100BEC006FF015001BE708F1070828F00708F8E874
:100BFC000223C4E9002308230834D8E768B9042B7E
:100C0C0002D108F10408A4E7082BE9D108F1070880
:100C1C0028F0070808F10808EDE7059A013A059253
:100C2C0058F8042B009210E7039A900720D54FF048
:100C3C00010CA4EB050E4FEA9E00BEF5007FCFD24F
:100C4C000F2FCDD8F5B107F140020DEB020E019A32
:100C5C00C0B20EF8200C0EF8102CBCF1000F3FF4B3
:100C6C001AAF60F07F000EF8200C09F10109013772
:100C7C00C5F108024FF6DA7E0434069297E74FF07E
:100C8C00000CDAE7BCF1000F01D00136EFE7029857
:100C9C0002360028EBD10098CDE90631FFF702FCB3
:100CAC00DDE906310644E2E7631BB3F5806F97D2AA
:100CBC0045B9A6F10804E018B1E600BF748E000037
:100CCC0040BC0000029A9B0828602B709DF81030E5
:100CDC00C2B1EB7085F80290B9F1000F05D000227B
:100CEC0008A8C5F1010C97420ED14FF0000AC5F1CE
:100CFC0001030DF1200801930DF1300B574512D172
:100D0C00601B8CE66B70E5E710F8013B190608D503
:100D1C000CEB040EB64503F07F033FF67EAE04F8F1
:100D2C00013B0132DFE7B9F1000F03D098F9002045
:100D3C00002A17DB029BD3B11AF80B2004F8012B05
:100D4C000022019B18191044B0423FF666AE98F889
:100D5C000000009904F8010B2046039207F0FBFFFA
:100D6C00039A14440AF1010A08F10108C6E798F83D
:100D7C00002055F822300093029B009845F8223051
:100D8C00FFF790FB421CDCE76FF00D0047E600BF5D
:100D9C002DE9F04F97B000AFD7F880B03B62CBF3A2
:100DAC00C0030446894690F802A0FA62BB6141B9BF
:100DBC00457800780AEB800020444D4517D8A0EB0D
:100DCC000409E378FB61BAF1000F02D01BF0010FAC
:100DDC0016D1FB6953BBFB6A1BB1494620463A6AE4
:100DEC0098474D4628465C37BD46BDE8F08F461CFB
:100DFC003046FFF757FB0130304409F10109DCE7BD
:100E0C00626823787A62FA6A9900796104EB83014B
:100E1C00002A40F001810E464FF000084D4601EBD0
:100E2C000A094E454CD101EB0A0610E01BF0020FEB
:100E3C00D1D023789A007A61626804EB83017A62DC
:100E4C00FA6A002A77D14D46904601EB0A061BF050
:100E5C00050F0CBF02230123FB62FB6906EB430A5F
:100E6C000BF00203BB625645BCD016F8021B16F8F9
:100E7C00013C54F82390994B994502D3984B9945D2
:100E8C0036D3BB69002B40D0786A06F04DFA0028A7
:100E9C003BD0E9468AB06A46924B53617B6AC2E901
:100EAC0006314FF4007313848F4B42F8103F00232C
:100EBC004FF412518D4800F019FD023DCD46D2E79A
:100ECC0016F8013BF96254F82300FFF7EBFAD7F858
:100EDC008430F96A01304BB1D7F8883098453EBF61
:100EEC00D7F8843023F8180008F10108054498E776
:100EFC00BB6923B1786A06F017FA0028C9D11BF038
:100F0C00010F05D1FB6AED1AADE7BB6A002BAAD025
:100F1C004846FFF7C7FAD7F8843053B1D7F8883072
:100F2C0098453FBFD7F88420431C22F8183008F1AD
:100F3C000108054497E7BAF1000F73D01BF00406C3
:100F4C0073D0D046002607F1480052463B61B96287
:100F5C0007F001FFB96A3B6901EB0A02BA62FA6950
:100F6C00F9695200FA60BA6A02EB41023A610BF07D
:100F7C000202BA603A69B96A8A4258D162781BF0A7
:100F8C00020F18BF00217A6208BF4FEA5801B2184D
:100F9C001BF0010FD2B240F09F801BF0040F14BF66
:100FAC0040460020BB616270A070E17020463A6A36
:100FBC007969FB6A9847051EFFF614AFBB69414679
:100FCC0023707B6A3A6A6370FB6984F802A0E37051
:100FDC0007F14800FB6A9847B0F10008C0F2BA80EC
:100FEC007B69A9EB0A01C91AFB683A6AC91AD7E9E5
:100FFC000A0398470028C0F2AF804FF0000BA844BA
:10100C0008EB000507F1380AB34571D300213A6AA1
:10101C000846FB6A9847E5E656464FF0000807F18C
:10102C00380092E75646D04696E7B04694E7BA6A3F
:10103C0012F8021B12F8015CBA6254F82500274A18
:10104C00904202D3264A90421ED3BA6932B1786AD2
:10105C007B6006F069F97B6800288BD1BA6802BB0B
:10106C0008F1280207F1300C08F10100944407F153
:10107C00580208F1020852FA80F00CF8101C5FFAC2
:10108C0088F800F8105C75E7BA693AB1786A7B6049
:10109C0006F04AF97B6800287FF46CAF1BF0010F57
:1010AC0009D006F1280207F13000711C161806F859
:1010BC00205CCEB25EE71BF0040F3FF45BAF08F18F
:1010CC00280207F1300008F1010102EB000808F8D2
:1010DC00105C5FFA81F84DE7002063E7748E000026
:1010EC0040BC0000E1B20000040000016C9900005B
:1010FC001BF80A3054F8239087F83730D7F884302F
:10110C002BB3D7F888309B4521D2D7F8843033F8ED
:10111C001B8001213A6AFB6A07F1370098470028C7
:10112C001ADB0544B8F1000F06D14846FFF7BAF9AF
:10113C0000F101081FFA88F8414648463A6AFB6AF2
:10114C009847002808DB05440BF1010B5CE74FF0D6
:10115C000008DEE7454645E6054643E6014B1860C8
:10116C00704700BFD000002080B505460E461746DC
:10117C00984604F003FB034607F06CFE0446DFF8C8
:10118C001890424649F8003039463046A84754F882
:10119C00090001F015FA00BF080000002DE9F04726
:1011AC00058B04462807904611D4022905F0070543
:1011BC0040F0CC80204606F057FB78B10138218BEB
:1011CC00042811D8DFE800F0C2106D8595000129C4
:1011DC000CBF45F0100545F02005258388F31188D8
:1011EC00BFF36F8FBDE8F08701F0070AAA4500F046
:1011FC00A5800027B9463E46A368002B00F0BC80B2
:10120C0041F00801218388F31188BFF36F8FA16827
:10121C00002900F0BA800D68002900F0B680334632
:10122C0052462046D1F80480C047002D76D02B685A
:10123C0029461D46F0E701F007035A1F012A1BD867
:10124C00002221F00701062B276889B2C4E900228D
:10125C0009D13B4603E0628B013262831B68002B91
:10126C00F9D141F002012046218306F0FDFA002855
:10127C007AD041F0200176E0042B0AD121F007014D
:10128C0089B22046218306F0EFFA10B141F020011B
:10129C002183218B01F0070AAA454FD00027B946BC
:1012AC00AAE7236921F0070141F00601062DD3F8C6
:1012BC00009021832DD1B9F1000F3FD041F00801EE
:1012CC00218388F31188BFF36F8F20463949C847B3
:1012DC0029E021F00701236941F0040189B2042DB2
:1012EC00D3F804902183E6D000274FF0040A3E4641
:1012FC0082E721F00701236941F0050189B2052D30
:10130C00D3F808902183D6D000274FF0050A3E462B
:10131C0072E700274FF0060A3E466DE72B4687E73B
:10132C00B9F1000FD1D1EFF31188202383F3128888
:10133C00BFF36F8F238B23F008032383258BEA06DF
:10134C002ED525F01003238305F007056669218B44
:10135C00002EBFF670AF00232768C4E9003321F0DC
:10136C00070141F001012183218B4FF0000901F0AD
:10137C00070AAA457FF440AF002F9CD041F008012A
:10138C00218388F31188BFF36F8F002FC8D03D687D
:10139C00394633465246204606F092FA2F46F4E779
:1013AC00AB067FF51BAF25F02003238305F0070563
:1013BC0000E700BFF97800002DE9F0470446074626
:1013CC004FF00109DFF8508014B93846BDE8F087BA
:1013DC0094FAA4F5B5FA85F509FA05F32E0108EB94
:1013EC0005156FEA030A24EA03042B7B002BEBD0D0
:1013FC0058F806301B694BB94644736804222846DA
:10140C00196807EA0A0706F037FBDDE72846984714
:10141C000028D9D1F0E700BFDC99000030B50022DC
:10142C0089B00F490F4807F019FA00220023002455
:10143C00CDE906230E230C4DCDE903344FF4407255
:10144C002846CDE90144094B0949009403F0A6FE56
:10145C000849284607F0FFF8204609B030BD00BF08
:10146C008514000000070020680200209D17000072
:10147C000012002095B30000014803F0F5BD00BF39
:10148C00400200202DE9F047804621480F4606F027
:10149C00D7FA0646002833D000252846BDE8F08749
:1014AC00237B83B12368DB680BB1204698476368C4
:1014BC0083F8069023681B69D3B96368042220461D
:1014CC00196806F0D9FA013610345445E8D3B8F14E
:1014DC00000FE2D0002DDFD02846FFF76DFF054648
:1014EC00002FF7D0002140F2391004F0F5F8F1E7A5
:1014FC00204698470028E0D009FA06F31D43E2E79E
:10150C0005464FF00109034CDFF80CA0DDE700BFE6
:10151C006C090020DC990000EC990000014B53F899
:10152C0020007047549A000008B5034608462BB1BA
:10153C00044A136000F070FC002008BD6FF0150029
:10154C00FBE700BFD400002010B5044C237813B97E
:10155C00034803F089FD0123237010BDF211002014
:10156C004002002010B50446094806F069FA3CB167
:10157C00084BD3E8EF1F0139C3E8E21F002AF8D16A
:10158C00054807F077F9BDE81040044803F06CBD3E
:10159C006409002068090020000700204002002098
:1015AC0000200146034BD3E8EF0FC3E8E21F002AEB
:1015BC00F9D170476409002070B5FFF7F1FF0546BB
:1015CC00074C084EB44200D370BD63685B792BB1F5
:1015DC0023685B6813B12946204698471034F1E71D
:1015EC00DC990000EC99000010B5044C044920462D
:1015FC0005F0D3FF034B1C6010BD00BFA001002001
:10160C00409A00005C09002000230D4A10B51370AD
:10161C000C4A0D4913600D4A0D481360FFF784FF07
:10162C00FFF7E2FF0B4B0C4918468B4200D310BD61
:10163C001A1A5C681211013222711033F5E700BFDF
:10164C00F31100206409002040420F0068090020BB
:10165C00497A0000DC990000EC9900000146002258
:10166C000023014805F0BABFA0010020014806F094
:10167C0053B800BFA0010020024B0146186806F0C9
:10168C009FB800BF5C090020014806F0D4B800BF29
:10169C00A001002070B5274B1878002849D0FFF71F
:1016AC00E5FF0546002841D1234B244C1B68002B39
:1016BC0019DD07F0D1F84FF47A75A0FB050647F653
:1016CC001222002305FB0161FEF7D2FED4E90032A1
:1016DC00C01A40F2E93361EB0201984271F100014A
:1016EC0001D3FFF769FFD4E9003213F57A7342F1A5
:1016FC000002C4E90032BDE87040FFF7C5BF636863
:10170C005B7923B12368294620461B68984710341F
:10171C00B442F4D32846FFF7AFFF094BD3E8EF1FD1
:10172C000139C3E8E21F002ABED0F7E7054C064E8C
:10173C00EEE770BDF211002064090020F8060020CD
:10174C0068090020DC990000EC99000070B50D4D83
:10175C00297861B90120FFF795FE0B4C0B4EB44272
:10176C0006D3FFF797FF0028FBD101232B7070BD28
:10177C0063685B791BB1236820469B6898471034DB
:10178C00EDE700BFF3110020DC990000EC9900009C
:10179C0000212DE9F0470846FFF774FE044658B3C4
:1017AC0040F21B684FF0000907F054FB1B4B1C4A1E
:1017BC001B58136033B11B4B1B68092B02DD1A48F5
:1017CC0003F052FC0025194FDFF85CA044B1204611
:1017DC00FFF7F2FD044618B94FF0FF384FF0FF3910
:1017EC00FFF758FF064628B9B5B942464B46504656
:1017FC0003F06EFC3546E9E74FF0FF384FF0FF3948
:10180C00D2E72B689B691BB10022284611469847EA
:10181C001035BD42F5D3E8E7054DFAE708000000A6
:10182C00600900206809002040020020EC990000AB
:10183C00DC99000013B5184806F002F9174B1B7819
:10184C0073B1EFF31184202383F31288BFF36F8FEE
:10185C00FFF720FF84F31188BFF36F8F02B010BD28
:10186C000F4B1B68002BF9D050B9002200230D48F8
:10187C00CDE9002347F61222002304F069FAEDE7C4
:10188C000928EBD1074806F0F5FF074802B0BDE880
:10189C00104003F0E9BB00BF68090020F3110020E1
:1018AC0060090020000700204002002010B5064B04
:1018BC0004461B6898472146A060044805F00DFFBC
:1018CC00BDE81040FFF7B6BFD4000020A0010020F7
:1018DC00044A054B9B1AB1EBD30F34BF52F83100BD
:1018EC000020704764990000DC9900002DE9F04F4E
:1018FC008FB0C1F34A2804AF0D469146B8607B60A7
:10190C000C0DB8F1000F63D000264FF0040B4FF014
:10191C000A0A07F11403C7F80C80C7E907667E6250
:10192C000193CDF808B0CDF800A007F11C033246A6
:10193C004846F968FFF72CFAB0F5006F03461CD344
:10194C006C468AB0D9F8041004AB26481A46C3E991
:10195C00050140F2FF71D9614FF400711984224BDB
:10196C0042F8103F4FF4125133462048FFF7BEFFA8
:10197C00A5462C37BD46BDE8F08FC0F30A0804F12C
:10198C001700184420F0070080083B60FFF766FE44
:10199C0068F35325044690B13B6800F11001C7E988
:1019AC00083607F11403F961CDE900A3CDF808B0AE
:1019BC0048460F4AF96807F11C03FFF7E9F968F389
:1019CC0053252A4620467B68B96806F074F8D0E7A0
:1019DC0004F1170020F007008008FFF73FFE0446D3
:1019EC00EDE700BFAAB30000040000018C990000D1
:1019FC00977A00002DE9F04F87B00446DDE9105AC4
:101A0C00DDE91279934698460391BFB13B465246A5
:101A1C0010210020CDF80090CDF81490FEF7E6FFD1
:101A2C00B0F5006F06460AD340F2FF730221174A45
:101A3C00174807B0BDE8F04F06F096B83E4605F1E2
:101A4C001700304420F007008008FFF707FE04F071
:101A5C0007040BF0070BE40044EA8B1444EA462419
:101A6C0044EA0554054640B13FB13B465246314627
:101A7C00CDF800901030FEF7B9FF434622462846B9
:101A8C00039907B0BDE8F04F06F015B8E9B30000B4
:101A9C008C990000406820B1034BC01A40F3CF0072
:101AAC0070474FF0FF307047649900000EB403B5D7
:101ABC0003AB53F8042B01460448019301F0B6F82C
:101ACC0002B05DF804EB03B0704700BFD77B000099
:101ADC00CA0605D48B064CBF02490349FFF7E6BF83
:101AEC00704700BF22B4000021B400002DE9F04F74
:101AFC0089B09B46149B9DF84CA00693159B0446FD
:101B0C000593169B0D469046179E0493BAF1000F51
:101B1C0000F09D8006F48073079305F0ABFF06F090
:101B2C000209024600283ED020469149FFF7BEFF2D
:101B3C000746B9F1000F08D016F0440F35D12A46EC
:101B4C0020468C49FFF7B2FF074406F0010353B15E
:101B5C00894B204653F82A20884B8949002A08BF14
:101B6C001A46FFF7A3FF06F48073002B49D006F04A
:101B7C000803002B63D1B8F1000F66D04246204613
:101B8C008049FFF793FF0546069B3D44002B6DD122
:101B9C00049B002B73D1F30700F1E48031462046FF
:101BAC00FFF796FFD8E00746C3E7774B1868002885
:101BBC00CAD0764B4FF47A791B684FF03C0CB5FBCE
:101BCC00F3F5B5FBF0F14FF4616300FB115509FB24
:101BDC0005F5B1FBF3F2B5FBF0FE03FB121100FBB4
:101BEC001E55B1FBFCF309FB05F5B5FBF0F50CFB41
:101BFC00131120460091CDE901E56549FFF756FF29
:101C0C00A2E706F00803EBB1624B204653F82A20FA
:101C1C006149FFF74BFF0546B8F1000F05D042466E
:101C2C0020465849FFF742FF0544BBF1000FABD0EB
:101C3C005A4620465949FFF739FF0544A4E74FF0AF
:101C4C00000BE1E706F00805E6E745469CE7BBF12B
:101C5C00010F069B06D1002B64D1049B002B7BD07B
:101C6C0000250CE0002BF8D04D485CE04D48069B5D
:101C7C0022464D4905F027FB049B002B68D0DFF86A
:101C8C002C81DFF82C91049F3146102F204628BF61
:101C9C0010274FF0000BFFF71BFF5D4545DC059B44
:101CAC00494620461A78FFF701FF4FF0010B1BF055
:101CBC00070F03D141462046FFF7F8FE5F453BD99D
:101CCC00059B4946204613F80B20FFF7EFFE0BF15E
:101CDC00010BBBF1100FEAD14FF0000B2046354938
:101CEC00FFF7E4FE5A46059B20469A5CA2F12001C0
:101CFC005F2928BF2E223049FFF7D8FE0BF1010BCC
:101D0C00BBF1100F1DD01BF0070F03D1414620462D
:101D1C00FFF7CCFE5F455A46E5D841462046FFF713
:101D2C00C5FEEBE71F485546A1E741462046FFF7A5
:101D3C00BDFE0BF1010BB0E720462049FFF7B6FEC4
:101D4C00C5E7059B3B440593049BDB1B04939AD18D
:101D5C00BAF1000F7FF41FAF204609B0BDE8F04F79
:101D6C0005F026BF2046054A0549FFF79FFE15E7FB
:101D7C0029B400002DB40000649A000024B40000C3
:101D8C0052B4000055B40000740900207009002002
:101D9C0036B40000789A000059B400005FB400001B
:101DAC00057C0000D77B0000392C00006CB40000CF
:101DBC0064B400006EB4000070B400006AB400009B
:101DCC0042F20F7373B58B4228BF0B46056804466D
:101DDC00052168460D4A04F0DBFE0646636828467A
:101DEC000B225B680A4905F0D5FE636832466946EA
:101DFC0028465B6805F0CEFE63681B2228465B68AC
:101E0C00044905F0C7FE02B070BD00BF48B2000027
:101E1C008FB4000073B4000000210123064A9042E5
:101E2C0006D8064A01B901231360054B18607047A8
:101E3C00012140085B00F2E740420F0070090020CE
:101E4C00740900202DE9F34143680DF107011C686A
:101E5C001048656805F033FF30B99DF8071001296B
:101E6C0002D10C4800F030F801232B7525682F683F
:101E7C00D5E90136D3E9004824B96B681C6002B07F
:101E8C00BDE8F081214630464246B847241A064444
:101E9C00F2E700BFB08F0000F8B50D460446064FC0
:101EAC004618B44201D12846F8BD14F8011BBB6892
:101EBC0001485B689847F4E7B08F0000014B036062
:101ECC0000207047C09A000070B5046A0D469CB3A0
:101EDC001E4A2379565CB34231D01D4A525C9A4259
:101EEC0030D1A3689847002810DA022D0CD0032DAE
:101EFC000BD110F1860F07D0D4E8EF3F43F002036B
:101F0C00C4E8E23F002AF6E7267170BD022D267167
:101F1C0001D00020F9E7D4E8EF3F23F00403C4E834
:101F2C00E23F002AF7D1D4E8EF3F23F00203C4E8E4
:101F3C00E23F002AEDD0F6E76FF05700E5E76FF0CF
:101F4C007700E2E76FF08500DFE700BFF8B4000030
:101F5C00F4B4000008B5044805F00DFABDE80840DB
:101F6C00024805F008BA00BFFCB4000031B500000F
:101F7C002DE9F04706460C4600AF002936D0D1E9D2
:101F8C000012E9468AB06D46A3684FF0050AA846D0
:101F9C001F48C5E90723C5E9050148F810AF002320
:101FAC0042464FF421511B48FFF7A0FCD4E9031221
:101FBC00CD466369AD461848C5E90723C5E9050157
:101FCC00C5F810A0002342464FF421511148FFF7E9
:101FDC008DFCCD46E3690121104A0E4805F0C4FD85
:101FEC00A36901210E4A0B4805F0BEFD012E07D155
:101FFC00EFF305830B4A31460648103B05F0B4FD60
:10200C002146304602F0D2FDBD46BDE8F08700BF48
:10201C005FB50000B49900008EB50000BDB500009E
:10202C00CCB50000FAB5000030BFFFF7FDBF00BF14
:10203C002DE9F04105460B4EDFF82C80324606EBBD
:10204C000807CC1B2046094906F085FEA01942461C
:10205C000021083C06F08CFEC5F8804007F1080012
:10206C00BDE8F0810000000004000000EC990000C5
:10207C00054B5A699B689A421FBF044A536843F048
:10208C0080535360704700BFC40B002000ED00E08C
:10209C0070B52A4C06460D4629482A4905F04FFED4
:1020AC00A36ADB0647D52648274905F048FE1120D0
:1020BC00A36A1C0704D52248244905F040FE1220CF
:1020CC001E4CA36A990712D521491D4805F037FE0D
:1020DC00636BA26A120609D501211E4A184805F045
:1020EC0043FD1EB1A36A23F08003A3621320134C9B
:1020FC00A36ADE0704D51248174905F020FE142008
:10210C00A36A9C0604D50E48144905F018FE152048
:10211C000A4B9A6AD10658BF9A6A9A6A920642BFCB
:10212C005A6A22F400525A629A6A42F0FF029A6288
:10213C0000232B7070BD1020BAE700BF00ED00E04B
:10214C00B49900000DB6000023B6000056B600008E
:10215C0069B6000081B6000097B60000B6B6000064
:10216C0010B5244C2449254805F0E9FDA36A9901D2
:10217C003ED52248224905F0E2FD1E20A36ADA0171
:10218C0004D51E481F4905F0DAFD1F20194CA36A1F
:10219C00DB0204D519481C4905F0D1FD0220A36AC5
:1021AC001C0304D51548194905F0C9FD2120114C13
:1021BC00A36A590304D51148154905F0C0FD222026
:1021CC00A36A9A0304D50D48124905F0B8FD2320E3
:1021DC00084CA36ADB0304D508480F4905F0AFFD92
:1021EC002420A36A6FEA03436FEA1343A36210BD72
:1021FC001D20C3E700ED00E0E5B60000B499000037
:10220C00FDB6000010B700002AB7000054B700005C
:10221C0072B7000097B70000B1B7000070B5294C39
:10222C0006460D462848294905F089FDA36AD904BC
:10223C003CD52548264905F082FD1720A36A1A05CE
:10224C0004D52148234905F07AFD18201D4CA36ABA
:10225C009B0512D51C48204905F071FDA36BA26AA1
:10226C00100409D501211D4A174805F07DFC1EB14B
:10227C00A36A23F40043A3621920124CA36A5905E4
:10228C0004D51148164905F05AFD1A20A36ADA053F
:10229C000ED50D48134905F052FD1B20094A936ACF
:1022AC0043F47F43936200232B7070BD1620C5E767
:1022BC00A36A9B04F2D504480B4905F040FD1C2091
:1022CC00ECE700BF00ED00E0B4990000DCB70000C3
:1022DC00F2B7000056B6000003B800001CB80000AE
:1022EC0031B800004CB80000B6B600002DE9F04142
:1022FC008AB0654B0446D3F80480002600AFC8F3BF
:10230C00080586F31188BFF36F8F02F07F43B3F19A
:10231C007F4F07D102F00C03082B12D15B495C48AC
:10232C0005F00DFD002634460023FB71EB1E092B36
:10233C0000F28980DFE803F00A7F827B878787873A
:10234C00878510074CBF0C460126EDE751495048D4
:10235C0005F0F5FC00234C4DFB71EB6A9A0705D593
:10236C004D494B4805F0EBFC002331E0EB6A002BA8
:10237C0001DA4A49F5E7EB6A5B00F5D54849444870
:10238C0005F0DDFC6B69A26943F480736B61BFF3EC
:10239C004F8FBFF36F8F6B6932F8022C23F480736D
:1023AC006B61BFF34F8FBFF36F8F4DF602739A4281
:1023BC0007D0AB6ADBB26BB30120F91DFFF768FEE7
:1023CC0037E023680121374A314805F0CDFB2368FB
:1023DC00FA79DAB907F1080504F1200C2A462068CD
:1023EC006168083403C264451546F7D17A6A002E39
:1023FC0045D0C2F3080121B96FEA52226FEA42229A
:10240C007A62184607F10801FFF7B2FD2837BD467E
:10241C00BDE8F081AB6A13F47F4F04D00120F91DA5
:10242C00FFF7FCFE05E0AB6AB3F5803F9CD3FFF7EA
:10243C0097FE0346CCE70020F91DBFE70020F91DED
:10244C00EEE719498DE7194A18F4F87FE8468AB087
:10245C00174B18BF13466A461649103DC2E90513BF
:10246C004FF400731384144BD56142F8103F0023D2
:10247C004FF411510648FFF739FAC54674E722F4B8
:10248C00FF7222F00102BBE700ED00E092B8000001
:10249C00B4990000BDB80000D4B80000F5B8000035
:1024AC0003B9000022B900003EB9000079B8000061
:1024BC0064B8000062B9000004000001064B5A69C0
:1024CC0042F010025A615A6942F480625A615A69A8
:1024DC0022F008025A61704700ED00E0EFF308802B
:1024EC00EFF3098101B57246FFF700FF01BD00BF94
:1024FC00002080F31488BFF36F8F002080F30A88CC
:10250C0080F30B880F4880F3088801F065FA0020EF
:10251C000D490860BFF34F8F00F02CF8202080F39A
:10252C0011880A484FF40061401880F30988EFF3D2
:10253C0014800221084380F31488BFF36F8F00F0DE
:10254C00EFF800004022002094ED00E00015002080
:10255C00002318460649D1F89020C2F30722934273
:10256C0000DB7047C1F89830C1F8A0000133F6E7E2
:10257C0000ED00E010B572B6002484F31388FFF769
:10258C00E7FF23464FF0FF300C4A03F120010133E3
:10259C00102B42F82100F8D100234FF0FF30074AEE
:1025AC0003F160010133102B42F82100F8D162B61F
:1025BC00BFF34F8FBFF36F8F10BD00BF00E100E082
:1025CC00084B9B6883420BD1EFF3058343B1064B59
:1025DC005A6842F080525A605A6A22F400425A6297
:1025EC0003F0D2B8C40B002000ED00E016498A6855
:1025FC004FF030001044EFF3098C80E8F01F2020DE
:10260C0080F31288BFF36F8F104F4FF000664A694A
:10261C008A603E60D2F880000D4C2060D2F88400B5
:10262C000023C2F8843080F3118802F1300090E866
:10263C00F01F8CF3098802F1000004B505F087FB4C
:10264C00BDE8044070470000C40B002004ED00E01E
:10265C009C0900201EF0040F0CBFEFF30880EFF371
:10266C000980816911F8021C0229FFD001B572465C
:10267C0005F05AFB01BD00BF00B2002807DB0123A7
:10268C004109034A00F01F00834042F82130704793
:10269C0000E100E000B200280CDB012206494309EE
:1026AC0000F01F008240203341F82320BFF34F8FEE
:1026BC00BFF36F8F704700BF00E100E0054B42098C
:1026CC0053F82220012300F01F0003FA00F0104001
:1026DC00704700BF00E100E000B2002801F10101E9
:1026EC00ACBF00F16040064B4FEA4111C9B2ABBF21
:1026FC0000F5614000F00F0080F80013195470478A
:10270C0014ED00E0044B054A23F07F039360BFF304
:10271C004F8FBFF36F8F70470000000000ED00E09B
:10272C0008B5FFF7EFFF074AD2F8883023F470039F
:10273C00C2F8883002F026FB03F048F900F046F8A6
:10274C0002F060FB00ED00E042F8203C009B0B49DE
:10275C0042F81C3C019B21F0010142F8183C029B01
:10276C0042F8081C42F8143C4FF0807342F8043CC9
:10277C000023203A0265C0F88430704775110000C0
:10278C0000B50B4B15469860D0F88020094B0E46CF
:10279C001A60036F83F30B882C4686F3098800209C
:1027AC00054B98472046002100220023034C20476C
:1027BC00C40B00209C090020637D000075110000F3
:1027CC001022014B1A61704700ED00E0002320201D
:1027DC0040F20F1210B5044CE1180133934281F80A
:1027EC000003F9D110BD00BF00E100E008B5EFF324
:1027FC000583064A103B02EBC30152F833004968CB
:10280C008847BDE80840FFF733BC00BF6490000068
:10281C001FB5094C094A23460121094800F012F959
:10282C0000230393074B0121E41A01A8019302949E
:10283C0000F012F904B010BD00F0022000000020DE
:10284C00C09A00006802002010B50C7A0B6804F0E6
:10285C001F0223F01F031A43CB68640923F01F03E4
:10286C00054943EA440343F00103C1F89800C1F859
:10287C009C20C1F8A03010BD00ED00E010B50A4B53
:10288C00D3F89030C3F30723013B984208D90121B8
:10289C000346064A064805F067F96FF0150010BDAF
:1028AC00FFF7D2FFFBE700BF00ED00E079B90000B5
:1028BC00AC9900002DE9F04F8946144606464FF0BE
:1028CC000008514D85B0C84527DAD6F804A0BAF1F6
:1028DC00000F44D0BAF11F0F17D91AF01F0F14D1E3
:1028EC00D6F800B01BF01F0F0FD1584605F056FA62
:1028FC0007460AEB0B00013805F050FA874210D05E
:10290C006FF01507414A3B4601E04346404A01211E
:10291C00404805F029F96FF01504204605B0BDE8D4
:10292C00F08F17F1160FEDD0BC42EBDDC5F89870A7
:10293C00D5F89C10C5F89870D5F8A03021F01F017F
:10294C0043F01F0BD6E900321A44994202F1FF3AC8
:10295C001DD1D34507D13146F8B205F028FA08F15C
:10296C0001080C36AFE73146C5F89870D5F89C30A5
:10297C0022F01F0203F01F031343C5F89C30E0B292
:10298C0005F015FA10F1160FC5D0441CE7E7C5F891
:10299C009870D5F8A020013B23F01F0302F01F0212
:1029AC001343D3453146E0B2C5F8A030E8D005F06A
:1029BC00FEF910F1160FAED0C5F89870D5F89C2022
:1029CC009DF808300BF1FF3B62F304038DF80830DF
:1029DC00D5F8A0309DF808205B0863F347128DF8FA
:1029EC000820D6E900321344009323F01F035B4404
:1029FC00A3EB0A03013023F01F036946C0B2039313
:102A0C00FFF73CFFBEE700BF00ED00E0C2B90000DD
:102A1C009FB90000AC9900000522044BC3F8942028
:102A2C00BFF34F8FBFF36F8F704700BF00ED00E017
:102A3C00BFF35F8F0022024BC3F89420704700BF96
:102A4C0000ED00E010B5034C2278FFF733FF207047
:102A5C0010BD00BFF51100202DE9F74F294D8A4616
:102A6C0006464FF00008AB46274FD0451BDAD6F888
:102A7C000490B9F1000F3FD031680846019105F080
:102A8C008DF90199044609EB0100013805F086F92E
:102A9C0084424FF014021D4B08D002FB08F36FF078
:102AAC0015024BF8032003B0BDE8F08F14F1160F9C
:102ABC002C60F8D01978A142F5DD02FB08B0C7F8FC
:102ACC009840C7F89840D7F89C4000F10801007B6B
:102ADC0064F304000871D7F8A0000C79400860F387
:102AEC0047140C71D7F89C1021F01F016960D7F8BE
:102AFC00A01021F01F01296108F1010814350C36D2
:102B0C00B3E700BFA009002000ED00E0F5110020A4
:102B1C00F0B54149414CD1F890302568C3F30723F7
:102B2C009D4287B075D80020FFF782FF3C4BC1F85F
:102B3C00C030854216D13B4C01A82570FFF7BEF979
:102B4C0000250646384FAE4213D100202378324977
:102B5C00D1F89020C2F30722934254DBFFF75CFFBD
:102B6C0000202FE0616801EB0011FFF76DFE0130D2
:102B7C00DFE70199280101EB0513DA683A40B2F559
:102B8C00001F21D0B2F5800F2BD0B2F5801F38D1A9
:102B9C005A689B680958013B22F01F00034401202E
:102BAC00844623F01F0340EA4C10CDE902218DF836
:102BBC00100002A920780593FFF760FE00281DDAAB
:102BCC006FF0150007B0F0BD5A689B680958013BBF
:102BDC0022F01F0003444FF0020C012023F01F03CE
:102BEC00E1E75A689B680958013B22F01F00034437
:102BFC004FF0000C062023F01F03D4E72378013399
:102C0C00237001359FE7C1F89830C1F8A00001335B
:102C1C009EE74FF0FF30D5E700ED00E0CC9A0000C6
:102C2C00AAFF4400F51100200000F0FFF0B587B0BA
:102C3C0007460E4614460021102268461D4606F033
:102C4C0097F802238DF80230054B2A462146684638
:102C5C00CDE90476019303F0C7FF07B0F0BD00BFC8
:102C6C00ED7D000008B5024B1B689847002008BD9D
:102C7C00B4090020034B044A1860937843F0020314
:102C8C0093707047B4090020E000002008B5064995
:102C9C00064821F00701C1F1005202F53C3204F064
:102CAC00BAFA002008BD00BF47220020B809002056
:102CBC0008B5234A234B1A6000F05EF84FF47A6192
:102CCC002148D0F82436C3F30802C3F309434B431D
:102CDC0082F480721D49883201FB02334FF4FA21D1
:102CEC005B00B3FBF1F201FB12331949B3F57A3FE8
:102CFC0028BF0132C1F80429D0F820364FF47A608D
:102D0C00C3F30802C3F30943434342F6041082F4AD
:102D1C00807202F2172200FB02334FF47A701B0A06
:102D2C00B3FBF0F200FB1233B3F5FA7F4FF0010363
:102D3C0028BF0132C1F81C27C1F80036002008BD9D
:102D4C000020A1074C01002000C0FF0010270080CC
:102D5C000000125048B1054B054A1B68B3FBF2F357
:102D6C005843044B43F00103184770474C010020B3
:102D7C0040420F00109A00000122024BC3F80424B9
:102D8C00704700BF002008E0084B70B5C31A0D4611
:102D9C0007499B10044659434022064805F034F875
:102DAC002B4601462046BDE870401847D809002044
:102DBC00B76DDBB6FC8E0000402373B50B4C009353
:102DCC00041B0B460D460A49A41061430646094AEA
:102DDC00094805F044F8011E05DA30462B4602B0CE
:102DEC00BDE87040184702B070BD00BFD809002084
:102DFC00B76DDBB6D37E0000FC8E000010B5EFF390
:102E0C001184202383F31288BFF36F8F074A136852
:102E1C0023F00201DB07116002D4012005F0E9FA6E
:102E2C0084F31188BFF36F8F10BD00BF280A0020F8
:102E3C0070B500220121044640F20510FFF74CFC4E
:102E4C000F4800F00FFF0F4B984215D100F01AFFFE
:102E5C0026690D49304604F056FD00280BDB012590
:102E6C0035642469084904F11C0004F04CFD002869
:102E7C0001DB0020E56470BD6FF00400FBE700BFD0
:102E8C00F77E00000000AD0BF49A00001FB5002285
:102E9C000123CDE902236B46084ACDF800D0CDF8CA
:102EAC0004D005F009F8002805DB43F6095200238D
:102EBC00684602F00DF905B05DF804FBF17E0000E8
:102ECC000C22104B014602FB0033002030B4D3E936
:102EDC000E529863EFF31180202484F31288BFF311
:102EEC006F8F1C6C04F0C00444F002041C6480F36B
:102EFC001188BFF36F8F1DB12B4630BC02481847A9
:102F0C0030BC7047D8090020FC8E000010B4EFF3E1
:102F1C001182202383F31288BFF36F8F1648016848
:102F2C0041F002040460C80707D482F31188BFF390
:102F3C006F8F012010BC00F0C1BE1049D1F80C14E9
:102F4C00C903F2D5EFF3118083F31288BFF36F8FAF
:102F5C000B490B6C03F0C00343F002030B6480F3CA
:102F6C001188BFF36F8F82F31188BFF36F8F00202E
:102F7C0010BCFFF7A5BF00BF280A002000E01050CE
:102F8C00D80900202DE9F041012207463449D1E847
:102F9C00EF3FC1E8E02F0028F9D133B9314932486D
:102FAC004B60CB608A6004F0C1FC7B1E012B28D8DF
:102FBC00012F06D12D4BD3F8503403F00303012B12
:102FCC001FD005F042FB0546E8B9294B1B78D3B15D
:102FDC0004220646254BC3F80823244CDFF89480C2
:102FEC00D4F84C24D4F84C34D20315D503F0030395
:102FFC00012B01D0012F0FD165B386F31188BFF3DC
:10300C006F8FBDE8F081EFF31186202383F31288D4
:10301C00BFF36F8F0125E0E7BDB1304604F0AFFE82
:10302C00D4F8403413F0FF03DAD1D4F80821002A85
:10303C00D6D0C4F80831D4F8083120220123C4F8C2
:10304C004034C8F8A0212361CAE70021202002F0F7
:10305C0043FBE5E70422054BC3F80423D1E700BF8B
:10306C00D4090020C4090020F409002000E010500D
:10307C00FB11002000E100E008B5074805F091FACB
:10308C0038B10648FFF7F6FD0448FEF767F8002054
:10309C0008BD6FF01200FBE7B08F0000AD300000F0
:1030AC000A2838B50446074D04D1AB680D212846D3
:1030BC005B689847AB6803485B68E1B29847204669
:1030CC0038BD00BFB08F000070B5456806462B694F
:1030DC00E3B11035284601F081FA0446B0B9014637
:1030EC00284601F03BFA0E4B984215D12246284651
:1030FC000C4901F007FA22460121DB20FFF7ECFA1C
:10310C002246012140F20D10FFF7E6FA3046BDE8E9
:10311C007040054904F0E8BD6FF0040070BD00BFBD
:10312C000000AD0BC1320000A57F00002DE9F0437B
:10313C0040F206354668D00648BF0320337B02EACE
:10314C00050558BFC2F3401087B001F01F07B5F555
:10315C00837F144647EA43178DF8030045D00FD8F8
:10316C00062D44D007D8B5B1022D14D06FF0150040
:10317C0007B0BDE8F083B5F5807FF7D101250AE0F3
:10318C0040F20222954234D0B5F5407F33D0B5F5EC
:10319C00007FEBD1042522032FD5012372688B40CD
:1031AC005360326982BB5F2F07F01F034FEA571140
:1031BC0077D83E4A52F8212084F4803102EB830206
:1031CC00D2F88030C1F30041C4F3404423F470635F
:1031DC0044EA410423F00F031C4344EA800444EA0C
:1031EC000524C2F880400020C2E70925D3E7082552
:1031FC00D1E70625CFE70525CDE7630341BF0123C2
:10320C0072688B409360CCE71036394630460DF12E
:10321C00020201F085F914F4403F80460CD1394686
:10322C00304605F0ABF9224B9845DCD130469DF881
:10323C00021001F0E1F9D6E74FF0000901AB394675
:10324C00304603AACDE90439CDE90199CDF80C90AB
:10325C0000F0D8FF164B984288D114F4003315D0E7
:10326C009DF8033084F48034C4F300448DF80E30A0
:10327C0039464B46304603AA8DF80C508DF80D405C
:10328C0001F0ACF80A4B9842CDD06FE7CDE904338E
:10329C0039460DF10303304603AA039300F0B2FF45
:1032AC00F0E7203352F82330FFDE00BF189B0000FC
:1032BC000000AD0B4209022A034670B503D0012A67
:1032CC0018D0CAB170BD0E4E326951680029F9D0C0
:1032DC00012503F01F030C689D400029F2D08A6879
:1032EC002A4002D030464B6898473CB123682146AF
:1032FC001C46F2E7034EE7E7034EE5E72346F6E705
:10330C00688F0000448F0000208F0000F0B5164637
:10331C00426801F01F04107B87B044EA4014106926
:10332C00002871D0B6F5001F02F1100506D1214618
:10333C00284605F025F9002007B0F0BD0027B6F5AA
:10334C00800F01A8019747603BD1B3F1007F14BFF8
:10335C00052304238DF804300023CDE904030393E3
:10336C0093680DF1030723FA01F111F001013DD12E
:10337C00B6F1A07F3AD104F01F035F2C4FEA541032
:10338C0003F1200346D8254A52F8202052F8233066
:10339C00DB072BD43A462146284601F0C1F8204BD6
:1033AC00984219D002972146284603AA00F02AFF1A
:1033BC001C4B98422BD101222146284601F02CF9B6
:1033CC00B9E7B3F1C06F05D0B3F1007F14BF01238F
:1033DC000223BFE70323BDE73946284601F014F961
:1033EC00104B9842DED06FF00B00A5E73A46214611
:1033FC00284601F095F80B4B9842D4D128469DF8FD
:10340C00031001F0F9F8CEE76FF0850094E76FF048
:10341C00150091E751F82330FFDE00BF189B000028
:10342C000400AD0B0000AD0BB0B500AF224D28462B
:10343C0005F0B7F8034678BB6C4688B029686A4635
:10344C001E48C2E905014FF4007191831C4942F8F2
:10345C00101F4FF4E2511B48FEF748FAA5466FF0D7
:10346C0012042046BD46B0BD2B686D468AB06A4634
:10347C001549C2E905130123C2E907344FF400735F
:10348C009384124B42F8103F00234FF431510D48F6
:10349C00FEF72CFAAD46E4E72A69A96813682846BA
:1034AC0023F0020313600B68002201219847041ECD
:1034BC00DADB0024D5E700BF208F00004CBA0000F7
:1034CC00030000018499000063BA000005000001AC
:1034DC00036803F01F025F2B02604FEA53129ABF7E
:1034EC00024B53F822000020704700BF6C9B000079
:1034FC002DE9F04F9346074640F2FF18DFF84C9148
:10350C00DFF84CA185B000EB8101B94203D100205A
:10351C0005B0BDE8F08F3B68C3F3C322082AC3F3A0
:10352C00080400F28F80444508BF4FF0FF34B3F11C
:10353C00506F19F802604FEA13620AD20C2A0AD8AB
:10354C00DFE802F00C12181B1E2D1B0909090933A8
:10355C005F00382A58D06FF08500D9E7CBF80446C5
:10356C00621C64D10437D0E7CBF80C46631CF9D04D
:10357C00002565E0CBF81046F2E7CBF80846F5E7F6
:10358C00651CCBF80046EDD0002503A80394FFF78B
:10359C009FFF0122039B02FA03F383600EE0601C81
:1035AC00CBF80446DED00125EFE7CBF80046002E21
:1035BC00DCD1631CD6D0002508262A463B68039430
:1035CC0003F40040002818BF002203A818BF0125EF
:1035DC0001930092FFF77CFF039C019B00EB84009E
:1035EC00D0F88040C3F3412C009A330243EA8C0399
:1035FC00134304EA0A04234343EA4503C0F880302A
:10360C00B0E7CBF80446D2E703A80394FFF760FFBA
:10361C00039B621C00EB8300D0F8803023F0E04366
:10362C0043F08043C0F880309CD0012508E0012590
:10363C0003A80394FFF74CFF039B05FA03F34360C5
:10364C002A46BBE76FF0150062E700BFA6BA000080
:10365C00F0F0FCFFF8B5446800AF054604F0C1FC7F
:10366C00A06A28B90021284604F034FDBD46F8BDF7
:10367C0004F097FF0346B0B9A26A6C4688B0116893
:10368C006A461548C2E905014FF40071918313494C
:10369C0042F8101F12484FF4E251FEF727F96FF071
:1036AC001200A546E2E7E38DA06A94F82C1043F4CF
:1036BC0000320124066913F0010F336804FA01F497
:1036CC0014BF2343A343D0F808C03360DCF80030A8
:1036DC0098470028C6DAC9E7AFBA0000030000011A
:1036EC00C499000007B50021C06801AA04F05AFC77
:1036FC00002804DA0121034A034804F02CFA03B031
:10370C005DF804FBFEBA0000D499000038B50546FC
:10371C0044680121E06804F0B4FD6B6819686369C2
:10372C00C1F82435E28BA38BA07E1343228C134368
:10373C00628C1343627E9BB20243207E024313438E
:10374C00C1F86C3569680B68D3F8002242F480220A
:10375C00C3F800220822C3F800254A6A0121C3F8E5
:10376C003C270022C3F840271965D3F830110029F3
:10377C00FBD0C3F800252846BDE83840014904F0C9
:10378C00B3BA00BFE98200002DE9F34104460D46AF
:10379C00476804F05AFFA8B92B4B1B7893B14FF034
:1037AC002008642663681B68D3F83031002B39D1AC
:1037BC00012004F01CFE013EF4D10021202001F078
:1037CC008BFFEEE72022EFF311831E4682F3128863
:1037DC00BFF36F8F61680968D1F8301121B983F399
:1037EC001188BFF36F8FEEE77B6A20461D7063680C
:1037FC000DF107017F6A1D6804F061FA9DF807203E
:10380C004AB90123C5F83C77C5F84037C5F83021D3
:10381C00D5F830212B6586F31188BFF36F8F02B07A
:10382C00BDE8F081EFF311831E4688F31288BFF3D5
:10383C006F8F62681268D2F83021002AD4D183F3DA
:10384C001188BFF36F8FB8E7FB11002070B51446D9
:10385C001D4604F0A4FDA042A94113D30A4AD2E9A3
:10386C000061A41B24F01F0365EB01009B1941EBC5
:10387C000001C2E90031640944EAC060BDE870404F
:10388C0002F080B970BD00BF4007002010B50022C7
:10389C000121E420FEF720FF174A0020D2F8183748
:1038AC0023F44033C2F8183700F094FF134B04464E
:1038BC00984208D10120124901F01CF8A04205D011
:1038CC00104B984214D04FF0FF3010BD04F067FD40
:1038DC0067220D4B20F01F00C3E900010B4BC3E91D
:1038EC0000010B4B02201A60FFF74CFB0020ECE7A9
:1038FC006FF00B00E9E700BF00200E500000AD0B8D
:10390C00480100200200AD0B4007002038070020C2
:10391C00C00A002008B504F042FD054AD2E9003285
:10392C00C01A61EB0201400940EAC16008BD00BF4A
:10393C004007002037B5431C0CBF6FF0004420EA51
:10394C00E07404F02CFD0D4BD3E90025801A61EBDB
:10395C0005032021C4FB0103402873F100042CBF94
:10396C0020F01F01002352184FF0010145EB030317
:10397C000091034801F022F803B030BD400700204D
:10398C0040010020064BD3F840231C2A05D1D3F864
:10399C004403431E5842584170470020704700BFF3
:1039AC0000C0FF0003689A070CD50368DB070DD530
:1039BC000922074BC3F80C250F22C3F8042501225A
:1039CC001A60FEE7034B0360EF3B0360704700BFD8
:1039DC0000801050F000FA5008B501233E4A3F48D1
:1039EC00C2F800383E4AD2F840231C2A04BF3D4A94
:1039FC00C2F80C34FFF7D6FF0830FFF7D3FF0830BE
:103A0C00FFF7D0FF0830FFF7CDFF00F5F470FFF79C
:103A1C00C9FF354AD2F88C3043F44063C2F88C307D
:103A2C000022D30003F57F0303F54043D3F80014C1
:103A3C0001310AD0D3F8001439B1D3F80014013293
:103A4C00D3F80434402A0B60EBD1234BD3F8402439
:103A5C00002A3DD0FFF796FF48B1214BD3F8342311
:103A6C00224B9A429EBF1C4B214AC3F84026FFF7BB
:103A7C0089FF18B11F4B204AC3F8AC27FFF782FF10
:103A8C0048B13422144BC3F82426D3F83C2622F434
:103A9C000022C3F83C26124BD3F840331C2B08D120
:103AAC00164BD3F80026D20744BF6FF00102C3F8BF
:103ABC0000260323124A0C49C2F81835D1F88C3071
:103ACC0043F44063C1F88C300023C2F8A03508BD24
:103ADC00C822C3F84024BDE70000125000C50D50A9
:103AEC0000C0FF000030055000ED00E0001D0A187A
:103AFC0040E0A91E00A0085078000A0400E0105015
:103B0C0000B0045030B50468ACB1B4FA84F30122AF
:103B1C00C3F11F03DBB29A4024EA0202D0E8EF5F44
:103B2C00A54204D1C0E8EC2FBCF1000FF6D1EAD1CC
:103B3C0002480B7030BD0248FCE700BF0000AD0B23
:103B4C000200AD0B10B50368CB40DB0710D401238A
:103B5C008B40026843EA0201D0E8EF4F944204D153
:103B6C00C0E8EC1FBCF1000FF6D1F2D1014810BD3A
:103B7C000148FCE70000AD0B0400AD0BF7B50546A2
:103B8C0048B3012825D104224FF4807371203249A7
:103B9C000024C1F80803012002F1A04203F1A04364
:103BAC0003F5871302F5871210601C601B682B4B02
:103BBC00D3F840331C2B13D0854201D10DF10704EF
:103BCC00002342F21076244F8DF8073065B1012D99
:103BDC002ED003B0F0BD14224FF484730420D6E72A
:103BEC00012DEDD1CD60E9E7D7F84C3403F48033E7
:103BFC006CB9002BEDD0012004F0F9FB013EF3D1A0
:103C0C00E7E7012004F0F3FB013EDFD1E1E7D7F851
:103C1C004C2402F003022270002BDAD09DF80730FE
:103C2C00002BEED0012DD4D100220D4B5A71D0E7D0
:103C3C00D7F80C3403F480333CB9002BF4D00120BA
:103C4C0004F0D5FB013EF3D1C3E7002B0CBF0123DD
:103C5C0000232370E2D1E7E700E0105000C0FF0022
:103C6C00C40A0020044B1A7922B9012218601A7177
:103C7C000248704702487047C40A00200000AD0B90
:103C8C000C00AD0B08B50A4B1B6843B140F2051094
:103C9C00FEF714FD18B940F20510FEF7EDFC0022FA
:103CAC00044BC3F840240122034B1A7008BD00BF1B
:103CBC00C40A002000E01050FA11002010B510B119
:103CCC00012845D010BD324BD3F84C14D3F84C24FA
:103CDC00C80324D502F00303012B04D013B1002038
:103CEC00FFF74CFF00232A4A0420C2F8403410226C
:103CFC004FF48473002103F1A04303F5871319607B
:103D0C001C68012402F1A04202F587121460214ABA
:103D1C001268002A36D01E4BC3F80403D2E7D3F83E
:103D2C004824D107DED5D3F850249207D7D4194AAA
:103D3C0012681AB10422C3F80423C3E7D3F808218C
:103D4C00002AFBD00022C3F80821D3F80831B9E7C8
:103D5C0000220F4BC3F81021D3F81011C3F818210F
:103D6C00D3F81811C3F81421D3F814210A4AD2F845
:103D7C0040231C2A04D000224FF480737120B9E731
:103D8C009860F8E71A68002AFCD019601B6899E75C
:103D9C0000E01050C40A002000C0FF0070B50025E0
:103DAC001E4C1F4ED4F80C3303B970BDB3FA83F319
:103DBC00C3F11F039A0002F5807292B202F1A04285
:103DCC0002F58712156012680122D8B202FA03F3C9
:103DDC00DBB2102BC4F8083311D0402B1BD0042BB2
:103DEC0016D1D4F84C14D4F84C14890710D1C4F85B
:103DFC004024C4F804332261D4F80C33D4E70223F2
:103E0C007371C4F81451D4F814312023C4F804335A
:103E1C0033689847F0E77571FAE700BF00E010507F
:103E2C00C40A0020036803F01F025F2B02604FEAF4
:103E3C0053129ABF024B53F822000020704700BF68
:103E4C00F09C0000034A4309D35C00F01F001844A7
:103E5C00C0B270473DBB000070B505460846FFF781
:103E6C00F1FF3C212A79184B01FB0202083233F88E
:103E7C001200C10526D578240026C0F3432120F476
:103E8C00F85023F812002A7904FB02340E3434F86B
:103E9C00020F10F4807F03D0C0F34320814211D075
:103EAC000136232EF3D10020C2EB02120A4443F850
:103EBC00320078202A79BDE8704000FB0230603077
:103ECC00FFF740BE70BD00BFCC0A0020F0B506461F
:103EDC00002487B0114F019117F8012B06AB03EBAF
:103EEC00D20313F8143C02F00702D34013F0010381
:103EFC0006D10134032CEFD10023184607B0F0BDD6
:103F0C00074A03AD07CA85E8070055F824100A6A6A
:103F1C0046F824200A62002AEBD0EEE74DBB0000E5
:103F2C00F099000010B504460846FFF78BFF3C23C0
:103F3C0003FB0400024B083033F81000400B10BD9B
:103F4C00CC0A002010B504460846FFF77BFF3C2343
:103F5C0003FB0400034B083033F81000C0F340009F
:103F6C0010BD00BFCC0A002010B504460846FFF770
:103F7C0069FF3C2303FB0400034B083033F81000AB
:103F8C00C0F3401010BD00BFCC0A002078232DE9EF
:103F9C00F04F6F4C0E460C1BB4FBF3F4D0F814131B
:103FAC00DFF8B0B1C9B28BB041F400315BF834200A
:103FBC00009004F097FA8103054638D50023E700FA
:103FCC000BEBC404CDE907330993636807A81946C2
:103FDC000193FFF77BFF3B1D03934FF0000A5E4BF1
:103FEC000DF11C090293029A12F8013B0292039AFA
:103FFC0002EBD3021BF8022003F0070322FA03F3AF
:10400C00DA071AD40AF1010ABAF1030F09F104090B
:10401C00E9D14FF400310022009804F063FA0199C1
:10402C0007A8FFF753FF0028D7D125F4003501244A
:10403C00002D76D10BB0BDE8F08F484B5344049360
:10404C00D9F800100029DDD091FAA1F1B1FA81F173
:10405C00049B1C7841EA44142046FFF7F3FE083019
:10406C0036F81080C8084FEA98030593012319F815
:10407C00002001F0070103FA01F122EA010209F81C
:10408C00002006A80694FFF7CDFE069A059B203269
:10409C0050F82220C8F382075B07B846C2F30142EE
:1040AC0023D53046D7B22146424604F0FCF906A887
:1040BC000694FFF7B7FE069B203350F82330C3F36A
:1040CC0001439F4207D10021204604F0DDF9394617
:1040DC00204604F0D9F906A80694FFF7A3FE0122A6
:1040EC00069B02FA03F30362AAE7022A0DD103210D
:1040FC00204604F0C9F907F00503012BEBD1424629
:10410C002146304604F0CFF9E5E70221204605921E
:10411C0004F0BAF9032FF2D0059A032ADBD1022F4F
:10412C00ECE795FAA5F3B3FA83F3009904FA03F2DA
:10413C0025EA020503F5A27251F8222006EB43038F
:10414C003046B3F86410C2F3014204F0ACF96FE7E7
:10415C00CC0A0020FC9C00004DBB00004DBB0000B5
:10416C002DE9F74305460846FFF76CFE3C222B79F8
:10417C00204F02FB0303083337F813300E46DB07DE
:10418C00044635D5284604F0D4F995F80490314608
:10419C004846FFF7E9FE60B14846FFF7C3FE002230
:1041AC00D5F8008000B208EB8003C3F81025C3F8E3
:1041BC00102528463146FFF74FFE3C222B7901A8EB
:1041CC0002FB03440023083427F814300196FFF750
:1041DC0029FE019B00EB8300D0F88020064B134096
:1041EC0043F00203C0F88030044803B0BDE8F0830C
:1041FC000348FAE7CC0A0020F0F0FCFF0000AD0BFE
:10420C000400AD0B2DE9F04F9046044685B00846EE
:10421C00FFF718FED8F800900F4606462579B9F13D
:10422C00000F23D02846FFF78DFE18B12846FFF764
:10423C009BFE58BB00230DF10F02CDE900338DF826
:10424C000E308DF80F300DF10E014B46384604F050
:10425C00D2F83C2303FB05635D49083331F8132086
:10426C0022F0020242F0010221F81320D8F80430A7
:10427C00002B3FD03946207993F80090D3F804A056
:10428C00FFF760FE20B1BAF1000F26D0514835E09F
:10429C003C226A43DFF838E102EB060C0CF1080C07
:1042AC003EF81C3023F02003DB04DB0C2EF81C3012
:1042BC00BAF1000F11D0B9F1030FE7D8D8F80410F8
:1042CC002068496891F800A000EB8A00B9F1000F52
:1042DC0017D1C0F81095C0F810953C2303FB056569
:1042EC003B4A083532F8153023F01C0343EA8903A6
:1042FC0022F81530D8F8083063BB374805B0BDE854
:10430C00F08FD0F810B552442BF0030BC0F810B559
:10431C00206843EA4A3300EB8A01D1F810050EEB12
:10432C00420220F4473020F47C70C1F8100541F6AD
:10433C00F070D1F810B500EA071040EA094040EAE5
:10434C000B0043F02003C1F81005A2F864702EF89E
:10435C001C30C2E73946D3E900852046FFF77CFDC7
:10436C00B8F1000FC9D078232079194F4343FA18BC
:10437C00FB58984504D153689D4201D100220CE0B2
:10438C00782303FB00700DF10F016030FFF7BAFBCF
:10439C00114B9842B2D19DF80F203C212379C3EBED
:1043AC000313134447F833802379C3EB03131344EB
:1043BC0007EBC3035D60237901FB0363083337F814
:1043CC00131041EA422242F4807227F8132094E73A
:1043DC00CC0A00200400AD0B0000AD0B2DE9FF470B
:1043EC000546084617461E46FFF72CFD894604462F
:1043FC0087B395F804804046FFF7A4FD18B94046F2
:10440C00FFF7B2FD68BB3C2303FB0848DFF8E4A0D0
:10441C0008F108083AF8183013F01C0F02D07B781A
:10442C00012B1ED001238DF80F3000237A1CCDE90F
:10443C0000734846BB1C0DF10F0103F0DCFF3C225E
:10444C002B7902FB034308333AF8132042F00302A2
:10445C002AF81320002E4BD049462879FFF772FD1D
:10446C0018B9254804B0BDE8F08700214FF03C0C8A
:10447C0030782B68820003EB8003C3F81015C3F867
:10448C0010152B791B490CFB0343083331F81370BF
:10449C0027F4604727F0200721F8137077783FB393
:1044AC002B68B6781A44D2F810E5144B3F040EEA88
:1044BC000303C2F8103541F6F07307F4403703EAF2
:1044CC0009133605D2F810E53B4306F48016334346
:1044DC0043EA0E03C2F810352B790CFB0344083465
:1044EC0031F8143043EA403343F0200321F8143000
:1044FC000348B7E7CC0A00200400AD0B0FE0ECFF3B
:10450C000000AD0B30B578250479044B05FB043461
:10451C00A160017905FB0133DA6030BDCC0A0020C3
:10452C0070B5067914463046FFF71EFD68B1084693
:10453C00FFF788FC3C2303FB0600054B083033F8DF
:10454C00103004485B0B237070BD0348FCE700BFC0
:10455C00CC0A00200000AD0B0400AD0BF8B50646EC
:10456C0007797820194D00FB075393F8744054BB1E
:10457C00184646222146103004F0FAFB3179144AD1
:10458C00336852F8316021468E4212D10022C3F3B7
:10459C000830C3F844210130D3F84421FEF76CF8FD
:1045AC00782303FB075501230A4885F874302B66E2
:1045BC00F8BDCAB2920002F58070442A04BF1C50A8
:1045CC001A580131E0E70448F2E700BFCC0A00209A
:1045DC00FC9C00000000AD0B0C00AD0B78210279A7
:1045EC00044B01FB023393F87400003818BF012010
:1045FC00704700BFCC0A00200079024B03EB80000F
:10460C00FFF7A0BA500100200079024B03EB8000A9
:10461C00FFF778BA500100202DE9F74390F8049089
:10462C00044648461746FFF79FFC0D46266800B324
:10463C004846FFF787FC8046D8B94846FFF772FC1E
:10464C0005B2AD0005F5807246F802802168B258BB
:10465C002944D1F8102542F00102C1F810252FB1E0
:10466C000122216802FA00F3C1F8143303B0BDE84B
:10467C00F083D6F8143328469B035CBF4FF4003309
:10468C00C6F81433FFF7DEFB3C22237902FB030050
:10469C000E4B083033F81030C3F38203042B11D0C7
:1046AC00052B11D001A80195FFF7BCFB019BC1683C
:1046BC00D94001F001010231284603B0BDE8F043B6
:1046CC0003F0E2BE0321F7E70221F5E7CC0A002054
:1046DC0001490248FFF75ABCCC0A002000A00D503B
:1046EC0001490248FFF752BC440B002000C0105097
:1046FC0010B50024037A0D49CA181B0103F1A0431D
:10470C0003F5622392F85420C3F82C450C2303FBC9
:10471C0002130468DC6042681A610122007A187581
:10472C008B68824013438B6010BD00BF400000209B
:10473C00074B027AD3F8101521F001010A43C3F894
:10474C0010250268C3F8A4264268C3F8AC2670474B
:10475C0000200E50012303FA00F010F0670F0AD06E
:10476C00064B5B68DB4303F067030342044B0548CD
:10477C0018BF184670470448704700BF400000201F
:10478C000000AD0B0400AD0B0800AD0B2DE9F0489B
:10479C00EFF31181202383F31288BFF36F8F4FF057
:1047AC00FF356FF04044094ED6E900BC5D4574EB13
:1047BC000C07F9D3CCF31303C0E900B381F31188D0
:1047CC00BFF36F8F0248BDE8F08800BF40270E5042
:1047DC000000AD0BF0B53C4D85B02C78002C6FD1A2
:1047EC003A4A01AB07CA83E8070039491846D1F8A1
:1047FC00102522F00202C1F81025FFF799FF0723BC
:10480C00672202F001012144013BCCB24FEA520273
:10481C00F7D1052C56D119464FF0010C2A4E002425
:10482C006720CFB204E00CFA02F220EA0200013455
:10483C0090FAA0F25FFA84FEBE45B2FA82F2F2D38D
:10484C000131327505292A4482F8547006F10C06A0
:10485C00E5D1012100241F489A0801FA02F212F056
:10486C00670F18BF1C500433302BF5D1E420FDF733
:10487C0003FF174B1849D3F8102503F5C07322F02A
:10488C000202C3F8902340F6FF72C3F8A82100225D
:10489C001A60A3F5807004338B420260F8D10124B6
:1048AC000B4B0E4A1C660E4B5D201B68B3FBF2F3E0
:1048BC0058430C4B234398470B482C7005B0F0BD64
:1048CC000A48FBE70A48F9E740000020FC99000081
:1048DC0000200E5000210E50B0210E5040420F000F
:1048EC004C010020209A00000000AD0B0C00AD0B19
:1048FC000100AD0B73B52A4C054663680E4603F0F8
:10490C00010304F1140101A80193FFF7FBF8254BF7
:10491C0098423DD100233370636823F00103636038
:10492C00A36843F00103A3601F4BD3F8102596072F
:10493C0032D4D3F8102542F00202C3F81025C5B1C9
:10494C00D3F8482712F0010202BFD3F8481741F000
:10495C000101C3F84817144BD3F84017D3F8441788
:10496C004C00F9D42AB9D3F8482722F00102C3F835
:10497C0048270E4B0E4A1B68B3FBF2F30A4A03EBB3
:10498C0043135BB1D2F84017D2F84417490001D455
:10499C0002B070BD013BF4E70648F9E70648F7E7BB
:1049AC00400000200000AD0B00200E504C010020F8
:1049BC0040420F000C00AD0B0700AD0B2DE9F04190
:1049CC000446007A1D46FFF7C5FE1E4B90469842E2
:1049DC0006469DF8187031D12046FFF789FEEFF39B
:1049EC001180202383F31288BFF36F8F227A164B2A
:1049FC009200134400221A60217AC5F313050901B1
:104A0C0001F1A04101F56221C1F82085C1F82455BE
:104A1C0080F31188BFF36F8F87B10123227A0B4982
:104A2C0003FA02F2D1E8EF5F1543C1E8E05F00281A
:104A3C00F8D1227A9340064AC2F824333046BDE8B6
:104A4C00F08100BF0000AD0B00210E50C80000200B
:104A5C0000200E50F7B5284B284CD3F82C6304F1EA
:104A6C0088070EB903B0F0BD96FAA6F00123B0FA90
:104A7C0080F08340DA43224926EA0306231893F890
:104A8C005450830019440C2303FB0543DB6873B3B8
:104A9C00D7E8EF3F03EA020CC7E8EECFBEF1000FF8
:104AAC00F6D1C340DB0719D5020102F1A04202F591
:104ABC006222D2F82435D2F82025D1F800C0BCF1FE
:104ACC00000FCED04FF0000CC1F800C00C2101FB40
:104ADC00054529690091E9688847C2E705F10C038F
:104AEC0004EBC30C54F83320DCF80430E5E70A6817
:104AFC00002AB6D00B60B4E700200E504000002016
:104B0C0000210E5010B5184BD3F80443E1040AD51C
:104B1C00D3F830213AB10022C3F83021D3F8303128
:104B2C00124B1B689847A2040BD50F4BD3F83421BA
:104B3C003AB10020C3F83401D3F834310C4B1B6864
:104B4C00984763040ED5084BD3F8382152B1002294
:104B5C00C3F83821D3F83831054B0120BDE810409B
:104B6C001B68184710BD00BF00E01050C00B0020A0
:104B7C00BC0B0020044B40EA0120C3F80005D3F81D
:104B8C000024D207FBD5704700B0045010B5044682
:104B9C00FCF7DCFD03480121034A02F0DCFF204650
:104BAC0003F00AFDB499000050BB00002DE9F84356
:104BBC0004460D4600AFEFF31188202383F31288CF
:104BCC00BFF36F8F0428294A98BF294BE9468AB056
:104BDC009668117C98BF53F820306A4688BF254BE5
:104BEC00C2E9073140F2013323489384234BC2E9D5
:104BFC00050442F8103F00234FF431512048FCF7D4
:104C0C0075FECD4645B1EB69C3F3080323B1012111
:104C1C001C4A1B4802F09FFF2EB1304603F01EFDCC
:104C2C0008B1037803B91848E9468AB06A46174BAD
:104C3C00D061C2E9053640F201331384144B42F8BB
:104C4C00103F00234FF411510D48FCF74FFE29463D
:104C5C00CD462046FFF79AFF88F31188BFF36F8F7C
:104C6C003046FDF7ADFCBD46BDE8F883C40B002013
:104C7C000C9D00005FBB000075BB0000050000012F
:104C8C00B49900009DBB00006DBB0000BEBB0000D2
:104C9C000400000138B50A4B53F82040013053F89A
:104CAC002050A54200D838BD606830B1037FDB07C7
:104CBC0001D403F089FC0834F3E723689847FAE73A
:104CCC00209D0000012270B5294B032086B01A707C
:104CDC00FFF7E0FFFDF73EF90420FFF7DBFF254C63
:104CEC00254D2646AE4204F1300410D300F024FCCE
:104CFC00204C224EAC4226D300F032FCFBF73AFD9E
:104D0C001F4A137B23F00103137306B070BD54F8D4
:104D1C000C3C059354F8103C049354F8143C039346
:104D2C0054F8183C029354F81C3C019354F8203C62
:104D3C00009354E90A2354E90C0100F0EFF954F8FC
:104D4C00303C5E65CDE7D4E90A23B3F1FF3F08BFE1
:104D5C00B2F1FF3F05D052EA0301206803D100F005
:104D6C00E9FC3034C6E73146183000F079FEF8E73C
:104D7C00FB110020DC980000DC9800006787000025
:104D8C00D807002008B50348034A0021121A03F083
:104D9C0032FC08BD6802002000120020902370B580
:104DAC00134E012203FB0066002386B0CDE90423D9
:104DBC000F220193CDE9023214234FF4A0720D4D52
:104DCC000D4903FB0055044602FB00110B4B30460A
:104DDC00009500F0A3F9737B2C7423F00403737318
:104DEC00074B013403EBC423EE606B6006B070BD5F
:104DFC0048070020C40B0020001D00200B8600007B
:104E0C0000150020BFB50020FFF744FF2A4B03F527
:104E1C00006282F3088883F30A880024E023274D7C
:104E2C00274F85F82230EC772C766C76AC7685F8AB
:104E3C0020406B6A43F4E0236B6285F82340FDF756
:104E4C003DFBFDF7BDFC4FF0FF33AB62EB62FDF7B2
:104E5C005FFEFDF7DDFCFCF7D7FB1A4800F0CAF942
:104E6C0003F09EFB0120FFF715FF0220164DFFF704
:104E7C0011FF00F0A9FB154B15495D61154B4FF463
:104E8C008062059301232846CDE90343CDE9014413
:104E9C003B46009400F042F906466A7B284622F015
:104EAC0004026A7303F016FC2046FFF777FF3A46BC
:104EBC0031462846FDF764FC0015002000ED00E0AB
:104ECC00D14C000068080020D8070020C40B00203B
:104EDC00401E002020BC00002DE9F341044617467B
:104EEC001E46EFF31188202383F31288BFF36F8FD4
:104EFC00C368334A7BB180689168884219D057EAFD
:104F0C00060318D188F31188BFF36F8F6FF00F0071
:104F1C0002B0BDE8F081916891F90E100133E360A5
:104F2C0093682161A36088F31188BFF36F8F002011
:104F3C00EEE72169F2E791F90E1090F90E306FF05F
:104F4C007E029942A8BF19469142B8BF11468B42C6
:104F5C002DDD03F05FFB054622464146CDE9007688
:104F6C00184800F02FFA0028E1D0EFF31186202327
:104F7C0083F31288BFF36F8FA068D0B123682169C7
:104F8C009C420AD04BB193F90E309942A8BF1946F6
:104F9C006FF07E039942B8BF194603F03BFB40B15A
:104FAC003146084800F0A2FA6FF00A00B0E700257D
:104FBC00D2E7002DF4D186F31188BFF36F8FF3E79E
:104FCC00C40B0020FC110020F8B583680546002BAB
:104FDC0040D0234A926893423FD1C368012B03D936
:104FEC00013BC3600020F8BDEFF31187202383F34E
:104FFC001288BFF36F8F0169806803F00BFB2C687C
:10500C00AC4207D10023C5E9023387F31188BFF303
:10501C006F8FE7E7002CF5D0D4E90032002613603F
:10502C005A60637BC4E9006623F002036373A660D5
:10503C0004F1180003F0E4FBAC6094F90E30204648
:10504C002B61C4F8886003F045FB3946054800F035
:10505C004DFAC7E76FF01500C5E74FF0FF30C2E718
:10506C00C40B0020FC11002070B5EFF31186202337
:10507C0083F31288BFF36F8F0468A0421BD0D4B1A6
:10508C00D4E90032002513605A60637BC4E90055F3
:10509C0023F002036373A56004F1180003F0B0FB66
:1050AC002046C4F8885003F015FB3146BDE870402B
:1050BC00064800F01BBAD0E902329A4218BF0133FD
:1050CC00836086F31188BFF36F8F70BDFC110020D5
:1050DC0013B5EFF31181202484F31288BFF36F8F83
:1050EC00846844B1013C846081F31188BFF36F8FF5
:1050FC00002002B010BD52EA030406D181F31188DE
:10510C00BFF36F8F6FF00F00F3E7CDE9002302467A
:10511C00014800F057F9ECE7FC1100202DE9F043B1
:10512C00984685B000F15803C0E91633109B002552
:10513C0003730423073222F0070643730F9B01EB22
:10514C0006090F4683734946C0E906558560C57349
:10515C000446FCF76DFF0E9B073020F00700A0679C
:10516C00C4E91C7602930D9BA9EB000901930C9BDF
:10517C004A460093394643462046FDF7E5FA064B6E
:10518C0065659B6884F86C5003B1DB6F4846E36738
:10519C0005B0BDE8F08300BFC40B0020F0B50025BE
:1051AC0087B00595109DDDE9127604950F9D044698
:1051BC0003950E9D02950D9D01950C9D0095FFF795
:1051CC00ADFFB6F1FF3F08BFB7F1FF3F05D056EA80
:1051DC00070305D1204600F0ADFA204607B0F0BD1C
:1051EC003A46334604F11800014900F039FCF4E763
:1051FC006787000040F2011383810023C0E91C3350
:10520C00C367014B98607047C40B00206FF00A0114
:10521C00094A9368C3F888100849C3F884004B689E
:10522C0043F080534B60002383F31188BFF36F8FDF
:10523C009368D3F888007047C40B002000ED00E0A1
:10524C0070B590F90D20437B002A36DBD90634D19A
:10525C001B4C63F07F032246437352F8183FE169FD
:10526C00934207D1C0E900210860E06111E0994246
:10527C00F8D01B68002BF5D090F90E5093F90E6006
:10528C00B542F4D0AE42F2DD5968C0E90031086095
:10529C005860A569954200D005B9E568A3685A7BAA
:1052AC00D20604D1DA897F2A01D9AA6932B1AB427C
:1052BC0002D0284600F032FB656170BD6361FCE7EB
:1052CC00C40B002038B590F90D200146002A437B11
:1052DC0004DA03F07F03437303F0C2F90D4D2A4641
:1052EC0052F8184FAB68944200D004B9EC688B426A
:1052FC0007D05A7BD20604D1DA897F2A01D9A26958
:10530C002AB1A34202D0204600F008FB23466B6171
:10531C0038BD00BFC40B0020B3F1FF3F08BFB2F192
:10532C00FF3F03D00249183000F09ABB704700BF12
:10533C006787000070B590F90D200146002A437B69
:10534C0004DA03F07F03437303F08AF91C4C4B7BA4
:10535C00224663F07F034B7352F8183FE069934287
:10536C0007D1C1E900200160E16111E09842F8D059
:10537C001B68002BF5D091F90E5093F90E60B542D5
:10538C00F4D0AE42F2DD5868C1E9003001605960DA
:10539C00A569A368954200D005B9E5688B4207D092
:1053AC005A7BD20604D1DA897F2A01D9AA692AB19B
:1053BC00AB4202D0284600F0B1FA2B46636170BDB7
:1053CC00C40B0020F8B5DDE906670D4B0C46986858
:1053DC0011460C4A1060EFF31182202282F31288DE
:1053EC00BFF36F8F9D68284603F04CF92846324670
:1053FC003B46FFF791FF2046BDE8F840FFF706BF9C
:10540C00C40B0020E40B0020F8B50446EFF3118721
:10541C00202383F31288BFF36F8F437B49B203F0D1
:10542C001F02002A0CBF0126002639D103F07F038E
:10543C002D4D437303F014F92A46437B817363F0BB
:10544C007F03437352F8183F934227D1E869C4E9AC
:10545C0000200460EC610FE09842F8D01B68002B30
:10546C00F5D093F90EC06145F6D08C45F4DD596842
:10547C00C4E900310C605C60AC69944200D004B9A2
:10548C00EC68AB689C4202D0204600F047FA6C6195
:10549C0087F31188BFF36F8F3046F8BDE869DEE7FC
:1054AC009B071ED5856803F0DBF881732B689D4242
:1054BC0009D16B68C4E900531C606C60E8E76A684A
:1054CC009342F6D01B68002BF3D093F90E20914237
:1054DC00F5D08A42F3DD5A68C4E9003214605C608E
:1054EC00D6E78173D4E700BFC40B002049B9EFF3B2
:1054FC00058030B9054B5A699B689A4201D0FFF779
:10550C0085BE81F31188BFF36F8F7047C40B0020E9
:10551C00034648B9EFF3058232B9064A51699268DD
:10552C00914201D0FFF772BE83F31188BFF36F8FE6
:10553C00704700BFC40B0020EFF31181202383F3CD
:10554C001288BFF36F8F054B9A68D37B013BD373E3
:10555C0081F31188BFF36F8F704700BFC40B00201D
:10556C0070B5EFF31186202383F31288BFF36F8F8E
:10557C00144DAB68DA7B0132DA732A4652F8184FB5
:10558C00944200D004B9EC685A7BD20604D1DA8973
:10559C007F2A01D9A2692AB1A34202D0204600F089
:1055AC00BDF923466B6186F31188BFF36F8FEFF360
:1055BC001180202383F31288BFF36F8FBDE87040F6
:1055CC00FFF7A6BFC40B0020024B03F11802C3E97E
:1055DC0006227047C40B002070B5EFF31186202310
:1055EC0083F31288BFF36F8F1B4CA168E0690B68C3
:1055FC00814214BF1A46002249680B605960A368A7
:10560C00E1692AB9154AC3E900210B60E3610CE09A
:10561C0093F90E0092F90E50A84218D0854216DD6F
:10562C005168C3E900210B605360A5690B4B9D4287
:10563C0000D005B9E568A3689D4202D0284600F069
:10564C006DF965613046BDE87040FFF7DFBD8A42F9
:10565C00D8D01268D5E700BFC40B0020DC0B0020AB
:10566C00F8B550EA010306460C4603D1FFF7B4FF28
:10567C000020F8BDEFF31187202383F31288BFF3CA
:10568C006F8F124D124BA8681860FFF71BFEA868AD
:10569C00234632460F49183000F0E2F9AA68044656
:1056AC00537B384643F004035373FFF7AFFDAB68ED
:1056BC00D3E90A23B3F1004F08BF002AD8D103F075
:1056CC00C7F8201A20EAE070D3E700BFC40B002013
:1056DC00E40B00206787000038B504460D46FFF741
:1056EC00BFFFB5F1FF3F08BFB4F1FF3F02462046B4
:1056FC0018D000234FF47A7447F611201946C2FBD8
:10570C00040147F61222904271F100020BD3084BB0
:10571C00834243F608538B4107D347F612220023EA
:10572C00FAF7A6FE38BD1846FCE76FF00040F9E723
:10573C00ED85FFFF38B50446EFF31185202383F385
:10574C001288BFF36F8F437B5B070FD5183003F0C4
:10575C0057F8637B204623F004036373FFF770FD57
:10576C002946BDE838400448FFF7C0BE85F31188D0
:10577C00BFF36F8F38BD00BFFC110020014B986840
:10578C00704700BFC40B00202DE9F8430446077B8B
:10579C00EFF31185202383F31288BFF36F8F437BC4
:1057AC00190705D585F31188BFF36F8FBDE8F88312
:1057BC00D90943F008025AD14273A36813B12046A9
:1057CC0002F056FF04F1180003F01AF8A66D04F16C
:1057DC005808B04511D04FF0000976B1304602F0B0
:1057EC0047FF06F1180003F00BF83046C6F8889016
:1057FC00FFF726FDA66DB045EFD1DFF8B880D8F8DD
:10580C0008309C423BD1EFF30589B9F1000918BF70
:10581C004FF00109D8F81860274A964200D00EB90B
:10582C00D8F80C60B34202D0304600F077F8C8F8D4
:10583C001460B9F1000F02D02048FFF7DBFCD8F858
:10584C0008309C4231D1EFF3058373BB227BD20726
:10585C0018D42846FFF7DAFCFB07A7D5002383F3FF
:10586C001188BFF36F8F0423184602DF9EE703F005
:10587C007F0343F00803437302F0F2FE9DE74FF001
:10588C000009C7E785F31188BFF36F8F83F3118885
:10589C00BFF36F8F0423184602DFEFF31180202330
:1058AC0083F31288BFF36F8FD4E785F31188BFF3AE
:1058BC006F8FD1E7C40B0020DC0B002068080020A0
:1058CC000122044BC01A044BC0105843034B1A540A
:1058DC00704700BFF8080020ABAAAAAAFC11002050
:1058EC00C3897F2B12D80A4B1B6863B1094B90F903
:1058FC000E201B689A4209DB437BDB0606D1064B64
:10590C00C31A18BF012303F0010070470023FAE704
:10591C0058010020E80B00204807002070B50E4B02
:10592C000E4C1E7C054606EB460304EBC3042046D6
:10593C0002F066FF00220A4B28469A55FFF7D0FF6B
:10594C0048B1084B2046BDE870401A680649013A38
:10595C00D31700F085B870BDC40B0020F8080020E8
:10596C00FC11002058010020CD58000038B5EFF391
:10597C001185202383F31288BFF36F8F104B114ACC
:10598C009C681068A04206D1FFF7C8FF85F3118808
:10599C00BFF36F8F38BD00211B7C11600A4AD35CAA
:1059AC00002BF3D02046FFF79BFF0028EED0637B43
:1059BC00DB0602D12046FFF7BDFC2046E4E700BF22
:1059CC00C40B0020E40B0020FC110020074808B594
:1059DC00074A0849121A02F010FEBDE808400648B2
:1059EC00064A0749121A02F008BE00BF4000002008
:1059FC006802002040BC0000400000204000002055
:105A0C0040BC0000024B1868984208BF0020704749
:105A1C005C010020034B1B680BB9FDF77BBF00201A
:105A2C00704700BFEC0B002030B570B10B4B5B68BE
:105A3C0098420AD0036843B1D3E90421D0E9044564
:105A4C00121941EB0501C3E90421D0E900321360BE
:105A5C005A600023C0E9003330BD00BF5C01002058
:105A6C00B3F1FF3F08BFB2F1FF3F2DE9F84F0446F9
:105A7C00994615461F467BD08160EFF31188202391
:105A8C0083F31288BFF36F8F013279F1FF33DFF8A4
:105A9C00E8A020DBFFF7BEFFDAE90027013549F16A
:105AAC0000092D1849EBE07306464FF00109C4E9D3
:105ABC000453AD1843EB0707FFF7A4FF0346DFF8C9
:105ACC00BCE0DEF804A0EBB9C4E900EACAF8004077
:105ADC00CEF8044028E06FF00103DAE900125B1AFB
:105AEC004FF0FF3161EB02025B1B62EB0902012BF1
:105AFC0072F10001BCBF012300224FF00009C0E984
:105B0C000432D9E7D3E9041CD4E904208A4270EBAF
:105B1C000C0B24DA891A5A686CEB0000C3E90410E8
:105B2C00C4E9003214605C60FFF76CFF84420ED154
:105B3C00134B1B685BB9B9F1000F02D1FFF76AFF79
:105B4C000646304602F045FE0021FDF7F3FE88F3D1
:105B5C001188BFF36F8F28463946BDE8F88F521A6B
:105B6C0060EB0C009A45C4E90420ADD01B68AAE791
:105B7C0000252F46EFE700BF100900205C01002034
:105B8C00EC0B00202DE9F047EFF31185202383F374
:105B9C001288BFF36F8FDFF8A0900026C9F80000C1
:105BAC000027FFF72FFFDFF89480D9F80030D8E9F1
:105BBC0000ECD91750B1D0E90442A34271EB020AB0
:105BCC001BDAE41A62EB0102C0E90442002413EB75
:105BDC000E034CEB01012046C8E90031C9F8004026
:105BEC0002F0F7FD2146FDF7A5FE85F31188BFF302
:105BFC006F8FBDE8F047FFF7B9BE14EB0E024CEB0C
:105C0C00E473C0E90467C8E90023FFF70DFF85F3CF
:105C1C001188BFF36F8F83689847EFF311852023AA
:105C2C0083F31288BFF36F8FD9F800301B1BC9F8B0
:105C3C000030FFF7E7FEB8E7EC0B0020100900205E
:105C4C0010B5EFF31184202383F31288BFF36F8F09
:105C5C00FFF7E0FE0346054AD2E90001181841EBB4
:105C6C00E37184F31188BFF36F8F10BD100900200E
:105C7C00F8B50446EFF31187202383F31288BFF3A2
:105C8C006F8F026822B187F31188BFF36F8FF8BD55
:105C9C00D0E90A36581C46F10001022871F10001C6
:105CAC0027D3012B76F10001BCBF012316465D1EE4
:105CBC0046F1FF3602F0D0FD013041F100014019F0
:105CCC0046EB0101012871F100013ADB02F0C4FD41
:105CDC00013041F100016FF00102401946EB010364
:105CEC004FF0FF31121A61EB030320461749FFF7FF
:105CFC00B7FE236B01332363236A6BB187F31188DF
:105D0C00BFF36F8F2046236A9847EFF31187202348
:105D1C0083F31288BFF36F8F54F8185FA542B2D08B
:105D2C00002DB0D0284602F0E4FC0023C5F88830E2
:105D3C0087F31188BFF36F8F2846BDE8F84002F057
:105D4C00C9BC6FF001024FF0FF33CEE77D5C000061
:105D5C002DE9F04105461C4690461F46EFF311868F
:105D6C00202383F31288BFF36F8FB4F1FF3F08BF7A
:105D7C00B2F1FF3F05D186F31188BFF36F8FBDE8F9
:105D8C00F081531C74F1FF3309DB012A74F1000319
:105D9C00BCBF0122002412F1FF3844F1FF37284622
:105DAC0002F02EFDDDE906010023C5E90A012B6393
:105DBC0042463B4628460249FFF752FEDBE700BF4E
:105DCC007D5C0000F8B50D4E0D4C0E4D33680E4841
:105DDC00984767782B680C48984733680B48984766
:105DEC00022F08D12478E31F5C425C412B680748E2
:105DFC0098472046F8BD0024F8E700BF8801002032
:105E0C00F00B0020840100202C020020180200203E
:105E1C0070B51D4E1D4C33681D48984723785907A3
:105E2C0044BF23F00403237023789A0705D500F0B0
:105E3C00C1F8237823F002032370164D14482B6805
:105E4C009847336814489847637813B1134802F0A5
:105E5C005AFD002304211148637000F0CBF82B6825
:105E6C000D48984733680A4898472378DB0705D5CF
:105E7C0002F046FD237823F0010323702B680448BD
:105E8C00BDE87040184700BF88010020F00B0020CF
:105E9C0018020020840100202C020020F40B0020AA
:105EAC002DE9F041FFF78EFF18B100242046BDE824
:105EBC00F081364F36483B689847044620B16FF066
:105ECC008F04FFF7A5FFF1E7324D2B78D80706D4E6
