:10000000D82D002059250000C78B00004525000091
:100010004525000045250000452500004525000038
:10002000000000000000000000000000BD260000ED
:100030004525000000000000552600004525000071
:1000400055280000552800005528000055280000BC
:1000500055280000552800005528000055280000AC
:10006000552800005528000055280000552800009C
:10007000552800005528000055280000552800008C
:1004700055280000552800005528000053B94AB9F6
:10048000002908BF00281CBF4FF0FF314FF0FF309C
:1004900000F00CB8ADF1080C6DE904CE00F010F8D6
:1004A000DDF804E0DDE9022304B07047704700BFC7
:1004B000034613F8012B002AFBD1181A01387047A4
:1004C0002DE9F04786468C460846089E1546744638
:1004D0001946002B40F0C1808542B2FA82F245D91C
:1004E0004AB1C2F1200300FA02FC954094402EFA72
:1004F00003F343EA0C0C4FEA154EA8B2230CBCFBE5
:10050000FEF80EFB18CC08FB00F943EA0C439945B2
:1005100028D9EB1808F1FF3704D2994502D9A8F180
:1005200002072B44A3EB0903A4B2B3FBFEFC0EFBB2
:100530001C330CFB00F044EA0344A04214D92C19EC
:100540000CF1FF3304D2A04202D9ACF102032C44D7
:10055000241A43EA07401EB1D4400023346073607C
:10056000BDE8F0874746DDE76346F1E792BB431BF2
:1005700001214FEA154EAFB2200CB3FBFEFC0EFB7F
:100580001C330CFB07F840EA0343984561D9EB188C
:100590000CF1FF3004D2984502D9ACF102002B4493
:1005A000A3EB0803A4B2B3FBFEFC0EFB1C330CFB55
:1005B00007F744EA0344A7424DD92C190CF1FF3345
:1005C00004D2A74202D9ACF102032C44E41B43EA53
:1005D0000040C0E7C2F120039540944020FA03F1A7
:1005E0002EFA03F34FEA154E9040AFB20343B1FB2E
:1005F000FEFC0EFB1C10190C0CFB07F841EA004135
:10060000884522D969180CF1FF3004D2884502D9F7
:10061000ACF102002944A1EB08019BB2B1FBFEFC46
:100620000EFB1C110CFB07F743EA01439F420ED956
:10063000EB180CF1FF3104D29F4202D9ACF1020158
:100640002B44DB1B41EA004193E76046E3E7614648
:10065000F7E76046A4E76346B8E7834206D916B9D0
:10066000002108467CE7C6E900E0F9E7B3FA83F722
:100670008FB9834201D3724508D8BEEB020460EB08
:10068000030301209C461EB9002169E73846FAE7BA
:10069000C6E9004CF8E7C7F1200CBB400EFA07F59D
:1006A00022FA0CF42EFA0CF1BA401C4320FA0CF397
:1006B000B8404FEA144901431FFA84FEB3FBF9F82E
:1006C00009FB18300B0C08FB0EFA43EA00439A456D
:1006D00040D9E31808F1FF3004D29A4502D9A8F1B5
:1006E00002002344A3EB0A0389B2B3FBF9F809FB28
:1006F000183308FB0EFE41EA03418E452CD96118E0
:1007000008F1FF3304D28E4502D9A8F10203214437
:1007100043EA0040A1EB0E01A0FB02984145CE4602
:10072000434602D306D14D4504D20138B9EB020E3F
:1007300068EB0403002EA7D0B5EB0E0261EB0301BA
:1007400001FA0CFC22FA07F3F9404CEA0303C6E96C
:10075000003199E74046C5E74346D9E70B7813B91E
:10076000014805F091BB70470803002070B50446AE
:10077000054E4518AC4200D170BD14F8011BB3689A
:100780000148DB699847F5E70CA600002DE9F34125
:10079000174CA3681B681BB10022204615499847D7
:1007A000DFF85480124F154D4FF0FF3201A94FF082
:1007B000FF33404605F03CFA019921B90521104864
:1007C000FFF7D4FFF0E7A3684FF448625E6838464D
:1007D0004FF0FF33B0474FF0FF324FF0FF33284662
:1007E00005F086FB0199074809F092F9DCE700BFA4
:1007F0000CA600005D070000C002002008030020D6
:1008000068C900002C020020014805F03DBB00BF74
:10081000E80200202DE9F04F87B0754809F030F963
:1008200048B974480121744A08F0E0F86FF01200EA
:1008300007B0BDE8F08F714809F022F90028F0D028
:100840006F4C204609F01CF90028EAD06D4809F0E9
:1008500017F90028E5D000276B4B4FF4D0116B48F7
:100860005F6107F048FB0028E2DB4FF48031684805
:1008700007F041FB0028DBDBA5682369AE69002E89
:1008800000F0B3801B684FF0A07213F0010F14BF8B
:100890004FF000734FF0806339462046B047002880
:1008A000C6DB01225B495C4B8A604B60EB690BB194
:1008B000204698470321594A4E4808F097F80321EB
:1008C000574A4C4808F092F8DFF85891494C4B4F82
:1008D0004FF0FF324FF0FF33484605F009FB03218C
:1008E0002046514A08F082F800223846114607F0A7
:1008F00021FB3F4D4D4809F06AF9AE682846336840
:1009000041499847031E0FDA494A0121204608F061
:1009100076F801220021384607F00CFB032120461F
:10092000444A08F063F8D3E77368012128469847E2
:10093000031E01DA404AE8E74FF47A73009300217E
:1009400004AB2846B66803AAB047031E33DA022177
:1009500020463A4A08F053F8642607213848FFF742
:1009600005FFDFF88CA0D5F80880DFF8C0B04FF4A1
:100970007A730093002104AB5046D8F808C003AA4C
:10098000E047031E1CDA012120462E4A08F037F802
:10099000AB6800215B681648984700230593002246
:1009A000002305A9214805F0E9F803212046264A3D
:1009B00008F01CF8ADE70399244809F0A9F8CBE743
:1009C00043F609520023584603A905F0D7F848B169
:1009D000012120461E4A08F009F803991B4809F036
:1009E00097F8D5E7013EC2D1D2E76FF057001FE775
:1009F000C0A6000078B00000BCC70000C4A500007D
:100A00007CA500000CA60000D000002000B1000072
:100A1000F8B00000300C002009080000DCC700001E
:100A2000F9C70000E802002020C80000C002002032
:100A300044C8000017C9000061C800007AC800005F
:100A40006DC900009BC80000EFC800002C02002008
:100A5000B8C800002DE9F04F91B0009302F00403F4
:100A60000293C2F3C2030133840705460E46DDF844
:100A700068800392059340F0BB81041D30B10729C3
:100A800009D86FF01B0011B0BDE8F08F01F0070628
:100A90003444C6F10806009B4FF000094FF0040AE9
:100AA000591E4FF0FF334F460193CB465346CDF8C6
:100AB00010900DB1009A22600598002800F3E8809C
:100AC0009848009A824203D397488242C0F0E0805F
:100AD000039AA4EB050E92074FEA9E0000F10381F2
:100AE0000F2F00F2B180002D00F0058107F14002C8
:100AF0000DEB020C019A0CF8200C0CF8102C049849
:100B000001300490E7E07A285DD84B280ED84728BA
:100B100059D829282DD8252852D054D820287AD021
:100B20002338D0F1000B4BEB000B74E04C382E282F
:100B300049D8DFE800F070484848484848484848E5
:100B400048484B484848484848484859484B4B59FA
:100B50005959704B6D487048184B184848827F4B64
:100B600048484B487F0000204FF0000B4FF0040A2C
:100B700038E001222A38C0B202FA00F010EA0E0F63
:100B800049D110F0625C2FD110EA020B43D06046CD
:100B9000013C5444B4FBFAF40AFB04F4002D61D088
:100BA000A3EB050CA444B4453FF66BAF002868D115
:100BB000042B47D158F8043B2360042304342AE073
:100BC000019A013A01924FF0000B24E011F8010C58
:100BD0006C2834D1002011F8023C83466C2BC5D11F
:100BE0004FF0080A5346D3E708F1070828F0070832
:100BF000073424F00704F8E802AB35B10698204426
:100C0000B0423FF63EAFC4E900AB4FF0000B0834F2
:100C10004FF0080A534611F8010F002878D0BBF1B5
:100C2000000F7FF470AF2528F5D14FF0010B019B29
:100C3000013301934FF0040AECE7584694E7002093
:100C40008346A5E7082B02D06FF015001BE708F1DB
:100C5000070828F00708F8E80223C4E9002308235E
:100C60000834D8E768B9042B02D108F10408A4E7D6
:100C7000082BE9D108F1070828F0070808F108084F
:100C8000EDE7059A013A059258F8042B009210E717
:100C9000039A900720D54FF0010CA4EB050E4FEA04
:100CA0009E00BEF5007FCFD20F2FCDD8F5B107F152
:100CB00040020DEB020E019AC0B20EF8200C0EF8A5
:100CC000102CBCF1000F3FF41AAF60F07F000EF85B
:100CD000200C09F101090137C5F108024FF6DA7E4F
:100CE0000434069297E74FF0000CDAE7BCF1000FEE
:100CF00001D00136EFE7029802360028EBD10098C8
:100D0000CDE90631FFF7D4FBDDE906310644E2E721
:100D1000631BB3F5806F97D245B9A6F10804E018BC
:100D2000B1E600BFB8A40000E8D40000029A9B0816
:100D300028602B709DF81030C2B1EB7085F80290DE
:100D4000B9F1000F05D0002208A8C5F1010C9742A7
:100D50000ED14FF0000AC5F101030DF120080193F7
:100D60000DF1300B574512D1601B8CE66B70E5E737
:100D700010F8013B190608D50CEB040EB64503F03C
:100D80007F033FF67EAE04F8013B0132DFE7B9F1A5
:100D9000000F03D098F90020002A17DB029BD3B183
:100DA0001AF80B2004F8012B0022019B181910449B
:100DB000B0423FF666AE98F80000009904F8010BC7
:100DC0002046039209F0EFFA039A14440AF1010A4B
:100DD00008F10108C6E798F8002055F82230009382
:100DE000029B009845F82230FFF762FB421CDCE7CB
:100DF0006FF00D0047E600BF2DE9F04F97B000AF50
:100E0000D7F880B03B62CBF3C0030446894690F824
:100E100002A0FA62BB6141B9457800780AEB800014
:100E200020444D4517D8A0EB0409E378FB61BAF1E3
:100E3000000F02D01BF0010F16D1FB6953BBFB6AF8
:100E40001BB1494620463A6A98474D4628465C37CA
:100E5000BD46BDE8F08F461C3046FFF729FB013048
:100E6000304409F10109DCE7626823787A62FA6AA2
:100E70009900796104EB8301002A40F001810E465C
:100E80004FF000084D4601EB0A094E454CD101EBED
:100E90000A0610E01BF0020FD1D023789A007A6185
:100EA000626804EB83017A62FA6A002A77D14D46C0
:100EB000904601EB0A061BF0050F0CBF022301232D
:100EC000FB62FB6906EB430A0BF00203BB6256456B
:100ED000BCD016F8021B16F8013C54F82390994B2D
:100EE000994502D3984B994536D3BB69002B40D026
:100EF000786A07F040F900283BD0E9468AB06A4694
:100F0000924B53617B6AC2E906314FF4007313843C
:100F10008F4B42F8103F00234FF412518D4800F0E0
:100F200019FD023DCD46D2E716F8013BF96254F8AF
:100F30002300FFF7BDFAD7F88430F96A01304BB1CE
:100F4000D7F8883098453EBFD7F8843023F818008A
:100F500008F10108054498E7BB6923B1786A07F0F6
:100F60000AF90028C9D11BF0010F05D1FB6AED1A5F
:100F7000ADE7BB6A002BAAD04846FFF799FAD7F82D
:100F8000843053B1D7F8883098453FBFD7F88420D4
:100F9000431C22F8183008F10108054497E7BAF11C
:100FA000000F73D01BF0040673D0D046002607F163
:100FB000480052463B61B96209F0F5F9B96A3B69EC
:100FC00001EB0A02BA62FA69F9695200FA60BA6A78
:100FD00002EB41023A610BF00202BA603A69B96A67
:100FE0008A4258D162781BF0020F18BF00217A6242
:100FF00008BF4FEA5801B2181BF0010FD2B240F0FF
:101000009F801BF0040F14BF40460020BB6162703C
:10101000A070E17020463A6A7969FB6A9847051E1C
:10102000FFF614AFBB69414623707B6A3A6A63706E
:10103000FB6984F802A0E37007F14800FB6A984757
:10104000B0F10008C0F2BA807B69A9EB0A01C91AA5
:10105000FB683A6AC91AD7E90A0398470028C0F220
:10106000AF804FF0000BA84408EB000507F1380AE9
:10107000B34571D300213A6A0846FB6A9847E5E612
:1010800056464FF0000807F1380092E75646D04622
:1010900096E7B04694E7BA6A12F8021B12F8015CB0
:1010A000BA6254F82500274A904202D3264A904259
:1010B0001ED3BA6932B1786A7B6007F05CF87B684E
:1010C00000288BD1BA6802BB08F1280207F1300C66
:1010D00008F10100944407F1580208F1020852FA9D
:1010E00080F00CF8101C5FFA88F800F8105C75E7C7
:1010F000BA693AB1786A7B6007F03DF87B680028EE
:101100007FF46CAF1BF0010F09D006F1280207F144
:101110003000711C161806F8205CCEB25EE71BF09A
:10112000040F3FF45BAF08F1280207F1300008F12B
:10113000010102EB000808F8105C5FFA81F84DE746
:10114000002063E7B8A40000E8D4000074C90000E0
:101150000400000138B000001BF80A3054F8239056
:1011600087F83730D7F884302BB3D7F888309B45D1
:1011700021D2D7F8843033F81B8001213A6AFB6A08
:1011800007F13700984700281ADB0544B8F1000F33
:1011900006D14846FFF78CF900F101081FFA88F8DC
:1011A000414648463A6AFB6A9847002808DB0544EE
:1011B0000BF1010B5CE74FF00008DEE7454645E622
:1011C000054643E6014B1860704700BF040100204C
:1011D00080B505460E461746984605F0E3F90346E6
:1011E00009F060F90446DFF81890424649F80030EB
:1011F00039463046A84754F8090001F015FA00BFF7
:10120000080000002DE9F047058B044628079046AA
:1012100011D4022905F0070540F0CC80204607F0E4
:101220004AFA78B10138218B042811D8DFE800F0A0
:10123000C2106D85950001290CBF45F0100545F0E1
:101240002005258388F31188BFF36F8FBDE8F087F1
:1012500001F0070AAA4500F0A5800027B9463E46DE
:10126000A368002B00F0BC8041F00801218388F3C3
:101270001188BFF36F8FA168002900F0BA800D6854
:10128000002900F0B680334652462046D1F804804B
:10129000C047002D76D02B6829461D46F0E701F0A7
:1012A00007035A1F012A1BD8002221F00701062B31
:1012B000276889B2C4E9002209D13B4603E0628B6A
:1012C000013262831B68002BF9D141F002012046F4
:1012D000218307F0F0F900287AD041F0200176E070
:1012E000042B0AD121F0070189B22046218307F09F
:1012F000E2F910B141F020012183218B01F0070AAE
:10130000AA454FD00027B946AAE7236921F0070173
:1013100041F00601062DD3F8009021832DD1B9F1BB
:10132000000F3FD041F00801218388F31188BFF3FB
:101330006F8F20463949C84729E021F0070123690A
:1013400041F0040189B2042DD3F804902183E6D042
:1013500000274FF0040A3E4682E721F00701236987
:1013600041F0050189B2052DD3F808902183D6D02C
:1013700000274FF0050A3E4672E700274FF0060AA5
:101380003E466DE72B4687E7B9F1000FD1D1EFF369
:101390001188202383F31288BFF36F8F238B23F0F0
:1013A00008032383258BEA062ED525F0100323831B
:1013B00005F007056669218B002EBFF670AF00238C
:1013C0002768C4E9003321F0070141F001012183BE
:1013D000218B4FF0000901F0070AAA457FF440AFC6
:1013E000002F9CD041F00801218388F31188BFF3BE
:1013F0006F8F002FC8D03D6839463346524620468D
:1014000007F085F92F46F4E7AB067FF51BAF25F013
:101410002003238305F0070500E700BF3B8700009A
:101420002DE9F047044607464FF00109DFF85080E8
:1014300014B93846BDE8F08794FAA4F5B5FA85F5F5
:1014400009FA05F32E0108EB05156FEA030A24EAF1
:1014500003042B7B002BEBD058F806301B694BB9EB
:101460004644736804222846196807EA0A0707F009
:101470004EFADDE7284698470028D9D1F0E700BFAB
:10148000B0B0000030B5002289B00F490F4808F015
:1014900005FD002200230024CDE906230E230C4D78
:1014A000CDE903344FF440722846CDE90144094B9D
:1014B0000949009404F082FD0849284608F0EBFB36
:1014C000204609B030BD00BFE114000058080020DC
:1014D000C0030020F9170000981D002028CA000052
:1014E000014804F0D1BC00BFF80200202DE9F0470C
:1014F000804621480F4607F0EEF90646002833D013
:1015000000252846BDE8F087237B83B12368DB688C
:101510000BB120469847636883F8069023681B69DF
:10152000D3B9636804222046196807F0F0F9013640
:1015300010345445E8D3B8F1000FE2D0002DDFD0CD
:101540002846FFF76DFF0546002FF7D0002140F237
:10155000391004F0D5FFF1E7204698470028E0D085
:1015600009FA06F31D43E2E705464FF00109034C73
:10157000DFF80CA0DDE700BF4C0C0020B0B000008D
:10158000C0B00000014B53F8200070471CB10000B0
:1015900008B5034608462BB1044A136000F070FCFE
:1015A000002008BD6FF01500FBE700BF0801002018
:1015B00010B5044C237813B9034804F065FC0123EB
:1015C000237010BD6C150020F802002010B50446F1
:1015D000094807F080F93CB1084BD3E8EF1F013907
:1015E000C3E8E21F002AF8D1054808F063FCBDE813
:1015F0001040044804F048BC440C0020480C002073
:1016000058080020F802002000200146034BD3E8D0
:10161000EF0FC3E8E21F002AF9D17047440C002005
:1016200070B5FFF7F1FF0546074C084EB44200D3F2
:1016300070BD63685B792BB123685B6813B1294681
:10164000204698471034F1E7B0B00000C0B0000069
:1016500010B5044C0449204606F0C6FE034B1C603E
:1016600010BD00BFF001002008B100003C0C0020BC
:1016700000230D4A10B513700C4A0D4913600D4A32
:101680000D481360FFF784FFFFF7E2FF0B4B0C4997
:1016900018468B4200D310BD1A1A5C681211013231
:1016A00022711033F5E700BF6D150020440C0020B7
:1016B00040420F00480C0020D3880000B0B000006A
:1016C000C0B00000014600220023014806F0ADBE74
:1016D000F0010020014806F046BF00BFF0010020E5
:1016E000024B0146186806F092BF00BF3C0C002078
:1016F000014806F0C7BF00BFF001002070B5274BBE
:101700001878002849D0FFF7E5FF0546002841D1A9
:10171000234B244C1B68002B19DD08F0BDFB4FF454
:101720007A75A0FB050647F61222002305FB01612E
:10173000FEF7A4FED4E90032C01A40F2E93361EBAF
:101740000201984271F1000101D3FFF769FFD4E96A
:10175000003213F57A7342F10002C4E90032BDE8A9
:101760007040FFF7C5BF63685B7923B123682946E2
:1017700020461B6898471034B442F4D32846FFF73C
:10178000AFFF094BD3E8EF1F0139C3E8E21F002A7E
:10179000BED0F7E7054C064EEEE770BD6C15002095
:1017A000440C002050080020480C0020B0B000007D
:1017B000C0B0000070B50D4D297861B90120FFF768
:1017C00095FE0B4C0B4EB44206D3FFF797FF002853
:1017D000FBD101232B7070BD63685B791BB123685B
:1017E00020469B6898471034EDE700BF6D15002038
:1017F000B0B00000C0B0000000212DE9F04708465D
:10180000FFF774FE044658B340F21B684FF000091E
:1018100008F048FE1B4B1C4A1B58136033B11B4B8E
:101820001B68092B02DD1A4804F02EFB0025194F16
:10183000DFF85CA044B12046FFF7F2FD044618B97A
:101840004FF0FF384FF0FF39FFF758FF064628B931
:10185000B5B942464B46504604F04AFB3546E9E7E7
:101860004FF0FF384FF0FF39D2E72B689B691BB16F
:1018700000222846114698471035BD42F5D3E8E7C7
:10188000054DFAE708000000400C0020480C00203D
:10189000F8020020C0B00000B0B0000013B5184836
:1018A00007F019F8174B1B7873B1EFF3118420235D
:1018B00083F31288BFF36F8FFFF720FF84F3118843
:1018C000BFF36F8F02B010BD0F4B1B68002BF9D018
:1018D00050B9002200230D48CDE9002347F612221B
:1018E000002305F049F9EDE70928EBD1074808F096
:1018F000E1FA074802B0BDE8104004F0C5BA00BFE5
:10190000480C00206D150020400C002058080020D5
:10191000F802002010B5064B04461B689847214684
:10192000A060044806F000FEBDE81040FFF7B6BF17
:1019300008010020F0010020044A054B9B1AB1EB7E
:10194000D30F34BF52F831000020704730B0000090
:10195000B0B000002DE9F04F8FB0C1F34A2804AFBA
:101960000D469146B8607B600C0DB8F1000F63D056
:1019700000264FF0040B4FF00A0A07F11403C7F8D2
:101980000C80C7E907667E620193CDF808B0CDF8F8
:1019900000A007F11C0332464846F968FFF72CFA0D
:1019A000B0F5006F03461CD36C468AB0D9F804101A
:1019B00004AB26481A46C3E9050140F2FF71D9611C
:1019C0004FF400711984224B42F8103F4FF412512A
:1019D00033462048FFF7BEFFA5462C37BD46BDE87D
:1019E000F08FC0F30A0804F11700184420F0070034
:1019F00080083B60FFF766FE68F35325044690B10C
:101A00003B6800F11001C7E9083607F11403F961DA
:101A1000CDE900A3CDF808B048460F4AF96807F1B0
:101A20001C03FFF7E9F968F353252A4620467B6833
:101A3000B96806F08BFFD0E704F1170020F007002B
:101A40008008FFF73FFE0446EDE700BF3DCA0000F7
:101A50000400000160B00000218900002DE9F04F72
:101A600087B00446DDE9105ADDE9127993469846BD
:101A70000391BFB13B46524610210020CDF80090A3
:101A8000CDF81490FEF7E6FFB0F5006F06460AD3D6
:101A900040F2FF730221174A174807B0BDE8F04F24
:101AA00006F0ADBF3E4605F11700304420F00700B8
:101AB0008008FFF707FE04F007040BF0070BE400B3
:101AC00044EA8B1444EA462444EA0554054640B1EE
:101AD0003FB13B4652463146CDF800901030FEF7FC
:101AE000B9FF434622462846039907B0BDE8F04FA8
:101AF00006F02CBF7CCA000060B00000406820B136
:101B0000034BC01A40F3CF0070474FF0FF307047CF
:101B100030B000000EB403B503AB53F8042B0146FC
:101B20000448019301F0B6F802B05DF804EB03B08D
:101B3000704700BF618A0000CA0605D48B064CBFFF
:101B400002490349FFF7E6BF704700BFB5CA00006E
:101B5000B4CA00002DE9F04F89B09B46149B9DF854
:101B60004CA00693159B04460593169B0D46904684
:101B7000179E0493BAF1000F00F09D8006F4807365
:101B8000079306F0C2FE06F00209024600283ED086
:101B900020469149FFF7BEFF0746B9F1000F08D074
:101BA00016F0440F35D12A4620468C49FFF7B2FF84
:101BB000074406F0010353B1894B204653F82A200D
:101BC000884B8949002A08BF1A46FFF7A3FF06F48D
:101BD0008073002B49D006F00803002B63D1B8F1C5
:101BE000000F66D0424620468049FFF793FF054626
:101BF000069B3D44002B6DD1049B002B73D1F30752
:101C000000F1E48031462046FFF796FFD8E0074612
:101C1000C3E7774B18680028CAD0764B4FF47A791F
:101C20001B684FF03C0CB5FBF3F5B5FBF0F14FF43E
:101C3000616300FB115509FB05F5B1FBF3F2B5FB40
:101C4000F0FE03FB121100FB1E55B1FBFCF309FB78
:101C500005F5B5FBF0F50CFB131120460091CDE91D
:101C600001E56549FFF756FFA2E706F00803EBB16F
:101C7000624B204653F82A206149FFF74BFF054687
:101C8000B8F1000F05D0424620465849FFF742FF01
:101C90000544BBF1000FABD05A4620465949FFF727
:101CA00039FF0544A4E74FF0000BE1E706F0080513
:101CB000E6E745469CE7BBF1010F069B06D1002BEA
:101CC00064D1049B002B7BD000250CE0002BF8D0C6
:101CD0004D485CE04D48069B22464D4906F01AFAF5
:101CE000049B002B68D0DFF82C81DFF82C91049F37
:101CF0003146102F204628BF10274FF0000BFFF76A
:101D00001BFF5D4545DC059B494620461A78FFF7D9
:101D100001FF4FF0010B1BF0070F03D14146204696
:101D2000FFF7F8FE5F453BD9059B4946204613F86F
:101D30000B20FFF7EFFE0BF1010BBBF1100FEAD107
:101D40004FF0000B20463549FFF7E4FE5A46059B4D
:101D500020469A5CA2F120015F2928BF2E2230493B
:101D6000FFF7D8FE0BF1010BBBF1100F1DD01BF0DC
:101D7000070F03D141462046FFF7CCFE5F455A4688
:101D8000E5D841462046FFF7C5FEEBE71F4855461C
:101D9000A1E741462046FFF7BDFE0BF1010BB0E77E
:101DA00020462049FFF7B6FEC5E7059B3B44059357
:101DB000049BDB1B04939AD1BAF1000F7FF41FAF91
:101DC000204609B0BDE8F04F06F03DBE2046054A6A
:101DD0000549FFF79FFE15E7BCCA0000C0CA000016
:101DE0002CB10000B7CA0000E5CA0000E8CA000034
:101DF000540C0020500C0020C9CA000040B1000063
:101E0000ECCA0000F2CA00008F8A0000618A00005C
:101E1000952C0000FFCA0000F7CA000001CB0000AB
:101E200003CB0000FDCA000042F20F7373B58B4272
:101E300028BF0B4605680446052168460D4A05F093
:101E4000D3FD0646636828460B225B680A4906F004
:101E5000ECFD63683246694628465B6806F0E5FD9E
:101E600063681B2228465B68044906F0DEFD02B069
:101E700070BD00BF5EC8000022CB000006CB000092
:101E800000210123064A904206D8064A01B90123DF
:101E90001360054B18607047012140085B00F2E7B2
:101EA00040420F00500C0020540C00202DE9F3415B
:101EB00043680DF107011C681048656806F04AFE8A
:101EC00030B99DF80710012902D10C4800F030F814
:101ED00001232B7525682F68D5E90136D3E9004821
:101EE00024B96B681C6002B0BDE8F0812146304621
:101EF0004246B847241A0644F2E700BF0CA6000089
:101F0000F8B50D460446064F4618B44201D128469E
:101F1000F8BD14F8011BBB680148DB699847F4E77A
:101F20000CA60000014B03600020704788B1000040
:101F300070B5046A0D469CB31E4A2379565CB342C1
:101F400031D01D4A525C9A4230D1A368984700288C
:101F500010DA022D0CD0032D0BD110F1860F07D013
:101F6000D4E8EF3F43F00203C4E8E23F002AF6E77B
:101F7000267170BD022D267101D00020F9E7D4E84A
:101F8000EF3F23F00403C4E8E23F002AF7D1D4E88E
:101F9000EF3F23F00203C4E8E23F002AEDD0F6E76A
:101FA0006FF05700E5E76FF07700E2E76FF085002C
:101FB000DFE700BF84CB000080CB000008B50448F9
:101FC00006F000F9BDE80840024806F0FBB800BF83
:101FD00088CB0000BDCB00002DE9F04706460C463B
:101FE00000AF002936D0D1E90012E9468AB06D462B
:101FF000A3684FF0050AA8461F48C5E90723C5E9AD
:10200000050148F810AF002342464FF421511B4808
:10201000FFF7A0FCD4E90312CD466369AD4618482A
:10202000C5E90723C5E90501C5F810A0002342460C
:102030004FF421511148FFF78DFCCD46E369012192
:10204000104A0E4806F0DBFCA36901210E4A0B483A
:1020500006F0D5FC012E07D1EFF305830B4A31467C
:102060000648103B06F0CBFC2146304603F0B0FB9F
:10207000BD46BDE8F08700BFEBCB000088B0000094
:102080001ACC000049CC000058CC000086CC0000DF
:1020900030BFFFF7FDBF00BF2DE9F04105460B4EF5
:1020A000DFF82C80324606EB0807CC1B2046094996
:1020B00008F079F9A01942460021083C08F080F99F
:1020C000C5F8804007F10800BDE8F081000000007D
:1020D00004000000C0B00000054B5A699B689A429A
:1020E0001FBF044A536843F080535360704700BFDA
:1020F000400F002000ED00E070B52A4C06460D466A
:1021000029482A4906F066FDA36ADB0647D526481A
:10211000274906F05FFD1120A36A1C0704D5224859
:10212000244906F057FD12201E4CA36A990712D5C8
:1021300021491D4806F04EFD636BA26A120609D5BF
:1021400001211E4A184806F05AFC1EB1A36A23F06A
:102150008003A3621320134CA36ADE0704D5124840
:10216000174906F037FD1420A36A9C0604D50E48D3
:10217000144906F02FFD15200A4B9A6AD10658BF64
:102180009A6A9A6A920642BF5A6A22F400525A62C6
:102190009A6A42F0FF029A6200232B7070BD1020F1
:1021A000BAE700BF00ED00E088B0000099CC000065
:1021B000AFCC0000E2CC0000F5CC00000DCD00005B
:1021C00023CD000042CD000010B5244C2449254801
:1021D00006F000FDA36A99013ED52248224906F087
:1021E000F9FC1E20A36ADA0104D51E481F4906F037
:1021F000F1FC1F20194CA36ADB0204D519481C49C5
:1022000006F0E8FC0220A36A1C0304D5154819490E
:1022100006F0E0FC2120114CA36A590304D51148B3
:10222000154906F0D7FC2220A36A9A0304D50D486D
:10223000124906F0CFFC2320084CA36ADB0304D527
:1022400008480F4906F0C6FC2420A36A6FEA03433E
:102250006FEA1343A36210BD1D20C3E700ED00E049
:1022600071CD000088B0000089CD00009CCD000039
:10227000B6CD0000E0CD0000FECD000023CE000072
:102280003DCE000070B5294C06460D462848294928
:1022900006F0A0FCA36AD9043CD52548264906F0DF
:1022A00099FC1720A36A1A0504D52148234906F092
:1022B00091FC18201D4CA36A9B0512D51C4820498F
:1022C00006F088FCA36BA26A100409D501211D4AFF
:1022D000174806F094FB1EB1A36A23F40043A362DF
:1022E0001920124CA36A590504D51148164906F065
:1022F00071FC1A20A36ADA050ED50D48134906F0C1
:1023000069FC1B20094A936A43F47F4393620023CC
:102310002B7070BD1620C5E7A36A9B04F2D5044854
:102320000B4906F057FC1C20ECE700BF00ED00E075
:1023300088B0000068CE00007ECE0000E2CC000035
:102340008FCE0000A8CE0000BDCE0000D8CE000089
:1023500042CD00002DE9F0418AB0654B0446D3F828
:102360000480002600AFC8F3080586F31188BFF388
:102370006F8F02F07F43B3F17F4F07D102F00C0360
:10238000082B12D15B495C4806F024FC0026344639
:102390000023FB71EB1E092B00F28980DFE803F0BC
:1023A0000A7F827B87878787878510074CBF0C460B
:1023B0000126EDE75149504806F00CFC00234C4D36
:1023C000FB71EB6A9A0705D54D494B4806F002FCB4
:1023D000002331E0EB6A002B01DA4A49F5E7EB6AAA
:1023E0005B00F5D54849444806F0F4FB6B69A269E7
:1023F00043F480736B61BFF34F8FBFF36F8F6B69D3
:1024000032F8022C23F480736B61BFF34F8FBFF35C
:102410006F8F4DF602739A4207D0AB6ADBB26BB393
:102420000120F91DFFF768FE37E023680121374AD4
:10243000314806F0E4FA2368FA79DAB907F10805B9
:1024400004F1200C2A4620686168083403C2644500
:102450001546F7D17A6A002E45D0C2F3080121B99A
:102460006FEA52226FEA42227A62184607F10801A7
:10247000FFF7B2FD2837BD46BDE8F081AB6A13F423
:102480007F4F04D00120F91DFFF7FCFE05E0AB6A89
:10249000B3F5803F9CD3FFF797FE0346CCE70020BF
:1024A000F91DBFE70020F91DEEE719498DE7194A2C
:1024B00018F4F87FE8468AB0174B18BF13466A46EF
:1024C0001649103DC2E905134FF400731384144BF1
:1024D000D56142F8103F00234FF411510648FFF731
:1024E00039FAC54674E722F4FF7222F00102BBE715
:1024F00000ED00E01ECF000088B0000049CF0000D2
:1025000060CF000081CF00008FCF0000AECF000071
:10251000CACF000005CF0000F0CE0000EECF0000D3
:1025200004000001064B5A6942F010025A615A69D0
:1025300042F480625A615A6922F008025A61704777
:1025400000ED00E0EFF30880EFF3098101B572467A
:10255000FFF700FF01BD00BF002080F31488BFF328
:102560006F8F002080F30A8880F30B880F4880F378
:10257000088801F049FE00200D490860BFF34F8F25
:1025800000F02CF8202080F311880A484FF40061F5
:10259000401880F30988EFF314800221084380F388
:1025A0001488BFF36F8F00F0EFF80000D82D0020E3
:1025B00094ED00E098200020002318460649D1F849
:1025C0009020C2F30722934200DB7047C1F8983095
:1025D000C1F8A0000133F6E700ED00E010B572B6D7
:1025E000002484F31388FFF7E7FF23464FF0FF3002
:1025F0000C4A03F120010133102B42F82100F8D1DD
:1026000000234FF0FF30074A03F160010133102B24
:1026100042F82100F8D162B6BFF34F8FBFF36F8F3E
:1026200010BD00BF00E100E0084B9B6883420BD166
:10263000EFF3058343B1064B5A6842F080525A606B
:102640005A6A22F400425A6203F0B2BF400F0020DF
:1026500000ED00E016498A684FF030001044EFF3B7
:10266000098C80E8F01F202080F31288BFF36F8F61
:10267000104F4FF000664A698A603E60D2F88000D1
:102680000D4C2060D2F884000023C2F8843080F31F
:10269000118802F1300090E8F01F8CF3098802F1F4
:1026A000000004B506F09EFABDE804407047000043
:1026B000400F002004ED00E07C0C00201EF0040F11
:1026C0000CBFEFF30880EFF30980816911F8021C59
:1026D0000229FFD001B5724606F071FA01BD00BFB4
:1026E00000B2002807DB01234109034A00F01F0064
:1026F000834042F82130704700E100E000B200283A
:102700000CDB01220649430900F01F008240203300
:1027100041F82320BFF34F8FBFF36F8F704700BF87
:1027200000E100E0054B420953F82220012300F0AC
:102730001F0003FA00F01040704700BF00E100E006
:1027400000B2002801F10101ACBF00F16040064B6E
:102750004FEA4111C9B2ABBF00F5614000F00F0074
:1027600080F800131954704714ED00E0044B054A3B
:1027700023F07F039360BFF34F8FBFF36F8F7047DA
:102780000000000000ED00E008B5FFF7EFFF074A8A
:10279000D2F8883023F47003C2F8883003F004F9CB
:1027A00004F028F800F046F803F03EF900ED00E0F0
:1027B00042F8203C009B0B4942F81C3C019B21F055
:1027C000010142F8183C029B42F8081C42F8143CF4
:1027D0004FF0807342F8043C0023203A0265C0F8B1
:1027E00084307047D111000000B50B4B154698603E
:1027F000D0F88020094B0E461A60036F83F30B88D4
:102800002C4686F309880020054B98472046002176
:1028100000220023034C2047400F00207C0C0020A6
:10282000ED8B0000D11100001022014B1A6170479E
:1028300000ED00E00023202040F20F1210B5044C00
:10284000E1180133934281F80003F9D110BD00BFB4
:1028500000E100E008B5EFF30583064A103B02EB08
:10286000C30152F8330049688847BDE80840FFF7C4
:1028700033BC00BFE4A600001FB5094C094A23463B
:102880000121094800F012F900230393074B0121AD
:10289000E41A01A80193029400F012F904B010BDEB
:1028A00000F002200000002088B10000300300206A
:1028B00010B50C7A0B6804F01F0223F01F031A43B3
:1028C000CB68640923F01F03054943EA440343F03E
:1028D0000103C1F89800C1F89C20C1F8A03010BDD8
:1028E00000ED00E010B50A4BD3F89030C3F3072396
:1028F000013B984208D901210346064A064806F0E2
:102900007EF86FF0150010BDFFF7D2FFFBE700BFA8
:1029100000ED00E005D0000080B000002DE9F04F90
:102920008946144606464FF00008514D85B0C8450B
:1029300027DAD6F804A0BAF1000F44D0BAF11F0F7D
:1029400017D91AF01F0F14D1D6F800B01BF01F0FC3
:102950000FD1584606F06DF907460AEB0B00013817
:1029600006F067F9874210D06FF01507414A3B46E1
:1029700001E04346404A0121404806F040F86FF02C
:102980001504204605B0BDE8F08F17F1160FEDD005
:10299000BC42EBDDC5F89870D5F89C10C5F898706E
:1029A000D5F8A03021F01F0143F01F0BD6E900320B
:1029B0001A44994202F1FF3A1DD1D34507D131465D
:1029C000F8B206F03FF908F101080C36AFE73146DE
:1029D000C5F89870D5F89C3022F01F0203F01F0351
:1029E0001343C5F89C30E0B206F02CF910F1160F35
:1029F000C5D0441CE7E7C5F89870D5F8A020013B86
:102A000023F01F0302F01F021343D3453146E0B207
:102A1000C5F8A030E8D006F015F910F1160FAED0C9
:102A2000C5F89870D5F89C209DF808300BF1FF3B55
:102A300062F304038DF80830D5F8A0309DF8082023
:102A40005B0863F347128DF80820D6E9003213447F
:102A5000009323F01F035B44A3EB0A03013023F030
:102A60001F036946C0B20393FFF73CFFBEE700BFF8
:102A700000ED00E04ED000002BD0000080B0000040
:102A80000522044BC3F89420BFF34F8FBFF36F8F21
:102A9000704700BF00ED00E0BFF35F8F0022024BE4
:102AA000C3F89420704700BF00ED00E010B5034C60
:102AB0002278FFF733FF207010BD00BF6F15002094
:102AC0002DE9F74F294D8A4606464FF00008AB46E0
:102AD000274FD0451BDAD6F80490B9F1000F3FD04C
:102AE00031680846019106F0A4F80199044609EB03
:102AF0000100013806F09DF884424FF014021D4B8E
:102B000008D002FB08F36FF015024BF8032003B066
:102B1000BDE8F08F14F1160F2C60F8D01978A1429F
:102B2000F5DD02FB08B0C7F89840C7F89840D7F821
:102B30009C4000F10801007B64F304000871D7F8A1
:102B4000A0000C79400860F347140C71D7F89C1072
:102B500021F01F016960D7F8A01021F01F01296141
:102B600008F1010814350C36B3E700BF800C0020D3
:102B700000ED00E06F150020F0B54149414CD1F85F
:102B800090302568C3F307239D4287B075D8002095
:102B9000FFF782FF3C4BC1F8C030854216D13B4C59
:102BA00001A82570FFF7BEF900250646384FAE4252
:102BB00013D1002023783249D1F89020C2F30722A4
:102BC000934254DBFFF75CFF00202FE0616801EBCC
:102BD0000011FFF76DFE0130DFE70199280101EBDD
:102BE0000513DA683A40B2F5001F21D0B2F5800F24
:102BF0002BD0B2F5801F38D15A689B680958013B29
:102C000022F01F0003440120844623F01F0340EA02
:102C10004C10CDE902218DF8100002A9207805930F
:102C2000FFF760FE00281DDA6FF0150007B0F0BD59
:102C30005A689B680958013B22F01F0003444FF07B
:102C4000020C012023F01F03E1E75A689B68095832
:102C5000013B22F01F0003444FF0000C062023F03C
:102C60001F03D4E723780133237001359FE7C1F8B0
:102C70009830C1F8A00001339EE74FF0FF30D5E750
:102C800000ED00E094B10000AAFF44006F150020A1
:102C90000000F0FFF0B587B007460E46144600214D
:102CA000102268461D4607F08BFB02238DF8023088
:102CB000054B2A4621466846CDE90476019304F087
:102CC000BFFE07B0F0BD00BF778C000008B5024B17
:102CD0001B689847002008BD940C0020034B044A51
:102CE0001860937843F0020393707047940C0020AF
:102CF0001401002008B50649064821F00701C1F17A
:102D0000005202F53C3205F0ADF9002008BD00BFCD
:102D1000FFA10020980C002008B5234A234B1A601D
:102D200000F09CFB4FF47A612148D0F82436C3F3BD
:102D30000802C3F309434B4382F480721D49883271
:102D400001FB02334FF4FA215B00B3FBF1F201FB0C
:102D500012331949B3F57A3F28BF0132C1F804296B
:102D6000D0F820364FF47A60C3F30802C3F3094366
:102D7000434342F6041082F4807202F2172200FBF1
:102D800002334FF47A701B0AB3FBF0F200FB1233EC
:102D9000B3F5FA7F4FF0010328BF0132C1F81C27B9
:102DA000C1F80036002008BD0020A10798010020CE
:102DB00000C0FF00102700800000125048B1054BF2
:102DC000054A1B68B3FBF2F35843044B43F001037D
:102DD000184770479801002040420F00E0B0000003
:102DE0002DE9F04106691D4696F8703017469A079E
:102DF000069C07D41448154905F048FF6FF00400FD
:102E0000BDE8F081631C06F1480818D047F6122C83
:102E100040F2E730002124EAE4744FF47A72002390
:102E2000C4FB0C01FDF72AFB02460B46394640461F
:102E300002F0FEFE0028E3D1F3692B60E0E74FF0DB
:102E4000FF321346F2E700BF50B0000084D000000C
:102E500037B5044600220121D020FFF771FC6368DA
:102E60000021DD6901AA284605F0EBFF00281EDBE2
:102E7000019B2A681979186800F0B4FE002816DB57
:102E80000C4D0D4B284640F8483B04230B491A468D
:102E900006F08EFE04230A491A4605F1200006F0CA
:102EA00087FE0020246900F0DFFB6060002003B093
:102EB00030BD00BFA40C002000B20000280D00208F
:102EC000180D00202DE9F04F436805698DB005937A
:102ED00095F871300C460E6903F0FF0743B199482D
:102EE000994905F0D3FE6FF00F000DB0BDE8F08FEB
:102EF00091F824A091F82630BAF1010F0DD1012BE1
:102F000081F825A081F827A00F6213D08F498D4842
:102F100005F0BCFE6FF01500E7E7022281F82520DE
:102F20000122934281F827200F62EFD1BAF1020FFC
:102F3000ECD110276369BB4201D0012BE6D1A26915
:102F4000002AE3D1316809B1317971B995F870304F
:102F5000980708D5286802F0B1FA95F870306FF339
:102F6000410385F870300020BFE7102901D078496F
:102F7000CDE70AF1FF31D1F1000A4AEB010ABB4269
:102F8000059B0DF1180803F1040918BF9346B9E831
:102F90000F00A8E80F00236818BF012799E8030075
:102FA00008BF4FF0010B0393012388E803004FF0A3
:102FB000FF38DFF8A0918DF818A08DF819B0E761FF
:102FC0000493326899F80000634900FB02F3B1FBF7
:102FD000F3F3B1FBF3FA03998A4541D361688A455B
:102FE0003ED8BAFBF0F7BA4294BFA7EB020BA2EBB4
:102FF000070BD84547D90993BBF1000F5CD1D646E2
:10300000BC46544B049A03EB420313F8013C8DF881
:103010002B3003217346514A4A48CDF800C005F0D1
:10302000F8FC95F870309B0708D5286802F046FA3E
:1030300095F870306FF3410385F87030059B286870
:103040001A6806A902F012FA454A0346904267D070
:103050003C480121434A05F0D2FC6FF0040044E7EC
:103060003D490133B1FBF3F1039F8F4228D9049B03
:1030700009F102090133092B0493A2D1B8F1FF3FF2
:10308000C7D1394943E76746C3464FF0000A324982
:103090000133B1FBF3F1DDF80CC0614506D3BC464A
:1030A000D8466768B9420ED96746C346BAF1000FE1
:1030B00019D1BC46D846DAE7D6464FF0010AE6E712
:1030C0004FF0000AEDE7B1FBF0F0824210D9121A7E
:1030D00042451AD2099399F801308DF82B308E466B
:1030E00084469046C3E799F801308DF82B30E0E72D
:1030F000821A424509D2099399F801308DF82B3094
:10310000002AECD18E46844683E7BAF1000FAED098
:1031100099F801307146604642468DF82B30DEE763
:10312000F38895F87020EB61B36822F00302AB617D
:10313000059B93F82030003B18BF012343F00203A6
:1031400013430EE750B000009DD00000C8D000002F
:10315000F1D0000079D200000048E80113D100004E
:103160000000AD0B6ED1000040D1000038B505461F
:10317000006802F0C1F9104A034690421AD00121BA
:103180000E4A0F4805F03BFC95F8704014F001041E
:103190000CD0686805F048FB041E07DA01212346BD
:1031A000084A074805F02BFC204638BD002385F867
:1031B0007130F9E70024F7E70000AD0B8FD1000074
:1031C00050B00000ABD100000B4670B50269032B74
:1031D00047D8DFE803F0020E020E92F871300BB907
:1031E000002070BD0123106882F8723002F0F6F9F9
:1031F000F6E792F870309B0706D41E491E4805F08A
:1032000045FD6FF00400ECE792F8713003F0FF0524
:10321000002BE5D1012682F87250046994F87030D1
:1032200084F8716013F0010F15D0144B6561E360F1
:103230004FF003032361D3D0606804F1080105F067
:103240009CFA031ECCDA84F871500D4A31460A48C4
:1032500005F0D5FBD5E72046FFF788FF00EAE070D0
:10326000BFE705480121074A05F0C9FB6FF01500CB
:10327000B7E700BF84D0000050B0000089320000E2
:10328000C7D10000E3D1000010B591F8693083B9CF
:1032900091F86830DB0712D551F8040C05F0C4FA38
:1032A000031E0CDABDE810400121054A054805F06F
:1032B000A6BBA1F10800BDE81040FFF757BF10BD45
:1032C000ABD1000050B00000F7B506780546594C68
:1032D0004EB994F872206B68002A3DD1002B40F063
:1032E000888003B0F0BD00230022A06901A902F08C
:1032F00017FC031E10DA504A0121504805F07FFBED
:1033000094F872206B68002A3DD1002B72D1012302
:10331000206884F872307FE0019F0022002301A919
:1033200004F1200002F02AFC002808DA444943484E
:1033300005F0ACFC0199A06906F0EAFBE7E7E26959
:103340003946C2F34F02206802F0F8F83D4A0346BE
:103350009042BED03C4ACFE73BBB94F87130002B83
:10336000BFD0002384F8713094F87030D907B8D5F5
:10337000606805F059FA031EB3DA0121334A2F4879
:1033800005F03DFBADE78BB994F87130002BBED052
:10339000002384F8713094F87030DA07B7D560688C
:1033A00005F042FA031EB2DAE7E700260022002306
:1033B000274801A902F03CFC002804DA25491F48EF
:1033C00005F064FC8DE70199A06906F0A1FB94F873
:1033D00071305BB1002384F8713094F87030DB07F2
:1033E00004D5606805F020FA031EC6DB002E8ED1DE
:1033F00077E70026164D00220023284601A902F097
:1034000017FC00280BDA0D48124905F03FFC012398
:1034100055F8200C84F8723002F0E0F861E70022E1
:10342000002301A905F1280002F0A8FB0028DDDA3D
:1034300009497CE7A40C0020F7D1000050B000003F
:1034400015D200000000AD0B35D20000ABD100005A
:10345000C40C002052D2000065D200000122024BB1
:10346000C3F80424704700BF002008E0084B70B583
:10347000C31A0D4607499B1004465943402206488B
:1034800005F011FC2B4601462046BDE87040184768
:103490004C0D0020B76DDBB658A50000402373B576
:1034A0000B4C0093041B0B460D460A49A4106143C4
:1034B0000646094A094805F021FC011E05DA304696
:1034C0002B4602B0BDE87040184702B070BD00BF87
:1034D0004C0D0020B76DDBB6658D000058A50000CF
:1034E00010B5EFF31184202383F31288BFF36F8F9D
:1034F000074A136823F00201DB07116002D40120A0
:1035000006F0E6F984F31188BFF36F8F10BD00BF9A
:103510009C0D002070B500220121044640F20510E8
:10352000FFF70EF90F4800F0B5FF0F4B984215D189
:1035300000F0C0FF26690D49304605F00BF9002860
:103540000BDB012535642469084904F11C0005F0F2
:1035500001F9002801DB0020E56470BD6FF0040074
:10356000FBE700BF898D00000000AD0B14B2000026
:103570001FB500220123CDE902236B46084ACDF88E
:1035800000D0CDF804D005F0E6FB002805DB43F6BB
:1035900009520023684602F0ABFC05B05DF804FB5D
:1035A000838D00000C22104B014602FB00330020EB
:1035B00030B4D3E90E529863EFF31180202484F3E2
:1035C0001288BFF36F8F1C6C04F0C00444F0020437
:1035D0001C6480F31188BFF36F8F1DB12B4630BC84
:1035E0000248184730BC70474C0D002058A5000019
:1035F00010B4EFF31182202383F31288BFF36F8F8F
:103600001648016841F002040460C80707D482F339
:103610001188BFF36F8F012010BC00F067BF104905
:10362000D1F80C14C903F2D5EFF3118083F312889B
:10363000BFF36F8F0B490B6C03F0C00343F0020321
:103640000B6480F31188BFF36F8F82F31188BFF38F
:103650006F8F002010BCFFF7A5BF00BF9C0D00209E
:1036600000E010504C0D0020C3B21C20014A03FBA7
:10367000002070474C0D00202DE9F0410122074643
:103680003449D1E8EF3FC1E8E02F0028F9D133B940
:10369000314932484B60CB608A6005F06EF87B1E82
:1036A000012B28D8012F06D12D4BD3F8503403F02D
:1036B0000303012B1FD006F0E8FA0546E8B9294BB1
:1036C0001B78D3B104220646254BC3F80823244CAB
:1036D000DFF89480D4F84C24D4F84C34D20315D5B8
:1036E00003F00303012B01D0012F0FD165B386F343
:1036F0001188BFF36F8FBDE8F081EFF311862023AF
:1037000083F31288BFF36F8F0125E0E7BDB1304628
:1037100005F080FAD4F8403413F0FF03DAD1D4F87E
:103720000821002AD6D0C4F80831D4F80831202264
:103730000123C4F84034C8F8A0212361CAE700215E
:10374000202002F0DDFEE5E70422054BC3F8042348
:10375000D1E700BF480D0020380D0020680D002083
:1037600000E010508F15002000E100E008B5074888
:1037700006F086F938B10648FFF7B0FA0448FDF7BD
:1037800021FD002008BD6FF01200FBE70CA6000031
:10379000953700000A2838B50446074D04D1AB68B8
:1037A0000D212846DB699847AB680348DB69E1B225
:1037B0009847204638BD00BF0CA6000070B545688C
:1037C00006462B69E3B11035284601F01FFB04467D
:1037D000B0B90146284601F0D9FA0E4B984215D1EE
:1037E000224628460C4901F0A5FA22460121DB2099
:1037F000FEF7A6FF2246012140F20D10FEF7A0FFC2
:103800003046BDE87040054905F0B9B96FF00400D5
:1038100070BD00BF0000AD0BA9390000378E00005D
:103820002DE9F04340F206354668D00648BF032034
:10383000337B02EA050558BFC2F3401087B001F0A0
:103840001F07B5F5837F144647EA43178DF8030039
:1038500045D00FD8062D44D007D8B5B1022D14D0CD
:103860006FF0150007B0BDE8F083B5F5807FF7D1A4
:1038700001250AE040F20222954234D0B5F5407F9E
:1038800033D0B5F5007FEBD1042522032FD50123DA
:1038900072688B405360326982BB5F2F07F01F0351
:1038A0004FEA571177D83E4A52F8212084F48031EC
:1038B00002EB8302D2F88030C1F30041C4F34044EC
:1038C00023F4706344EA410423F00F031C4344EAE9
:1038D000800444EA0524C2F880400020C2E709259C
:1038E000D3E70825D1E70625CFE70525CDE7630314
:1038F00041BF012372688B409360CCE71036394694
:1039000030460DF1020201F023FA14F4403F8046E4
:103910000CD13946304606F0A0F8224B9845DCD150
:1039200030469DF8021001F07FFAD6E74FF000090B
:1039300001AB3946304603AACDE90439CDE90199F6
:10394000CDF80C9001F076F8164B984288D114F41B
:10395000003315D09DF8033084F48034C4F3004460
:103960008DF80E3039464B46304603AA8DF80C5080
:103970008DF80D4001F04AF90A4B9842CDD06FE71F
:10398000CDE9043339460DF10303304603AA03930E
:1039900001F050F8F0E7203352F82330FFDE00BF8B
:1039A00038B200000000AD0B4209022A034670B590
:1039B00003D0012A18D0CAB170BD0E4E32695168C9
:1039C0000029F9D0012503F01F030C689D40002950
:1039D000F2D08A682A4002D030464B6898473CB102
:1039E000236821461C46F2E7034EE7E7034EE5E76E
:1039F0002346F6E7C4A50000A0A500007CA50000B2
:103A0000F0B51646426801F01F04107B87B044EA07
:103A100040141069002871D0B6F5001F02F110059E
:103A200006D12146284606F01AF8002007B0F0BD5E
:103A30000027B6F5800F01A8019747603BD1B3F18D
:103A4000007F14BF052304238DF804300023CDE943
:103A50000403039393680DF1030723FA01F111F0B6
:103A600001013DD1B6F1A07F3AD104F01F035F2CD4
:103A70004FEA541003F1200346D8254A52F820207B
:103A800052F82330DB072BD43A462146284601F072
:103A90005FF9204B984219D002972146284603AA85
:103AA00000F0C8FF1C4B98422BD10122214628462A
:103AB00001F0CAF9B9E7B3F1C06F05D0B3F1007FE7
:103AC00014BF01230223BFE70323BDE7394628467D
:103AD00001F0B2F9104B9842DED06FF00B00A5E771
:103AE0003A462146284601F033F90B4B9842D4D18F
:103AF00028469DF8031001F097F9CEE76FF0850096
:103B000094E76FF0150091E751F82330FFDE00BF16
:103B100038B200000400AD0B0000AD0BB0B500AF33
:103B2000224D284605F0ACFF034678BB6C4688B0B2
:103B300029686A461E48C2E905014FF40071918365
:103B40001C4942F8101F4FF4E2511B48FDF702FFD9
:103B5000A5466FF012042046BD46B0BD2B686D46E9
:103B60008AB06A461549C2E905130123C2E9073440
:103B70004FF400739384124B42F8103F00234FF42C
:103B800031510D48FDF7E6FEAD46E4E72A69A96824
:103B90001368284623F0020313600B6800220121FA
:103BA0009847041EDADB0024D5E700BF7CA500009F
:103BB000F5D200000300000158B000000CD3000053
:103BC00005000001036803F01F025F2B02604FEA4B
:103BD00053129ABF024B53F822000020704700BFD7
:103BE0008CB200002DE9F04F1646834640F2FF18D4
:103BF000DFF89091DFF890A185B000EB8101594585
:103C000003D1002005B0BDE8F08FDBF80030C3F32E
:103C1000C322082AC3F3080400F2B180444508BF58
:103C20004FF0FF34B3F1D05F19F802704FEA13621E
:103C300010D2192A10D8DFE802F012191F372228F3
:103C4000370F0F0F0F3A670F0F0F0F0F0F0F6A6D20
:103C50007085888B382A7ED06FF08500D2E7C6F851
:103C60000446621C63D10BF1040BC8E7C6F80C468E
:103C7000631CF8D0002563E0C6F81046F1E7631C2A
:103C8000C6F80046EFD0002504E0C6F80446651CDF
:103C9000E9D0012503A80394FFF794FF0122039BB9
:103CA00002FA03F383600BE0C6F80846E0E7C6F8C3
:103CB0000046002FDCD1671CD5D0002508272A46F6
:103CC000DBF80030039403F40040002818BF002202
:103CD00003A818BF012501930092FFF773FF039C0F
:103CE000019B00EB8400D0F88040C3F3412C009A84
:103CF0003B0243EA8C03134304EA0A04234343EAE6
:103D00004503C0F88030AEE7C6F80446D1E7C6F8F0
:103D10004045BCE7C6F84445AAE7C6F86045601CC4
:103D2000DBF800309FD0C3F30043002BB1D0012556
:103D300003A80394FFF746FF039B05FA03F34360D0
:103D40002A46BDE7C6F86445E9E7C6F86845E6E7F0
:103D5000C6F86C45E3E703A80394FFF733FF039B22
:103D6000621C00EB8300D0F8803023F0E04343F086
:103D70008043C0F880303FF476AF0125E0E76FF074
:103D800015003FE74FD30000F0F0FCFFF8B54468A2
:103D900000AF054605F074F8A06A28B9002128464E
:103DA00005F0E7F8BD46F8BD05F06AFE0346B0B978
:103DB000A26A6C4688B011686A461548C2E90501D6
:103DC0004FF400719183134942F8101F12484FF4C9
:103DD000E251FDF7BFFD6FF01200A546E2E7E38D6B
:103DE000A06A94F82C1043F400320124066913F001
:103DF000010F336804FA01F414BF2343A343D0F83E
:103E000008C03360DCF8003098470028C6DAC9E7FC
:103E100058D300000300000198B000002DE9F041E4
:103E20001C46036917461E68436888461A7A1D684F
:103E3000002A49D196F86120002A48D196F86210EC
:103E400001F0FF02002942D1611C3BD019694FEA01
:103E5000E47EA1FB040C00231E4A01FB0EC1FCF70B
:103E60000DFB40F2FF33984228BF1846C5F878058D
:103E7000D5F8003224EAE47443F00053C5F8003268
:103E8000E3171F3443F10003620942EAC3625B098E
:103E90000020C6E91623C6E91087C6E9120030657E
:103EA000C5F80487C5F80877C5F84C01D5F84C313A
:103EB000C5F85001D5F85031012386F86130AB6266
:103EC000BDE8F0811346E3E76FF08500F8E76FF097
:103ED0000F00F5E740420F0007B50021C06801AAB6
:103EE00004F0AFFF002804DA0121034A034804F07C
:103EF0007DFD03B05DF804FBA7D30000A8B000006F
:103F000070B5044645680121E86805F040FA636829
:103F100019686B69C1F82435EA8BAB8BA87E134313
:103F20002A8C13436A8C13436A7E9BB20243287E19
:103F300002431343C1F86C3525692868A0B1636852
:103F40000022194908301E6805F0A8FF2B68DC63C1
:103F5000286800221549683005F0A0FF2B68C3F8D7
:103F60009C40134BC6F8043361680B68D3F80022F9
:103F700042F48022C3F800220822C3F800254A6BCD
:103F80000121C3F83C270022C3F840271965D3F864
:103F900030110029FBD0C3F800252046BDE8704051
:103FA000044904F0ECBD00BFFD9200002F95000015
:103FB00020021800E99300002DE9F04104460D4667
:103FC000476805F062FEA8B92B4B1B7893B14FF000
:103FD0002008642663681B68D3F83031002B39D180
:103FE000012005F073FC013EF4D10021202002F0F5
:103FF00087FAEEE72021626823691268EFF31186E1
:1040000081F31288BFF36F8F60680068D0F83001C9
:1040100070B11B688BB97B6B01221D702046796BD8
:1040200005F0FFF886F31188BFF36F8FBDE8F081CC
:1040300086F31188BFF36F8FE0E7D3F8A41000294F
:10404000E9D0D3F8B4100029E5DAD2F84427C3F850
:10405000B420E0E7EFF311831E4688F31288BFF324
:104060006F8F62681268D2F83021002AD3D183F3AF
:104070001188BFF36F8FB8E78F15002070B5144615
:104080001D4605F0FBFBA042A94113D30A4AD2E921
:104090000061A41B24F01F0365EB01009B1941EB99
:1040A0000001C2E90031640944EAC060BDE8704023
:1040B00002F07CBC70BD00BF180A002010B50022C1
:1040C0000121E420FEF73CFB174A0020D2F8183704
:1040D00023F44033C2F8183700F094FF134B044622
:1040E000984208D10120124901F01CF8A04205D0E5
:1040F000104B984214D04FF0FF3010BD05F0BEFBBE
:1041000067220D4B20F01F00C3E900010B4BC3E9F0
:1041100000010B4B02201A60FFF7AEFA0020ECE71B
:104120006FF00B00E9E700BF00200E500000AD0B60
:10413000940100200200AD0B180A0020100A002094
:10414000240E002008B505F099FB054AD2E900329B
:10415000C01A61EB0201400940EAC16008BD00BF1E
:10416000180A002037B5431C0CBF6FF0004420EA4A
:10417000E07405F083FB0D4BD3E90025801A61EB59
:1041800005032021C4FB0103402873F100042CBF68
:1041900020F01F01002352184FF0010145EB0303EB
:1041A0000091034801F022F803B030BD180A002046
:1041B0008C010020064BD3F840231C2A05D1D3F8EC
:1041C0004403431E5842584170470020704700BFC7
:1041D00000C0FF0003689A070CD50368DB070DD504
:1041E0000922074BC3F80C250F22C3F8042501222E
:1041F0001A60FEE7034B0360EF3B0360704700BFAC
:1042000000801050F000FA5008B501233E4A3F48A4
:10421000C2F800383E4AD2F840231C2A04BF3D4A67
:10422000C2F80C34FFF7D6FF0830FFF7D3FF083091
:10423000FFF7D0FF0830FFF7CDFF00F5F470FFF770
:10424000C9FF354AD2F88C3043F44063C2F88C3051
:104250000022D30003F57F0303F54043D3F8001495
:1042600001310AD0D3F8001439B1D3F80014013267
:10427000D3F80434402A0B60EBD1234BD3F840240D
:10428000002A3DD0FFF796FF48B1214BD3F83423E5
:10429000224B9A429EBF1C4B214AC3F84026FFF78F
:1042A00089FF18B11F4B204AC3F8AC27FFF782FFE4
:1042B00048B13422144BC3F82426D3F83C2622F408
:1042C0000022C3F83C26124BD3F840331C2B08D1F4
:1042D000164BD3F80026D20744BF6FF00102C3F893
:1042E00000260323124A0C49C2F81835D1F88C3045
:1042F00043F44063C1F88C300023C2F8A03508BDF8
:10430000C822C3F84024BDE70000125000C50D507C
:1043100000C0FF000030055000ED00E0001D0A184D
:1043200040E0A91E00A0085078000A0400E01050E8
:1043300000B0045030B50468ACB1B4FA84F3012283
:10434000C3F11F03DBB29A4024EA0202D0E8EF5F18
:10435000A54204D1C0E8EC2FBCF1000FF6D1EAD1A0
:1043600002480B7030BD0248FCE700BF0000AD0BF7
:104370000200AD0B10B50368CB40DB0710D401235E
:104380008B40026843EA0201D0E8EF4F944204D127
:10439000C0E8EC1FBCF1000FF6D1F2D1014810BD0E
:1043A0000148FCE70000AD0B0400AD0BF7B5054676
:1043B00048B3012825D104224FF48073712032497B
:1043C0000024C1F80803012002F1A04203F1A04338
:1043D00003F5871302F5871210601C601B682B4BD6
:1043E000D3F840331C2B13D0854201D10DF10704C3
:1043F000002342F21076244F8DF8073065B1012D6D
:104400002ED003B0F0BD14224FF484730420D6E7FD
:10441000012DEDD1CD60E9E7D7F84C3403F48033BA
:104420006CB9002BEDD0012005F050FA013EF3D11C
:10443000E7E7012005F04AFA013EDFD1E1E7D7F8CE
:104440004C2402F003022270002BDAD09DF80730D2
:10445000002BEED0012DD4D100220D4B5A71D0E7A4
:10446000D7F80C3403F480333CB9002BF4D001208E
:1044700005F02CFA013EF3D1C3E7002B0CBF01235A
:1044800000232370E2D1E7E700E0105000C0FF00F6
:10449000280E0020044B1A7922B9012218601A71E3
:1044A0000248704702487047280E00200000AD0BFC
:1044B0000C00AD0B08B50A4B1B6843B140F2051068
:1044C000FEF730F918B940F20510FEF709F900229D
:1044D000044BC3F840240122034B1A7008BD00BFEF
:1044E000280E002000E010508E15002010B510B1ED
:1044F000012845D010BD324BD3F84C14D3F84C24CE
:10450000C80324D502F00303012B04D013B100200B
:10451000FFF74CFF00232A4A0420C2F8403410223F
:104520004FF48473002103F1A04303F5871319604E
:104530001C68012402F1A04202F587121460214A8E
:104540001268002A36D01E4BC3F80403D2E7D3F812
:104550004824D107DED5D3F850249207D7D4194A7E
:1045600012681AB10422C3F80423C3E7D3F8082160
:10457000002AFBD00022C3F80821D3F80831B9E79C
:1045800000220F4BC3F81021D3F81011C3F81821E3
:10459000D3F81811C3F81421D3F814210A4AD2F819
:1045A00040231C2A04D000224FF480737120B9E705
:1045B0009860F8E71A68002AFCD019601B6899E730
:1045C00000E01050280E002000C0FF0070B500254C
:1045D0001E4C1F4ED4F80C3303B970BDB3FA83F3ED
:1045E000C3F11F039A0002F5807292B202F1A04259
:1045F00002F58712156012680122D8B202FA03F39D
:10460000DBB2102BC4F8083311D0402B1BD0042B85
:1046100016D1D4F84C14D4F84C14890710D1C4F82E
:104620004024C4F804332261D4F80C33D4E70223C5
:104630007371C4F81451D4F814312023C4F804332E
:1046400033689847F0E77571FAE700BF00E0105053
:10465000280E0020036803F01F025F2B02604FEA60
:1046600053129ABF024B53F822000020704700BF3C
:1046700030B40000034A4309D35C00F01F00184423
:10468000C0B27047E6D3000070B505460846FFF794
:10469000F1FF3C212A79184B01FB0202083233F862
:1046A0001200C10526D578240026C0F3432120F44A
:1046B000F85023F812002A7904FB02340E3434F83F
:1046C000020F10F4807F03D0C0F34320814211D049
:1046D0000136232EF3D10020C2EB02120A4443F824
:1046E000320078202A79BDE8704000FB023060304B
:1046F000FFF740BE70BD00BF300E0020F0B506468B
:10470000002487B0114F019117F8012B06AB03EB82
:10471000D20313F8143C02F00702D34013F0010354
:1047200006D10134032CEFD10023184607B0F0BDA9
:10473000074A03AD07CA85E8070055F824100A6A3E
:1047400046F824200A62002AEBD0EEE7F6D30000F8
:10475000C0B0000010B504460846FFF78BFF3C23AD
:1047600003FB0400024B083033F81000400B10BD6F
:10477000300E002010B504460846FFF77BFF3C23AF
:1047800003FB0400034B083033F81000C0F3400073
:1047900010BD00BF300E002010B504460846FFF7DC
:1047A00069FF3C2303FB0400034B083033F810007F
:1047B000C0F3401010BD00BF300E002078232DE95B
:1047C000F04F6F4C0E460C1BB4FBF3F4D0F81413EF
:1047D000DFF8B0B1C9B28BB041F400315BF83420DE
:1047E000009005F0EEF88103054638D50023E70078
:1047F0000BEBC404CDE907330993636807A8194696
:104800000193FFF77BFF3B1D03934FF0000A5E4BC4
:104810000DF11C090293029A12F8013B0292039ACD
:1048200002EBD3021BF8022003F0070322FA03F382
:10483000DA071AD40AF1010ABAF1030F09F10409DF
:10484000E9D14FF400310022009805F0BAF801993F
:1048500007A8FFF753FF0028D7D125F4003501241E
:10486000002D76D10BB0BDE8F08F484B5344049334
:10487000D9F800100029DDD091FAA1F1B1FA81F147
:10488000049B1C7841EA44142046FFF7F3FE0830ED
:1048900036F81080C8084FEA98030593012319F8E9
:1048A000002001F0070103FA01F122EA010209F8F0
:1048B000002006A80694FFF7CDFE069A059B20323D
:1048C00050F82220C8F382075B07B846C2F30142C2
:1048D00023D53046D7B22146424605F053F806A804
:1048E0000694FFF7B7FE069B203350F82330C3F33E
:1048F00001439F4207D10021204605F034F8394694
:10490000204605F030F806A80694FFF7A3FE012222
:10491000069B02FA03F30362AAE7022A0DD10321E0
:10492000204605F020F807F00503012BEBD14246A5
:104930002146304605F026F8E5E70221204605929B
:1049400005F011F8032FF2D0059A032ADBD1022FCC
:10495000ECE795FAA5F3B3FA83F3009904FA03F2AE
:1049600025EA020503F5A27251F8222006EB430363
:104970003046B3F86410C2F3014205F003F86FE764
:10498000300E00203CB40000F6D30000F6D3000047
:104990002DE9F74305460846FFF76CFE3C222B79CC
:1049A000204F02FB0303083337F813300E46DB07B2
:1049B000044635D5284605F02BF895F80490314685
:1049C0004846FFF7E9FE60B14846FFF7C3FE002204
:1049D000D5F8008000B208EB8003C3F81025C3F8B7
:1049E000102528463146FFF74FFE3C222B7901A8BF
:1049F00002FB03440023083427F814300196FFF724
:104A000029FE019B00EB8300D0F88020064B134069
:104A100043F00203C0F88030044803B0BDE8F083DF
:104A20000348FAE7300E0020F0F0FCFF0000AD0B69
:104A30000400AD0B2DE9F04F9046044685B00846C2
:104A4000FFF718FED8F800900F4606462579B9F111
:104A5000000F23D02846FFF78DFE18B12846FFF738
:104A60009BFE58BB00230DF10F02CDE900338DF8FA
:104A70000E308DF80F300DF10E014B46384604F024
:104A800029FF3C2303FB05635D49083331F81320FC
:104A900022F0020242F0010221F81320D8F804307B
:104AA000002B3FD03946207993F80090D3F804A02A
:104AB000FFF760FE20B1BAF1000F26D0514835E073
:104AC0003C226A43DFF838E102EB060C0CF1080CDB
:104AD0003EF81C3023F02003DB04DB0C2EF81C30E6
:104AE000BAF1000F11D0B9F1030FE7D8D8F80410CC
:104AF0002068496891F800A000EB8A00B9F1000F26
:104B000017D1C0F81095C0F810953C2303FB05653C
:104B10003B4A083532F8153023F01C0343EA890379
:104B200022F81530D8F8083063BB374805B0BDE827
:104B3000F08FD0F810B552442BF0030BC0F810B52D
:104B4000206843EA4A3300EB8A01D1F810050EEBE6
:104B5000420220F4473020F47C70C1F8100541F681
:104B6000F070D1F810B500EA071040EA094040EAB9
:104B70000B0043F02003C1F81005A2F864702EF872
:104B80001C30C2E73946D3E900852046FFF77CFD9B
:104B9000B8F1000FC9D078232079194F4343FA1890
:104BA000FB58984504D153689D4201D100220CE086
:104BB000782303FB00700DF10F016030FFF7BAFBA3
:104BC000114B9842B2D19DF80F203C212379C3EBC1
:104BD0000313134447F833802379C3EB03131344BF
:104BE00007EBC3035D60237901FB0363083337F8E8
:104BF000131041EA422242F4807227F8132094E70E
:104C0000300E00200400AD0B0000AD0B2DE9FF4776
:104C10000546084617461E46FFF72CFD8946044602
:104C200087B395F804804046FFF7A4FD18B94046C5
:104C3000FFF7B2FD68BB3C2303FB0848DFF8E4A0A4
:104C400008F108083AF8183013F01C0F02D07B78EE
:104C5000012B1ED001238DF80F3000237A1CCDE9E3
:104C600000734846BB1C0DF10F0104F033FE3C22DB
:104C70002B7902FB034308333AF8132042F0030276
:104C80002AF81320002E4BD049462879FFF772FDF1
:104C900018B9254804B0BDE8F08700214FF03C0C5E
:104CA00030782B68820003EB8003C3F81015C3F83B
:104CB00010152B791B490CFB0343083331F8137093
:104CC00027F4604727F0200721F8137077783FB367
:104CD0002B68B6781A44D2F810E5144B3F040EEA5C
:104CE0000303C2F8103541F6F07307F4403703EAC6
:104CF00009133605D2F810E53B4306F4801633431A
:104D000043EA0E03C2F810352B790CFB0344083438
:104D100031F8143043EA403343F0200321F81430D3
:104D20000348B7E7300E00200400AD0B0FE0ECFFA6
:104D30000000AD0B30B578250479044B05FB043435
:104D4000A160017905FB0133DA6030BD300E00202F
:104D500070B5067914463046FFF71EFD68B1084667
:104D6000FFF788FC3C2303FB0600054B083033F8B3
:104D7000103004485B0B237070BD0348FCE700BF94
:104D8000300E00200000AD0B0400AD0BF8B5064658
:104D900007797820194D00FB075393F8744054BBF2
:104DA000184646222146103005F00AFB3179144A94
:104DB000336852F8316021468E4212D10022C3F38B
:104DC0000830C3F844210130D3F84421FDF788FCB2
:104DD000782303FB075501230A4885F874302B66B6
:104DE000F8BDCAB2920002F58070442A04BF1C507C
:104DF0001A580131E0E70448F2E700BF300E002006
:104E00003CB400000000AD0B0C00AD0B7821027922
:104E1000044B01FB023393F87400003818BF0120E3
:104E2000704700BF300E00200079024B03EB80007A
:104E3000FFF7A0BA9C0100200079024B03EB800031
:104E4000FFF778BA9C0100202DE9F74390F8049011
:104E5000044648461746FFF79FFC0D46266800B3F8
:104E60004846FFF787FC8046D8B94846FFF772FCF2
:104E700005B2AD0005F5807246F802802168B2588F
:104E80002944D1F8102542F00102C1F810252FB1B4
:104E90000122216802FA00F3C1F8143303B0BDE81F
:104EA000F083D6F8143328469B035CBF4FF40033DD
:104EB000C6F81433FFF7DEFB3C22237902FB030024
:104EC0000E4B083033F81030C3F38203042B11D09B
:104ED000052B11D001A80195FFF7BCFB019BC16810
:104EE000D94001F001010231284603B0BDE8F0438A
:104EF00004F039BD0321F7E70221F5E7300E002069
:104F000001490248FFF75ABC300E002000A00D50A6
:104F100001490248FFF752BCA80E002000C0105003
:104F200010B50024037A0D49CA181B0103F1A043F0
:104F300003F5622392F85420C3F82C450C2303FB9D
:104F400002130468DC6042681A610122007A187555
:104F50008B68824013438B6010BD00BF400000206F
:104F6000074B027AD3F8101521F001010A43C3F868
:104F700010250268C3F8A4264268C3F8AC2670471F
:104F800000200E50012303FA00F010F0670F0AD042
:104F9000064B5B68DB4303F067030342044B0548A1
:104FA00018BF184670470448704700BF40000020F3
:104FB0000000AD0B0400AD0B0800AD0B2DE9F0486F
:104FC000EFF31181202383F31288BFF36F8F4FF02B
:104FD000FF356FF04044094ED6E900BC5D4574EBE7
:104FE0000C07F9D3CCF31303C0E900B381F31188A4
:104FF000BFF36F8F0248BDE8F08800BF40270E5016
:105000000000AD0BF0B53C4D85B02C78002C6FD175
:105010003A4A01AB07CA83E8070039491846D1F874
:10502000102522F00202C1F81025FFF799FF07238F
:10503000672202F001012144013BCCB24FEA520247
:10504000F7D1052C56D119464FF0010C2A4E0024F9
:105050006720CFB204E00CFA02F220EA0200013429
:1050600090FAA0F25FFA84FEBE45B2FA82F2F2D361
:105070000131327505292A4482F8547006F10C0674
:10508000E5D1012100241F489A0801FA02F212F02A
:10509000670F18BF1C500433302BF5D1E420FDF707
:1050A0001FFB174B1849D3F8102503F5C07322F0E6
:1050B0000202C3F8902340F6FF72C3F8A821002231
:1050C0001A60A3F5807004338B420260F8D101248A
:1050D0000B4B0E4A1C660E4B5D201B68B3FBF2F3B4
:1050E00058430C4B234398470B482C7005B0F0BD38
:1050F0000A48FBE70A48F9E740000020CCB000006E
:1051000000200E5000210E50B0210E5040420F00E2
:1051100098010020F0B000000000AD0B0C00AD0BBA
:105120000100AD0B73B52A4C054663680E4603F0CB
:10513000010304F1140101A80193FFF7FBF8254BCB
:1051400098423DD100233370636823F0010363600C
:10515000A36843F00103A3601F4BD3F81025960703
:1051600032D4D3F8102542F00202C3F81025C5B19D
:10517000D3F8482712F0010202BFD3F8481741F0D4
:105180000101C3F84817144BD3F84017D3F844175C
:105190004C00F9D42AB9D3F8482722F00102C3F809
:1051A00048270E4B0E4A1B68B3FBF2F30A4A03EB87
:1051B00043135BB1D2F84017D2F84417490001D429
:1051C00002B070BD013BF4E70648F9E70648F7E78F
:1051D000400000200000AD0B00200E509801002080
:1051E00040420F000C00AD0B0700AD0B2DE9F04164
:1051F0000446007A1D46FFF7C5FE1E4B90469842B6
:1052000006469DF8187031D12046FFF789FEEFF36E
:105210001180202383F31288BFF36F8F227A164BFD
:105220009200134400221A60217AC5F31305090184
:1052300001F1A04101F56221C1F82085C1F8245592
:1052400080F31188BFF36F8F87B10123227A0B4956
:1052500003FA02F2D1E8EF5F1543C1E8E05F0028EE
:10526000F8D1227A9340064AC2F824333046BDE88A
:10527000F08100BF0000AD0B00210E50C8000020DF
:1052800000200E50F7B5284B284CD3F82C6304F1BE
:1052900088070EB903B0F0BD96FAA6F00123B0FA64
:1052A00080F08340DA43224926EA0306231893F864
:1052B0005450830019440C2303FB0543DB6873B38C
:1052C000D7E8EF3F03EA020CC7E8EECFBEF1000FCC
:1052D000F6D1C340DB0719D5020102F1A04202F565
:1052E0006222D2F82435D2F82025D1F800C0BCF1D2
:1052F000000FCED04FF0000CC1F800C00C2101FB14
:10530000054529690091E9688847C2E705F10C0362
:1053100004EBC30C54F83320DCF80430E5E70A68EA
:10532000002AB6D00B60B4E700200E5040000020E9
:1053300000210E502DE9F0410B7D4A687BBB5F2AAE
:105340004FEA521469D8384D02F01F0255F8246014
:10535000012404FA02F2B2604C685F2C04F01F02D0
:105360004FEA54165BD855F82640304E04EB8204C1
:10537000D4F88020324042F00302C4F880208C68C8
:105380005F2C04F01F024FEA541748D855F8273015
:1053900003EB8203D3F880203240C3F880204B7D9A
:1053A00033B9D1E901420368C3F84045C3F8442545
:1053B0004A780C78D1F80C8091F810E091F811C07F
:1053C0004F7DD1E901650368C97C5200C3F82015FF
:1053D00002F0020204F001010A43C3F88085C3F819
:1053E0000825C3F818E5C3F81CC51FB9C3F8406504
:1053F000C3F8445500230468C4F80031D4F80021F0
:10540000C4F30830C4F80431D4F80431FDF768F966
:105410000323C4F80433BDE8F0819B60FFDE203233
:1054200053F82230FAE700BF4CB40000F0F0FCFF64
:105430005F2800F01F034FEA50110DD8094A52F8B7
:10544000212002EB8302D2F88010074B0B4043F07F
:105450000203C2F8803070470022203352F8233014
:10546000FFDE00BF4CB40000F0F0FCFF38B50F4C7D
:10547000257CBDB9C4E9015565822260657469B1B6
:105480000A7D62750A7C502A0ED84A7C502A0BD8B5
:10549000CB68043B7A2B07D8FFF74CFF0123044865
:1054A000237438BD0348FCE70348FAE7200F0020C7
:1054B0000000AD0B0C00AD0B0400AD0B38B504467D
:1054C00000680C4DC0F30830FDF718F9002223687E
:1054D000C3F800256B7D4BB92368D3F84005D3F89A
:1054E0004445FFF7A5FF2046FFF7A2FF00232B74DA
:1054F00038BD00BF200F00200C4A537C23B1537CE1
:10550000012B10D00A4870470223537401231375EE
:105510000268C2F34341C2F30432934001F14002F6
:10552000044941F822300448704700BF200F002092
:105530000B00AD0B00E100E00000AD0BF8B5224C14
:105540000546237C0F461646002B36D0637C032B82
:1055500035D0002935D0130433D40068C0F30830A7
:10556000FDF7CCF8627CA37C022A16BFDB43002344
:1055700003F0010304EB83025168E1B904EB430338
:105580009E8157602B687600C3F86075C3F8646528
:10559000237C022B07D00223237401232A68C2F83C
:1055A00000352A681360094C2868C0F30830FDF7FD
:1055B00097F82046F8BD064CF6E7064CF9E7044C90
:1055C000F7E7054CF5E700BF200F00200000AD0B0A
:1055D0000B00AD0B0500AD0B0400AD0B0C4B597C63
:1055E0000129CAB20BD05A7C12B15A7C022A0CD1C2
:1055F00000220168C1F800255A740648704703214B
:105600001A74597403685A60F7E70348704700BF7B
:10561000200F00200000AD0B0B00AD0B1FB5404B61
:10562000404CD3F80021002A43D00022C3F80021C7
:10563000D3F80011D3F8041119B1C3F80421D3F839
:105640000431A37CDA4302F0010204EB82014968D1
:1056500011B9617C022951D1607C002102280DBF63
:10566000012304EB83035868637418BF59604FF03B
:1056700001038DF80C10E1740EBF02910290A27428
:105680008DF80430236801A89847637C022B01D170
:1056900001236374237D53B101238DF8043000236B
:1056A00001A802938DF80C3023752368984704B045
:1056B00010BDD3F804110029ECD0C3F80421D3F8AD
:1056C0000411C3F80025A37C627404EB83035968BA
:1056D0008DF80C208DF80420D9B9A37CDB4303F0AE
:1056E000010304EB83035A682AB10292002201A845
:1056F0005A60236898470023A374CBE7E37C002B10
:10570000C3D18DF80430029301238DF80C30E3747B
:10571000B8E75A600291236801A89847DDE700BF07
:1057200000000D50200F002010B5184BD3F8044393
:10573000E1040AD5D3F830213AB10022C3F8302170
:10574000D3F83031124B1B689847A2040BD50F4B8E
:10575000D3F834213AB10020C3F83401D3F83431FE
:105760000C4B1B68984763040ED5084BD3F83821BF
:1057700052B10022C3F83821D3F83831054B01204B
:10578000BDE810401B68184710BD00BF00E0105076
:105790003C0F0020380F0020044B40EA0120C3F8E2
:1057A0000005D3F80024D207FBD5704700B00450A1
:1057B00010B50446FBF7FEFF03480121034A03F03E
:1057C00015F9204604F067F988B00000F9D300000D
:1057D0002DE9F84304460D4600AFEFF3118820236E
:1057E00083F31288BFF36F8F0428294A98BF294B8F
:1057F000E9468AB09668117C98BF53F820306A4613
:1058000088BF254BC2E9073140F201332348938416
:10581000234BC2E9050442F8103F00234FF43151F5
:105820002048FCF797F8CD4645B1EB69C3F3080370
:1058300023B101211C4A1B4803F0D8F82EB1304691
:1058400004F02CFA08B1037803B91848E9468AB085
:105850006A46174BD061C2E9053640F20133138422
:10586000144B42F8103F00234FF411510D48FCF740
:1058700071F82946CD462046FFF79AFF88F3118834
:10588000BFF36F8F3046FCF7CFFEBD46BDE8F8830F
:10589000400F002058B4000008D400001ED40000BF
:1058A0000500000188B0000046D4000016D40000B6
:1058B00067D400000400000138B50A4B53F82040BB
:1058C000013053F82050A54200D838BD606830B18F
:1058D000037FDB0701D404F0E6F80834F3E723681C
:1058E0009847FAE76CB40000012270B5294B0320F9
:1058F00086B01A70FFF7E0FFFCF760FB0420FFF7AB
:10590000DBFF254C254D2646AE4204F1300410D372
:1059100000F026FD204C224EAC4226D300F034FD90
:10592000FAF778FF1F4A137B23F00103137306B0C5
:1059300070BD54F80C3C059354F8103C049354F893
:10594000143C039354F8183C029354F81C3C019304
:1059500054F8203C009354E90A2354E90C0100F068
:10596000EDFA54F8303C5E65CDE7D4E90A23B3F193
:10597000FF3F08BFB2F1FF3F05D052EA03012068A4
:1059800003D100F0EBFD3034C6E73146183000F0AB
:105990007BFFF8E78F15002060AF000090AF00009C
:1059A0009B9D0000B00A002008B50348034A00216F
:1059B000121A04F08FF808BD30030020941500205F
:1059C000902370B5134E012203FB0066002386B0BE
:1059D000CDE904230F220193CDE9023214234FF4C1
:1059E000A0720D4D0D4903FB0055044602FB00114A
:1059F0000B4B3046009500F0A1FA737B2C7423F01A
:105A000004037373074B013403EBC423EE606B6034
:105A100006B070BD200A0020400F0020982800200A
:105A2000819B000098200020BFB50020FFF744FFB5
:105A30002A4B03F5006282F3088883F30A88002466
:105A4000E023274D274F85F82230EC772C766C76B3
:105A5000AC7685F820406B6A43F4E0236B6285F8EE
:105A60002340FCF75FFDFCF7DFFE4FF0FF33AB6236
:105A7000EB62FDF781F8FCF7FFFEFBF7F9FD1A4832
:105A800000F0C8FA03F0FBFF0120FFF715FF02202A
:105A9000164DFFF711FF00F0ABFC154B15495D618A
:105AA000154B4FF48062059301232846CDE903434B
:105AB000CDE901443B46009400F040FA06466A7B7B
:105AC000284622F004026A7304F024F92046FFF706
:105AD00077FF3A4631462846FCF786FE982000209C
:105AE00000ED00E0E9580000400B0020B00A002063
:105AF000400F0020D8290020C9D40000002038B56C
:105B0000054C064DAC4200D338BD204603F0E6FFFD
:105B10000028F9DB1C34F5E72C02002048020020A5
:105B200073B50C46EFF31181202585F31288BFF37E
:105B30006F8FC5685DB125602B68C36083690133D1
:105B40008361002081F31188BFF36F8F11E052EA67
:105B5000030603D16FF00B002560F3E7CDE90023C6
:105B60000246083000F042FB18B9034B9B681B69E2
:105B7000236002B070BD00BF400F00202DE9F3414B
:105B800004460E4600F10808EFF31187202181F347
:105B90001288BFF36F8F006AE168884234D22568AB
:105BA000AC421AD0CDB1284603F0F5FF05F118003C
:105BB00004F046F9A26800243146286904F0F3FB9A
:105BC0002846C5F8884004F0A5F84046394600F05C
:105BD000A1FB204602B0BDE8F081A2683146E06931
:105BE00004F0E1FB0020E369A26813446269E36109
:105BF000934204BF2369E361236A0133236287F37D
:105C00001188BFF36F8FE5E752EA03010AD0074915
:105C1000404689680E61CDE900233946224600F0EE
:105C2000E5FAD7E76FF02200E9E700BF400F002058
:105C3000F7B50446084604F10807EFF31186202162
:105C400081F31288BFF36F8F216A00293AD0A268CE
:105C5000A16904F0A8FBA369A268256813446269DE
:105C6000A361934204BF2369A361236AAC4203F199
:105C7000FF33236234D02846002D32D003F08BFF4F
:105C800005F1180004F0DCF8A2682969E06904F065
:105C90008AFBE369A268284613446269E361934280
:105CA00004BF2369E361236A013323620024C5F83A
:105CB000884004F02FF83846314600F02BFB204690
:105CC00003B0F0BD52EA030110D00A4989680861A7
:105CD000CDE9002331462246384600F087FAEFE747
:105CE000002086F31188BFF36F8FE9E76FF0220081
:105CF000F7E700BF400F00202DE9F34104461746A7
:105D00001E46EFF31188202383F31288BFF36F8FB1
:105D1000C368334A7BB180689168884219D057EADA
:105D2000060318D188F31188BFF36F8F6FF00F004F
:105D300002B0BDE8F081916891F90E100133E36083
:105D400093682161A36088F31188BFF36F8F0020EF
:105D5000EEE72169F2E791F90E1090F90E306FF03D
:105D60007E029942A8BF19469142B8BF11468B42A4
:105D70002DDD03F06FFF054622464146CDE9007652
:105D8000184800F033FA0028E1D0EFF31186202301
:105D900083F31288BFF36F8FA068D0B123682169A5
:105DA0009C420AD04BB193F90E309942A8BF1946D4
:105DB0006FF07E039942B8BF194603F04BFF40B124
:105DC0003146084800F0A6FA6FF00A00B0E7002557
:105DD000D2E7002DF4D186F31188BFF36F8FF3E77C
:105DE000400F002090150020F8B583680546002B71
:105DF00040D0234A926893423FD1C368012B03D914
:105E0000013BC3600020F8BDEFF31187202383F32B
:105E10001288BFF36F8F0169806803F01BFF2C6845
:105E2000AC4207D10023C5E9023387F31188BFF3E1
:105E30006F8FE7E7002CF5D0D4E90032002613601D
:105E40005A60637BC4E9006623F002036373A660B3
:105E500004F1180003F0F4FFAC6094F90E30204612
:105E60002B61C4F8886003F055FF3946054800F0FF
:105E700051FAC7E76FF01500C5E74FF0FF30C2E7F2
:105E8000400F00209015002070B5EFF311862023FD
:105E900083F31288BFF36F8F0468A0421BD0D4B184
:105EA000D4E90032002513605A60637BC4E90055D1
:105EB00023F002036373A56004F1180003F0C0FF30
:105EC0002046C4F8885003F025FF3146BDE87040F5
