:10000000901A0020B91E0000976E0000A51E000087
:10001000A51E0000A51E0000A51E0000A51E0000D4
:100020000000000000000000000000001D20000093
:10003000A51E000000000000B51F0000A51E000066
:10004000B5210000B5210000B5210000B521000058
:10005000B5210000B5210000B5210000B521000048
:10006000B5210000B5210000B5210000B521000038
:10007000B5210000B5210000B5210000B521000028
:10047000B5210000B5210000B521000053B94AB9EB
:10048000002908BF00281CBF4FF0FF314FF0FF309C
:1004900000F00CB8ADF1080C6DE904CE00F010F8D6
:1004A000DDF804E0DDE9022304B07047704700BFC7
:1004B000034613F8012B002AFBD1181A01387047A4
:1004C0002DE9F04786468C460846089E1546744638
:1004D0001946002B40F0C1808542B2FA82F245D91C
:1004E0004AB1C2F1200300FA02FC954094402EFA72
:1004F00003F343EA0C0C4FEA154EA8B2230CBCFBE5
:10050000FEF80EFB18CC08FB00F943EA0C439945B2
:1005100028D9EB1808F1FF3704D2994502D9A8F180
:1005200002072B44A3EB0903A4B2B3FBFEFC0EFBB2
:100530001C330CFB00F044EA0344A04214D92C19EC
:100540000CF1FF3304D2A04202D9ACF102032C44D7
:10055000241A43EA07401EB1D4400023346073607C
:10056000BDE8F0874746DDE76346F1E792BB431BF2
:1005700001214FEA154EAFB2200CB3FBFEFC0EFB7F
:100580001C330CFB07F840EA0343984561D9EB188C
:100590000CF1FF3004D2984502D9ACF102002B4493
:1005A000A3EB0803A4B2B3FBFEFC0EFB1C330CFB55
:1005B00007F744EA0344A7424DD92C190CF1FF3345
:1005C00004D2A74202D9ACF102032C44E41B43EA53
:1005D0000040C0E7C2F120039540944020FA03F1A7
:1005E0002EFA03F34FEA154E9040AFB20343B1FB2E
:1005F000FEFC0EFB1C10190C0CFB07F841EA004135
:10060000884522D969180CF1FF3004D2884502D9F7
:10061000ACF102002944A1EB08019BB2B1FBFEFC46
:100620000EFB1C110CFB07F743EA01439F420ED956
:10063000EB180CF1FF3104D29F4202D9ACF1020158
:100640002B44DB1B41EA004193E76046E3E7614648
:10065000F7E76046A4E76346B8E7834206D916B9D0
:10066000002108467CE7C6E900E0F9E7B3FA83F722
:100670008FB9834201D3724508D8BEEB020460EB08
:10068000030301209C461EB9002169E73846FAE7BA
:10069000C6E9004CF8E7C7F1200CBB400EFA07F59D
:1006A00022FA0CF42EFA0CF1BA401C4320FA0CF397
:1006B000B8404FEA144901431FFA84FEB3FBF9F82E
:1006C00009FB18300B0C08FB0EFA43EA00439A456D
:1006D00040D9E31808F1FF3004D29A4502D9A8F1B5
:1006E00002002344A3EB0A0389B2B3FBF9F809FB28
:1006F000183308FB0EFE41EA03418E452CD96118E0
:1007000008F1FF3304D28E4502D9A8F10203214437
:1007100043EA0040A1EB0E01A0FB02984145CE4602
:10072000434602D306D14D4504D20138B9EB020E3F
:1007300068EB0403002EA7D0B5EB0E0261EB0301BA
:1007400001FA0CFC22FA07F3F9404CEA0303C6E96C
:10075000003199E74046C5E74346D9E7074B1A6998
:100760001268D20748BF80F0010020B19B68DB68A7
:100770000121024818479B681B69F9E7988200002D
:10078000F0B5054695B08368DB6B03B19847AB685D
:10079000DB6A2BB9AB681B6983B96FF0570612E0AF
:1007A000284698470028F5D1AB68DB69002B4FD16C
:1007B000AB689B69002B50D115B0F0BD4022284694
:1007C00004A9984706460024264B0322029320469C
:1007D0002346CDE900442449039606F03BF8A6429F
:1007E000E2DD0120FFF7BAFF002140F21B6004F0B8
:1007F00005FC2046FFF7B2FF1C4B03222046CDE943
:100800000143194923460396009406F023F8184B38
:1008100004AF0393174B0322CDE9014320463B4627
:100820001149009606F016F83F2EBDDC06F1500384
:100830000DEB0306104B06F8404C0322CDE90143B3
:100840002046234608490397009406F003F8ABE7D7
:10085000284698470028AFD0AAE7284615B0BDE83B
:10086000F0401847C8A300000C8D0000E8A300006A
:1008700002A4000023A500000BA400002DE9F04114
:100880000024694B88B00293032223462046CDE919
:100890000044664905F0DEFF654F384607F076F8FC
:1008A000034660B9634A6149CDE901020090012223
:1008B00005F0D0FF4FF0FF3008B0BDE8F0815E4E8C
:1008C000304607F063F8034650B9326803925B4A3A
:1008D000CDE9013201225549009305F0BBFFE9E75C
:1008E000DFF85C81404607F051F8034620B9D8F89C
:1008F00000200392534AEBE74FF48031524805F051
:100900008AFF054670B13368CDE9044003934F4B2D
:100910000094CDE90143234601221846434905F0DE
:1009200099FFC7E74FF4D011494805F074FF04461A
:1009300050B1D8F80030CDE904500393434B0095F3
:10094000CDE901532B46E7E7424B0322CDE90103F2
:1009500036490346009005F07DFFBB682BB11B6C48
:100960001BB1224638463C4998473C4B0322029330
:1009700000232E491846CDE9003305F06BFFBB6814
:100980001B6A0BB12A48984700243B682046039312
:10099000334B0322CDE9004424490293234605F05A
:1009A00059FF304B2046CDE90143032223461F491E
:1009B000009405F04FFF2C4B2046CDE90143032264
:1009C00023461A49009405F045FF284B2046CDE9FF
:1009D0000143009423460322144905F03BFF164DC2
:1009E0003469B36828465B6807A99847002809D08E
:1009F0000FDB0020FFF7B2FE002140F2391004F0B7
:100A0000FDFAEEE72268079B5340DB07F1D4012093
:100A1000F0E7174B03900293002301221846CDE91B
:100A20000033024959E700BF19A400000C8D0000F3
:100A3000BC82000050A40000508200006BA40000A3
:100A40009882000089A40000A08D0000A4A40000EA
:100A5000988D0000CDA4000081070000F4A40000E0
:100A600014A5000026A5000061A500009FA50000B8
:100A7000B8A500002DE9F04F91B0009302F00403F7
:100A80000293C2F3C2030133840705460E46DDF824
:100A900068800392059340F0BB81041D30B10729A3
:100AA00009D86FF01B0011B0BDE8F08F01F0070608
:100AB0003444C6F10806009B4FF000094FF0040AC9
:100AC000591E4FF0FF334F460193CB465346CDF8A6
:100AD00010900DB1009A22600598002800F3E8807C
:100AE0009848009A824203D397488242C0F0E0803F
:100AF000039AA4EB050E92074FEA9E0000F10381D2
:100B00000F2F00F2B180002D00F0058107F14002A7
:100B10000DEB020C019A0CF8200C0CF8102C049828
:100B200001300490E7E07A285DD84B280ED847289A
:100B300059D829282DD8252852D054D820287AD001
:100B40002338D0F1000B4BEB000B74E04C382E280F
:100B500049D8DFE800F070484848484848484848C5
:100B600048484B484848484848484859484B4B59DA
:100B70005959704B6D487048184B184848827F4B44
:100B800048484B487F0000204FF0000B4FF0040A0C
:100B900038E001222A38C0B202FA00F010EA0E0F43
:100BA00049D110F0625C2FD110EA020B43D06046AD
:100BB000013C5444B4FBFAF40AFB04F4002D61D068
:100BC000A3EB050CA444B4453FF66BAF002868D1F5
:100BD000042B47D158F8043B2360042304342AE053
:100BE000019A013A01924FF0000B24E011F8010C38
:100BF0006C2834D1002011F8023C83466C2BC5D1FF
:100C00004FF0080A5346D3E708F1070828F0070811
:100C1000073424F00704F8E802AB35B10698204405
:100C2000B0423FF63EAFC4E900AB4FF0000B0834D2
:100C30004FF0080A534611F8010F002878D0BBF195
:100C4000000F7FF470AF2528F5D14FF0010B019B09
:100C5000013301934FF0040AECE7584694E7002073
:100C60008346A5E7082B02D06FF015001BE708F1BB
:100C7000070828F00708F8E80223C4E9002308233E
:100C80000834D8E768B9042B02D108F10408A4E7B6
:100C9000082BE9D108F1070828F0070808F108082F
:100CA000EDE7059A013A059258F8042B009210E7F7
:100CB000039A900720D54FF0010CA4EB050E4FEAE4
:100CC0009E00BEF5007FCFD20F2FCDD8F5B107F132
:100CD00040020DEB020E019AC0B20EF8200C0EF885
:100CE000102CBCF1000F3FF41AAF60F07F000EF83B
:100CF000200C09F101090137C5F108024FF6DA7E2F
:100D00000434069297E74FF0000CDAE7BCF1000FCD
:100D100001D00136EFE7029802360028EBD10098A7
:100D2000CDE90631FFF7C4FBDDE906310644E2E711
:100D3000631BB3F5806F97D245B9A6F10804E0189C
:100D4000B1E600BFA481000028AE0000029A9B0813
:100D500028602B709DF81030C2B1EB7085F80290BE
:100D6000B9F1000F05D0002208A8C5F1010C974287
:100D70000ED14FF0000AC5F101030DF120080193D7
:100D80000DF1300B574512D1601B8CE66B70E5E717
:100D900010F8013B190608D50CEB040EB64503F01C
:100DA0007F033FF67EAE04F8013B0132DFE7B9F185
:100DB000000F03D098F90020002A17DB029BD3B163
:100DC0001AF80B2004F8012B0022019B181910447B
:100DD000B0423FF666AE98F80000009904F8010BA7
:100DE0002046039207F05CF9039A14440AF1010AC1
:100DF00008F10108C6E798F8002055F82230009362
:100E0000029B009845F82230FFF752FB421CDCE7BA
:100E10006FF00D0047E600BF014B1860704700BF40
:100E2000D000002080B505460E461746984604F0CF
:100E300037F9034607F0ACF90446DFF8189042464C
:100E400049F8003039463046A84754F8090001F007
:100E50009BF800BF080000002DE9F047058B044611
:100E60002807904611D4022905F0070540F0CC80F0
:100E7000204605F01EFE78B10138218B042811D8D8
:100E8000DFE800F0C2106D85950001290CBF45F028
:100E9000100545F02005258388F31188BFF36F8F77
:100EA000BDE8F08701F0070AAA4500F0A5800027F9
:100EB000B9463E46A368002B00F0BC8041F0080113
:100EC000218388F31188BFF36F8FA168002900F098
:100ED000BA800D68002900F0B6803346524620469D
:100EE000D1F80480C047002D76D02B6829461D46D6
:100EF000F0E701F007035A1F012A1BD8002221F056
:100F00000701062B276889B2C4E9002209D13B46B4
:100F100003E0628B013262831B68002BF9D141F040
:100F200002012046218305F0C4FD00287AD041F05B
:100F3000200176E0042B0AD121F0070189B2204676
:100F4000218305F0B6FD10B141F020012183218BF2
:100F500001F0070AAA454FD00027B946AAE723693E
:100F600021F0070141F00601062DD3F800902183FE
:100F70002DD1B9F1000F3FD041F00801218388F352
:100F80001188BFF36F8F20463949C84729E021F007
:100F90000701236941F0040189B2042DD3F80490BC
:100FA0002183E6D000274FF0040A3E4682E721F075
:100FB0000701236941F0050189B2052DD3F8089096
:100FC0002183D6D000274FF0050A3E4672E700275E
:100FD0004FF0060A3E466DE72B4687E7B9F1000F52
:100FE000D1D1EFF31188202383F31288BFF36F8FE1
:100FF000238B23F008032383258BEA062ED525F0C7
:101000001003238305F007056669218B002EBFF6C8
:1010100070AF00232768C4E9003321F0070141F0D5
:1010200001012183218B4FF0000901F0070AAA4535
:101030007FF440AF002F9CD041F00801218388F35A
:101040001188BFF36F8F002FC8D03D6839463346F3
:101050005246204605F059FD2F46F4E7AB067FF5D2
:101060001BAF25F02003238305F0070500E700BF31
:10107000376B00002DE9F84F814630480F4605F0E8
:10108000F4FD064670B92E4C0546A0464FF0010A05
:10109000DFF8B0B05C4507D3B9F1000F02D04FF0D4
:1010A000010AFDB9BDE8F88F237B83B12368DB68B3
:1010B0000BB120469847636883F806A023681B6934
:1010C00043B9636804222046196805F0EFFD013634
:1010D0001034DFE7204698470028F2D00AFA06F3DA
:1010E0001D43F4E7A94695FAA5F4B4FA84F40AFA84
:1010F00004F3260108EB04146FEA030B25EA030549
:10110000237B63B158F806301B6993B94644736872
:1011100004222046196809EA0B0905F0C7FD002DD5
:10112000E1D127B140F23910002103F067FF4D46AD
:10113000B7E7204698470028F1D1E7E79004002060
:10114000448D0000548D0000014B53F8200070477F
:10115000A88D000008B5034608462BB1044A136069
:1011600000F07EFA002008BD6FF01500FBE700BF1D
:10117000D400002000230C4A10B513700B4A0C4910
:1011800013600C4A0C481360FFF7E4FF0B4B0C494B
:1011900018468B4200D310BD1A1A5C681211013236
:1011A00022711033F5E700BF040D002088040020F1
:1011B00040420F008C040020676C0000448D00004A
:1011C000548D000070B50B4D297841B90120FFF70F
:1011D00051FF094C094EB44202D301232B7070BD5C
:1011E00063685B791BB1236820469B68984710347D
:1011F000F1E700BF040D0020448D0000548D000075
:1012000010B50446064805F030FD3CB1054BD3E867
:10121000EF1F0139C3E8E21F002AF8D110BD00BF5B
:10122000880400208C04002070B50A4B05461B681A
:101230009847094C094EA860B44200D370BD63685A
:101240005B7923B12368294620461B6898471034F0
:10125000F2E700BFD4000020448D0000548D000050
:10126000044A054B9B1AB1EBD30F34BF52F831003F
:1012700000207047CC8C0000448D00002DE9F04F19
:1012800087B004AF0446D7E90EA90E4693469846A8
:101290003D6BBAF1000F1ED0C7F80490CDF8009056
:1012A0001021534600207A6BFFF7E4FBB0F5006F86
:1012B000014611D340F2FF730393194B02220293AC
:1012C000002318491846CDE9003305F011FD0C370D
:1012D000BD46BDE8F08F514604F007040BF0070B44
:1012E000E40044EA8B1444EA412444EA05541735E7
:1012F0000D4425F00705ADEB050D04ADBAF1000F67
:1013000007D0CDF8009053467A6B05F11000FFF737
:10131000B1FB434622463146284605F0D0FCD6E7CD
:10132000FCA50000F48C0000406820B1034BC01AFB
:1013300040F3CF0070474FF0FF307047CC8C000077
:101340000EB403B503AB53F8042B014604480193D4
:1013500001F05EF902B05DF804EB03B0704700BF26
:101360002D6D0000CA0605D48B064CBF0249034907
:10137000FFF7E6BF704700BF35A6000034A60000A7
:101380002DE9F04F87B09DF8446004460D46904625
:101390009946002E00F0A280159B03F0020A03F08C
:1013A00001030493159B03F0080B03F4807305936A
:1013B00005F07AFC024600283DD020469449FFF70C
:1013C000BFFF0746BAF1000F09D0159B13F0440F79
:1013D00033D12A4620468F49FFF7B2FF0744049BCA
:1013E00053B18D4B204653F826208C4B8C49002A54
:1013F00008BF1A46FFF7A4FF059B002B49D0BBF19D
:10140000000F64D1B8F1000F66D0424620468549EE
:10141000FFF796FF0546129B3D44002B6DD1149BB0
:10142000002B73D1159BDB0700F1EB80204615994B
:10143000FFF798FFD8E00746C4E77B4B1868002801
:10144000CCD07A4B4FF47A7A1B684FF03C0CB5FB4A
:10145000F3F5B5FBF0F14FF4616300FB11550AFBA6
:1014600005F5B1FBF3F2B5FBF0FE03FB121100FB37
:101470001E55B1FBFCF30AFB05F5B5FBF0F50CFBC3
:10148000131120460091CDE901E56949FFF758FFA6
:10149000A4E7BBF1000F1DD0664B204653F8262071
:1014A0006549FFF74DFF0546B8F1000F05D04246EC
:1014B00020465C49FFF744FF0544B9F1000FAAD06C
:1014C0004A4620465D49FFF73BFF0544A3E74FF03E
:1014D0000009E1E75D46E7E745469CE7B9F1010F02
:1014E000129B06D1002B66D1149B002B7CD00025CB
:1014F0000CE0002BF8D052485EE05248129B224686
:10150000514905F096FA149B002B6AD0DFF83C8114
:10151000DFF83C91149F2046102F159928BF102703
:101520004FF0000BFFF71EFF5D4547DC139B49465C
:1015300020461A78FFF704FF4FF0010B1BF0070F4E
:1015400003D141462046FFF7FBFE5F453DD9139B83
:101550004946204613F80B20FFF7F2FE0BF1010B72
:10156000BBF1100FEAD14FF0000A20463949FFF7CE
:10157000E7FE5246DFF8E0B0139B20469A5CA2F1EA
:1015800020015F2928BF2E225946FFF7D9FE0AF114
:10159000010ABAF1100F1DD01AF0070F03D141460E
:1015A0002046FFF7CDFE57455246E5D84146204636
:1015B000FFF7C6FEEBE7234835469FE74146204646
:1015C000FFF7BEFE0BF1010BAEE720462349FFF704
:1015D000B7FEC3E7139B3B441393149BDB1B14938D
:1015E00098D1002E7FF41EAF6268A168D2E9002373
:1015F000206805F08DFB002263681A6007B0BDE823
:10160000F08F2046054A0649FFF79AFE0EE700BF15
:101610003CA6000040A60000B88D000037A60000E0
:1016200023A5000065A60000980400209404002073
:1016300049A60000CC8D000069A600006FA600003E
:10164000496D00002D6D0000112600007CA60000F1
:1016500074A600007EA6000080A600007AA6000006
:1016600000210123064A904206D8064A01B9012307
:101670001360054B18607047012140085B00F2E7DA
:1016800040420F0094040020980400202DE9F3410B
:1016900043680DF107011C681048656805F0B2FB4E
:1016A00030B99DF80710012902D10C4800F030F83C
:1016B00001232B7525682F68D5E90136D3E9004849
:1016C00024B96B681C6002B0BDE8F0812146304649
:1016D0004246B847241A0644F2E700BFE082000001
:1016E000F8B50D460446064F4618B44201D12846C7
:1016F000F8BD14F8011BBB6801485B689847F4E724
:10170000E0820000014B036000207047148E00004F
:1017100070B5046A0D469CB31E4A2379565CB342E9
:1017200031D01D4A525C9A4230D1A36898470028B4
:1017300010DA022D0CD0032D0BD110F1860F07D03B
:10174000D4E8EF3F43F00203C4E8E23F002AF6E7A3
:10175000267170BD022D267101D00020F9E7D4E872
:10176000EF3F23F00403C4E8E23F002AF7D1D4E8B6
:10177000EF3F23F00203C4E8E23F002AEDD0F6E792
:101780006FF05700E5E76FF07700E2E76FF0850054
:10179000DFE700BFE0A60000DCA6000008B50448B3
:1017A00005F07AF9BDE80840024805F075B900BFB8
:1017B000E4A6000019A7000070B506460D4686B0E5
:1017C000002938D000248B68012205934B682046FD
:1017D00004930B6823490393234BCDE90044029300
:1017E000234605F044FB6B69012205932B692046D3
:1017F0000493EB681B4903931C4B0094CDE9014310
:10180000234605F034FBEB6901220393184B204675
:10181000CDE9014313492346009405F028FBAB6949
:1018200001220393134B2046CDE901430D49234682
:10183000009405F01CFB012E0DD1EFF30583103B46
:1018400003930D4B32460293002306491846CDE917
:10185000003305F00CFB2946304606B0BDE8704069
:1018600002F070BE1C8D000047A7000076A70000A4
:10187000A5A70000B4A70000E2A7000030BFFFF753
:10188000FDBF00BF2DE9F04105460B4EDFF82C806F
:10189000324606EB0807CC1B2046094906F000FC3F
:1018A000A01942460021083C06F007FCC5F880401C
:1018B00007F10800BDE8F08100000000040000000E
:1018C000548D0000054B5A699B689A421FBF044A19
:1018D000536843F080535360704700BFD806002020
:1018E00000ED00E0F0B50024414B85B002930746BF
:1018F00023460E4601222046CDE900443D4905F02D
:10190000D1FA3D4B9B6ADD066FD53C4B2046CDE9B5
:101910000143012223463749009405F0C3FA112000
:10192000354B9B6A1C070AD5354B012202930023D5
:1019300030491846CDE9003305F0B4FA12202E4D97
:10194000AB6A99071FD500242E4B01220293204633
:101950002346CDE90044274905F0A4FA6B6BAA6A37
:1019600012060FD50393284B0122CDE901432046EF
:1019700023462049009405F095FA1FB1AB6A23F085
:101980008003AB6213201C4B9B6ADD070AD51F4BFB
:1019900001220293002317491846CDE9003305F0D0
:1019A00081FA1420144B9B6A9C060AD5184B01221D
:1019B000029300230F491846CDE9003305F072FA6F
:1019C00015200D4B9A6AD10658BF9A6A9A6A9206F8
:1019D00042BF5A6A22F400525A629A6A42F0FF02E7
:1019E0009A620023337005B0F0BD102098E700BF65
:1019F000F5A700001C8D000000ED00E00BA8000022
:101A00003EA8000051A8000069A800007FA80000BF
:101A10009EA80000F0B50024434B85B00293074612
:101A200023460E4601222046CDE900443F4905F0F9
:101A300039FA3F4B9B6ADB0465D53E4B2046CDE926
:101A40000143012223463949009405F02BFA17205F
:101A5000374B9B6A1D050AD5374B012202930023A1
:101A600032491846CDE9003305F01CFA1820304DF4
:101A7000AB6A9C051FD50024304B012220460293FF
:101A8000CDE900442346294905F00CFAAB6BAA6A5C
:101A900010040FD503932A4B0122CDE901432046C0
:101AA00023462249009405F0FDF91FB1AB6A23F4E7
:101AB0000043AB6219201E4B9B6A59050AD5214B86
:101AC00001220293002319491846CDE9003305F09D
:101AD000E9F91A20164A936A13F4807315D01A4B49
:101AE00001220293002311491846CDE9003305F085
:101AF000D9F91B200E4A936A43F47F439362002373
:101B0000337005B0F0BD1620A2E7926A9204F1D5B9
:101B10000E4A1846CDE9013204490122009305F02E
:101B2000C1F91C20E6E700BFCDA800001C8D000015
:101B300000ED00E0E3A800003EA80000F4A80000CB
:101B40000DA9000022A900003DA900009EA80000E8
:101B50001FB500243E4B3F490293012223462046F5
:101B6000CDE9004405F09EF93B4B9B6A99016DD588
:101B70003A4B2046CDE901430122234635490094E2
:101B800005F090F91E20344B9B6ADA010AD5344BDC
:101B90000122029300232F491846CDE9003305F0B6
:101BA00081F91F202C4B9B6ADB020AD52D4B0122A9
:101BB0000293002327491846CDE9003305F072F956
:101BC0000220254B9B6A1C030AD5274B0122029356
:101BD000002320491846CDE9003305F063F92120A0
:101BE0001D4B9B6A59030AD5204B01220293002307
:101BF00018491846CDE9003305F054F92220164B58
:101C00009B6A9A030AD51A4B0122029300231149B9
:101C10001846CDE9003305F045F923200E4B9B6AA9
:101C2000DB030AD5134B012202930023094918460E
:101C3000CDE9003305F036F92420074A936A6FEAAC
:101C400003436FEA1343936204B010BD1D209AE76B
:101C500055A900001C8D000000ED00E06DA90000FA
:101C600080A900009AA90000C4A90000E2A9000010
:101C700007AA000021AA00002DE9F041754B044697
:101C80005F6890B00023C7F3080683F31188BFF3A1
:101C90006F8F02F07F40B0F17F4F0CD102F00C004B
:101CA000082819D16C4A1846CDE901326B49012246
:101CB000009305F0F7F800252C464FF00008F31EBE
:101CC0008DF81F80092B00F2AB80DFE803F00B9F3B
:101CD000A39BA9A9A9A9A9A7120746BF0C461D46FF
:101CE0000125EAE75E4B0122CDE9018300235B4930
:101CF0001846584FCDF8008005F0D4F88DF81F80B5
:101D0000FE6A16F0020605D0564BCDE90183CDF8E8
:101D1000008006E0FB6A002B0BDA534B0096CDE9FE
:101D200001630023012218464C4905F0BBF800224C
:101D30003AE0FB6A5B00FAD54C4B0122CDE9016326
:101D4000304633464549009605F0ACF87B69A269F8
:101D500043F480737B61BFF34F8FBFF36F8F7B6959
:101D600032F8022C23F480737B61BFF34F8FBFF3F3
:101D70006F8F4DF602739A4209D0BB6ADBB2002B1B
:101D800032D001200DF11F01FFF7ACFD3CE02368CC
:101D900001220393364B3046CDE901632F49334688
:101DA000009605F07FF822689DF81F30CBB908AE89
:101DB00004F12007334620686168083403C3BC423D
:101DC0001E46F7D10F9B002D3ED0C3F3080121B969
:101DD0006FEA53236FEA43230F93104608A9FFF7D6
:101DE000EBFC10B0BDE8F081BB6A13F47F4F05D067
:101DF00001200DF11F01FFF70DFE05E0BB6AB3F5F1
:101E0000803F94D3FFF7A4FE0246CDE700200DF1FA
:101E10001F01B9E700200DF11F01ECE7154B74E736
:101E2000154A17F4F87F154B18BF1346103ECDE93D
:101E30000336134B01220293002308491846CDE9CB
:101E4000003305F02FF872E723F4FF7323F001034A
:101E5000C2E700BF00ED00E07AAA00001C8D000080
:101E6000A5AA0000BCAA0000DDAA0000EBAA0000A1
:101E70000AAB000026AB000061AA00004CAA0000DB
:101E80004AAB0000064B5A6942F010025A615A6987
:101E900042F480625A615A6922F008025A6170471E
:101EA00000ED00E0EFF30880EFF3098101B5724621
:101EB000FFF7E2FE01BD00BF002080F31488BFF3EE
:101EC0006F8F002080F30A8880F30B880F4880F31F
:101ED000088801F047FA00200D490860BFF34F8FD2
:101EE00000F02CF8202080F311880A484FF400619C
:101EF000401880F30988EFF314800221084380F32F
:101F00001488BFF36F8F00F0EFF80000901A0020E4
:101F100094ED00E0500D0020002318460649D1F84A
:101F20009020C2F30722934200DB7047C1F898303B
:101F3000C1F8A0000133F6E700ED00E010B572B67D
:101F4000002484F31388FFF7E7FF23464FF0FF30A8
:101F50000C4A03F120010133102B42F82100F8D183
:101F600000234FF0FF30074A03F160010133102BCB
:101F700042F82100F8D162B6BFF34F8FBFF36F8FE5
:101F800010BD00BF00E100E0084B9B6883420BD10D
:101F9000EFF3058343B1064B5A6842F080525A6012
:101FA0005A6A22F400425A6203F080B8D806002030
:101FB00000ED00E016498A684FF030001044EFF35E
:101FC000098C80E8F01F202080F31288BFF36F8F08
:101FD000104F4FF000664A698A603E60D2F8800078
:101FE0000D4C2060D2F884000023C2F8843080F3C6
:101FF000118802F1300090E8F01F8CF3098802F19B
:10200000000004B504F062FFBDE804407047000022
:10201000D806002004ED00E0C00400201EF0040FEC
:102020000CBFEFF30880EFF30980816911F8021CFF
:102030000229FFD001B5724604F029FF01BD00BF9F
:1020400000B2002807DB01234109034A00F01F000A
:10205000834042F82130704700E100E000B20028E0
:102060000CDB01220649430900F01F0082402033A7
:1020700041F82320BFF34F8FBFF36F8F704700BF2E
:1020800000E100E0054B420953F82220012300F053
:102090001F0003FA00F01040704700BF00E100E0AD
:1020A00000B2002801F10101ACBF00F16040064B15
:1020B0004FEA4111C9B2ABBF00F5614000F00F001B
:1020C00080F800131954704714ED00E0044B054AE2
:1020D00023F07F039360BFF34F8FBFF36F8F704781
:1020E0000000000000ED00E008B5FFF7EFFF074A31
:1020F000D2F8883023F47003C2F8883002F000FB75
:1021000003F0F6F800F046F802F03AFB00ED00E0CC
:1021100042F8203C009B0B4942F81C3C019B21F0FB
:10212000010142F8183C029B42F8081C42F8143C9A
:102130004FF0807342F8043C0023203A0265C0F857
:1021400084307047250E000000B50B4B1546986093
:10215000D0F88020094B0E461A60036F83F30B887A
:102160002C4686F309880020054B9847204600211D
:1021700000220023034C2047D8060020C004002082
:10218000D56E0000250E00001022014B1A61704729
:1021900000ED00E00023202040F20F1210B5044CA7
:1021A000E1180133934281F80003F9D110BD00BF5B
:1021B00000E100E008B5EFF30583064A103B02EBAF
:1021C000C30152F8330049688847BDE80840FFF76B
:1021D00079BB00BF948300001FB5094C094A234610
:1021E0000121094800F020F900230393074B012146
:1021F000E41A01A80193029400F020F904B010BD84
:1022000000F0022000000020148E00006802002070
:1022100010B50C7A0B6804F01F0223F01F031A4359
:10222000CB68640923F01F03054943EA440343F0E4
:102230000103C1F89800C1F89C20C1F8A03010BD7E
:1022400000ED00E01FB50E4B0446D3F89030C3F309
:102250000723013B98420FD90A4B039002930023B6
:1022600001221846CDE90033074904F05FFE6FF004
:102270001504204604B010BDFFF7CAFFF9E700BF00
:1022800000ED00E061AB0000148D00002DE9F04F7F
:102290008946144606464FF00008544D89B0C8459B
:1022A0002DDAD6F804A0BAF1000F4AD0BAF11F0F08
:1022B00017D91AF01F0F14D1D6F800B01BF01F0F5A
:1022C0000FD1584604F029FE07460AEB0B000138EF
:1022D00004F023FE874216D06FF01507444B039796
:1022E00002E0444BCDF80C800293002301221846F3
:1022F000CDE90033404904F019FE6FF01504204683
:1023000009B0BDE8F08F17F1160FE7D0BC42E5DD4C
:10231000C5F89870D5F89C10C5F89870D5F8A0301D
:1023200021F01F0143F01F0BD6E900321A449942F5
:1023300002F1FF3A1DD1D34507D13146F8B204F07E
:1023400005FE08F101080C36A9E73146C5F898707A
:10235000D5F89C3022F01F0203F01F031343C5F889
:102360009C30E0B204F0F2FD10F1160FC5D0441C11
:10237000E7E7C5F89870D5F8A020013B23F01F03CC
:1023800002F01F021343D3453146E0B2C5F8A03036
:10239000E8D004F0DBFD10F1160FAED0C5F8987050
:1023A000D5F89C209DF818300BF1FF3B62F3040335
:1023B0008DF81830D5F8A0309DF818205B0863F32D
:1023C00047128DF81820D6E900321344049323F005
:1023D0001F035B44A3EB0A03013023F01F0304A98E
:1023E000C0B20793FFF72EFFBEE700BF00ED00E08D
:1023F000AAAB000087AB0000148D00000522044B3F
:10240000C3F89420BFF34F8FBFF36F8F704700BFA7
:1024100000ED00E0BFF35F8F0022024BC3F8942071
:10242000704700BF00ED00E010B5034C2278FFF7C5
:102430002DFF207010BD00BF060D00202DE9F74FC5
:10244000294D8A4606464FF00008AB46274FD04537
:102450001BDAD6F80490B9F1000F3FD03168084676
:10246000019104F05AFD0199044609EB010001387D
:1024700004F053FD84424FF014021D4B08D002FBC0
:1024800008F36FF015024BF8032003B0BDE8F08F9E
:1024900014F1160F2C60F8D01978A142F5DD02FB7B
:1024A00008B0C7F89840C7F89840D7F89C4000F1AA
:1024B0000801007B64F304000871D7F8A0000C79D0
:1024C000400860F347140C71D7F89C1021F01F01ED
:1024D0006960D7F8A01021F01F01296108F10108F7
:1024E00014350C36B3E700BFC404002000ED00E053
:1024F000060D0020F0B54149414CD1F890302568D7
:10250000C3F307239D4287B075D80020FFF782FFF1
:102510003C4BC1F8C030854216D13B4C01A8257018
:10252000FFF7F0F800250646384FAE4213D10020E1
:1025300023783249D1F89020C2F30722934254DB2A
:10254000FFF75CFF00202FE0616801EB0011FFF74F
:102550005FFE0130DFE70199280101EB0513DA681E
:102560003A40B2F5001F21D0B2F5800F2BD0B2F562
:10257000801F38D15A689B680958013B22F01F0020
:1025800003440120844623F01F0340EA4C10CDE9A8
:1025900002218DF8100002A920780593FFF752FE62
:1025A00000281DDA6FF0150007B0F0BD5A689B686F
:1025B0000958013B22F01F0003444FF0020C012098
:1025C00023F01F03E1E75A689B680958013B22F09A
:1025D0001F0003444FF0000C062023F01F03D4E734
:1025E00023780133237001359FE7C1F89830C1F893
:1025F000A00001339EE74FF0FF30D5E700ED00E08B
:10260000208E0000AAFF4400060D00200000F0FF0D
:10261000F0B587B007460E461446002110226846E2
:102620001D4605F04AFD02238DF80230054B2A466F
:1026300021466846CDE90476019303F091FE07B088
:10264000F0BD00BF7F6F000008B5024B1B689847C4
:10265000002008BDD8040020034B044A186093787A
:1026600043F0020393707047D8040020E00000207C
:1026700008B50649064821F00701C1F1005202F5EC
:102680003C3204F07EF9002008BD00BF971A0020FC
:10269000DC04002008B5234A234B1A6000F05EF8E2
:1026A0004FF47A612148D0F82436C3F30802C3F30B
:1026B00009434B4382F480721D49883201FB023387
:1026C0004FF4FA215B00B3FBF1F201FB123319491D
:1026D000B3F57A3F28BF0132C1F80429D0F820367B
:1026E0004FF47A60C3F30802C3F30943434342F64D
:1026F000041082F4807202F2172200FB02334FF4BE
:102700007A701B0AB3FBF0F200FB1233B3F5FA7FC9
:102710004FF0010328BF0132C1F81C27C1F8003671
:10272000002008BD0020A1079401002000C0FF0088
:10273000102700800000125048B1054B054A1B6865
:10274000B3FBF2F35843044B43F0010318477047BF
:102750009401002040420F00808D00000122024BB6
:10276000C3F80424704700BF002008E0084B70B590
:10277000C31A0D4607499B10044659434022064898
:1027800004F011FC2B4601462046BDE87040184776
:10279000FC040020B76DDBB62C820000402373B52B
:1027A0000B4C0093041B0B460D460A49A4106143D1
:1027B0000646094A094804F021FC011E05DA3046A4
:1027C0002B4602B0BDE87040184702B070BD00BF94
:1027D000FC040020B76DDBB6657000002C820000A1
:1027E00010B5EFF31184202383F31288BFF36F8FAA
:1027F000074A136823F00201DB07116002D40120AD
:1028000004F0ECFF84F31188BFF36F8F10BD00BF9D
:102810004C05002070B500220121044640F205104D
:10282000FFF73EFC0F4800F0E3FE0F4B984215D136
:1028300000F0EEFE26690D49304604F089F90028C3
:102840000BDB012535642469084904F11C0004F000
:102850007FF9002801DB0020E56470BD6FF0040003
:10286000FBE700BF897000000000AD0B488E000040
:102870001FB500220123CDE902236B46084ACDF89B
:1028800000D0CDF804D004F0E6FB002805DB43F6C9
:1028900009520023684602F0D9F805B05DF804FB40
:1028A000837000000C22104B014602FB0033002015
:1028B00030B4D3E90E529863EFF31180202484F3EF
:1028C0001288BFF36F8F1C6C04F0C00444F0020444
:1028D0001C6480F31188BFF36F8F1DB12B4630BC91
:1028E0000248184730BC7047FC0400202C820000CE
:1028F00010B4EFF31182202383F31288BFF36F8F9C
:102900001648016841F002040460C80707D482F346
:102910001188BFF36F8F012010BC00F095BE1049E5
:10292000D1F80C14C903F2D5EFF3118083F31288A8
:10293000BFF36F8F0B490B6C03F0C00343F002032E
:102940000B6480F31188BFF36F8F82F31188BFF39C
:102950006F8F002010BCFFF7A5BF00BF4C05002003
:1029600000E01050FC0400202DE9F0410122074650
:102970003449D1E8EF3FC1E8E02F0028F9D133B95D
:10298000314932484B60CB608A6004F0F4F87B1E1A
:10299000012B28D8012F06D12D4BD3F8503403F04A
:1029A0000303012B1FD005F049F80546E8B9294B70
:1029B0001B78D3B104220646254BC3F80823244CC8
:1029C000DFF89480D4F84C24D4F84C34D20315D5D5
:1029D00003F00303012B01D0012F0FD165B386F360
:1029E0001188BFF36F8FBDE8F081EFF311862023CC
:1029F00083F31288BFF36F8F0125E0E7BDB1304646
:102A000004F07CFAD4F8403413F0FF03DAD1D4F8A0
:102A10000821002AD6D0C4F80831D4F80831202281
:102A20000123C4F84034C8F8A0212361CAE700217B
:102A3000202002F0E3FAE5E70422054BC3F8042363
:102A4000D1E700BFF8040020E804002018050020AA
:102A500000E010504C0D002000E100E008B50748F0
:102A600004F094FF38B10648FFF7F6FD0448FEF77E
:102A7000D3F9002008BD6FF01200FBE7E0820000F0
:102A8000852A00000A2838B50446074D04D1AB68F2
:102A90000D2128465B689847AB6803485B68E1B244
:102AA0009847204638BD00BFE082000070B54568F9
:102AB00006462B69E3B11035284601F055FA044665
:102AC000B0B90146284601F00FFA0E4B984215D1D5
:102AD000224628460C4901F0DBF922460121DB2081
:102AE000FFF7DEFA2246012140F20D10FFF7D8FA77
:102AF0003046BDE87040054904F099B96FF0040014
:102B000070BD00BF0000AD0B992C000037710000B4
:102B10002DE9F04340F206354668D00648BF032051
:102B2000337B02EA050558BFC2F3401087B001F0BD
:102B30001F07B5F5837F144647EA43178DF8030056
:102B400045D00FD8062D44D007D8B5B1022D14D0EA
:102B50006FF0150007B0BDE8F083B5F5807FF7D1C1
:102B600001250AE040F20222954234D0B5F5407FBB
:102B700033D0B5F5007FEBD1042522032FD50123F7
:102B800072688B405360326982BB5F2F07F01F036E
:102B90004FEA571177D83E4A52F8212084F4803109
:102BA00002EB8302D2F88030C1F30041C4F3404409
:102BB00023F4706344EA410423F00F031C4344EA06
:102BC000800444EA0524C2F880400020C2E70925B9
:102BD000D3E70825D1E70625CFE70525CDE7630331
:102BE00041BF012372688B409360CCE710363946B1
:102BF00030460DF1020201F059F914F4403F8046CD
:102C00000CD13946304604F0AEFE224B9845DCD15B
:102C100030469DF8021001F0B5F9D6E74FF00009F3
:102C200001AB3946304603AACDE90439CDE9019913
:102C3000CDF80C9000F0ACFF164B984288D114F4FC
:102C4000003315D09DF8033084F48034C4F300447D
:102C50008DF80E3039464B46304603AA8DF80C509D
:102C60008DF80D4001F080F80A4B9842CDD06FE707
:102C7000CDE9043339460DF10303304603AA03932B
:102C800000F086FFF0E7203352F82330FFDE00BF6C
:102C90006C8E00000000AD0B4209022A034670B59D
:102CA00003D0012A18D0CAB170BD0E4E32695168E6
:102CB0000029F9D0012503F01F030C689D4000296D
:102CC000F2D08A682A4002D030464B6898473CB11F
:102CD000236821461C46F2E7034EE7E7034EE5E78B
:102CE0002346F6E7988200007482000050820000BC
:102CF000F0B51646426801F01F04107B87B044EA25
:102D000040141069002871D0B6F5001F02F11005BB
:102D100006D12146284604F028FE002007B0F0BD69
:102D20000027B6F5800F01A8019747603BD1B3F1AA
:102D3000007F14BF052304238DF804300023CDE960
:102D40000403039393680DF1030723FA01F111F0D3
:102D500001013DD1B6F1A07F3AD104F01F035F2CF1
:102D60004FEA541003F1200346D8254A52F8202098
:102D700052F82330DB072BD43A462146284601F08F
:102D800095F8204B984219D002972146284603AA6D
:102D900000F0FEFE1C4B98422BD101222146284612
:102DA00001F000F9B9E7B3F1C06F05D0B3F1007FCE
:102DB00014BF01230223BFE70323BDE7394628469A
:102DC00001F0E8F8104B9842DED06FF00B00A5E759
:102DD0003A462146284601F069F80B4B9842D4D177
:102DE00028469DF8031001F0CDF8CEE76FF085007E
:102DF00094E76FF0150091E751F82330FFDE00BF34
:102E00006C8E00000400AD0B0000AD0B30B587B038
:102E1000194D284604F0BAFD0346E8B92A68174957
:102E20000392174A0090CDE90102012204F089F9CA
:102E30006FF01204204607B030BD2B6801220393C7
:102E4000104B0E490293002305941846CDE9003338
:102E5000049204F076F9EDE72A69A9681368284618
:102E600023F0020313600B68002201219847041E1F
:102E7000E3DB0024DEE700BF50820000EC8C0000A2
:102E800034AC00004BAC0000036803F01F025F2B62
:102E900002604FEA53129ABF024B53F822000020FF
:102EA000704700BFC08E00002DE9F04F16468246E5
:102EB00040F2FF17DFF8049185B000EB8101514526
:102EC00001D100201DE0DAF80020C2F3C323082B53
:102ED000C2F308046ED83A48BC4208BF4FF0FF3432
:102EE000B2F1806FC55C4FEA126306D2013B022B40
:102EF0000AD8DFE803F0103B3E00382B3CD06FF0DF
:102F0000850005B0BDE8F08FC6F80446621C47D1C5
:102F10000AF1040AD3E7C6F80C46601CF8D04FF05B
:102F20000008DAF80030039403F40040002803A8F6
:102F30000EBFC3464FF0010B4FF000080193FFF79F
:102F4000A3FF039C019B00EB8400D0F88040C3F3F7
:102F5000412C2B0243EA8C0343EA080304EA0904E8
:102F6000234343EA4B03C0F88030D1E7C6F810464C
:102F7000CCE7C6F80846D0E703A80394FFF784FF20
:102F8000039B00EB8300D0F8803023F0E04343F054
:102F90008043C0F88030631CBAD04FF00108C0E70E
:102FA00003A80394FFF770FF0122039B02FA03F3C7
:102FB0004360F2E76FF01500A3E700BFF0F0FCFFFD
:102FC0008EAC00007FB50BAB05930393054B01223C
:102FD000029300231846CDE90033FEF74FF907B0FE
:102FE0005DF804FB97AC0000F0B5446885B0054679
:102FF00004F0D6F8A06A30B90021284605B0BDE833
:10300000F04004F046B904F0C1FC034670B9A26A6E
:103010001249126800900392114ACDE9010201227F
:10302000FFF7D0FF6FF0120005B0F0BDE38DA06A8E
:1030300094F82C1043F400320124066913F0010FB8
:10304000336804FA01F414BF2343A3438768336051
:103050003B6898470028CFDAE6E700BF2C8D0000D8
:1030600097AC00007FB50BAB05930393054B012292
:10307000029300231846CDE90033FEF7FFF807B0AE
:103080005DF804FBE6AC00007FB50021C06805AA2E
:1030900004F067F8002809DA064B012202930023A6
:1030A00005491846CDE90033FFF7DCFF07B05DF8AE
:1030B00004FB00BFE6AC00003C8D000038B50546BF
:1030C00044680121E06804F080FA6B68196863695C
:1030D000C1F82435E28BA38BA07E1343228C1343CB
:1030E000628C1343627E9BB20243207E02431343F1
:1030F000C1F86C3569680B68D3F8002242F480226D
:10310000C3F800220822C3F800254A6A0121C3F847
:103110003C270022C3F840271965D3F83011002955
:10312000FBD0C3F800252846BDE83840014903F02C
:103130007EBE00BF257600002DE9F04104460D4615
:10314000476804F07BFCA0B9224B1B788BB14FF091
:103150002008642663681B68D3F8303143BB012024
:1031600004F03AFB013EF5D10021202001F046FF9A
:10317000EFE72022EFF311831E4682F31288BFF39C
:103180006F8F61680968D1F8301121B983F3118814
:10319000BFF36F8FEEE77B6A01221D702046796ACC
:1031A00004F0FBF986F31188BFF36F8FBDE8F0815F
:1031B000EFF311831E4688F31288BFF36F8F6268A6
:1031C0001268D2F83021002AE5D183F31188BFF3C9
:1031D0006F8FC9E74C0D002070B514461D4604F0F2
:1031E000D3FAA042A94113D30A4AD2E90061A41B31
:1031F00024F01F0365EB01009B1941EB0001C2E9BC
:103200000031640944EAC060BDE8704002F04CB986
:1032100070BD00BF7002002010B500220121E42023
:10322000FEF73EFF174A0020D2F8183723F4403348
:10323000C2F8183700F094FF134B0446984208D1A7
:103240000120124901F01CF8A04205D0104B984211
:1032500014D04FF0FF3010BD04F096FA67220D4BEA
:1032600020F01F00C3E900010B4BC3E900010B4B29
:1032700002201A60FFF778FB0020ECE76FF00B00EC
:10328000E9E700BF00200E500000AD0B90010020C8
:103290000200AD0B7002002068020020D40500205F
:1032A00008B504F071FA054AD2E90032C01A61EBA0
:1032B0000201400940EAC16008BD00BF7002002061
:1032C00037B5431C0CBF6FF0004420EAE07404F0F3
:1032D0005BFA0D4BD3E90025801A61EB0503202131
:1032E000C4FB0103402873F100042CBF20F01F0130
:1032F000002352184FF0010145EB030300910348EE
:1033000001F022F803B030BD7002002088010020D7
:10331000064BD3F840231C2A05D1D3F84403431E9F
:103320005842584170470020704700BF00C0FF005E
:1033300003689A070CD50368DB070DD50922074BF4
:10334000C3F80C250F22C3F8042501221A60FEE7FA
:10335000034B0360EF3B0360704700BF00801050D9
:10336000F000FA5008B501233E4A3F48C2F8003841
:103370003E4AD2F840231C2A04BF3D4AC2F80C340E
:10338000FFF7D6FF0830FFF7D3FF0830FFF7D0FF75
:103390000830FFF7CDFF00F5F470FFF7C9FF354A9D
:1033A000D2F88C3043F44063C2F88C300022D30052
:1033B00003F57F0303F54043D3F8001401310AD02D
:1033C000D3F8001439B1D3F800140132D3F804341F
:1033D000402A0B60EBD1234BD3F84024002A3DD088
:1033E000FFF796FF48B1214BD3F83423224B9A4282
:1033F0009EBF1C4B214AC3F84026FFF789FF18B136
:103400001F4B204AC3F8AC27FFF782FF48B1342294
:10341000144BC3F82426D3F83C2622F40022C3F828
:103420003C26124BD3F840331C2B08D1164BD3F853
:103430000026D20744BF6FF00102C3F80026032321
:10344000124A0C49C2F81835D1F88C3043F4406365
:10345000C1F88C300023C2F8A03508BDC822C3F8DB
:103460004024BDE70000125000C50D5000C0FF0011
:103470000030055000ED00E0001D0A1840E0A91ED4
:1034800000A0085078000A0400E0105000B004507A
:1034900030B50468ACB1B4FA84F30122C3F11F0360
:1034A000DBB29A4024EA0202D0E8EF5FA54204D1E1
:1034B000C0E8EC2FBCF1000FF6D1EAD102480B7046
:1034C00030BD0248FCE700BF0000AD0B0200AD0BB1
:1034D00010B50368CB40DB0710D401238B40026892
:1034E00043EA0201D0E8EF4F944204D1C0E8EC1F58
:1034F000BCF1000FF6D1F2D1014810BD0148FCE744
:103500000000AD0B0400AD0BF7B5054648B301282C
:1035100025D104224FF48073712032490024C1F870
:103520000803012002F1A04203F1A04303F5871331
:1035300002F5871210601C601B682B4BD3F84033D8
:103540001C2B13D0854201D10DF10704002342F258
:103550001076244F8DF8073065B1012D2ED003B0C1
:10356000F0BD14224FF484730420D6E7012DEDD171
:10357000CD60E9E7D7F84C3403F480336CB9002B05
:10358000EDD0012004F028F9013EF3D1E7E7012056
:1035900004F022F9013EDFD1E1E7D7F84C2402F034
:1035A00003022270002BDAD09DF80730002BEED0FA
:1035B000012DD4D100220D4B5A71D0E7D7F80C342D
:1035C00003F480333CB9002BF4D0012004F004F95B
:1035D000013EF3D1C3E7002B0CBF0123002323706E
:1035E000E2D1E7E700E0105000C0FF00D80500205E
:1035F000044B1A7922B9012218601A7102487047E7
:1036000002487047D80500200000AD0B0C00AD0B40
:1036100008B50A4B1B6843B140F20510FEF732FDB6
:1036200018B940F20510FEF70BFD0022044BC3F859
:1036300040240122034B1A7008BD00BFD8050020AA
:1036400000E010504B0D002010B510B1012845D0FE
:1036500010BD324BD3F84C14D3F84C24C80324D5F6
:1036600002F00303012B04D013B10020FFF74CFF3D
:1036700000232A4A0420C2F8403410224FF48473F5
:10368000002103F1A04303F5871319601C6801248E
:1036900002F1A04202F587121460214A1268002A42
:1036A00036D01E4BC3F80403D2E7D3F84824D10721
:1036B000DED5D3F850249207D7D4194A12681AB12C
:1036C0000422C3F80423C3E7D3F80821002AFBD05F
:1036D0000022C3F80821D3F80831B9E700220F4BC4
:1036E000C3F81021D3F81011C3F81821D3F818111A
:1036F000C3F81421D3F814210A4AD2F840231C2A13
:1037000004D000224FF480737120B9E79860F8E785
:103710001A68002AFCD019601B6899E700E0105075
:10372000D805002000C0FF0070B500251E4C1F4EBC
:10373000D4F80C3303B970BDB3FA83F3C3F11F039C
:103740009A0002F5807292B202F1A04202F587124D
:10375000156012680122D8B202FA03F3DBB2102B13
:10376000C4F8083311D0402B1BD0042B16D1D4F849
:103770004C14D4F84C14890710D1C4F84024C4F870
:1037800004332261D4F80C33D4E702237371C4F8F4
:103790001451D4F814312023C4F804333368984703
:1037A000F0E77571FAE700BF00E01050D80500207F
:1037B000036803F01F025F2B02604FEA53129ABFA7
:1037C000024B53F822000020704700BF48900000D1
:1037D000034A4309D35C00F01F001844C0B270478D
:1037E00025AD000070B505460846FFF7F1FF3C2106
:1037F0002A79184B01FB0202083233F81200C10586
:1038000026D578240026C0F3432120F4F85023F86D
:1038100012002A7904FB02340E3434F8020F10F43B
:10382000807F03D0C0F34320814211D00136232E84
:10383000F3D10020C2EB02120A4443F83200782090
:103840002A79BDE8704000FB02306030FFF740BECF
:1038500070BD00BFE0050020F0B50646002487B02B
:10386000114F019117F8012B06AB03EBD20313F8AC
:10387000143C02F00702D34013F0010306D10134D7
:10388000032CEFD10023184607B0F0BD074A03AD63
:1038900007CA85E8070055F824100A6A46F824206C
:1038A0000A62002AEBD0EEE735AD0000608D000023
:1038B00010B504460846FFF78BFF3C2303FB0400CA
:1038C000024B083033F81000400B10BDE00500201B
:1038D00010B504460846FFF77BFF3C2303FB0400BA
:1038E000034B083033F81000C0F3400010BD00BF98
:1038F000E005002010B504460846FFF769FF3C23A9
:1039000003FB0400034B083033F81000C0F34010F1
:1039100010BD00BFE005002078232DE9F04F6F4C6B
:103920000E460C1BB4FBF3F4D0F81413DFF8B0B15F
:10393000C9B28BB041F400315BF83420009003F041
:10394000C6FF8103054638D50023E7000BEBC4040E
:10395000CDE907330993636807A819460193FFF778
:103960007BFF3B1D03934FF0000A5E4B0DF11C09DA
:103970000293029A12F8013B0292039A02EBD302DD
:103980001BF8022003F0070322FA03F3DA071AD424
:103990000AF1010ABAF1030F09F10409E9D14FF460
:1039A00000310022009803F092FF019907A8FFF769
:1039B00053FF0028D7D125F400350124002D76D1FE
:1039C0000BB0BDE8F08F484B53440493D9F8001076
:1039D0000029DDD091FAA1F1B1FA81F1049B1C78A4
:1039E00041EA44142046FFF7F3FE083036F8108011
:1039F000C8084FEA98030593012319F8002001F045
:103A0000070103FA01F122EA010209F8002006A8E1
:103A10000694FFF7CDFE069A059B203250F822202F
:103A2000C8F382075B07B846C2F3014223D530468C
:103A3000D7B22146424603F02BFF06A80694FFF7B3
:103A4000B7FE069B203350F82330C3F301439F4257
:103A500007D10021204603F00CFF3946204603F031
:103A600008FF06A80694FFF7A3FE0122069B02FAB0
:103A700003F30362AAE7022A0DD10321204603F0D3
:103A8000F8FE07F00503012BEBD1424621463046F4
:103A900003F0FEFEE5E702212046059203F0E9FE71
:103AA000032FF2D0059A032ADBD1022FECE795FA17
:103AB000A5F3B3FA83F3009904FA03F225EA0205A9
:103AC00003F5A27251F8222006EB43033046B3F807
:103AD0006410C2F3014203F0DBFE6FE7E005002053
:103AE0005490000035AD000035AD00002DE9F743DE
:103AF00005460846FFF76CFE3C222B79204F02FB5F
:103B00000303083337F813300E46DB07044635D578
:103B1000284603F003FF95F8049031464846FFF726
:103B2000E9FE60B14846FFF7C3FE0022D5F80080E9
:103B300000B208EB8003C3F81025C3F8102528460F
:103B40003146FFF74FFE3C222B7901A802FB0344CC
:103B50000023083427F814300196FFF729FE019B53
:103B600000EB8300D0F88020064B134043F00203A3
:103B7000C0F88030044803B0BDE8F0830348FAE79A
:103B8000E0050020F0F0FCFF0000AD0B0400AD0BE1
:103B90002DE9F04F9046044685B00846FFF718FE21
:103BA000D8F800900F4606462579B9F1000F23D0CA
:103BB0002846FFF78DFE18B12846FFF79BFE58BB3D
:103BC00000230DF10F02CDE900338DF80E308DF892
:103BD0000F300DF10E014B46384603F001FE3C2339
:103BE00003FB05635D49083331F8132022F002021C
:103BF00042F0010221F81320D8F80430002B3FD006
:103C00003946207993F80090D3F804A0FFF760FEBE
:103C100020B1BAF1000F26D0514835E03C226A436A
:103C2000DFF838E102EB060C0CF1080C3EF81C3012
:103C300023F02003DB04DB0C2EF81C30BAF1000F5C
:103C400011D0B9F1030FE7D8D8F8041020684968FB
:103C500091F800A000EB8A00B9F1000F17D1C0F86D
:103C60001095C0F810953C2303FB05653B4A0835C9
:103C700032F8153023F01C0343EA890322F815308B
:103C8000D8F8083063BB374805B0BDE8F08FD0F8EE
:103C900010B552442BF0030BC0F810B5206843EA6E
:103CA0004A3300EB8A01D1F810050EEB420220F4F2
:103CB000473020F47C70C1F8100541F6F070D1F85F
:103CC00010B500EA071040EA094040EA0B0043F053
:103CD0002003C1F81005A2F864702EF81C30C2E76A
:103CE0003946D3E900852046FFF77CFDB8F1000F87
:103CF000C9D078232079194F4343FA18FB589845C7
:103D000004D153689D4201D100220CE0782303FBCB
:103D100000700DF10F016030FFF7BAFB114B9842B4
:103D2000B2D19DF80F203C212379C3EB0313134438
:103D300047F833802379C3EB0313134407EBC30322
:103D40005D60237901FB0363083337F8131041EA00
:103D5000422242F4807227F8132094E7E005002005
:103D60000400AD0B0000AD0B2DE9FF4705460846EA
:103D700017461E46FFF72CFD8946044687B395F883
:103D800004804046FFF7A4FD18B94046FFF7B2FD96
:103D900068BB3C2303FB0848DFF8E4A008F10808EF
:103DA0003AF8183013F01C0F02D07B78012B1ED08C
:103DB00001238DF80F3000237A1CCDE900734846AB
:103DC000BB1C0DF10F0103F00BFD3C222B7902FB14
:103DD000034308333AF8132042F003022AF8132071
:103DE000002E4BD049462879FFF772FD18B92548B7
:103DF00004B0BDE8F08700214FF03C0C30782B6810
:103E0000820003EB8003C3F81015C3F810152B795B
:103E10001B490CFB0343083331F8137027F4604748
:103E200027F0200721F8137077783FB32B68B67816
:103E30001A44D2F810E5144B3F040EEA0303C2F80B
:103E4000103541F6F07307F4403703EA09133605DD
:103E5000D2F810E53B4306F48016334343EA0E03E1
:103E6000C2F810352B790CFB0344083431F81430B8
:103E700043EA403343F0200321F814300348B7E706
:103E8000E00500200400AD0B0FE0ECFF0000AD0BDF
:103E900030B578250479044B05FB0434A160017921
:103EA00005FB0133DA6030BDE005002070B506790E
:103EB00014463046FFF71EFD68B10846FFF788FC40
:103EC0003C2303FB0600054B083033F81030044850
:103ED0005B0B237070BD0348FCE700BFE0050020CA
:103EE0000000AD0B0400AD0BF8B50646077978204D
:103EF000194D00FB075393F8744054BB18464622F3
:103F00002146103004F0D9F83179144A336852F858
:103F1000316021468E4212D10022C3F30830C3F82B
:103F200044210130D3F84421FEF78AF8782303FBBB
:103F3000075501230A4885F874302B66F8BDCAB2CC
:103F4000920002F58070442A04BF1C501A580131B7
:103F5000E0E70448F2E700BFE005002054900000CD
:103F60000000AD0B0C00AD0B78210279044B01FB76
:103F7000023393F87400003818BF0120704700BF67
:103F8000E00500200079024B03EB8000FFF7A0BAA8
:103F9000980100200079024B03EB8000FFF778BA0C
:103FA000980100202DE9F74390F804900446484614
:103FB0001746FFF79FFC0D46266800B34846FFF7FB
:103FC00087FC8046D8B94846FFF772FC05B2AD00C1
:103FD00005F5807246F802802168B2582944D1F86C
:103FE000102542F00102C1F810252FB101222168ED
:103FF00002FA00F3C1F8143303B0BDE8F083D6F839
:10400000143328469B035CBF4FF40033C6F81433C7
:10401000FFF7DEFB3C22237902FB03000E4B083046
:1040200033F81030C3F38203042B11D0052B11D0C9
:1040300001A80195FFF7BCFB019BC168D94001F0C5
:1040400001010231284603B0BDE8F04303F011BC82
:104050000321F7E70221F5E7E005002001490248C6
:10406000FFF75ABCE005002000A00D5001490248AE
:10407000FFF752BC5806002000C0105010B50024B5
:10408000037A0D49CA181B0103F1A04303F562230B
:1040900092F85420C3F82C450C2303FB0213046848
:1040A000DC6042681A610122007A18758B688240D0
:1040B00013438B6010BD00BF40000020074B027A05
:1040C000D3F8101521F001010A43C3F81025026846
:1040D000C3F8A4264268C3F8AC26704700200E50EF
:1040E000012303FA00F010F0670F0AD0064B5B685B
:1040F000DB4303F067030342044B054818BF18462F
:1041000070470448704700BF400000200000AD0B1E
:104110000400AD0B0800AD0B2DE9F048EFF3118161
:10412000202383F31288BFF36F8F4FF0FF356FF0BA
:104130004044094ED6E900BC5D4574EB0C07F9D349
:10414000CCF31303C0E900B381F31188BFF36F8F81
:104150000248BDE8F08800BF40270E500000AD0BBC
:10416000F0B53C4D85B02C78002C6FD13A4A01ABAC
:1041700007CA83E8070039491846D1F8102522F00C
:104180000202C1F81025FFF799FF0723672202F00A
:1041900001012144013BCCB24FEA5202F7D1052C78
:1041A00056D119464FF0010C2A4E00246720CFB299
:1041B00004E00CFA02F220EA0200013490FAA0F2C4
:1041C0005FFA84FEBE45B2FA82F2F2D30131327553
:1041D00005292A4482F8547006F10C06E5D1012124
:1041E00000241F489A0801FA02F212F0670F18BF64
:1041F0001C500433302BF5D1E420FDF721FF174B81
:104200001849D3F8102503F5C07322F00202C3F851
:10421000902340F6FF72C3F8A82100221A60A3F58C
:10422000807004338B420260F8D101240B4B0E4A9C
:104230001C660E4B5D201B68B3FBF2F358430C4B1E
:10424000234398470B482C7005B0F0BD0A48FBE7A4
:104250000A48F9E7400000206C8D000000200E5055
:1042600000210E50B0210E5040420F00940100205A
:10427000908D00000000AD0B0C00AD0B0100AD0BEC
:1042800073B52A4C054663680E4603F0010304F13A
:10429000140101A80193FFF7FBF8254B98423DD18B
:1042A00000233370636823F001036360A36843F065
:1042B0000103A3601F4BD3F81025960732D4D3F81F
:1042C000102542F00202C3F81025C5B1D3F84827E3
:1042D00012F0010202BFD3F8481741F00101C3F800
:1042E0004817144BD3F84017D3F844174C00F9D4AF
:1042F0002AB9D3F8482722F00102C3F848270E4B09
:104300000E4A1B68B3FBF2F30A4A03EB43135BB19B
:10431000D2F84017D2F84417490001D402B070BD5A
:10432000013BF4E70648F9E70648F7E740000020BC
:104330000000AD0B00200E509401002040420F0001
:104340000C00AD0B0700AD0B2DE9F0410446007ADF
:104350001D46FFF7C5FE1E4B9046984206469DF847
:10436000187031D12046FFF789FEEFF3118020232A
:1043700083F31288BFF36F8F227A164B9200134497
:1043800000221A60217AC5F31305090101F1A04149
:1043900001F56221C1F82085C1F8245580F3118808
:1043A000BFF36F8F87B10123227A0B4903FA02F220
:1043B000D1E8EF5F1543C1E8E05F0028F8D1227A29
:1043C0009340064AC2F824333046BDE8F08100BF6E
:1043D0000000AD0B00210E50C800002000200E5040
:1043E000F7B5284B284CD3F82C6304F188070EB995
:1043F00003B0F0BD96FAA6F00123B0FA80F0834036
:10440000DA43224926EA0306231893F8545083001E
:1044100019440C2303FB0543DB6873B3D7E8EF3F74
:1044200003EA020CC7E8EECFBEF1000FF6D1C3409D
:10443000DB0719D5020102F1A04202F56222D2F88F
:104440002435D2F82025D1F800C0BCF1000FCED021
:104450004FF0000CC1F800C00C2101FB0545296993
:104460000091E9688847C2E705F10C0304EBC30C2F
:1044700054F83320DCF80430E5E70A68002AB6D0A7
:104480000B60B4E700200E504000002000210E50C9
:1044900010B5184BD3F80443E1040AD5D3F8302102
:1044A0003AB10022C3F83021D3F83031124B1B68E7
:1044B0009847A2040BD50F4BD3F834213AB1002012
:1044C000C3F83401D3F834310C4B1B6898476304AC
:1044D0000ED5084BD3F8382152B10022C3F8382149
:1044E000D3F83831054B0120BDE810401B68184750
:1044F00010BD00BF00E01050D4060020D006002000
:10450000044B40EA0120C3F80005D3F80024D20789
:10451000FBD5704700B004501FB50446FCF752FEAF
:10452000064B01220293002305491846CDE90033CA
:1045300003F037FA204603F044FA00BF38AD00001C
:104540001C8D00002DE9F041054686B00E46EFF3C4
:104550001188202383F31288BFF36F8F002404286F
:1045600098BF234B234A98BF53F82030976888BFE1
:10457000214B127C2149CDE90432214B0390029357
:10458000012223462046CDE9004403F00AFA6EB129
:10459000F369C3F308034BB11A4B0122CDE9014380
:1045A000204623461549009403F0FBF92FB1384605
:1045B00003F04AFA08B1037803B91348134B0122F8
:1045C00002930023CDE90370CDE9003318460B496F
:1045D00003F0E7F931462846FFF79EFF88F311887C
:1045E000BFF36F8F384606B0BDE8F041FDF7CCBC95
:1045F00064900000D806002047AD00001C8D00002C
:104600005DAD000085AD000055AD0000A6AD000019
:1046100038B50A4B53F82040013053F82050A542DA
:1046200000D838BD606830B1037FDB0701D403F0E8
:10463000D0F90834F3E723689847FAE77890000048
:10464000012270B5294B032086B01A70FFF7E0FFF6
:10465000FDF7A4F80420FFF7DBFF254C254D264687
:10466000AE4204F1300410D300F0F8FB204C224E8F
:10467000AC4226D300F006FCFCF700F91F4A137B7E
:1046800023F00103137306B070BD54F80C3C05937E
:1046900054F8103C049354F8143C039354F8183C19
:1046A000029354F81C3C019354F8203C009354E9C5
:1046B0000A2354E90C0100F0EFF954F8303C5E6530
:1046C000CDE7D4E90A23B3F1FF3F08BFB2F1FF3FC2
:1046D00005D052EA0301206803D100F0BDFC30345C
:1046E000C6E73146183000F04DFEF8E74C0D0020CB
:1046F0000C8C00000C8C0000257B000008030020BF
:1047000008B50348034A0021121A03F079F908BDDD
:1047100068020020500D0020902370B5134E012236
:1047200003FB0066002386B0CDE904230F2201932A
:10473000CDE9023214234FF4A0720D4D0D4903FB55
:104740000055044602FB00110B4B3046009500F06B
:10475000A3F9737B2C7423F004037373074B0134A8
:1047600003EBC423EE606B6006B070BD78020020DE
:10477000D806002050150020097A0000500D0020B6
:10478000BFB50020FFF744FF2A4B03F5006282F318
:10479000088883F30A880024E023274D274F85F8F3
:1047A0002230EC772C766C76AC7685F820406B6AFC
:1047B00043F4E0236B6285F82340FDF763FBFDF7CC
:1047C000E3FC4FF0FF33AB62EB62FDF793FEFDF7C6
:1047D00003FDFCF7CFFC1A4800F09EF903F0D5F872
:1047E0000120FFF715FF0220164DFFF711FF00F023
:1047F0007DFB154B15495D61154B4FF480620593A8
:1048000001232846CDE90343CDE901443B4600940A
:1048100000F042F906466A7B284622F004026A73D9
:1048200003F04EF92046FFF777FF3A463146284617
:10483000FDF78AFC500D002000ED00E0414600002D
:104840009803002008030020D806002090160020BE
:1048500008AE00002DE9F341044617461E46EFF36B
:104860001188202383F31288BFF36F8FC368334A04
:104870007BB180689168884219D057EA060318D145
:1048800088F31188BFF36F8F6FF00F0002B0BDE89F
:10489000F081916891F90E100133E3609368216112
:1048A000A36088F31188BFF36F8F0020EEE72169C2
:1048B000F2E791F90E1090F90E306FF07E029942F6
:1048C000A8BF19469142B8BF11468B422DDD03F0B7
:1048D000A6F8054622464146CDE90076184800F084
:1048E00003FA0028E1D0EFF31186202383F3128826
:1048F000BFF36F8FA068D0B1236821699C420AD0B2
:104900004BB193F90E309942A8BF19466FF07E0360
:104910009942B8BF194603F082F840B131460848C1
:1049200000F076FA6FF00A00B0E70025D2E7002D1C
:10493000F4D186F31188BFF36F8FF3E7D806002018
:104940004D0D0020F8B583680546002B40D0234A62
:10495000926893423FD1C368012B03D9013BC360E6
:104960000020F8BDEFF31187202383F31288BFF3F3
:104970006F8F0169806803F052F82C68A54207D157
:104980000023C5E9023387F31188BFF36F8FE7E790
:10499000002CF5D0D4E90032002613605A60637B06
:1049A000C4E9006623F002036373A66004F11800F3
:1049B00003F0F5F8AC6094F90E3020462B61C4F892
:1049C000886003F07DF83946054800F021FAC7E712
:1049D0006FF01500C5E74FF0FF30C2E7D8060020A2
:1049E0004D0D002070B5EFF31186202383F312885C
:1049F000BFF36F8F0468A0421BD0D4B1D4E900325A
:104A0000002513605A60637BC4E9005523F002035C
:104A10006373A56004F1180003F0C1F82046C4F8E0
:104A2000885003F04DF83146BDE87040064800F06C
:104A3000EFB9D0E902329A4218BF0133836086F39E
:104A40001188BFF36F8F70BD4D0D002013B5EFF3CC
:104A50001181202484F31288BFF36F8F846844B1DE
:104A6000013C846081F31188BFF36F8F002002B096
:104A700010BD52EA030406D181F31188BFF36F8F92
:104A80006FF00F00F3E7CDE900230246014800F084
:104A90002BF9ECE74D0D00202DE9F043984685B049
:104AA00000F15803C0E91633109B0025037304235B
:104AB000073222F0070643730F9B01EB06090F46EE
:104AC00083734946C0E906558560C5730446FCF703
:104AD000D9FE0E9B073020F00700A067C4E91C76C2
:104AE00002930D9BA9EB000901930C9B4A4600938E
:104AF000394643462046FDF70BFB064B65659B6830
:104B000084F86C5003B1DB6F4846E36705B0BDE83D
:104B1000F08300BFD806002040F2011383810023F8
:104B2000C0E91C33C367014B98607047D80600206A
:104B30006FF00A01094A9368C3F888100849C3F85E
:104B400084004B6843F080534B60002383F311884B
:104B5000BFF36F8F9368D3F888007047D8060020A2
:104B600000ED00E070B590F90D20437B002A36DBA4
:104B7000D90634D11B4C63F07F032246437352F8AD
:104B8000183FE169934207D1C0E900210860E06164
:104B900011E09942F8D01B68002BF5D090F90E5027
:104BA00093F90E60B542F4D0AE42F2DD5968C0E927
:104BB000003108605860A569954200D005B9E568E4
:104BC000A3685A7BD20604D1DA897F2A01D9AA695F
:104BD00032B1AB4202D0284600F032FB656170BDB5
:104BE0006361FCE7D806002038B590F90D20014636
:104BF000002A437B04DA03F07F03437302F026FFAD
:104C00000D4D2A4652F8184FAB68944200D004B9B3
:104C1000EC688B4207D05A7BD20604D1DA897F2A0E
:104C200001D9A2692AB1A34202D0204600F008FBB4
:104C300023466B6138BD00BFD8060020B3F1FF3FAB
:104C400008BFB2F1FF3F03D00249183000F09ABB11
:104C5000704700BF257B000070B590F90D2001461C
:104C6000002A437B04DA03F07F03437302F0EEFE75
:104C70001C4C4B7B224663F07F034B7352F8183F6A
:104C8000E069934207D1C1E900200160E16111E0D0
:104C90009842F8D01B68002BF5D091F90E5093F98B
:104CA0000E60B542F4D0AE42F2DD5868C1E9003082
:104CB00001605960A569A368954200D005B9E5680F
:104CC0008B4207D05A7BD20604D1DA897F2A01D9D8
:104CD000AA692AB1AB4202D0284600F0B1FA2B46AD
:104CE000636170BDD8060020F8B5DDE906670D4B9D
:104CF0000C46986811460C4A1060EFF3118220228E
:104D000082F31288BFF36F8F9D68284602F0B0FED1
:104D1000284632463B46FFF791FF2046BDE8F84063
:104D2000FFF706BFD8060020F8060020F8B50446B5
:104D3000EFF31187202383F31288BFF36F8F437B38
:104D400049B203F01F02002A0CBF0126002639D108
:104D500003F07F032D4D437302F078FE2A46437B18
:104D6000817363F07F03437352F8183F934227D156
:104D7000E869C4E900200460EC610FE09842F8D0D3
:104D80001B68002BF5D093F90EC06145F6D08C4519
:104D9000F4DD5968C4E900310C605C60AC69944290
:104DA00000D004B9EC68AB689C4202D0204600F009
:104DB00047FA6C6187F31188BFF36F8F3046F8BDF7
:104DC000E869DEE79B071ED5856802F03FFE817328
:104DD0002B689D4209D16B68C4E900531C606C606C
:104DE000E8E76A689342F6D01B68002BF3D093F98A
:104DF0000E209142F5D08A42F3DD5A68C4E90032B0
:104E000014605C60D6E78173D4E700BFD806002049
:104E100049B9EFF3058030B9054B5A699B689A424E
:104E200001D0FFF785BE81F31188BFF36F8F704704
:104E3000D8060020034648B9EFF3058232B9064A86
:104E400051699268914201D0FFF772BE83F31188D5
:104E5000BFF36F8F704700BFD8060020EFF31181BA
:104E6000202383F31288BFF36F8F054B9A68D37B9F
:104E7000013BD37381F31188BFF36F8F704700BF7D
:104E8000D806002070B5EFF31186202383F3128833
:104E9000BFF36F8F144DAB68DA7B0132DA732A46A9
:104EA00052F8184F944200D004B9EC685A7BD206ED
:104EB00004D1DA897F2A01D9A2692AB1A34202D09A
:104EC000204600F0BDF923466B6186F31188BFF3DD
:104ED0006F8FEFF31180202383F31288BFF36F8F5E
:104EE000BDE87040FFF7A6BFD8060020024B03F1D3
:104EF0001802C3E906227047D806002070B5EFF308
:104F00001186202383F31288BFF36F8F1B4CA16897
:104F1000E0690B68814214BF1A46002249680B60A1
:104F20005960A368E1692AB9154AC3E900210B60F9
:104F3000E3610CE093F90E0092F90E50A84218D0EC
:104F4000854216DD5168C3E900210B605360A569F5
:104F50000B4B9D4200D005B9E568A3689D4202D085
:104F6000284600F06DF965613046BDE87040FFF7F6
:104F7000DFBD8A42D8D01268D5E700BFD80600202E
:104F8000F0060020F8B550EA010306460C4603D1AE
:104F9000FFF7B4FF0020F8BDEFF31187202383F360
:104FA0001288BFF36F8F124D124BA8681860FFF77D
:104FB0001BFEA868234632460F49183000F0E2F97C
:104FC000AA680446537B384643F004035373FFF743
:104FD000AFFDAB68D3E90A23B3F1004F08BF002A45
:104FE000D8D102F004FE201A20EAE070D3E700BF17
:104FF000D8060020F8060020257B000038B50446BE
:105000000D46FFF7BFFFB5F1FF3F08BFB4F1FF3F0B
:105010000246204618D000234FF47A7447F6112038
:105020001946C2FB040147F61222904271F10002B8
:105030000BD3084B834243F608538B4107D347F603
:1050400012220023FBF71AFA38BD1846FCE76FF06E
:105050000040F9E7ED85FFFF38B50446EFF3118511
:10506000202383F31288BFF36F8F437B5B070FD539
:10507000183002F094FD637B204623F00403637331
:10508000FFF770FD2946BDE838400448FFF7C0BE71
:1050900085F31188BFF36F8F38BD00BF4D0D002021
:1050A000014B9868704700BFD80600202DE9F843EF
:1050B0000446077BEFF31185202383F31288BFF3A7
:1050C0006F8F437B190705D585F31188BFF36F8F69
:1050D000BDE8F883D90943F008025AD14273A368A6
:1050E00013B1204602F0BAFC04F1180002F057FD9B
:1050F000A66D04F15808B04511D04FF0000976B103
:10510000304602F0ABFC06F1180002F048FD3046D4
:10511000C6F88890FFF726FDA66DB045EFD1DFF801
:10512000B880D8F808309C423BD1EFF30589B9F13B
:10513000000918BF4FF00109D8F81860274A9642B5
:1051400000D00EB9D8F80C60B34202D0304600F05F
:1051500077F8C8F81460B9F1000F02D02048FFF7C3
:10516000DBFCD8F808309C4231D1EFF3058373BBE8
:10517000227BD20718D42846FFF7DAFCFB07A7D515
:10518000002383F31188BFF36F8F0423184602DFD7
:105190009EE703F07F0343F00803437302F056FCDD
:1051A0009DE74FF00009C7E785F31188BFF36F8FC4
:1051B00083F31188BFF36F8F0423184602DFEFF3E8
:1051C0001180202383F31288BFF36F8FD4E785F318
:1051D0001188BFF36F8FD1E7D8060020F0060020BA
:1051E000980300200122044BC01A044BC0105843FE
:1051F000034B1A54704700BF28040020ABAAAAAA88
:105200004D0D0020C3897F2B12D80A4B1B6863B158
:10521000094B90F90E201B689A4209DB437BDB06A1
:1052200006D1064BC31A18BF012303F001007047D3
:105230000023FAE7A0010020FC06002078020020ED
:1052400070B50E4B0E4C1E7C054606EB460304EB78
:10525000C304204602F0A3FC00220A4B28469A55BC
:10526000FFF7D0FF48B1084B2046BDE870401A68F0
:105270000649013AD31700F085B870BDD806002062
:10528000280400204D0D0020A0010020E551000061
:1052900038B5EFF31185202383F31288BFF36F8FA6
:1052A000104B114A9C681068A04206D1FFF7C8FF56
:1052B00085F31188BFF36F8F38BD00211B7C11600F
:1052C0000A4AD35C002BF3D02046FFF79BFF00284F
:1052D000EED0637BDB0602D12046FFF7BDFC204603
:1052E000E4E700BFD8060020F80600204D0D00209E
:1052F000074808B5074A0849121A02F083FBBDE8BF
:1053000008400648064A0749121A02F07BBB00BF54
:10531000400000206802002028AE0000400000206D
:105320004000002028AE0000024B1868984208BFD9
:1053300000207047A4010020034B1B680BB9FDF748
:10534000AFBF0020704700BF0007002030B570B12C
:105350000B4B5B6898420AD0036843B1D3E9042140
:10536000D0E90445121941EB0501C3E90421D0E954
:10537000003213605A600023C0E9003330BD00BF23
:10538000A4010020B3F1FF3F08BFB2F1FF3F2DE9B8
:10539000F84F0446994615461F467BD08160EFF3CF
:1053A0001188202383F31288BFF36F8F013279F1C4
:1053B000FF33DFF8E8A020DBFFF7BEFFDAE90027C4
:1053C000013549F100092D1849EBE07306464FF00D
:1053D0000109C4E90453AD1843EB0707FFF7A4FF25
:1053E0000346DFF8BCE0DEF804A0EBB9C4E900EA4C
:1053F000CAF80040CEF8044028E06FF00103DAE973
:1054000000125B1A4FF0FF3161EB02025B1B62EB93
:105410000902012B72F10001BCBF012300224FF0F1
:105420000009C0E90432D9E7D3E9041CD4E9042017
:105430008A4270EB0C0B24DA891A5A686CEB000074
:10544000C3E90410C4E9003214605C60FFF76CFF2C
:1054500084420ED1134B1B685BB9B9F1000F02D126
:10546000FFF76AFF0646304602F082FB0021FDF797
:1054700027FF88F31188BFF36F8F28463946BDE8B0
:10548000F88F521A60EB0C009A45C4E90420ADD0A5
:105490001B68AAE700252F46EFE700BF4004002065
:1054A000A4010020000700202DE9F047EFF311854B
:1054B000202383F31288BFF36F8FDFF8A0900026BC
:1054C000C9F800000027FFF72FFFDFF89480D9F814
:1054D0000030D8E900ECD91750B1D0E90442A3421A
:1054E00071EB020A1BDAE41A62EB0102C0E9044222
:1054F000002413EB0E034CEB01012046C8E90031F8
:10550000C9F8004002F034FB2146FDF7D9FE85F3CF
:105510001188BFF36F8FBDE8F047FFF7B9BE14EBFA
:105520000E024CEBE473C0E90467C8E90023FFF7FF
:105530000DFF85F31188BFF36F8F83689847EFF3F2
:105540001185202383F31288BFF36F8FD9F80030C1
:105550001B1BC9F80030FFF7E7FEB8E70007002083
:105560004004002010B5EFF31184202383F3128848
:10557000BFF36F8FFFF7E0FE0346054AD2E9000153
:10558000181841EBE37184F31188BFF36F8F10BDDE
:1055900040040020F8B50D4E0D4C0E4D33680E48FA
:1055A000984767782B680C48984733680B489847AA
:1055B000022F08D12478E31F5C425C412B68074826
:1055C00098472046F8BD0024F8E700BFD00100202E
:1055D00004070020CC0100203C020020280200200B
:1055E00070B51D4E1D4C33681D48984723785907E8
:1055F00044BF23F00403237023789A0705D500F0F5
:10560000C1F8237823F002032370164D14482B6849
:105610009847336814489847637813B1134802F0E9
:1056200017FB002304211148637000F0CBF82B68AE
:105630000D48984733680A4898472378DB0705D513
:1056400002F003FB237823F0010323702B68044846
:10565000BDE87040184700BFD001002004070020BB
:1056600028020020CC0100203C0200200807002076
:105670002DE9F041FFF78EFF18B100242046BDE868
:10568000F081364F36483B689847044620B16FF0AA
:105690008F04FFF7A5FFF1E7324D2B78D80706D42A
:1056A00002F0D1FA04462B7843F001032B702E4E02
:1056B0002B483368984710B1002CE8D0E9E7002C5C
:1056C000E7D13B682648984704460028DFD12B786D
:1056D000990706D400F04EF804462B7843F00203F5
:1056E0002B7033681E4898470028E5D1002CD0D194
:1056F0003B681B4898470028C9D13368184895F87B
:10570000008098470028C2D13B6818489847044653
:105710000028BCD16B7843B918F0010F05D01448AC
:1057200002F094FA022304466B7033680F489847DE
:105730000028C1D1002CACD13B680948984700280B
:10574000A5D12B7806485A075CBF43F004032B70A1
:1057500033689847002890D099E700BFD001002017
:105760002802002004070020CC0100203C02002079
:10577000080700200122024B002083F88025704793
:105780000C0700202DE9F0410A4C002526464FF079
:10579000010803272046C4F820802777013502F04E
:1057A00035FA202D04F12C04F4D1002386F880353D
:1057B000BDE8F0810C070020014B1B68184700BFB3
:1057C000AC01002010B50A46044619B1024B002175
:1057D0001B68984710BD00BFB001002010B50C4CED
:1057E000206802F0D9FB0B4A1368591C11604BB9B1
:1057F000094A4820D2F8003443F00703C2F80034C5
:10580000FCF71EFC2068BDE8104002F0CBBB00BFD7
:10581000B8010020900C00200080045038B5164DCF
:10582000286802F0B9FB154B1C68013C1C60ECB900
:105830004820FCF713FC0722114BC3F80823D3F8C8
:10584000002422F00702C3F80024C3F80041D3F873
:105850000021C3F80441D3F804214FF48072C3F847
:105860000841D3F80831074BC3F888212868BDE800
:10587000384002F097BB00BFB8010020900C002018
:105880000080045000E100E070B5114D114E2B680E
:10589000B3421BD0FFF7A2FF00F08CFA0E4A0F4B69
:1058A0000F4952F8040B43F8040B8B42F9D100F076
:1058B000BFFA40B102F0D9F90446FFF7AFFF04B9CF
:1058C0002E60204670BD00F0C1F9F5E70024F8E72E
:1058D000B4010020117365009090000000C0805159
:1058E0001CD380510022074BC3F81021C3F80C21B0
:1058F000C3F80021C3F80421C3F80821C3F8142118
:10590000704700BF0050045008B5FFF7EBFF0123BC
:105910000360104B0A6832B9D3F80C211AB9D3F8D6
:105920000821002AF6D00B687BB90B4B99420ED0A8
:10593000A3F58473D3F80831002B0CBF4FF0FF3070
:105940006FF00200FFF7CEFF08BD0020FAE74FF02E
:10595000FF30F7E7005004500851045038B50546B1
:105960000C4691B10021012002F008F808480949CD
:10597000C0F80055C0F80445FFF7C6FF00210446F3
:10598000084601F0FBFF204638BD6FF00104FAE73E
:10599000005004500051045010B50446002101206D
:1059A00001F0ECFF064B0749C3F800450648FFF736
:1059B000ABFF00210446084601F0E0FF204610BD81
:1059C00000500450085104500850045038B50C469B
:1059D00059B1074D0749C5F800050748FFF794FF7F
:1059E00010B9D5F80835236038BD6FF00100FBE72A
:1059F00000500450105104500C5004502DE9F04F49
:105A000089B006460F4690461D4602F0E6F9044668
:105A100078B973690090C3F3013262F305148DF80D
:105A2000004014F0300408D1B168890710D06FF03D
:105A30008604204609B0BDE8F08F102C08D1BDF8CF
:105A4000023023F4F87343F4A873ADF802304EE04B
:105A5000DBB2F82B02D06FF08504EAE700234FF0A9
:105A6000010B9E4619461846D6F808C0DFF8CC91BF
:105A700059F804AB1CEA0A0F08D00BFA00F343EA0A
:105A80000E0303F07F0E012341EA0A0101300728CB
:105A9000EED12BB19DF803306EF347038DF8033040
:105AA0003CEA0101D7D17388FF2B35D005D8802B74
:105AB00034D0C02BCFD1022303E0B3F5807FCAD10D
:105AC00004239DF8021063F306118DF8021014B937
:105AD0001CF0030FABD13379022B2BD020D8012B34
:105AE000A5D1BDF8021063F3C811ADF80210012A68
:105AF0006FD0032A23D0002A99D13388B3F5105FE1
:105B0000A9D1182D6DD0202D70D0102D8FD1DFF898
:105B100030A101251F261AE00323D2E70123D0E795
:105B2000032B01D0FF2B82D10221BDF8023061F39B
:105B3000C8138AE7BDF8023043F4C07385E7412DEE
:105B40003DD104254F26DFF8FCA008F10108002410
:105B5000381902F016F900286CD00134AC42F7D1A4
:105B60001F2E07D02946384602F01FF904460028A8
:105B70007FF45FAF009B4FF0FF39079300239B46F4
:105B8000CDF818A0BDF802204344C2F3C11205921B
:105B900001AC03F1100C224618685968083303C29F
:105BA00063451446F7D101A907EB0B00FFF7D6FEBA
:105BB000044630B302F011F96FF0920439E7182D62
:105BC00019D0202D1AD0102D7FF431AFDFF874A03A
:105BD0009FE7302D7FF42BAF03253F26DFF868A029
:105BE000B5E7DFF85CA002252726B0E7DFF850A074
:105BF00002252F26ABE7DFF84CA0F4E7DFF844A03E
:105C0000F6E71C2101A80BF1010B02F0AEF8AB4541
:105C100006D00AEB0B12CDE906294FEA0B13B1E7C8
:105C20001F2E3FF406AFFA20FFF7B6FE00283FF420
:105C300000AFC1E76FF08A04FBE600BFACA3000031
:105C400040008151000000201084045010B590B035
:105C50001C22002101A802F030FAF82002F091F88D
:105C600008B3202200200DEB020100F089F9044660
:105C7000F8B901A84FF4807102F08DF80E4B0F496E
:105C800004930F4BCDE901130E4BF821069320230B
:105C90000DEB0302FFF7B2FE202104460DEB0100DD
:105CA00002F063F805E0F92002F06BF80028D8D183
:105CB0000446204610B010BD0010C00400240001AE
:105CC000014B4E80F800FF7F10B50446FFF786FDBC
:105CD000104B186802F060F90CB101232370BFF378
:105CE0005F8F4FF0A3430022DA61BFF35F8FBFF3F2
:105CF0005F8F4FF0FF321A63BFF35F8FBFF35F8F89
:105D00003422DA61BFF35F8F0122034BC3F804230F
:105D100010BD00BFBC0100200080045010B5044637
:105D200038B9FFF77BFDBDE81040074B186802F05B
:105D300039B903783BB1FFF771FD034B186802F0E6
:105D400031F90023237010BDBC01002038B5164C7A
:105D5000D4F80051C5B1BFF35F8F4FF0A343996AE8
:105D6000BFF35F8FBFF35F8F4FF0FF321A63BFF354
:105D70005F8F0023C4F80031D4F800310B4B186852
:105D8000BDE8384002F021B9D4F8083153B100F031
:105D90006DF802F045F8C4F80851D4F80831012133
:105DA000034BECE738BD00BF00800450C401002065
:105DB000C001002008B5074B186802F0F5F8064B43
:105DC000186802F0F1F8BDE80840002248201146AA
:105DD000FCF766B9C4010020C001002038B5094BAA
:105DE0001C7864B1084B4FF0FF311D68284602F063
:105DF000DDF84FF0FF310446284602F0E4F8204673
:105E000038BD00BF4C0D0020C401002010B5064C69
:105E1000236D3BB9214651F8503B986902F00DF8CB
:105E200001232365014810BD940C0020E40C0020E0
:105E300038B500240B4D0C4BEC662B6003F5C043CA
:105E40006B60FFF7E3FF50B16B6D2046B3F5007F49
:105E5000CCBF4FF480634FF40073AB6038BD0E20AD
:105E6000FCE700BF940C00200020805100487047E0
:105E7000940C00204FF480732DE9F04796B08046D3
:105E800003A80393002402F003F84FF010091E4EFC
:105E90000DF12F0525F01F0506F1200A0122102122
:105EA0001A4801F04DFF2B19009352461023202170
:105EB0001548CDF8049000F0EBF80746F8B9D6E99C
:105EC0000C321034013342F10002302CC6E90C329E
