:020000040017E3
:10A0000097310000938101C1EF10C040B3020000FE
:10A010009382320073905230970200009382820E36
:10A0200073907230A1AB000000000000000000003F
:10A030000000000000000000000000000000000020
:10A040000000000000000000000000000000000010
:10A050000000000000000000000000000000000000
:10A0600000000000000000000000000000000000F0
:10A0700000000000000000000000000000000000E0
:10A0800000000000000000000000000000000000D0
:10A0900000000000000000000000000000000000C0
:10A0A00000000000000000000000000000000000B0
:10A0B00000000000000000000000000000000000A0
:10A0C0000000000000000000000000000000000090
:10A0D0000000000000000000000000000000000080
:10A0E0000000000000000000000000000000000070
:10A0F0000000000000000000000000000000000060
:10A10000F0E00320F0E00320F0E00320F0E0032083
:10A11000F0E00320F0E00320F0E00320F0E0032073
:10A12000F0E00320F0E00320F0E00320F0E0032063
:10A13000F0E00320F0E00320F0E00320F0E0032053
:10A14000F0E00320F0E00320F0E00320F0E0032043
:10A15000F0E00320F0E00320F0E00320F0E0032033
:10A16000F0E00320F0E00320F0E00320F0E0032023
:10A17000F0E00320F0E00320F0E00320F0E0032013
:10A1800064E30320F2D5032028D603205ED6032003
:10A19000F0E00320F0E00320F0E00320F0E00320F3
:10A1A000F0E00320F0E00320F0E00320F0E00320E3
:10A1B000F0E00320F0E00320F0E00320F0E00320D3
:10A1C000F0E00320F0E00320F0E00320F0E00320C3
:04A57C00212000009A
:02A580008280D7
:10A58400732540F181426303550019A81711000097
:10A59400130101238562938202801691EF00F03546
:10A5A40009A073005010F5BF00008280732700BC1F
:10A5B400B7E7032083D70772D98FC207C18373908B
:10A5C40007BC8280732700BCB7E7032083D70772D8
:10A5D40093C7F7FFF98FC207C183739007BC8280CA
:10A5E400B7E7032083D70772739007BD82801301F6
:10A5F40081FD06D216D01ACE1ECC2ACA2EC832C667
:10A6040036C43AC23EC07D3F925082527243E24306
:10A614005245C2453246A24612478247130181027F
:10A6240073002030130181FD06D216D01ACE1ECC41
:10A634002ACA2EC832C636C43AC23EC0853F92509A
:10A6440082527243E2435245C2453246A246124701
:10A6540082471301810273002030130181FD06D269
:10A6640016D01ACE1ECC2ACA2EC832C636C43AC256
:10A674003EC0BD37925082527243E2435245C245B6
:10A684003246A246124782471301810273002030EA
:10A694008347550009476390E71C03470500630B94
:10A6A400F71663E3E7068346150083472500631620
:10A6B4000714A207DD8E834775000347650013F670
:10A6C400F601A207D98F034785000D4342075D8F2A
:10A6D40083479500E207D98F418B09E713D35700CD
:10A6E4001373130013F56730130760106300E50E4E
:10A6F4006365A7021947630DE50C636BA7001DC9C9
:10A7040009476309E50282808D476306F712828058
:10A71400130700106300E50C828013072020630DEB
:10A72400E50A13070030630BE50A130700206314DE
:10A73400E5121145370708007D8F5DC3F32500BC82
:10A7440005473317D7004D8F42074183731007BC69
:10A7540037070550130707400A063A9613D707012F
:10A76400832206081347170093D51701058BFD773D
:10A7740085899387070F0607B3F2F2004D8F33677D
:10A7840057000A033367670093178500D98F232086
:10A79400F6080F00500599C9732710BC8547B39775
:10A7A400D700D98FC207C183739017BC0F00A00ACA
:10A7B40083270608370700907D17F98F37070010A5
:10A7C400D98F2320F6080F00F00F828025459DB70E
:10A7D40021458DB70545B9BF1945A9BF154599BF91
:10A7E400370704007D8F2DD7F32500BC05473317A9
:10A7F400D7001347F7FF6D8F81BFA207D58F37E7C7
:10A8040003202310F772371700F07C4393E71700F7
:10A814007CC382808347250003471500A207D98F94
:10A8240037E703202310F772371700F03C4793E70C
:10A8340017003CC782808347250003471500A20701
:10A84400D98F37E703202310F772371700F07C47BE
:10A8540093E717007CC7828037D503205111130575
:10A86400456906C422C2492063410506014689455B
:10A874004545DD204545DD20371400F07C40014688
:10A88400894593E707107CC04945F9204945F920DB
:10A894003C440146894593E707103CC44D456D2867
:10A8A4004D456D287C4493E707107CC4F327007C56
:10A8B400370783AF7917F98F37077D500507D98F8D
:10A8C4007390077CEF00207EF5BFA240124401453F
:10A8D40031018280B7F7032023A807408280B7E7BD
:10A8E400032083A7477182874111B7E7032006C677
:10A8F40022C402C023AAA7701307703E8247637460
:10A90400F70437E403201305846091286356050097
:10A91400930780F86315F50237F60320B7E50320A3
:10A924001306063C9385857113058460A92063484A
:10A93400050037F7032083270741F5FF0145B2409F
:10A94400224441018280824785073EC045BF828000
:10A954006F00B0126F0090136F007014828011C5E5
:10A964001C4591C79C4391C78287295582806D55A8
:10A9740082800145828019C991C909CA184509CB49
:10A98400544799C688C15C479105828729558280BE
:10A994006D558280014582800C49484189A6AA8769
:10A9A4009C4B484123A00500144EBE85210699A462
:10A9B4000C49484161A66F00D033AA87CC430841B3
:10A9C4001C459C4399C301468287130580FA828003
:10A9D400511122C206C42A8408412521634F05006F
:10A9E4000840B7E5032035469385456E8D296346B7
:10A9F4000500B14763C7A7002955A240124431019D
:10AA040082800145DDBF130141F69307860122CB05
:10AA140006CD26C932843EC00245EF00502D0D47B5
:10AA2400AA846309E508634EA70005476300E502AD
:10AA34000947630CE50CEA405A44CA441301C109AE
:10AA440082801307B5FF8546E3E7E6FE48400146EA
:10AA5400814581239307F5FF3EC21307F007636E18
:10AA6400F71248400C081306000825231947AA8545
:10AA74006389E4120547639FE414B147E3FDA7FA31
:10AA840037E5032035460C081305456EEF00502CBE
:10AA94005DF11C449C4399C3484482970245954503
:10AAA400193F484001468145ED21B334A0000848D0
:10AAB400293715AA48401306E1000C08A52931E5F9
:10AAC4000357E100B5476312F7044245B7E5032095
:10AAD40035469385456EEF00B02705E92285CD3DC7
:10AAE400635F05001C44DC4799C74C4437E50320E9
:10AAF4001305856C829702458145753D2DBF02453E
:10AB04008545553D0848553D01BF084085230357F9
:10AB1400440193160501C182935405016381E6063D
:10AB24000147A9C22AC20840E92C9247635305028F
:10AB34001C44DC4799C74C4437E503201305856C56
:10AB440082975A440245EA40CA4491451301C10917
:10AB54009DB5835564014840231AF400C207DD8D76
:10AB6400212B054783576401638DF400E30507EC4B
:10AB740008485A44EA40CA441301C1093DBD01478B
:10AB8400D5B783574401FDD3024599452D351C445F
:10AB94009C43ADDB48448297B5B71947E39DE4E88D
:10ABA400814508402EC4D92183574401420541817F
:10ABB400A245630CF50002459145F53B1C44DC437A
:10ABC400E38B07E648448297BDB512479307F00725
:10ABD400E3E3E7E61C449C4791EB4840014681458A
:10ABE4004D2EB334A000E39904E2B1B550440808F3
:10ABF4008297E5B7111122CA26C806CC2E840C49C7
:10AC0400930784013EC232C436C68547AA84639E34
:10AC1400F5060546814513058401EF00B00B02C01B
:10AC2400930780F829CDA247484004C81CC4B24702
:10AC34005CC42924AA876344050698488547630BA6
:10AC4400F704084025219357050108403EC43929DB
:10AC5400A24793150501C181231A04008505C20585
:10AC6400C181E38DF5FEFDD94840231BB4002921A1
:10AC7400824785CF26859133AA8763420502E24045
:10AC84005244C2443E8571018280130584012533F8
:10AC94002AC051BF22852D3BAA87E35B05FC1245E0
:10ACA40081453EC0093B8247D9BF8844CC441C45FA
:10ACB400DC4381E7930780FADDB737E60320A286F9
:10ACC4001306A6A08297AA8779F98844CC441C4528
:10ACD4009C4BEDD305468297AA8749DDC9B751112C
:10ACE40022C226C006C4184985472A84AE84630557
:10ACF400F700C840814549262285C1318145138525
:10AD04008401553901C908444C441C459C4B81EBD2
:10AD1400130580FAA2401244824431018280014624
:10AD240082976DF908444C441C45DC43F5D3124426
:10AD3400A2408244814601463101828731112AC0F2
:10AD44001385850122C626C432C2AE8406C8368461
:10AD5400EF00E07911469245634CA6002A874155DD
:10AD64006313C7002285C2403244A2445101828049
:10AD7400130530FC6DD88840131604014182C520A8
:10AD8400AA84635405002685F9BF130530FBE3EC60
:10AD940084FC02451D3165D9F9B7AA872DC1184134
:10ADA400295539CF9447A9CE03A34701630A030465
:10ADB400D04791456373B6001146B375C702295550
:10ADC400A1E1B3F5C6028DEDCC43B362B30093F2B7
:10ADD4003200639702029C4BAD4263F3F2028D8B07
:10ADE40085E3637FD70089C5637CB70063FAD50028
:10ADF400295563F76600329701456383E6002955B8
:10AE04008280511122C206C426C004412A842685A8
:10AE140069371DE123220400232404009C44584084
:10AE240098C31C4018449C4398C30F00F00FA240E1
:10AE340012448244310182802955D5BF511122C266
:10AE440006C42A840841913F09E9232204002324EB
:10AE54000400A2401244310182802955DDBF09E972
:10AE6400295582802955F2406244D244056182808A
:10AE7400011122CC06CE26CA32846DD6E5D52A87A6
:10AE84000F00F00F1C4103A34701944B9C439043D4
:10AE9400444193773600F9F7B387C44063F5C4009F
:10AEA400B3879600918F1386C6FF1D8E93074400C7
:10AEB4005155E36AF6FAB307930023A0070013562B
:10AEC40084002380C700A38087000F00F00F910443
:10AED40063E4D400B3F4D402B38796406373F400FC
:10AEE400A2873E86330593003AC836C63EC42EC2B6
:10AEF4001AC05125A24702439245B246424763FB1A
:10AF040087003306F440BE951A853AC236C0A5259B
:10AF14001247824693073400A697F19B63E4D70057
:10AF2400B3F7D7025CC3184318471CC30F00F00FD4
:10AF3400228515BF19E1295582801C45EDFF0F00BC
:10AF4400F00F1C4198479C4B1443E3F6F6FEC1678F
:10AF54001387F6FFF917E3E0E7FE0F00F00F1C413B
:10AF6400C84B8347150003470500A207D98F1397E1
:10AF74008700A183D98FC207C18313874700E3ECFD
:10AF8400E6FA110588C12310F6000F00F00F014501
:10AF9400828019E129558280211126C606CA22C859
:10AFA400AA842E830F00F00F1C41CC4B944B9C477A
:10AFB40083A207001C45295513F732000DE701450C
:10AFC4006383F2023387F500034507000347170044
:10AFD4002207498F131487002183598C420441802E
:10AFE400631803002285D2404244B2446101828046
:10AFF4005155E36A86FE3387F24063F5F2003387E6
:10B00400F6401697130644005555E36EC7FC1387A4
:10B0140047006364D7003377D702B387E64063738E
:10B02400F400A28736C43E86BA951A853EC23AC059
:10B03400992392470247A24663FB870036C28C409D
:10B044003306F4403E95CC493D239246024793078C
:10B054003400BA97F19B63E4D700B3F7D702984062
:10B064009CC418431CC30F00F00FADBF1C41DC434C
:10B074000F00F00F884382801C41DC438CC30F0017
:10B08400F00F82808280828011A337E50320B7E726
:10B094000320130645719387077C3386C740814597
:10B0A40013054571D5B7511106C4E93F730050101B
:10B0B400D93FA14773A00730A24031018280130514
:10B0C40005048280511122C226C02E8406C4AA849B
:10B0D400B285F3272034F327303422859122A285C8
:10B0E4002685352E5111014606C4E93F511106C487
:10B0F400F327203481450545F537511106C47137CE
:10B104004D2EB7E7032037F703209387077A1307F9
:10B1140007FC23880700D8C3A14773A00730B7F7FB
:10B1240003209387073C3E81E7000500F377043052
:10B1340001A01C4185071CC105458280130181FDC6
:10B1440006D222D026CE2AC22EC432C636C03AC86F
:10B15400A9C23685AD370247AA87585FBE84014429
:10B1640001430246B245C2473ACC1ACA26858297A1
:10B174003DC55243624763749306B7D703201386D1
:10B184004758637BC7029848138644002683B284D9
:10B19400C9BF3E8789CBB7E703209387077A9C47CB
:10B1A400D1076318F70037E703208A8713070714CA
:10B1B40075B71C4358435DB737E603201306065A98
:10B1C400E373C7FC224592472686BA85829701C954
:10B1D4000504A145984813864400E319B4FA925033
:10B1E4000254F244130181028280937735002A8746
:10B1F40095E799C5B7E7032083A7077A014585C377
:10B20400B7E703209387077C0145636AF7008566E7
:10B2140093860680B6973335F70082800145828095
:10B22400411137E6032006C61306067A1046AA869D
:10B2340037E7032037E50320AE871307E71E8A8527
:10B244001305651302C0DD3DB24041018280B7F7AA
:10B2540003203727A10723AAE74001458280F3276B
:10B26400007C370783AF7917F98F37077D500507BF
:10B27400D98F7390077C01458280B71700F00A05C7
:10B284003E951C4193E707101CC18280B71700F05C
:10B294000A053E951C4193F7F7EF1CC182808D4748
:10B2A400014763E5B7009A051387F503B71700F064
:10B2B4000A053E951C416207A207A183D98F1CC1D0
:10B2C400828005458280938705FF414793F7F70FF6
:10B2D4002955639FE5009395270037E703209107DD
:10B2E400130747728A07BA953E9790C154C7014520
:10B2F4008280C14729556393F504511137E7032030
:10B3040006C4130747721C5F130580F893D6070120
:10B31400858A01CE81EAC166D58F41451CDFEFF0F5
:10B324002FE30145A24031018280EDDEC176FD1696
:10B33400F58F41451CDFEFF0EFE1E5B78280511155
:10B3440006C4FD5773B0077E014685454145EFF0BD
:10B35400AFE04145EFF08FE0A2400145310182802A
:10B36400130141FD22CC37E403203AC206D416D29D
:10B374001AD01ECE2ACA2EC832C636C43EC01307FF
:10B38400047A1C4385071CC3C16773B0077EB7E703
:10B3940003209387477298431304047A09CBD04F50
:10B3A40037E503208146C1451305855C0297732563
:10B3B400203452055181EFF06F9C1C40FD171CC0D6
:10B3C4006244A25092520253F2435245C24532465D
:10B3D400A246124782471301C1027300203001457F
:10B3E400828005458280D14729556392F502130571
:10B3F40060F811EEB707100073A0277E370710001E
:10B40400F327207EF98FEDDF7350207E0145828083
:10B414008280F377043001A0511106C4DD3F51113D
:10B4240006C422C273740430C53F218873200430DB
:10B43400A24012443101828013172500B7E703208C
:10B4440005059387C76F0A0551113E97AA9722C233
:10B4540026C00043844306C463679400A240124498
:10B46400824431018280484001C98347C501858BEC
:10B4740091E359282104CDB71C408297E5BF5111AF
:10B48400B7E7032005470D4506C42381E7726D37EE
:10B494009D2811455537EFF02FBCB7E7032093875C
:10B4A400077603C7C700799B2386E700A2403101D2
:10B4B40082805111014506C4413701420545AD3F23
:10B4C40009459D3F37E50320814601468145130523
:10B4D40025480539F377043018416318B70010C1C3
:10B4E4000545A18B73A0073082800145DDBF08416B
:10B4F4008280AA877377043008418CC393778700CE
:10B5040073A0073082808280511122C206C45C4934
:10B514002A8499EF014558443305A0408347170016
:10B5240093E71700A300F700A24012443101828080
:10B5340082976DD19357F5413D8D1D8D9307F00F83
:10B5440063D4A7001305F00F5C442380A700E1B780
:10B5540001476314E60001458280B307E50005074F
:10B56400B386E50083C7070083C6F6FFE383D7FEEF
:10B574003385D74082802A8309CA83830500230048
:10B5840073007D16050385056DFA82802A8311C632
:0CB594002300B3007D16050365FE8280D5
:10B5A00052E203200000000062E2032000000000DD
:10B5B00000000000C8E5032000000000E8E50320CB
:08B5C0000000000008E6032072
:10B5C800F4E60320000000003CE603201AF4032000
:10B5D8000000000042E3032000000000000000001B
:10B5E800F4E603200000000028E603201CF40320F2
:10B5F8000000000000000000000000000000000043
:10B6080050E6032088E603209CE6032018F4032074
:10B61800DCF3032098D9032000000000000000009C
:10B62800EAE3032000000000E2E30320E6E303204E
:10B638000000000000000000CAE203200000000033
:08B64800C6E20320F6E2032034
:10B65000697063300000000000C803200000000093
:10B6600004C8032000000000F807000008C80320F9
:10B6700000C003200000000004C003200000000000
:10B68000F807000008C00320E8E5032014000000CC
:10B69000C8E50320100000000100000000000000C9
:10B6A00000000000B4D90320A2D903209CD90320B4
:10B6B000000000000000000000000000000000008A
:10B6C0000000000000000000496E636F7272656345
:10B6D0007420547820636F6E66696775726174694F
:10B6E0006F6E0000456D316C314B30726E336C699A
:10B6F000340000006D61696C626F7800A0E5032082
:10B70000A0E50320B0E50320B0E50320C8E5032051
:04B71000C8E5032065
:10C3C0000000000000000000D8D80320000000009A
:10C3D000E2D80320000000000000000004F4032065
:10C3E000F8F303200000000000000000000000003F
:10C3F000000000000000000058E6032000000000DC
:10C400000000000070E603200000000000000000B3
:08C41000010000000090D003C0
:08C4180000000000000000001C
:040000052003D00004
:00000001FF
