:10000000B01B0020D10D0000B56D0000BD0D00003B
:10001000BD0D0000BD0D0000BD0D0000BD0D0000B8
:10002000000000000000000000000000350F00008C
:10003000BD0D000000000000CD0E0000BD0D000051
:10004000CD100000CD100000CD100000CD1000003C
:10005000CD100000CD100000CD100000CD1000002C
:10006000CD100000CD100000CD100000CD1000001C
:10007000CD100000CD100000CD100000CD1000000C
:10047000CD100000CD100000CD10000053B94AB9D6
:10048000002908BF00281CBF4FF0FF314FF0FF309C
:1004900000F00CB8ADF1080C6DE904CE00F008F8DE
:1004A000DDF804E0DDE9022304B07047704700BFC7
:1004B0002DE9F04786468C460846089E1546744648
:1004C0001946002B40F0C1808542B2FA82F245D92C
:1004D0004AB1C2F1200300FA02FC954094402EFA82
:1004E00003F343EA0C0C4FEA154EA8B2230CBCFBF5
:1004F000FEF80EFB18CC08FB00F943EA0C439945C3
:1005000028D9EB1808F1FF3704D2994502D9A8F190
:1005100002072B44A3EB0903A4B2B3FBFEFC0EFBC2
:100520001C330CFB00F044EA0344A04214D92C19FC
:100530000CF1FF3304D2A04202D9ACF102032C44E7
:10054000241A43EA07401EB1D4400023346073608C
:10055000BDE8F0874746DDE76346F1E792BB431B02
:1005600001214FEA154EAFB2200CB3FBFEFC0EFB8F
:100570001C330CFB07F840EA0343984561D9EB189C
:100580000CF1FF3004D2984502D9ACF102002B44A3
:10059000A3EB0803A4B2B3FBFEFC0EFB1C330CFB65
:1005A00007F744EA0344A7424DD92C190CF1FF3355
:1005B00004D2A74202D9ACF102032C44E41B43EA63
:1005C0000040C0E7C2F120039540944020FA03F1B7
:1005D0002EFA03F34FEA154E9040AFB20343B1FB3E
:1005E000FEFC0EFB1C10190C0CFB07F841EA004145
:1005F000884522D969180CF1FF3004D2884502D908
:10060000ACF102002944A1EB08019BB2B1FBFEFC56
:100610000EFB1C110CFB07F743EA01439F420ED966
:10062000EB180CF1FF3104D29F4202D9ACF1020168
:100630002B44DB1B41EA004193E76046E3E7614658
:10064000F7E76046A4E76346B8E7834206D916B9E0
:10065000002108467CE7C6E900E0F9E7B3FA83F732
:100660008FB9834201D3724508D8BEEB020460EB18
:10067000030301209C461EB9002169E73846FAE7CA
:10068000C6E9004CF8E7C7F1200CBB400EFA07F5AD
:1006900022FA0CF42EFA0CF1BA401C4320FA0CF3A7
:1006A000B8404FEA144901431FFA84FEB3FBF9F83E
:1006B00009FB18300B0C08FB0EFA43EA00439A457D
:1006C00040D9E31808F1FF3004D29A4502D9A8F1C5
:1006D00002002344A3EB0A0389B2B3FBF9F809FB38
:1006E000183308FB0EFE41EA03418E452CD96118F0
:1006F00008F1FF3304D28E4502D9A8F10203214448
:1007000043EA0040A1EB0E01A0FB02984145CE4612
:10071000434602D306D14D4504D20138B9EB020E4F
:1007200068EB0403002EA7D0B5EB0E0261EB0301CA
:1007300001FA0CFC22FA07F3F9404CEA0303C6E97C
:10074000003199E74046C5E74346D9E770B5022531
:1007500088B01422002103A807F056FC0DF106030F
:1007600023480593069506F07EFC002140F63540AF
:1007700004F090FA1F4C204606F0B8FF30B921680B
:100780001D4805F075FE002008B070BDA6681B4925
:10079000204633689847011E01DA1948F1E78023A3
:1007A000049340F60C03ADF81C3003A9204673688F
:1007B0009847011E01DA1348E3E7BDF80640B38904
:1007C0002846634302A9029300F012FF002806D1D5
:1007D000029C241361000C4805F04AFE03E0F9DA9C
:1007E0000A4805F057FE024806F06DFCCBE700BF53
:1007F00058820000E8820000C8A20000EA8C0000D5
:10080000ECA200000DA300003DA3000022A3000005
:10081000014B1B68184700BF88010020014B18607E
:10082000704700BF8801002030B585B004460D46F2
:1008300010220021684607F0E7FB02238DF8023002
:10084000044B2A4621466846019305F043FE05B055
:1008500030BD00BF1108000080B505460E461746A2
:10086000984604F069FA034607F038FC0446DFF8BE
:100870001890424649F8003039463046A84754F8A7
:10088000090000F00DFB00BF080000002DE9F04753
:10089000058B04462807904611D4022905F0070568
:1008A00040F0CC80204606F05FF978B10138218B0A
:1008B000042811D8DFE800F0C2106D8595000129E9
:1008C0000CBF45F0100545F02005258388F31188FD
:1008D000BFF36F8FBDE8F08701F0070AAA4500F06B
:1008E000A5800027B9463E46A368002B00F0BC80D7
:1008F00041F00801218388F31188BFF36F8FA1684D
:10090000002900F0BA800D68002900F0B680334657
:1009100052462046D1F80480C047002D76D02B687F
:1009200029461D46F0E701F007035A1F012A1BD88C
:10093000002221F00701062B276889B2C4E90022B2
:1009400009D13B4603E0628B013262831B68002BB6
:10095000F9D141F002012046218306F005F9002873
:100960007AD041F0200176E0042B0AD121F0070172
:1009700089B22046218306F0F7F810B141F020013A
:100980002183218B01F0070AAA454FD00027B946E1
:10099000AAE7236921F0070141F00601062DD3F8EB
:1009A000009021832DD1B9F1000F3FD041F0080113
:1009B000218388F31188BFF36F8F20463949C847D8
:1009C00029E021F00701236941F0040189B2042DD7
:1009D000D3F804902183E6D000274FF0040A3E4666
:1009E00082E721F00701236941F0050189B2052D55
:1009F000D3F808902183D6D000274FF0050A3E4651
:100A000072E700274FF0060A3E466DE72B4687E760
:100A1000B9F1000FD1D1EFF31188202383F31288AD
:100A2000BFF36F8F238B23F008032383258BEA0604
:100A30002ED525F01003238305F007056669218B69
:100A4000002EBFF670AF00232768C4E9003321F001
:100A5000070141F001012183218B4FF0000901F0D2
:100A6000070AAA457FF440AF002F9CD041F008014F
:100A7000218388F31188BFF36F8F002FC8D03D68A2
:100A8000394633465246204606F09AF82F46F4E798
:100A9000AB067FF51BAF25F02003238305F0070588
:100AA00000E700BFED6B0000014B036000207047C2
:100AB000F88C000008B5044806F049F8BDE8084085
:100AC000024806F044B800BF4EA3000083A3000014
:100AD00030BFFFF7FDBF00BF2DE9F04105460B4ECB
:100AE000DFF82C80324606EB0807CC1B204609496C
:100AF00007F07DFAA01942460021083C07F084FA6D
:100B0000C5F8844007F10800BDE8F081000000004E
:100B1000040000001C8C0000054B5A699B689A4237
:100B20001FBF044A536843F080535360704700BFAF
:100B30003408002000ED00E0154B9A6A12F0007FA7
:100B40009A6A14BF1E201D2012F0807F9A6A18BF77
:100B50001F2012F4801F9A6A18BF022012F4002F7F
:100B60009A6A18BF212012F4802F9A6A18BF222097
:100B700012F4003F9A6A18BF232012F4803F9A6A49
:100B800018BF24206FEA02426FEA12429A6270474D
:100B900000ED00E010B5194B0246986A9C6A10F40B
:100BA000805F14BF1720162014F4006F9C6A18BFD2
:100BB0001820A40509D5986B986A000404D51AB1C9
:100BC0009A6A22F400429A6219200C4B9A6A12F433
:100BD000806F9A6A18BF1A20D2050CD49B6A13F44E
:100BE000005F18BF1C20054A936A43F47F43936259
:100BF00000230B7010BD1B20F5E700BF00ED00E0E7
:100C000010B51C4B0246986A9C6A10F0100F14BF76
:100C10001120102014F0080F9C6A18BF1220A4079E
:100C200009D5586B986A000604D51AB19A6A22F061
:100C300080029A6213200F4B9A6A12F0010F9A6A8F
:100C400018BF142012F0200F9A6A18BF1520D4067E
:100C500058BF9B6A074B9A6A920642BF5A6A22F4AF
:100C600000525A629A6A42F0FF029A6200230B70A5
:100C700010BD00BF00ED00E0F0B5474B04465B68D7
:100C800000258BB0C3F3080385F31188BFF36F8F82
:100C900002F07F40B0F17F4F11D102F00C00082824
:100CA0000DD010074CBF0C4601250022033B8DF8E8
:100CB0000720032B05D8DFE803F02462665F2C468B
:100CC000F3E700239DF80720CAB902AE04F120071C
:100CD000324620686168083403C2BC421646F7D128
:100CE000099A002D53D0C2F3080121B96FEA5222AC
:100CF0006FEA42220992184602A906F051F80BB099
:100D0000F0BD254BDA6A9107DBD4DA6A002AD8DB1A
:100D1000DA6A5200D5D55A69A16942F480725A61E3
:100D2000BFF34F8FBFF36F8F5A6931F8021C22F463
:100D300080725A61BFF34F8FBFF36F8F4DF602720F
:100D4000914209D09A6AD2B242B101200DF1070155
:100D5000FFF756FF0346B5E72368B3E79A6A12F434
:100D60007F4F05D001200DF10701FFF713FFF1E7D9
:100D70009B6AB3F5803FA4D3FFF7DEFEEAE70020CD
:100D80000DF10701E4E700200DF10701EDE722F482
:100D9000FF7222F00102ADE700ED00E0064B5A6958
:100DA00042F010025A615A6942F480625A615A69EB
:100DB00022F008025A61704700ED00E0EFF308806E
:100DC000EFF3098101B57246FFF756FF01BD00BF81
:100DD000002080F31488BFF36F8F002080F30A880F
:100DE00080F30B880F4880F3088801F0A5FC0020F1
:100DF0000D490860BFF34F8F00F02CF8202080F3DE
:100E000011880A484FF40061401880F30988EFF315
:100E100014800221084380F31488BFF36F8F00F021
:100E2000EFF80000B01B002094ED00E0700E0020F1
:100E3000002318460649D1F89020C2F307229342B6
:100E400000DB7047C1F89830C1F8A0000133F6E725
:100E500000ED00E010B572B6002484F31388FFF7AC
:100E6000E7FF23464FF0FF300C4A03F12001013326
:100E7000102B42F82100F8D100234FF0FF30074A31
:100E800003F160010133102B42F82100F8D162B662
:100E9000BFF34F8FBFF36F8F10BD00BF00E100E0C5
:100EA000084B9B6883420BD1EFF3058343B1064B9C
:100EB0005A6842F080525A605A6A22F400425A62DA
:100EC00003F040BF3408002000ED00E016498A68B6
:100ED0004FF030001044EFF3098C80E8F01F202021
:100EE00080F31288BFF36F8F104F4FF000664A698E
:100EF0008A603E60D2F884000D4C2060D2F88800F1
:100F00000023C2F8883080F3118802F1300090E8A5
:100F1000F01F8CF3098802F1000004B505F055FFBD
:100F2000BDE80440704700003408002004ED00E0F4
:100F3000A00500201EF0040F0CBFEFF30880EFF3B4
:100F40000980816911F8021C0229FFD001B572469F
:100F500005F02CFF01BD00BF00B2002807DB012314
:100F60004109034A00F01F00834042F821307047D6
:100F700000E100E000B200280CDB01220649430931
:100F800000F01F008240203341F82320BFF34F8F31
:100F9000BFF36F8F704700BF00E100E0054B4209CF
:100FA00053F82220012300F01F0003FA00F0104044
:100FB000704700BF00E100E000B2002801F101012C
:100FC000ACBF00F16040064B4FEA4111C9B2ABBF64
:100FD00000F5614000F00F0080F8001319547047CD
:100FE00014ED00E0044B054A23F07F039360BFF348
:100FF0004F8FBFF36F8F70470000000000ED00E0DF
:1010000008B5FFF7EFFF074AD2F8883023F47003E2
:10101000C2F8883003F08CF903F0C8FF00F046F8FE
:1010200003F0C6F900ED00E042F8203C009B0B49BC
:1010300042F81C3C019B21F0010142F8183C029B44
:1010400042F8081C42F8143C4FF0807342F8043C0C
:101050000023203A0265C0F8883070475908000024
:1010600000B50B4B15469860D0F88420094B0E460E
:101070001A60436F83F30B882C4686F3098800209F
:10108000054B98472046002100220023034C2047AF
:1010900034080020A0050020D36D0000590800008E
:1010A0001022014B1A61704700ED00E00023202060
:1010B00040F20F1210B5044CE1180133934281F84D
:1010C0000003F9D110BD00BF00E100E008B5EFF367
:1010D0000583064A103B02EBC30152F8330049680E
:1010E0008847BDE80840FFF717BD00BF0C8300002C
:1010F0001FB5094C094A23460121094800F0FAF8B6
:1011000000230393074B0121E41A01A801930294E1
:1011100000F0FAF804B010BD00F00220000000203A
:10112000F88C0000D002002010B50C7A0B6804F097
:101130001F0223F01F031A43CB68640923F01F0327
:10114000054943EA440343F00103C1F89800C1F89C
:101150009C20C1F8A03010BD00ED00E010B5074B99
:10116000D3F89030C3F30723013B984202D8FFF72E
:10117000DBFF10BD6FF01500FBE700BF00ED00E0E6
:101180002DE9F04F0F46144606464FF000084D4D2E
:1011900085B0B84580F29280D6F80490B9F1000F7E
:1011A00036D0B9F11F0F40F2878019F01F0F40F0C1
:1011B0008380D6F800A01AF01F0F7DD1504605F0AD
:1011C0002BFE834609EB0A00013805F025FE834516
:1011D00072D11BF1160F6FD05C456DDDC5F898B06C
:1011E000D5F89C10C5F898B0D5F8A03021F01F01B3
:1011F00043F01F0AD6E900321A44994202F1FF393E
:101200001ED1CA4508D131465FFA8BF005F00DFEBC
:1012100008F101080C36BCE73146C5F898B0D5F89E
:101220009C3022F01F0203F01F031343C5F89C30CB
:10123000E0B205F0FAFD10F1160F3DD0441CE7E7CF
:10124000C5F898B0D5F8A020013B23F01F0302F0A9
:101250001F021343CA453146E0B2C5F8A030E8D0BA
:1012600005F0E3FD10F1160F26D0C5F898B0D5F8BB
:101270009C209DF808300AF1FF3A62F304038DF8D0
:101280000830D5F8A0309DF808205B0863F34712BA
:101290008DF80820D6E900321344009323F01F0391
:1012A0005344A3EB0903013023F01F036946C0B286
:1012B0000393FFF753FFBEE76FF01504204605B018
:1012C000BDE8F08F00ED00E00522044BC3F8942048
:1012D000BFF34F8FBFF36F8F704700BF00ED00E08B
:1012E000BFF35F8F0022024BC3F89420704700BF0A
:1012F00000ED00E010B5034C2278FFF741FF2070AD
:1013000010BD00BF680E00202DE9F74F294D8A4619
:1013100006464FF00008AB46274FD0451BDAD6F8FB
:101320000490B9F1000F3FD031680846019105F0F3
:1013300073FD0199044609EB0100013805F06CFDCD
:1013400084424FF014021D4B08D002FB08F36FF0EB
:1013500015024BF8032003B0BDE8F08F14F1160F0F
:101360002C60F8D01978A142F5DD02FB08B0C7F86F
:101370009840C7F89840D7F89C4000F10801007BDE
:1013800064F304000871D7F8A0000C79400860F3FA
:1013900047140C71D7F89C1021F01F016960D7F831
:1013A000A01021F01F01296108F1010814350C3645
:1013B000B3E700BFA405002000ED00E0680E0020A8
:1013C000F0B54149414CD1F890302568C3F307236B
:1013D0009D4287B075D80020FFF782FF3C4BC1F8D3
:1013E000C030854216D13B4C01A82570FFF75CFB4D
:1013F00000250646384FAE4213D1002023783249EB
:10140000D1F89020C2F30722934254DBFFF75CFF30
:1014100000202FE0616801EB0011FFF785FE01302D
:10142000DFE70199280101EB0513DA683A40B2F5CC
:10143000001F21D0B2F5800F2BD0B2F5801F38D11C
:101440005A689B680958013B22F01F0003440120A1
:10145000844623F01F0340EA4C10CDE902218DF8A9
:10146000100002A920780593FFF778FE00281DDA06
:101470006FF0150007B0F0BD5A689B680958013B32
:1014800022F01F0003444FF0020C012023F01F0341
:10149000E1E75A689B680958013B22F01F000344AA
:1014A0004FF0000C062023F01F03D4E7237801330C
:1014B000237001359FE7C1F89830C1F8A0000133CF
:1014C0009EE74FF0FF30D5E700ED00E0048D00000F
:1014D000AAFF4400680E00200000F0FF08B5024B90
:1014E0001B689847002008BDB8050020034B044A3C
:1014F0001860937843F0020393707047B80500209A
:101500008C01002008B50649064821F00701C1F109
:10151000005202F53C3205F0C0FA002008BD00BFC1
:10152000B71F0020BC05002008B5234A234B1A60D2
:1015300000F042FB4FF47A612148D0F82436C3F31F
:101540000802C3F309434B4382F480721D49883279
:1015500001FB02334FF4FA215B00B3FBF1F201FB14
:1015600012331949B3F57A3F28BF0132C1F8042973
:10157000D0F820364FF47A60C3F30802C3F309436E
:10158000434342F6041082F4807202F2172200FBF9
:1015900002334FF47A701B0AB3FBF0F200FB1233F4
:1015A000B3F5FA7F4FF0010328BF0132C1F81C27C1
:1015B000C1F80036002008BD0020A107F801002076
:1015C00000C0FF00102700800000125048B1054BFA
:1015D000054A1B68B3FBF2F35843044B43F0010385
:1015E00018477047F801002040420F00408C00006F
:1015F00014280ED8084A12F8103053B102EB4002FA
:10160000527832B10868434393FBF2F300200B6039
:1016100070476FF015007047C0A3000030B50C464E
:1016200087B01422002101A806F0EEFC217901F018
:101630001F03C1F30402072B8DF8142003D96FF0A8
:10164000150007B030BD6279501E0B28F7D83B4813
:1016500011F0200150F8222003921FD0A2790C2A09
:10166000EDD8DAB150F8222004922278023A082A02
:10167000E5D801A050F822F0A31600001D170000C5
:101680002117000025170000291700002D17000062
:101690003F16000031170000A91600004FF0FF327E
:1016A000E2E707228DF804206278042A04D0052A94
:1016B000C5D101228DF805206288002A3AD0C2F3F4
:1016C0000D00920B012A14BF01224FF47A7210FB15
:1016D00002F07D2280B2B0FBF2F2013A92B2B2F592
:1016E000A07FACD27C28AAD90125ADF80620144AE7
:1016F00005FA03F392F86800DBB2E9B1A17909B108
:101700008DF8085020EA030301A882F8683002F03F
:10171000A1FA0C4B984292D1002092E70622C1E731
:101720000522BFE70422BDE70322BBE70222B9E797
:101730000122B7E74F22D7E70343E5E7308D0000EA
:10174000400000200000AD0B08B500220C490D48F8
:1017500006F049F9002002F033FA0B4B98420CD105
:1017600000220121D520FFF727FC0848C36813B9E0
:10177000043002F04DFF002008BD6FF00400FBE7CD
:10178000FD170000B80000200000AD0B4000002055
:1017900008B5094B014693F83C2042B1986B08B15B
:1017A00003F000FE0548BDE8084002F031BF00B17B
:1017B00058630348F7E700BF4000002044000020C2
:1017C0005C00002008B50A4B93F8523023B1BDE805
:1017D0000840084802F0E0BB02F024FB064B9842A8
:1017E00005D0BDE808406FF00400FFF7D1BF08BD89
:1017F000400000202D1A00000000AD0B074BD3E87D
:10180000EF2F511CC3E8E01F0028F8D10AB9FFF7F9
:10181000D9BF6FF00F025A63704700BF400000202D
:101820002DE9F043476806467B1EFE2B85B004D9A0
:101830006FF0150005B0BDE8F08300252C4627FAAF
:1018400005F3DA0706D502F015FAE840C307EFD52D
:101850000134E4B20135082DF1D1002CE8D0337CFD
:10186000083B062BE4D801A252F823F0A718000089
:1018700031180000AB180000311800008918000072
:1018800031180000AF1800000221012C727C10D02A
:10189000002ACDD10020504B83F8B00038464F4B82
:1018A00002F0EEF92AE00021EFE70121EDE7032144
:1018B000EBE7082ABCD8DFE802F0050505050505B9
:1018C000050505003368002BE4D0186801387F282F
:1018D000E0D88DF8082000228DF809201B683E4AC8
:1018E0001B01013BADF80A300123384682F8B030C5
:1018F0008DF80C3002AA394B02F0F2F9384B9842BD
:1019000096D13268630012B1928902FB0333F26808
:101910009A425ED3304D214685F86940B06895F80B
:10192000B030A84628672BB133689B89013313FB7D
:1019300004F189B202F02EFA294B814698427FF4D5
:1019400077AF3746274C0FCF0FC43B680027236083
:101950006F633368C3B30FCB261D86E80F006B6D32
:101960002E64A5F864707BB3D8E8EF3FC8E8E27F47
:10197000002AF9D195F8B020EAB96B6D1F3342F116
:1019800000025B0943EAC2635209CDE9003204F167
:1019900028000022002303F0CBFC95F83C30B3B9BB
:1019A0004FF0FF324FF0FF330F4802F06BFE00B1F3
:1019B0006863686B3EE702F035FA4845EDD06FF09A
:1019C0000400FFF7E5FEE8E7FFF7FCFEE5E700208F
:1019D00030E76FF00B002DE7400000202D1A0000CB
:1019E0000000AD0B800000205C00002070B50C46AC
:1019F00016464FF0FF324FF0FF330A4802F042FE26
:101A00000123094D204685F83C30AE63FFF708FFFF
:101A100095F83C30044603B110B1024802F0F8FDDD
:101A2000204670BD44000020400000202DE9F04118
:101A30000778002F40F08680494C626C94F868C0AB
:101A400025461CEA020F0AD10022464BC3F80025A6
:101A5000236C6BBB0020BDE8F041FFF799BE01236A
:101A6000B0F808E0266F4FEA4E0ED0B218420AD006
:101A700094F8B0200CEA030192B121B132460EEB8A
:101A80000601914204D15B009BB26345EED9DBE7CE
:101A900032F9028BB8F1000FB8BF22F8027CF0E7F0
:101AA00021B1B6F900100029B8BF32800236EAE74A
:101AB000A36DB4F8642033B12B492C489847012812
:101AC00020D0022833D0B4F86430B4F860209A42B1
:101AD0002DD90133A4F8643094F8B030B3B9236F32
:101AE00094F8692003EB4203236794F86910206F90
:101AF00002F050F91E4B984208D06FF00400FFF737
:101B000047FE03E094F8B030002BEED0636D1BB9B4
:101B1000BDE8F041FFF756BED5E8EF3F5A1EC5E8D5
:101B2000E12F0029F8D1012BF2DCBDE8F081636DD3
:101B3000002B8FD094F8B030002B8BD10D4805F0DE
:101B40005EFF87E7022F07D102F06CF9084B98423D
:101B5000EBD06FF004007EE7052FE6D17AE700BFF7
:101B60004000002000500D5080000020E88200005E
:101B70000000AD0BB800002038B50C464FF0FF3226
:101B80004FF0FF330A4802F07DFD0023094D204647
:101B900085F83C30AB63FFF743FE95F83C300446D4
:101BA00003B110B1024802F033FD204638BD00BF3A
:101BB00044000020400000200122024BC3F804240E
:101BC000704700BF002008E0084B70B5C31A0D46EF
:101BD00007499B10044659434022064805F04CF93A
:101BE0002B4601462046BDE870401847DC05002022
:101BF000B76DDBB680810000402373B50B4C0093BA
:101C0000041B0B460D460A49A41061430646094AC7
:101C1000094805F05DF9011E05DA30462B4602B091
:101C2000BDE87040184702B070BD00BFDC05002061
:101C3000B76DDBB63B6F00008081000010B5EFF39D
:101C40001184202383F31288BFF36F8F074A136830
:101C500023F00201DB07116002D4012005F057FCDC
:101C600084F31188BFF36F8F10BD00BF2C060020D6
:101C700070B500220121044640F20510FFF79CF9DF
:101C80000F4800F09FFE0F4B984215D100F0AAFEBE
:101C900026690D49304604F0B6FF00280BDB01250C
:101CA00035642469084904F11C0004F0ACFF0028E5
:101CB00001DB0020E56470BD6FF00400FBE700BFAE
:101CC0005F6F00000000AD0B608D00007FB500224B
:101CD0000123CDE9022304ABCDE90433094A6B4665
:101CE000CDF800D0CDF804D005F020F9002805DBB0
:101CF00043F609520023684602F0C4FC07B05DF8C1
:101D000004FB00BF596F00000C22104B014602FB80
:101D10000033002030B4D3E90E529863EFF3118002
:101D2000202484F31288BFF36F8F1C6C04F0C0046E
:101D300044F002041C6480F31188BFF36F8F1DB15F
:101D40002B4630BC0248184730BC7047DC050020E9
:101D50008081000010B4EFF31182202383F31288F6
:101D6000BFF36F8F1648016841F002040460C80792
:101D700007D482F31188BFF36F8F012010BC00F0ED
:101D80004DBE1049D1F80C14C903F2D5EFF3118000
:101D900083F31288BFF36F8F0B490B6C03F0C00302
:101DA00043F002030B6480F31188BFF36F8F82F35B
:101DB0001188BFF36F8F002010BCFFF7A5BF00BFD5
:101DC0002C06002000E01050DC0500202DE9F04139
:101DD000012207463449D1E8EF3FC1E8E02F00284F
:101DE000F9D133B9314932484B60CB608A6004F095
:101DF0001DFF7B1E012B28D8012F06D12D4BD3F8B8
:101E0000503403F00303012B1FD005F0BAFC054644
:101E1000E8B9294B1B78D3B104220646254BC3F8F9
:101E20000823244CDFF89480D4F84C24D4F84C34A4
:101E3000D20315D503F00303012B01D0012F0FD1DD
:101E400065B386F31188BFF36F8FBDE8F081EFF3C0
:101E50001186202383F31288BFF36F8F0125E0E7FB
:101E6000BDB1304604F0C9FFD4F8403413F0FF038D
:101E7000DAD1D4F80821002AD6D0C4F80831D4F831
:101E8000083120220123C4F84034C8F8A02123617E
:101E9000CAE70021202002F0FDFEE5E70422054B01
:101EA000C3F80423D1E700BFD8050020C8050020EF
:101EB000F805002000E010506E0E002000E100E068
:101EC00008B5074805F012FC38B10648FFF70EFBCD
:101ED0000448FEF7A3FC002008BD6FF01200FBE7EA
:101EE00034820000E91E00000A2838B50446074D78
:101EF00004D1AB680D2128465B689847AB6803485E
:101F00005B68E1B29847204638BD00BF34820000CC
:101F100070B5456806462B69E3B11035284601F0D7
:101F20000DFA0446B0B90146284601F0C7F90E4B38
:101F3000984215D1224628460C4901F093F92246D1
:101F40000121DB20FFF738F82246012140F20D1075
:101F5000FFF732F83046BDE87040054904F000BF95
:101F60006FF0040070BD00BF0000AD0BFD2000004D
:101F70000D7000002DE9F04340F206354668D006AA
:101F800048BF0320337B02EA050558BFC2F3401067
:101F900087B001F01F07B5F5837F144647EA431762
:101FA0008DF8030045D00FD8062D44D007D8B5B121
:101FB000022D14D06FF0150007B0BDE8F083B5F521
:101FC000807FF7D101250AE040F20222954234D009
:101FD000B5F5407F33D0B5F5007FEBD10425220362
:101FE0002FD5012372688B405360326982BB5F2F0B
:101FF00007F01F034FEA571177D83E4A52F82120C5
:1020000084F4803102EB8302D2F88030C1F30041C6
:10201000C4F3404423F4706344EA410423F00F0303
:102020001C4344EA800444EA0524C2F880400020AE
:10203000C2E70925D3E70825D1E70625CFE705251F
:10204000CDE7630341BF012372688B409360CCE707
:102050001036394630460DF1020201F011F914F440
:10206000403F80460CD13946304605F015FB224BE7
:102070009845DCD130469DF8021001F06DF9D6E7A5
:102080004FF0000901AB3946304603AACDE90439C7
:10209000CDE90199CDF80C9000F064FF164B984201
:1020A00088D114F4003315D09DF8033084F48034C3
:1020B000C4F300448DF80E3039464B46304603AA2F
:1020C0008DF80C508DF80D4001F038F80A4B98420D
:1020D000CDD06FE7CDE9043339460DF10303304627
:1020E00003AA039300F03EFFF0E7203352F82330B9
:1020F000FFDE00BF7C8D00000000AD0B4209022A0C
:10210000034670B503D0012A18D0CAB170BD0E4E77
:10211000326951680029F9D0012503F01F030C68CA
:102120009D400029F2D08A682A4002D030464B6890
:1021300098473CB1236821461C46F2E7034EE7E787
:10214000034EE5E72346F6E7EC810000C881000076
:10215000A4810000F0B51646426801F01F04107B10
:1021600087B044EA40141069002871D0B6F5001F0A
:1021700002F1100506D12146284605F08FFA00200D
:1021800007B0F0BD0027B6F5800F01A801974760A2
:102190003BD1B3F1007F14BF052304238DF8043035
:1021A0000023CDE90403039393680DF1030723FA99
:1021B00001F111F001013DD1B6F1A07F3AD104F057
:1021C0001F035F2C4FEA541003F1200346D8254A21
:1021D00052F8202052F82330DB072BD43A46214610
:1021E000284601F04DF8204B984219D0029721461D
:1021F000284603AA00F0B6FE1C4B98422BD10122C0
:102200002146284601F0B8F8B9E7B3F1C06F05D010
:10221000B3F1007F14BF01230223BFE70323BDE70F
:102220003946284601F0A0F8104B9842DED06FF0F6
:102230000B00A5E73A462146284601F021F80B4B52
:102240009842D4D128469DF8031001F085F8CEE7D6
:102250006FF0850094E76FF0150091E751F8233097
:10226000FFDE00BF7C8D00000400AD0B0000AD0B55
:1022700010B50B4C204605F039FA68B12269A16807
:102280001368204623F0020313600B68002201212B
:10229000984700EAE07010BD6FF01200FBE700BF46
:1022A000A4810000036803F01F025F2B02604FEA65
:1022B00053129ABF024B53F822000020704700BF10
:1022C000D08D00002DE9F04F1646834640F2FF18EE
:1022D000DFF89091DFF890A185B000EB81015945BE
:1022E00003D1002005B0BDE8F08FDBF80030C3F368
:1022F000C322082AC3F3080400F2B180444508BF92
:102300004FF0FF34B3F1D05F19F802704FEA136257
:1023100010D2192A10D8DFE802F012191F3722282C
:10232000370F0F0F0F3A670F0F0F0F0F0F0F6A6D59
:102330007085888B382A7ED06FF08500D2E7C6F88A
:102340000446621C63D10BF1040BC8E7C6F80C46C7
:10235000631CF8D0002563E0C6F81046F1E7631C63
:10236000C6F80046EFD0002504E0C6F80446651C18
:10237000E9D0012503A80394FFF794FF0122039BF2
:1023800002FA03F383600BE0C6F80846E0E7C6F8FC
:102390000046002FDCD1671CD5D0002508272A462F
:1023A000DBF80030039403F40040002818BF00223B
:1023B00003A818BF012501930092FFF773FF039C48
:1023C000019B00EB8400D0F88040C3F3412C009ABD
:1023D0003B0243EA8C03134304EA0A04234343EA1F
:1023E0004503C0F88030AEE7C6F80446D1E7C6F82A
:1023F0004045BCE7C6F84445AAE7C6F86045601CFE
:10240000DBF800309FD0C3F30043002BB1D001258F
:1024100003A80394FFF746FF039B05FA03F3436009
:102420002A46BDE7C6F86445E9E7C6F86845E6E729
:10243000C6F86C45E3E703A80394FFF733FF039B5B
:10244000621C00EB8300D0F8803023F0E04343F0BF
:102450008043C0F880303FF476AF0125E0E76FF0AD
:1024600015003FE723A40000F0F0FCFF38B5054657
:1024700044680121E06804F0A1FF6B681968636992
:10248000C1F82435E28BA38BA07E1343228C134327
:10249000628C1343627E9BB20243207E024313434D
:1024A000C1F86C3569680B68D3F8002242F48022C9
:1024B000C3F800220822C3F800254A6A0121C3F8A4
:1024C0003C270022C3F840271965D3F830110029B2
:1024D000FBD0C3F800252846BDE83840014904F088
:1024E0003FBC00BF177400002DE9F34104460D46C0
:1024F000476805F046F9A8B92B4B1B7893B14FF00C
:102500002008642663681B68D3F83031002B39D16A
:10251000012004F0FAFF013EF4D10021202002F056
:10252000B9FBEEE72022EFF311831E4682F31288F7
:10253000BFF36F8F61680968D1F8301121B983F357
:102540001188BFF36F8FEEE77B6A20461D706368CA
:102550000DF107017F6A1D6804F0EDFB9DF807206F
:102560004AB90123C5F83C77C5F84037C5F8302192
:10257000D5F830212B6586F31188BFF36F8F02B039
:10258000BDE8F081EFF311831E4688F31288BFF394
:102590006F8F62681268D2F83021002AD4D183F399
:1025A0001188BFF36F8FB8E76E0E002070B5144628
:1025B0001D4604F091FFA042A94113D30A4AD2E973
:1025C0000061A41B24F01F0365EB01009B1941EB84
:1025D0000001C2E90031640944EAC060BDE870400E
:1025E00002F0C0BD70BD00BFD802002010B50022AF
:1025F0000121E420FEF7E0FC174A0020D2F818374A
:1026000023F44033C2F8183700F094FF134B04460C
:10261000984208D10120124901F01CF8A04205D0CF
:10262000104B984214D04FF0FF3010BD04F054FF0F
:1026300067220D4B20F01F00C3E900010B4BC3E9DB
:1026400000010B4B02201A60FFF7C0FB0020ECE7F3
:102650006FF00B00E9E700BF00200E500000AD0B4B
:10266000F40100200200AD0BD8020020D0020020AF
:10267000C406002008B504F02FFF054AD2E9003255
:10268000C01A61EB0201400940EAC16008BD00BF09
:10269000D802002037B5431C0CBF6FF0004420EA7D
:1026A000E07404F019FF0D4BD3E90025801A61EBAB
:1026B00005032021C4FB0103402873F100042CBF53
:1026C00020F01F01002352184FF0010145EB0303D6
:1026D0000091034801F022F803B030BDD802002079
:1026E000EC010020064BD3F840231C2A05D1D3F877
:1026F0004403431E5842584170470020704700BFB2
:1027000000C0FF0003689A070CD50368DB070DD5EE
:102710000922074BC3F80C250F22C3F80425012218
:102720001A60FEE7034B0360EF3B0360704700BF96
:1027300000801050F000FA5008B501233E4A3F488F
:10274000C2F800383E4AD2F840231C2A04BF3D4A52
:10275000C2F80C34FFF7D6FF0830FFF7D3FF08307C
:10276000FFF7D0FF0830FFF7CDFF00F5F470FFF75B
:10277000C9FF354AD2F88C3043F44063C2F88C303C
:102780000022D30003F57F0303F54043D3F8001480
:1027900001310AD0D3F8001439B1D3F80014013252
:1027A000D3F80434402A0B60EBD1234BD3F84024F8
:1027B000002A3DD0FFF796FF48B1214BD3F83423D0
:1027C000224B9A429EBF1C4B214AC3F84026FFF77A
:1027D00089FF18B11F4B204AC3F8AC27FFF782FFCF
:1027E00048B13422144BC3F82426D3F83C2622F4F3
:1027F0000022C3F83C26124BD3F840331C2B08D1DF
:10280000164BD3F80026D20744BF6FF00102C3F87D
:1028100000260323124A0C49C2F81835D1F88C302F
:1028200043F44063C1F88C300023C2F8A03508BDE2
:10283000C822C3F84024BDE70000125000C50D5067
:1028400000C0FF000030055000ED00E0001D0A1838
:1028500040E0A91E00A0085078000A0400E01050D3
:1028600000B0045030B50468ACB1B4FA84F301226E
:10287000C3F11F03DBB29A4024EA0202D0E8EF5F03
:10288000A54204D1C0E8EC2FBCF1000FF6D1EAD18B
:1028900002480B7030BD0248FCE700BF0000AD0BE2
:1028A0000200AD0B10B50368CB40DB0710D4012349
:1028B0008B40026843EA0201D0E8EF4F944204D112
:1028C000C0E8EC1FBCF1000FF6D1F2D1014810BDF9
:1028D0000148FCE70000AD0B0400AD0BF7B5054661
:1028E00048B3012825D104224FF480737120324966
:1028F0000024C1F80803012002F1A04203F1A04323
:1029000003F5871302F5871210601C601B682B4BC0
:10291000D3F840331C2B13D0854201D10DF10704AD
:10292000002342F21076244F8DF8073065B1012D57
:102930002ED003B0F0BD14224FF484730420D6E7E8
:10294000012DEDD1CD60E9E7D7F84C3403F48033A5
:102950006CB9002BEDD0012004F0D7FD013EF3D17E
:10296000E7E7012004F0D1FD013EDFD1E1E7D7F830
:102970004C2402F003022270002BDAD09DF80730BD
:10298000002BEED0012DD4D100220D4B5A71D0E78F
:10299000D7F80C3403F480333CB9002BF4D0012079
:1029A00004F0B3FD013EF3D1C3E7002B0CBF0123BC
:1029B00000232370E2D1E7E700E0105000C0FF00E1
:1029C000C8060020044B1A7922B9012218601A7136
:1029D0000248704702487047C80600200000AD0B4F
:1029E0000C00AD0B08B50A4B1B6843B140F2051053
:1029F000FEF7D4FA18B940F20510FEF7ADFA00223E
:102A0000044BC3F840240122034B1A7008BD00BFD9
:102A1000C806002000E010506D0E002010B510B167
:102A2000012845D010BD324BD3F84C14D3F84C24B8
:102A3000C80324D502F00303012B04D013B10020F6
:102A4000FFF74CFF00232A4A0420C2F8403410222A
:102A50004FF48473002103F1A04303F58713196039
:102A60001C68012402F1A04202F587121460214A79
:102A70001268002A36D01E4BC3F80403D2E7D3F8FD
:102A80004824D107DED5D3F850249207D7D4194A69
:102A900012681AB10422C3F80423C3E7D3F808214B
:102AA000002AFBD00022C3F80821D3F80831B9E787
:102AB00000220F4BC3F81021D3F81011C3F81821CE
:102AC000D3F81811C3F81421D3F814210A4AD2F804
:102AD00040231C2A04D000224FF480737120B9E7F0
:102AE0009860F8E71A68002AFCD019601B6899E71B
:102AF00000E01050C806002000C0FF0070B500259F
:102B00001E4C1F4ED4F80C3303B970BDB3FA83F3D7
:102B1000C3F11F039A0002F5807292B202F1A04243
:102B200002F58712156012680122D8B202FA03F387
:102B3000DBB2102BC4F8083311D0402B1BD0042B70
:102B400016D1D4F84C14D4F84C14890710D1C4F819
:102B50004024C4F804332261D4F80C33D4E70223B0
:102B60007371C4F81451D4F814312023C4F8043319
:102B700033689847F0E77571FAE700BF00E010503E
:102B8000C8060020036803F01F025F2B02604FEAB3
:102B900053129ABF024B53F822000020704700BF27
:102BA000548F0000034A4309D35C00F01F0018440F
:102BB000C0B2704769A4000070B505460846FFF72B
:102BC000F1FF3C212A79184B01FB0202083233F84D
:102BD0001200C10526D578240026C0F3432120F435
:102BE000F85023F812002A7904FB02340E3434F82A
:102BF000020F10F4807F03D0C0F34320814211D034
:102C00000136232EF3D10020C2EB02120A4443F80E
:102C1000320078202A79BDE8704000FB0230603035
:102C2000FFF740BE70BD00BFD0060020F0B50646DD
:102C3000002487B0114F019117F8012B06AB03EB6D
:102C4000D20313F8143C02F00702D34013F001033F
:102C500006D10134032CEFD10023184607B0F0BD94
:102C6000074A03AD07CA85E8070055F824100A6A29
:102C700046F824200A62002AEBD0EEE779A400008F
:102C8000208C000010B504460846FFF78BFF3C235C
:102C900003FB0400024B083033F81000400B10BD5A
:102CA000D006002010B504460846FFF77BFF3C2302
:102CB00003FB0400034B083033F81000C0F340005E
:102CC00010BD00BFD006002010B504460846FFF72F
:102CD00069FF3C2303FB0400034B083033F810006A
:102CE000C0F3401010BD00BFD006002078232DE9AE
:102CF000F04F6F4C0E460C1BB4FBF3F4D0F81413DA
:102D0000DFF8B0B1C9B28BB041F400315BF83420C8
:102D1000009004F075FC8103054638D50023E700D8
:102D20000BEBC404CDE907330993636807A8194680
:102D30000193FFF77BFF3B1D03934FF0000A5E4BAF
:102D40000DF11C090293029A12F8013B0292039AB8
:102D500002EBD3021BF8022003F0070322FA03F36D
:102D6000DA071AD40AF1010ABAF1030F09F10409CA
:102D7000E9D14FF400310022009804F041FC0199A0
:102D800007A8FFF753FF0028D7D125F40035012409
:102D9000002D76D10BB0BDE8F08F484B534404931F
:102DA000D9F800100029DDD091FAA1F1B1FA81F132
:102DB000049B1C7841EA44142046FFF7F3FE0830D8
:102DC00036F81080C8084FEA98030593012319F8D4
:102DD000002001F0070103FA01F122EA010209F8DB
:102DE000002006A80694FFF7CDFE069A059B203228
:102DF00050F82220C8F382075B07B846C2F30142AD
:102E000023D53046D7B22146424604F0DAFB06A865
:102E10000694FFF7B7FE069B203350F82330C3F328
:102E200001439F4207D10021204604F0BBFB3946F5
:102E3000204604F0B7FB06A80694FFF7A3FE012284
:102E4000069B02FA03F30362AAE7022A0DD10321CB
:102E5000204604F0A7FB07F00503012BEBD1424607
:102E60002146304604F0ADFBE5E7022120460592FD
:102E700004F098FB032FF2D0059A032ADBD1022F2E
:102E8000ECE795FAA5F3B3FA83F3009904FA03F299
:102E900025EA020503F5A27251F8222006EB43034E
:102EA0003046B3F86410C2F3014204F08AFB6FE7C6
:102EB000D0060020608F000079A4000079A40000F3
:102EC0002DE9F74305460846FFF76CFE3C222B79B7
:102ED000204F02FB0303083337F813300E46DB079D
:102EE000044635D5284604F0B2FB95F804903146E7
:102EF0004846FFF7E9FE60B14846FFF7C3FE0022EF
:102F0000D5F8008000B208EB8003C3F81025C3F8A1
:102F1000102528463146FFF74FFE3C222B7901A8A9
:102F200002FB03440023083427F814300196FFF70E
:102F300029FE019B00EB8300D0F88020064B134054
:102F400043F00203C0F88030044803B0BDE8F083CA
:102F50000348FAE7D0060020F0F0FCFF0000AD0BBC
:102F60000400AD0B2DE9F04F9046044685B00846AD
:102F7000FFF718FED8F800900F4606462579B9F1FC
:102F8000000F23D02846FFF78DFE18B12846FFF723
:102F90009BFE58BB00230DF10F02CDE900338DF8E5
:102FA0000E308DF80F300DF10E014B46384604F00F
:102FB000B0FA3C2303FB05635D49083331F8132065
:102FC00022F0020242F0010221F81320D8F8043066
:102FD000002B3FD03946207993F80090D3F804A015
:102FE000FFF760FE20B1BAF1000F26D0514835E05E
:102FF0003C226A43DFF838E102EB060C0CF1080CC6
:103000003EF81C3023F02003DB04DB0C2EF81C30D0
:10301000BAF1000F11D0B9F1030FE7D8D8F80410B6
:103020002068496891F800A000EB8A00B9F1000F10
:1030300017D1C0F81095C0F810953C2303FB056527
:103040003B4A083532F8153023F01C0343EA890364
:1030500022F81530D8F8083063BB374805B0BDE812
:10306000F08FD0F810B552442BF0030BC0F810B518
:10307000206843EA4A3300EB8A01D1F810050EEBD1
:10308000420220F4473020F47C70C1F8100541F66C
:10309000F070D1F810B500EA071040EA094040EAA4
:1030A0000B0043F02003C1F81005A2F864702EF85D
:1030B0001C30C2E73946D3E900852046FFF77CFD86
:1030C000B8F1000FC9D078232079194F4343FA187B
:1030D000FB58984504D153689D4201D100220CE071
:1030E000782303FB00700DF10F016030FFF7BAFB8E
:1030F000114B9842B2D19DF80F203C212379C3EBAC
:103100000313134447F833802379C3EB03131344A9
:1031100007EBC3035D60237901FB0363083337F8D2
:10312000131041EA422242F4807227F8132094E7F8
:10313000D00600200400AD0B0000AD0B2DE9FF47C9
:103140000546084617461E46FFF72CFD89460446ED
:1031500087B395F804804046FFF7A4FD18B94046B0
:10316000FFF7B2FD68BB3C2303FB0848DFF8E4A08F
:1031700008F108083AF8183013F01C0F02D07B78D9
:10318000012B1ED001238DF80F3000237A1CCDE9CE
:1031900000734846BB1C0DF10F0104F0BAF93C2244
:1031A0002B7902FB034308333AF8132042F0030261
:1031B0002AF81320002E4BD049462879FFF772FDDC
:1031C00018B9254804B0BDE8F08700214FF03C0C49
:1031D00030782B68820003EB8003C3F81015C3F826
:1031E00010152B791B490CFB0343083331F813707E
:1031F00027F4604727F0200721F8137077783FB352
:103200002B68B6781A44D2F810E5144B3F040EEA46
:103210000303C2F8103541F6F07307F4403703EAB0
:1032200009133605D2F810E53B4306F48016334304
:1032300043EA0E03C2F810352B790CFB0344083423
:1032400031F8143043EA403343F0200321F81430BE
:103250000348B7E7D00600200400AD0B0FE0ECFFF9
:103260000000AD0B30B578250479044B05FB043420
:10327000A160017905FB0133DA6030BDD006002082
:1032800070B5067914463046FFF71EFD68B1084652
:10329000FFF788FC3C2303FB0600054B083033F89E
:1032A000103004485B0B237070BD0348FCE700BF7F
:1032B000D00600200000AD0B0400AD0BF8B50646AB
:1032C00007797820194D00FB075393F8744054BBDD
:1032D000184646222146103004F096FE3179144AF1
:1032E000336852F8316021468E4212D10022C3F376
:1032F0000830C3F844210130D3F84421FDF72CFEF7
:10330000782303FB075501230A4885F874302B66A0
:10331000F8BDCAB2920002F58070442A04BF1C5066
:103320001A580131E0E70448F2E700BFD006002058
:10333000608F00000000AD0B0C00AD0B782102790E
:10334000044B01FB023393F87400003818BF0120CE
:10335000704700BFD00600200079024B03EB8000CD
:10336000FFF7A0BAFC0100200079024B03EB8000BC
:10337000FFF778BAFC0100202DE9F74390F804909C
:10338000044648461746FFF79FFC0D46266800B3E3
:103390004846FFF787FC8046D8B94846FFF772FCDD
:1033A00005B2AD0005F5807246F802802168B2587A
:1033B0002944D1F8102542F00102C1F810252FB19F
:1033C0000122216802FA00F3C1F8143303B0BDE80A
:1033D000F083D6F8143328469B035CBF4FF40033C8
:1033E000C6F81433FFF7DEFB3C22237902FB03000F
:1033F0000E4B083033F81030C3F38203042B11D086
:10340000052B11D001A80195FFF7BCFB019BC168FA
:10341000D94001F001010231284603B0BDE8F04374
:1034200004F0C0B80321F7E70221F5E7D006002039
:1034300001490248FFF75ABCD006002000A00D50F9
:1034400001490248FFF752BC4807002000C0105055
:1034500010B50024037A0D49CA181B0103F1A043DB
:1034600003F5622392F85420C3F82C450C2303FB88
:1034700002130468DC6042681A610122007A187540
:103480008B68824013438B6010BD00BFF8000020A2
:10349000074B027AD3F8101521F001010A43C3F853
:1034A00010250268C3F8A4264268C3F8AC2670470A
:1034B00000200E50012303FA00F010F0670F0AD02D
:1034C000064B5B68DB4303F067030342044B05488C
:1034D00018BF184670470448704700BFF800002026
:1034E0000000AD0B0400AD0B0800AD0B2DE9F0485A
:1034F000EFF31181202383F31288BFF36F8F4FF016
:10350000FF356FF04044094ED6E900BC5D4574EBD1
:103510000C07F9D3CCF31303C0E900B381F311888E
:10352000BFF36F8F0248BDE8F08800BF40270E5000
:103530000000AD0BF0B53C4D85B02C78002C6FD160
:103540003A4A01AB07CA83E8070039491846D1F85F
:10355000102522F00202C1F81025FFF799FF07237A
:10356000672202F001012144013BCCB24FEA520232
:10357000F7D1052C56D119464FF0010C2A4E0024E4
:103580006720CFB204E00CFA02F220EA0200013414
:1035900090FAA0F25FFA84FEBE45B2FA82F2F2D34C
:1035A0000131327505292A4482F8547006F10C065F
:1035B000E5D1012100241F489A0801FA02F212F015
:1035C000670F18BF1C500433302BF5D1E420FDF7F2
:1035D000C3FC174B1849D3F8102503F5C07322F02C
:1035E0000202C3F8902340F6FF72C3F8A82100221C
:1035F0001A60A3F5807004338B420260F8D1012475
:103600000B4B0E4A1C660E4B5D201B68B3FBF2F39E
:1036100058430C4B234398470B482C7005B0F0BD22
:103620000A48FBE70A48F9E7F80000202C8C000064
:1036300000200E5000210E50B0210E5040420F00CD
:10364000F8010020508C00000000AD0B0C00AD0B09
:103650000100AD0B73B52A4C054663680E4603F0B6
:10366000010304F1140101A80193FFF7FBF8254BB6
:1036700098423DD100233370636823F001036360F7
:10368000A36843F00103A3601F4BD3F810259607EE
:1036900032D4D3F8102542F00202C3F81025C5B188
:1036A000D3F8482712F0010202BFD3F8481741F0BF
:1036B0000101C3F84817144BD3F84017D3F8441747
:1036C0004C00F9D42AB9D3F8482722F00102C3F8F4
:1036D00048270E4B0E4A1B68B3FBF2F30A4A03EB72
:1036E00043135BB1D2F84017D2F84417490001D414
:1036F00002B070BD013BF4E70648F9E70648F7E77A
:10370000F80000200000AD0B00200E50F801002052
:1037100040420F000C00AD0B0700AD0B2DE9F0414E
:103720000446007A1D46FFF7C5FE1E4B90469842A0
:1037300006469DF8187031D12046FFF789FEEFF359
:103740001180202383F31288BFF36F8F227A164BE8
:103750009200134400221A60217AC5F3130509016F
:1037600001F1A04101F56221C1F82085C1F824557D
:1037700080F31188BFF36F8F87B10123227A0B4941
:1037800003FA02F2D1E8EF5F1543C1E8E05F0028D9
:10379000F8D1227A9340064AC2F824333046BDE875
:1037A000F08100BF0000AD0B00210E508001002011
:1037B00000200E50F7B5284B284CD3F82C6304F1A9
:1037C00088070EB903B0F0BD96FAA6F00123B0FA4F
:1037D00080F08340DA43224926EA0306231893F84F
:1037E0005450830019440C2303FB0543DB6873B377
:1037F000D7E8EF3F03EA020CC7E8EECFBEF1000FB7
:10380000F6D1C340DB0719D5020102F1A04202F54F
:103810006222D2F82435D2F82025D1F800C0BCF1BC
:10382000000FCED04FF0000CC1F800C00C2101FBFE
:10383000054529690091E9688847C2E705F10C034D
:1038400004EBC30C54F83320DCF80430E5E70A68D5
:10385000002AB6D00B60B4E700200E50F80000201C
:1038600000210E5010B5184BD3F80443E1040AD5DB
:10387000D3F830213AB10022C3F83021D3F83031E7
:10388000124B1B689847A2040BD50F4BD3F8342179
:103890003AB10020C3F83401D3F834310C4B1B6823
:1038A000984763040ED5084BD3F8382152B1002253
:1038B000C3F83821D3F83831054B0120BDE810405A
:1038C0001B68184710BD00BF00E01050C40700205F
:1038D000C0070020044B40EA0120C3F80005D3F8DC
:1038E0000024D207FBD5704700B0045030B50A4B16
:1038F000082493F8625001220023104203D015429D
:1039000008D00133DBB2013C4FEA4202F5D1034853
:103910000B7030BD0248FCE7C80700200000AD0B6B
:103920000400AD0B054B93F86000431E012B03D937
:10393000043818BF0120704700207047C8070020D6
:10394000002010B5154A1649C2F8000591F86140EB
:10395000D2F8043381F860400C6823F033030CB1D3
:1039600043F02303C2F81C01D2F81C41C2F818012D
:10397000D2F81841C2F80801D2F8082191F8652060
:10398000D00791F8662048BF43F08003D207034A6E
:1039900048BF43F04003C2F8003310BD00500D5043
:1039A000C807002070B5002301264FF0FF340D4AF0
:1039B00092F8621018B90BB182F8621070BD90FADB
:1039C000A0F3B3FA83F306FA03F5043342F8334065
:1039D00002EBC3035C6020EA0500012321EA050134
:1039E000E8E700BFC807002073B50023044601AA1A
:1039F0000E464FF48071019303F05CFE4FF48A7120
:103A0000204603F057FE4FF482710546204603F02E
:103A100051FE20B11EB115B1144BD3F8343601AAB2
:103A20004FF48471204603F045FE4FF48671204622
:103A300003F040FE4FF48871204603F03BFE0C4B30
:103A4000234083B14FF48E75294601AA204603F026
:103A500031FE291F0835204689B2ADB203F02AFE97
:103A6000B5F5AE7FF0D1019802B070BD00500D5099
:103A7000C0FF3F0010B5437802781B03120202F426
:103A8000E06203F4805344881343164A017C02EA3F
:103A9000044213438279120702F0E0421343427951
:103AA000D20202F4006213430279D20392B21343AA
:103AB0000A0102F1502202F55022C2F8183584683A
:103AC000094B0A1D43F83240C06803EBC202506044
:103AD000012202FA01F193F862200A4383F862207E
:103AE00010BD00BF0000FF01C8070020F0B5002591
:103AF000314C059E84F8655084F86650A5602561B8
:103B0000266084F86300A5832C4CC4F8F015C4F833
:103B1000F42516B32322C4F8002300254FF0010C2E
:103B2000254F264E0CFA05F2024005F1510417D13B
:103B3000210106EB04147250626006EB0514D4F800
:103B40001815013521F4006141EAC222082DC4F89C
:103B5000182507F10807E5D1F0BDC4F80063DCE7DC
:103B6000D7E90821B2F1FF3F23D05FEA123E05BF3B
:103B70004FEA521E02F01F02A2F5805242EA0E22C4
:103B800014BF42F0004242F080424FEA041E46F861
:103B90000E204A1C0FBF00214A0901F01F0141EA13
:103BA000022118BF41F0804106EB04141A466160FF
:103BB000C3E70022E9E700BFC807002000500D500E
:103BC00070B51F4D95F86040002C37D10126FF20BD
:103BD00085F86060FFF7E6FE1A4B1B49C3F8004109
:103BE000D3F80021C3F80441D3F80421C3F81041ED
:103BF000D3F81021C3F81441D3F814311C239A08C8
:103C000006FA02F212F0330F1FBFA3F1AF22A2F5A2
:103C10007202146012681A1F920806FA02F212F079
:103C2000330F1CBF5C505A5808335C2BE7D1D520AA
:103C3000FDF792F9002305482B6070BD0448FCE7AE
:103C4000C807002000500D50FC500D500000AD0B77
:103C50000C00AD0B08B50246FFF764FE20B9104614
:103C6000FFF708FF014808BD0148FCE70000AD0B65
:103C70000B00AD0B014B93F862007047C8070020A2
:103C80002DE9FF4105460F4616469846FFF74AFEC6
:103C9000F0B928460DF10F01FFF728FE0D4B044641
:103CA000984211D1331E18BF0123324639462846A7
:103CB000CDF80080FFF71AFF074B9DF80F2083F81F
:103CC0006420022283F86020204604B0BDE8F08121
:103CD000024CF9E70000AD0BC80700200B00AD0B4C
:103CE0002DE9FF4707469946FFF71CFE8A46144612
:103CF000064600283FD138460DF10F01FFF7F6FDCB
:103D00001F4B0546984227D163889DF80F803BB32F
:103D1000B8F1010F31D8B9F1000F2ED022786378B5
:103D200012B1B3FA83F6760951463846CDF80090C1
:103D3000FFF7DCFE6388134A0BB143F48053C2F8EB
:103D4000F835114B83F86480227983F8686083F832
:103D50006720042283F86020284604B0BDE8F0877D
:103D600022786378002ADFD0002BDDD1B8F1010F73
:103D700003D80126D8E7054DEEE7054DECE700BF77
:103D80000000AD0B00500D50C80700200B00AD0B1C
:103D90000300AD0B10B51C4B1A6972BB00F06042FA
:103DA000B2F1005F2BD193F86420B1FBF2F402FB77
:103DB000141434BB0CB2002C23DD93F86040052CA6
:103DC00005D8032C0BD8022C0ED0104810BD062CA1
:103DD000FBD10F4A4C00C2F82C06C2F830469A6854
:103DE00042B1C3E9040103E08A420AD1C3E90202F5
:103DF0000848EBE7C3E90201FAE70748E6E70748A6
:103E0000E4E70748E2E700BFC80700200500AD0B64
:103E100000500D500000AD0B0C00AD0B0A00AD0BB7
:103E20000600AD0B2DE9F341544CA368002B00F0C4
:103E3000A38094F86020022A05D0042A36D0504886
:103E400002B0BDE8F08101204E4AC2F80005E168E9
:103E5000256881404DB1032584F86050C2F82C36A6
:103E6000C2F8301610604848EAE7C2F82C36C2F8AB
:103E70003016106000210120FFF7B6FD0028F9D0B0
:103E80000123404C414D636029460220FFF7ACFD01
:103E90000028F9D00023C4F80831D4F80821C4F868
:103EA0000C31D4F80C21C4F80035DCE70120354A88
:103EB000C2F80005216839B1052184F86010E16875
:103EC000C2F82C368140CBE794F86410A58B0191A1
:103ED00003EB450349000093C2F82C36C2F83016B4
:103EE000106000210120FFF77FFD0028F9D094F831
:103EF00068305BBB0123234D6B6069460220FFF7EE
:103F000073FD0028F9D00022C5F80821D5F8083142
:103F1000C5F80C21D5F80C31A18B94F864300B4412
:103F2000E1689BB28B42A38321BF184BA283D3E9E4
:103F3000020122614FF0000228BFC3E90001114BCA
:103F40002CBF11481248C3F8002579E74FF001084B
:103F500000260C4FD7F8F455EDB208FA05F5013DEF
:103F6000B542C7D9C7F8048000210420FFF73CFD03
:103F70000028F9D00136F3E7064861E7C8070020BA
:103F80000500AD0B00500D500000AD0BD007002018
:103F90000B00AD0B0200AD0B70B50246FFF7C2FC83
:103FA000002854D12B4E2C4C96F86030726086F865
:103FB0006130072386F860300123C4F80035D4F857
:103FC0000453C4F80003E3603AB125F0C00545F09E
:103FD00033052248C4F8005370BD00211020FFF7BC
:103FE00003FD0028F9D00023C4F80431D4F80431CB
:103FF0001B4BC4F82C360423C4F83036012323604D
:1040000000210120FFF7F0FC0028F9D00123124C19
:10401000A36000212020FFF7E7FC0028F9D000234F
:10402000C4F80431D4F80421C4F80831D4F80821C4
:10403000C4F8003596F8612086F86020C4F81C3179
:10404000D4F81C21C4F81831D4F81831C1E7054858
:10405000C2E700BFC807002000500D500000AD0BA4
:10406000E00700200B00AD0B7FB533206349FFF75D
:10407000BBFC10F0100F0546604E0BD01022604BB9
:10408000C3F80823B218C3F82C260422C3F830263C
:1040900001221A605B4CAA0694F8603010D5072BF9
:1040A00007D0574BD3F83436C3F34E03E3600023F5
:1040B0002361534BD3F80433DB0601D5FFF740FCF3
:1040C000A80718D50022A16894F860300291E16831
:1040D000062B8DF80420ADF80C1018D0072B35D026
:1040E000032B08D1464BC3F80025022384F8603027
:1040F000236801A89847E90750D594F86030033B3E
:10410000042B4BD8DFE803F05B4A29425F0094F8A8
:10411000673023B1236913B10122394B1A60236838
:1041200001A89847384B93E80300002386E8030072
:104130002361A368002BDED1314AC2F80035042385
:1041400084F8603005238DF80430D1E7FFF7F8FBE1
:1041500002238DF804306368CBE7042301A88DF8AF
:10416000043023689847264BD3F8F825D20444BF7F
:1041700001225A600623216984F8603031B16369F5
:104180001F4A5B00C2F82C16C2F8303623692BB9DF
:10419000032301A88DF804302368984794F8603011
:1041A000072B0AD0164B1948D3F8043300211840C6
:1041B000FFF71AFC012685094DB904B070BD012234
:1041C0000F4B5A60EAE701220D4B9A60E6E795FA39
:1041D000A5F3B3FA83F306FA03F225EA02055A08B7
:1041E000DB4303F001038DF809308DF80460236888
:1041F0008DF8082001A89847DEE700BFD00700200F
:1042000000500D50C8070020D8070020C0FF3F0015
:1042100038B5EFF31185202383F31288BFF36F8F36
:10422000064B9C6803F075FA85F31188BFF36F8F16
:104230002046BDE83840FCF733BE00BF34080020FC
:1042400038B50A4B53F82040013053F82050A542AE
:1042500000D838BD606830B1037FDB0701D403F0BC
:104260005BFA0834F3E723689847FAE7708F000099
:10427000012270B5294B032086B01A70FFF7E0FFCA
:10428000FCF718FC0420FFF7DBFF254C254D2646E4
:10429000AE4204F1300410D300F02CFC204C224E2E
:1042A000AC4226D300F03AFCFCF750FA1F4A137BCD
:1042B00023F00103137306B070BD54F80C3C059352
:1042C00054F8103C049354F8143C039354F8183CED
:1042D000029354F81C3C019354F8203C009354E999
:1042E0000A2354E90C0100F0F3F954F8303C5E6500
:1042F000CDE7D4E90A23B3F1FF3F08BFB2F1FF3F96
:1043000005D052EA0301206803D100F0F1FC3034FB
:10431000C6E73146183000F093FEF8E76E0E002035
:10432000848B0000848B00008F78000070030020D5
:1043300008B50348034A0021121A03F004FA08BD25
:10434000D0020020700E0020902370B5134E012281
:1043500003FB0066002386B0CDE904230F220193FE
:10436000CDE9023214234FF4A0720D4D0D4903FB29
:104370000055044602FB00110B4B3046009500F03F
:10438000A7F9737B2C7423F004037373074B013478
:1043900003EBC423EE606B6006B070BDE00200204A
:1043A00034080020701600204F770000700E0020A7
:1043B000BFB50020FFF744FF294B03F5006282F3ED
:1043C000088883F30A880024E023264D264F85F8C9
:1043D0002230EC772C766C76AC7685F820406B6AD0
:1043E00043F4E0236B6285F82340FCF7D7FCFCF72D
:1043F00057FE4FF0FF33AB62EB62FCF7E1FFFCF7D7
:1044000077FE1A4800F0D2F903F06FF90120FFF7A8
:1044100017FF0220164DFFF713FF00F0B3FB154BFB
:1044200015495D61154B4FF48062059301232846C1
:10443000CDE90343CDE901443B46009400F048F93F
:1044400006466A7B284622F004026A7303F0DCF910
:104450002046FFF779FF3A4631462846FCF700FE32
:10446000700E002000ED00E071420000000400200A
:104470007003002034080020B01700207CA4000046
:104480002DE9F341044617461E46EFF31188202319
:1044900083F31288BFF36F8FC368334A7BB18068A0
:1044A0009168884219D057EA060318D188F3118819
:1044B000BFF36F8F6FF00F0002B0BDE8F08191681D
:1044C00091F90E100133E36093682161A36088F3D2
:1044D0001188BFF36F8F0020EEE72169F2E791F9B1
:1044E0000E1090F90E306FF07E029942A8BF194667
:1044F0009142B8BF11468B422DDD03F033F90546DA
:1045000022464146CDE90076184800F039FA0028E5
:10451000E1D0EFF31186202383F31288BFF36F8F6E
:10452000A068D0B1236821699C420AD04BB193F9AD
:104530000E309942A8BF19466FF07E039942B8BF6A
:10454000194603F00FF940B13146084800F0ACFAC3
:104550006FF00A00B0E70025D2E7002DF4D186F312
:104560001188BFF36F8FF3E7340800206F0E00202F
:10457000F8B583680546002B40D0234A92689342E1
:104580003FD1C368012B03D9013BC3600020F8BDB4
:10459000EFF31187202383F31288BFF36F8F016934
:1045A000806803F0DFF82C68A54207D10023C5E935
:1045B000023387F31188BFF36F8FE7E7002CF5D044
:1045C000D4E90032002613605A60637BC4E90066B8
:1045D00023F002036373A66004F1180003F0D5F919
:1045E000AC6094F90E3020462B61C4F88C6003F067
:1045F0000BF93946054800F057FAC7E76FF0150088
:10460000C5E74FF0FF30C2E7340800206F0E0020EE
:1046100070B5EFF31186202383F31288BFF36F8FF9
:104620000468A0421BD0D4B1D4E900320025136045
:104630005A60637BC4E9005523F002036373A560ED
:1046400004F1180003F0A1F92046C4F88C5003F0DF
:10465000DBF83146BDE87040094800F025BAD0E9E2
:1046600002329A4218BF013302218360103003F0F6
:1046700025FA0028EDD186F31188BFF36F8F70BD46
:104680006F0E002013B5EFF31181202484F31288FC
:10469000BFF36F8F846844B1013C846081F311885B
:1046A000BFF36F8F002002B010BD52EA030406D1A1
:1046B00081F31188BFF36F8F6FF00F00F3E7CDE93F
:1046C00000230246014800F05BF9ECE76F0E002082
:1046D0002DE9F043984685B000F15803C0E9163340
:1046E000109B002503730423073222F0070643734F
:1046F0000F9B01EB06090F4683734946C0E9065537
:104700008560C5730446FCF7E7F90E9B073020F07F
:104710000700E067C4E91D7602930D9BA9EB000931
:1047200001930C9B4A460093394643462046FCF7CA
:104730007BFC074B65659B6884F870500BB1D3F820
:1047400080304846C4F8803005B0BDE8F08300BF33
:1047500034080020F0B5002587B00595109DDDE9EF
:10476000127604950F9D044603950E9D02950D9DAE
:1047700001950C9D0095FFF7ABFFB6F1FF3F08BF19
:10478000B7F1FF3F05D056EA070305D1204600F0F8
:10479000AFFA204607B0F0BD3A46334604F11800A0
:1047A000014900F04DFCF4E78F78000040F201135E
:1047B00083810023C0E91D33C0F88030014B98602D
:1047C000704700BF340800206FF00A01094A93685F
:1047D000C3F88C100849C3F888004B6843F0805335
:1047E0004B60002383F31188BFF36F8F9368D3F876
:1047F0008C0070473408002000ED00E070B590F99F
:104800000D20437B002A36DBD90634D11B4C63F0E4
:104810007F032246437352F8183FE169934207D160
:10482000C0E900210860E06111E09942F8D01B68FE
:10483000002BF5D090F90E5093F90E60B542F4D0EC
:10484000AE42F2DD5968C0E9003108605860A569E0
:10485000954200D005B9E568A3685A7BD20604D119
:10486000DA897F2A01D9AA6932B1AB4202D028463F
:1048700000F044FB656170BD6361FCE73408002013
:1048800038B590F90D200146002A437B04DA03F085
:104890007F03437302F07EFF0D4D2A4652F8184FF6
:1048A000AB68944200D004B9EC688B4207D05A7BC5
:1048B000D20604D1DA897F2A01D9A2692AB1A3429A
:1048C00002D0204600F01AFB23466B6138BD00BFC2
:1048D00034080020B3F1FF3F08BFB2F1FF3F03D01F
:1048E0000249183000F0ACBB704700BF8F78000061
:1048F00070B590F90D200146002A437B04DA03F0DD
:104900007F03437302F046FF1C4C4B7B224663F04F
:104910007F034B7352F8183FE069934207D1C1E916
:1049200000200160E16111E09842F8D01B68002B83
:10493000F5D091F90E5093F90E60B542F4D0AE4225
:10494000F2DD5868C1E9003001605960A569A368CB
:10495000954200D005B9E5688B4207D05A7BD20654
:1049600004D1DA897F2A01D9AA692AB1AB4202D0DF
:10497000284600F0C3FA2B46636170BD340800205E
:10498000F8B5DDE906670D4B0C46986811460C4AF0
:104990001060EFF31182202282F31288BFF36F8F31
:1049A0009D68284602F008FF284632463B46FFF73E
:1049B00091FF2046BDE8F840FFF706BF340800200D
:1049C00054080020F8B50446EFF31187202383F341
:1049D0001288BFF36F8F437B49B203F01F02002A96
:1049E0000CBF0126002639D103F07F032D4D437300
:1049F00002F0D0FE2A46437B817363F07F0343734A
:104A000052F8183F934227D1E869C4E900200460B6
:104A1000EC610FE09842F8D01B68002BF5D093F9B9
:104A20000EC06145F6D08C45F4DD5968C4E900310B
:104A30000C605C60AC69944200D004B9EC68AB686F
:104A40009C4202D0204600F059FA6C6187F311882D
:104A5000BFF36F8F3046F8BDE869DEE79B071ED5D0
:104A6000856802F097FE81732B689D4209D16B68BF
:104A7000C4E900531C606C60E8E76A689342F6D0B2
:104A80001B68002BF3D093F90E209142F5D08A4297
:104A9000F3DD5A68C4E9003214605C60D6E78173C4
:104AA000D4E700BF3408002049B9EFF3058030B9DE
:104AB000054B5A699B689A4201D0FFF785BE81F386
:104AC0001188BFF36F8F704734080020034648B940
:104AD000EFF3058232B9064A51699268914201D0DA
:104AE000FFF772BE83F31188BFF36F8F704700BF6B
:104AF00034080020EFF31181202383F31288BFF3E1
:104B00006F8F054B9A68D37B013BD37381F3118878
:104B1000BFF36F8F704700BF3408002070B5EFF30C
:104B20001186202383F31288BFF36F8F144DAB6877
:104B3000DA7B0132DA732A4652F8184F944200D0D9
:104B400004B9EC685A7BD20604D1DA897F2A01D9EC
:104B5000A2692AB1A34202D0204600F0CFF9234631
:104B60006B6186F31188BFF36F8FEFF31180202301
:104B700083F31288BFF36F8FBDE87040FFF7A6BFC5
:104B800034080020024B03F11802C3E906227047E3
:104B90003408002070B5EFF31186202383F31288C8
:104BA000BFF36F8F1B4CA168E0690B68814214BF93
:104BB0001A46002249680B605960A368E1692AB966
:104BC000154AC3E900210B60E3610CE093F90E0084
:104BD00092F90E50A84218D0854216DD5168C3E9FB
:104BE00000210B605360A5690B4B9D4200D005B9B5
:104BF000E568A3689D4202D0284600F07FF9656110
:104C00003046BDE87040FFF7DFBD8A42D8D0126859
:104C1000D5E700BF340800204C080020F8B550EA62
:104C2000010306460C4603D1FFF7B4FF0020F8BD90
:104C3000EFF31187202383F31288BFF36F8F124D98
:104C4000124BA8681860FFF71BFEA868234632467F
:104C50000F49183000F0F4F9AA680446537B38462F
:104C600043F004035373FFF7AFFDAB68D3E90A23A6
:104C7000B3F1004F08BF002AD8D102F0AEFE201ACF
:104C800020EAE070D3E700BF340800205408002079
:104C90008F78000038B504460D46FFF7BFFFB5F129
:104CA000FF3F08BFB4F1FF3F0246204618D0002363
:104CB0004FF47A7447F611201946C2FB040147F6F7
:104CC0001222904271F100020BD3084B834243F64B
:104CD00008538B4107D347F612220023FBF7CEFB84
:104CE00038BD1846FCE76FF00040F9E7ED85FFFF9F
:104CF00038B50446EFF31185202383F31288BFF300
:104D00006F8F437B5B070FD5183002F03EFE637B4D
:104D1000204623F004036373FFF770FD2946BDE8C6
:104D200038400448FFF7C0BE85F31188BFF36F8F8A
:104D300038BD00BF6F0E0020014B9868704700BF60
:104D4000340800202DE9F8430446077BEFF3118572
:104D5000202383F31288BFF36F8F437B190705D598
:104D600085F31188BFF36F8FBDE8F883D90943F04D
:104D700008025AD14273A36813B1204602F012FD13
:104D800004F1180002F001FEA66D04F15808B045C8
:104D900011D04FF0000976B1304602F003FD06F164
:104DA000180002F0F2FD3046C6F88C90FFF726FDA1
:104DB000A66DB045EFD1DFF8B880D8F808309C4236
:104DC0003BD1EFF30589B9F1000918BF4FF0010994
:104DD000D8F81860274A964200D00EB9D8F80C606F
:104DE000B34202D0304600F089F8C8F81460B9F137
:104DF000000F02D02048FFF7D9FCD8F808309C42B9
:104E000031D1EFF3058373BB227BD20718D4284638
:104E1000FFF7DAFCFB07A7D5002383F31188BFF364
:104E20006F8F0423184602DF9EE703F07F0343F0F1
:104E30000803437302F0AEFC9DE74FF00009C7E79B
:104E400085F31188BFF36F8F83F31188BFF36F8FE2
:104E50000423184602DFEFF31180202383F3128826
:104E6000BFF36F8FD4E785F31188BFF36F8FD1E75E
:104E7000340800204C08002000040020D3B5DDE9F0
:104E80000667089CCDE90067FFF77AFD1CB1034B6C
:104E90009B681B69236002B0D0BD00BF34080020AE
:104EA0000122044BC01A044BC0105843034B1A5440
:104EB000704700BF90040020ABAAAAAA6F0E002082
:104EC000C3897F2B12D80A4B1B6863B1094B90F939
:104ED0000E201B689A4209DB437BDB0606D1064B9A
:104EE000C31A18BF012303F0010070470023FAE73B
:104EF0000402002058080020E002002070B50E4B8C
:104F00000E4C1E7C054606EB460304EBC30420460C
:104F100002F03BFD00220A4B28469A55FFF7D0FFCE
:104F200048B1084B2046BDE870401A680649013A6E
:104F3000D31700F085B870BD34080020900400201D
:104F40006F0E002004020020A14E000038B5EFF3E0
:104F50001185202383F31288BFF36F8F104B114A02
:104F60009C681068A04206D1FFF7C8FF85F311883E
:104F7000BFF36F8F38BD00211B7C11600A4AD35CE0
:104F8000002BF3D02046FFF79BFF0028EED0637B79
:104F9000DB0602D12046FFF7ABFC2046E4E700BF6A
:104FA00034080020540800206F0E0020074808B580
:104FB000074A0849121A02F0C8FBBDE80840064833
:104FC000064A0749121A02F0C0BB00BF4000002089
:104FD000CC0200209CA400004000002040000020E3
:104FE0009CA40000024B1868984208BF002070473C
:104FF00008020020034B1B680BB9FDF73BBB0020E8
:10500000704700BF5C08002030B570B10B4B5B6887
:1050100098420AD0036843B1D3E90421D0E904459A
:10502000121941EB0501C3E90421D0E900321360F4
:105030005A600023C0E9003330BD00BF08020020E1
:10504000B3F1FF3F08BFB2F1FF3F2DE9F84F04462F
:10505000994615461F467BD08160EFF311882023C7
:1050600083F31288BFF36F8F013279F1FF33DFF8DA
:10507000E8A020DBFFF7BEFFDAE90027013549F1A0
:1050800000092D1849EBE07306464FF00109C4E909
:105090000453AD1843EB0707FFF7A4FF0346DFF8FF
:1050A000BCE0DEF804A0EBB9C4E900EACAF80040AD
:1050B000CEF8044028E06FF00103DAE900125B1A31
:1050C0004FF0FF3161EB02025B1B62EB0902012B27
:1050D00072F10001BCBF012300224FF00009C0E9BA
:1050E0000432D9E7D3E9041CD4E904208A4270EBE6
:1050F0000C0B24DA891A5A686CEB0000C3E904101F
:10510000C4E9003214605C60FFF76CFF84420ED18A
:10511000134B1B685BB9B9F1000F02D1FFF76AFFAF
:105120000646304602F01AFC0021FDF7B3FA88F378
:105130001188BFF36F8F28463946BDE8F88F521AA1
:1051400060EB0C009A45C4E90420ADD01B68AAE7C7
:1051500000252F46EFE700BFA8040020080200202A
:105160005C0800202DE9F047EFF31185202383F33D
:105170001288BFF36F8FDFF8A0900026C9F80000F7
:105180000027FFF72FFFDFF89480D9F80030D8E927
:1051900000ECD91750B1D0E90442A34271EB020AE6
:1051A0001BDAE41A62EB0102C0E90442002413EBAB
:1051B0000E034CEB01012046C8E90031C9F800405C
:1051C00002F0CCFB2146FDF765FA85F31188BFF3A9
:1051D0006F8FBDE8F047FFF7B9BE14EB0E024CEB42
:1051E000E473C0E90467C8E90023FFF70DFF85F306
:1051F0001188BFF36F8F83689847EFF311852023E1
:1052000083F31288BFF36F8FD9F800301B1BC9F8E6
:105210000030FFF7E7FEB8E75C080020A804002094
:1052200010B5EFF31184202383F31288BFF36F8F3F
:10523000FFF7E0FE0346054AD2E90001181841EBEA
:10524000E37184F31188BFF36F8F10BDA8040020B1
:10525000F8B50446EFF31187202383F31288BFF3D8
:105260006F8F026822B187F31188BFF36F8FF8BD8B
:10527000D0E90A36581C46F10001022871F10001FC
:1052800027D3012B76F10001BCBF012316465D1E1A
:1052900046F1FF3602F0A5FB013041F10001401953
:1052A00046EB0101012871F100013ADB02F099FBA4
:1052B000013041F100016FF00102401946EB01039A
:1052C0004FF0FF31121A61EB030320461749FFF735
:1052D000B7FE236B01332363236A6BB187F3118815
:1052E000BFF36F8F2046236A9847EFF3118720237F
:1052F00083F31288BFF36F8F54F8185FA542B2D0C2
:10530000002DB0D0284602F08EFA0023C5F88C306C
:1053100087F31188BFF36F8F2846BDE8F84002F08D
:1053200073BA6FF001024FF0FF33CEE75152000025
:105330002DE9F04105461C4690461F46EFF31186C5
:10534000202383F31288BFF36F8FB4F1FF3F08BFB0
:10535000B2F1FF3F05D186F31188BFF36F8FBDE82F
:10536000F081531C74F1FF3309DB012A74F100034F
:10537000BCBF0122002412F1FF3844F1FF37284658
:1053800002F003FBDDE906010023C5E90A012B63F6
:1053900042463B4628460249FFF752FEDBE700BF84
:1053A0005152000038B50346EFF31185202282F3F5
:1053B0001288BFF36F8FC160012181600068834252
:1053C00006D185F31188BFF36F8F0024204638BDC6
:1053D000D0E9003213605A600023C0E9003302F0C4
:1053E0002AFB294604460248FFF75EFBEEE700BFB2
:1053F000700E002007B5074B4FF4806200930649FA
:105400004FF0FF33054800F00DF9002003B05DF8C0
:1054100004FB00BF888F0000B01B0020B0040020F8
:105420002DE9FF41044620274E4EEFF3118887F304
:105430001288BFF36F8FD4F89450F5B9022104F1AC
:10544000AC0002F05AFB002868D004F1A405002249
:105450000121284602F03DFA0028F8D100234FF040
:10546000FF3202934FF0FF334146CDE900233E481F
:1054700004F19C02FFF702FDD7E7D4F898202B68CF
:105480009542C4F8943008BFC4F89830D4F8AC30D2
:1054900043F00203C4F8AC30EB6823F0040343F09C
:1054A0000103EB606B6888F31188BFF36F8F2846A8
:1054B0009847EFF3118887F31288BFF36F8FEB687B
:1054C000D80623F0010236D4EA60EB689A0716D5B5
:1054D000306823F00203EB6088B10021036870B1EB
:1054E0004268954235D1036869BB72683360824275
:1054F00000D17360002340F8083BFFF789F8D4F827
:10550000AC3023F00203C4F8AC3088F31188BFF349
:105510006F8FDB0589D4FFF73DFB86E7D4F8AC300D
:10552000D9069BD5C4F8AC0088F31188BFF36F8F00
:1055300004B0BDE8F08123F01103EB6005F1100029
:10554000FFF766F8C1E70B607368834208BF7160BC
:10555000D0E723B11A68014618461346BFE71A463A
:10556000F9E700BF60080020700E0020F8B5C3689E
:1055700004469A070F46C3F340062ED45B071CD49B
:105580000B680BB983680B60E368DD0742BFA36853
:1055900002263B603D6858BF0126002D3CD0204BC1
:1055A0009A68D5F890309A420AD0D5F8AC30D8072E
:1055B000C3F3800214D46FF0120600233B6025E091
:1055C00002F0DFF8D5F8AC300028F0D1D907C3F3EA
:1055D000C002F0D552B15B0708D46FF00F06ECE7BC
:1055E000002AFAD1C3F3C003002BF6D100232360B5
:1055F000D5F8983063B9C5E92544284602F088FA01
:10560000E36843F00403E3603B68A3603046F8BD01
:105610001C60C5F89840F0E76FF01506CDE700BFB5
:1056200034080020F0B50446002089B0C4E9250004
:105630000E9D04F19C00C4E9270004F1A400C4E914
:10564000290055B32879002840F2011008BF012035
:10565000C4F8AC0000204FF0FF364FF0FF37CDE923
:105660000330CDE90100CDE9066720460C4B0094DC
:10567000FFF770F855B1296811B1204602F087F89C
:105680006B791BB1237B43F0010323732046FFF7A3
:105690002FFBC4F8904009B0F0BD0120D8E700BF4F
:1056A00021540000F8B50D4E0D4C0E4D33680E48D8
:1056B000984767782B680C48984733680B48984799
:1056C000022F08D12478E31F5C425C412B68074815
:1056D00098472046F8BD0024F8E700BF34020020B8
:1056E0006808002030020020A00200208C02002068
:1056F00070B51D4E1D4C33681D48984723785907D7
:1057000044BF23F00403237023789A0705D500F0E3
:10571000C1F8237823F002032370164D14482B6838
:105720009847336814489847637813B1134802F0D8
:1057300036FA002304211148637000F0CBF82B687F
:105740000D48984733680A4898472378DB0705D502
:1057500002F022FA237823F0010323702B68044817
:10576000BDE87040184700BF3402002068080020E0
:105770008C02002030020020A00200206C080020D3
:105780002DE9F041FFF78EFF18B100242046BDE857
:10579000F081364F36483B689847044620B16FF099
:1057A0008F04FFF7A5FFF1E7324D2B78D80706D419
:1057B00002F0F0F904462B7843F001032B702E4ED3
:1057C0002B483368984710B1002CE8D0E9E7002C4B
:1057D000E7D13B682648984704460028DFD12B785C
:1057E000990706D400F04EF804462B7843F00203E4
:1057F0002B7033681E4898470028E5D1002CD0D183
:105800003B681B4898470028C9D13368184895F869
:10581000008098470028C2D13B6818489847044642
:105820000028BCD16B7843B918F0010F05D014489B
:1058300002F0B3F9022304466B7033680F489847AF
:105840000028C1D1002CACD13B68094898470028FA
:10585000A5D12B7806485A075CBF43F004032B7090
:1058600033689847002890D099E700BF34020020A1
:105870008C0200206808002030020020A0020020D6
:105880006C0800200122024B002083F8802570471D
:10589000700800202DE9F0410A4C002526464FF003
:1058A000010803272046C4F820802777013502F03D
:1058B00054F9202D04F12C04F4D1002386F880350E
:1058C000BDE8F08170080020014B1B68184700BF3D
:1058D0001002002010B50A46044619B1024B0021FF
:1058E0001B68984710BD00BF1402002010B50C4C77
:1058F000206802F0F8FA0B4A1368591C11604BB982
:10590000094A4820D2F8003443F00703C2F80034B3
:10591000FBF722FB2068BDE8104002F0EABA00BFA6
:105920001C020020F40D00200080045038B5164DF4
:10593000286802F0D8FA154B1C68013C1C60ECB9D1
:105940004820FBF717FB0722114BC3F80823D3F8B5
:10595000002422F00702C3F80024C3F80041D3F862
:105960000021C3F80441D3F804214FF48072C3F836
:105970000841D3F80831074BC3F888212868BDE8EF
:10598000384002F0B6BA00BF1C020020F40D00201F
:105990000080045000E100E070B5114D114E2B68FD
:1059A000B3421BD0FFF7A2FF00F08CFA0E4A0F4B58
:1059B0000F4952F8040B43F8040B8B42F9D100F065
:1059C000BFFA40B102F0F8F80446FFF7AFFF04B9A0
:1059D0002E60204670BD00F0C1F9F5E70024F8E71D
:1059E0001802002011736500908F000000C08051E4
:1059F0001CD380510022074BC3F81021C3F80C219F
:105A0000C3F80021C3F80421C3F80821C3F8142106
:105A1000704700BF0050045008B5FFF7EBFF0123AB
:105A20000360104B0A6832B9D3F80C211AB9D3F8C5
:105A30000821002AF6D00B687BB90B4B99420ED097
:105A4000A3F58473D3F80831002B0CBF4FF0FF305F
:105A50006FF00200FFF7CEFF08BD0020FAE74FF01D
:105A6000FF30F7E7005004500851045038B50546A0
:105A70000C4691B10021012001F019FE08480949A6
:105A8000C0F80055C0F80445FFF7C6FF00210446E2
:105A9000084601F00CFE204638BD6FF00104FAE71D
:105AA000005004500051045010B50446002101205C
:105AB00001F0FDFD064B0749C3F800450648FFF716
:105AC000ABFF00210446084601F0F1FD204610BD61
:105AD00000500450085104500850045038B50C468A
:105AE00059B1074D0749C5F800050748FFF794FF6E
:105AF00010B9D5F80835236038BD6FF00100FBE719
:105B000000500450105104500C5004502DE9F04F37
:105B100089B006460F4690461D4602F005F9044638
:105B200078B973690090C3F3013262F305148DF8FC
:105B3000004014F0300408D1B168890710D06FF02C
:105B40008604204609B0BDE8F08F102C08D1BDF8BE
:105B5000023023F4F87343F4A873ADF802304EE03A
:105B6000DBB2F82B02D06FF08504EAE700234FF098
:105B7000010B9E4619461846D6F808C0DFF8CC91AE
:105B800059F804AB1CEA0A0F08D00BFA00F343EAF9
:105B90000E0303F07F0E012341EA0A0101300728BA
:105BA000EED12BB19DF803306EF347038DF803302F
:105BB0003CEA0101D7D17388FF2B35D005D8802B63
:105BC00034D0C02BCFD1022303E0B3F5807FCAD1FC
:105BD00004239DF8021063F306118DF8021014B926
:105BE0001CF0030FABD13379022B2BD020D8012B23
:105BF000A5D1BDF8021063F3C811ADF80210012A57
:105C00006FD0032A23D0002A99D13388B3F5105FCF
:105C1000A9D1182D6DD0202D70D0102D8FD1DFF887
:105C200030A101251F261AE00323D2E70123D0E784
:105C3000032B01D0FF2B82D10221BDF8023061F38A
:105C4000C8138AE7BDF8023043F4C07385E7412DDD
:105C50003DD104254F26DFF8FCA008F101080024FF
:105C6000381902F035F800286CD00134AC42F7D175
:105C70001F2E07D02946384602F03EF80446002879
:105C80007FF45FAF009B4FF0FF39079300239B46E3
:105C9000CDF818A0BDF802204344C2F3C11205920A
:105CA00001AC03F1100C224618685968083303C28E
:105CB00063451446F7D101A907EB0B00FFF7D6FEA9
:105CC000044630B302F030F86FF0920439E7182D33
:105CD00019D0202D1AD0102D7FF431AFDFF874A029
:105CE0009FE7302D7FF42BAF03253F26DFF868A018
:105CF000B5E7DFF85CA002252726B0E7DFF850A063
:105D000002252F26ABE7DFF84CA0F4E7DFF844A02C
:105D1000F6E71C2101A80BF1010B01F0CDFFAB450B
:105D200006D00AEB0B12CDE906294FEA0B13B1E7B7
:105D30001F2E3FF406AFFA20FFF7B6FE00283FF40F
:105D400000AFC1E76FF08A04FBE600BFACA2000021
:105D500040008151000000201084045010B590B024
:105D60001C22002101A802F04FF9F82001F0B0FF39
:105D700008B3202200200DEB020100F089F904464F
:105D8000F8B901A84FF4807101F0ACFF0E4B0F4938
:105D900004930F4BCDE901130E4BF82106932023FA
:105DA0000DEB0302FFF7B2FE202104460DEB0100CC
:105DB00001F082FF05E0F92001F08AFF0028D8D128
:105DC0000446204610B010BD0010C004002400019D
:105DD000014B4E80F800FF7F10B50446FFF786FDAB
:105DE000104B186802F07FF80CB101232370BFF349
:105DF0005F8F4FF0A3430022DA61BFF35F8FBFF3E1
:105E00005F8F4FF0FF321A63BFF35F8FBFF35F8F77
:105E10003422DA61BFF35F8F0122034BC3F80423FE
:105E200010BD00BF200200200080045010B50446C1
:105E300038B9FFF77BFDBDE81040074B186802F04A
:105E400058B803783BB1FFF771FD034B186802F0B7
:105E500050F80023237010BD2002002038B5164CE6
:105E6000D4F80051C5B1BFF35F8F4FF0A343996AD7
:105E7000BFF35F8FBFF35F8F4FF0FF321A63BFF343
:105E80005F8F0023C4F80031D4F800310B4B186841
:105E9000BDE8384002F040B8D4F8083153B100F002
:105EA0006DF801F064FFC4F80851D4F808310121FD
:105EB000034BECE738BD00BF0080045028020020EF
:105EC0002402002008B5074B186802F014F8064BAE
