:1000000070250020314600008FC500001D4600000D
:100010001D4600001D4600001D4600001D46000054
:100020000000000000000000000000008947000000
:100030001D460000000000002D4700001D46000086
:100040001549000015490000154900001549000038
:100050001549000015490000154900001549000028
:100060001549000015490000154900001549000018
:100070001549000015490000154900001549000008
:1004800081F0004102E000BF83F0004330B54FEA45
:1004900041044FEA430594EA050F08BF90EA020FB2
:1004A0001FBF54EA000C55EA020C7FEA645C7FEA45
:1004B000655C00F0E2804FEA5454D4EB5555B8BF68
:1004C0006D420CDD2C4480EA020281EA030382EAD9
:1004D000000083EA010180EA020281EA0303362D6B
:1004E00088BF30BD11F0004F4FEA01314FF4801C3E
:1004F0004CEA113102D0404261EB410113F0004F50
:100500004FEA03334CEA133302D0524263EB430306
:1005100094EA050F00F0A780A4F10104D5F1200EA4
:100520000DDB02FA0EFC22FA05F2801841F10001FF
:1005300003FA0EF2801843FA05F359410EE0A5F1D3
:1005400020050EF1200E012A03FA0EFC28BF4CF004
:10055000020C43FA05F3C01851EBE37101F00045BA
:1005600007D54FF0000EDCF1000C7EEB00006EEBC7
:100570000101B1F5801F1BD3B1F5001F0CD3490851
:100580005FEA30004FEA3C0C04F101044FEA4452A8
:1005900012F5800F80F09A80BCF1004F08BF5FEA2F
:1005A000500C50F1000041EB045141EA050130BD0F
:1005B0005FEA4C0C404141EB0101013C28BFB1F521
:1005C000801FE9D291F0000F04BF01460020B1FA6C
:1005D00081F308BF2033A3F10B03B3F120020CDA3F
:1005E0000C3208DD02F1140CC2F10C0201FA0CF01D
:1005F00021FA02F10CE002F11402D8BFC2F1200C82
:1006000001FA02F120FA0CFCDCBF41EA0C01904037
:10061000E41AA2BF01EB0451294330BD6FEA040480
:100620001F3C1CDA0C340EDC04F11404C4F120026B
:1006300020FA04F001FA02F340EA030021FA04F37D
:1006400045EA030130BDC4F10C04C4F1200220FAD4
:1006500002F001FA04F340EA0300294630BD21FA12
:1006600004F0294630BD94F0000F83F4801306BFD8
:1006700081F480110134013D4EE77FEA645C18BFCC
:100680007FEA655C29D094EA050F08BF90EA020F63
:1006900005D054EA000C04BF1946104630BD91EA5B
:1006A000030F1EBF0021002030BD5FEA545C05D15E
:1006B0004000494128BF41F0004130BD14F580049D
:1006C0003CBF01F5801130BD01F0004545F0FE4111
:1006D00041F470014FF0000030BD7FEA645C1ABF46
:1006E000194610467FEA655C1CBF0B46024650EA7D
:1006F000013406BF52EA033591EA030F41F40021A9
:1007000030BD00BF90F0000F04BF0021704730B52E
:100710004FF4806404F132044FF000054FF0000103
:1007200050E700BF90F0000F04BF0021704730B5C4
:100730004FF4806404F1320410F0004548BF404299
:100740004FF000013EE700BF42004FEAE2014FEAEE
:1007500031014FEA02701FBF12F07F4393F07F4FC9
:1007600081F06051704732F07F4208BF704793F0CC
:100770007F4F04BF41F40021704730B54FF46074DF
:1007800001F0004521F000411CE700BF50EA0102E2
:1007900008BF704730B54FF000050AE050EA01028B
:1007A00008BF704730B511F0004502D5404261EBFB
:1007B00041014FF4806404F132045FEA915C3FF43C
:1007C000D8AE4FF003025FEADC0C18BF03325FEAD9
:1007D000DC0C18BF033202EBDC02C2F1200300FA8A
:1007E00003FC20FA02F001FA03FE40EA0E0021FAAF
:1007F00002F11444BDE600BF70B54FF0FF0C4CF49D
:10080000E06C1CEA11541DBF1CEA135594EA0C0F4E
:1008100095EA0C0F00F0DEF82C4481EA030621EA89
:100820004C5123EA4C5350EA013518BF52EA0335C4
:1008300041F4801143F4801338D0A0FB02CE4FF076
:100840000005E1FB02E506F00042E0FB03E54FF0A6
:100850000006E1FB03569CF0000F18BF4EF0010E9E
:10086000A4F1FF04B6F5007F64F5407404D25FEA9A
:100870004E0E6D4146EB060642EAC62141EA55514D
:100880004FEAC52040EA5E504FEACE2EB4F1FD0C8F
:1008900088BFBCF5E06F1ED8BEF1004F08BF5FEA0D
:1008A000500E50F1000041EB045170BD06F00046BF
:1008B00046EA010140EA020081EA0301B4EB5C046C
:1008C000C2BFD4EB0C0541EA045170BD41F4801164
:1008D0004FF0000E013C00F3AB8014F1360FDEBF89
:1008E000002001F0004170BDC4F10004203C35DA65
:1008F0000C341BDC04F11404C4F1200500FA05F3E8
:1009000020FA04F001FA05F240EA020001F0004288
:1009100021F0004110EBD37021FA04F642EB0601FE
:100920005EEA430E08BF20EAD37070BDC4F10C0428
:10093000C4F1200500FA04F320FA05F001FA04F2EC
:1009400040EA020001F0004110EBD37041F10001D8
:100950005EEA430E08BF20EAD37070BDC4F12005E3
:1009600000FA05F24EEA020E20FA04F301FA05F24B
:1009700043EA020321FA04F001F0004121FA04F2F3
:1009800020EA020000EBD3705EEA430E08BF20EAC3
:10099000D37070BD94F0000F0FD101F000464000FD
:1009A00041EB010111F4801F08BF013CF7D041EA7F
:1009B000060195F0000F18BF704703F00046520083
:1009C00043EB030313F4801F08BF013DF7D043EA54
:1009D0000603704794EA0C0F0CEA135518BF95EA0A
:1009E0000C0F0CD050EA410618BF52EA4306D1D191
:1009F00081EA030101F000414FF0000070BD50EAB0
:100A0000410606BF1046194652EA430619D094EA39
:100A10000C0F02D150EA013613D195EA0C0F05D123
:100A200052EA03361CBF104619460AD181EA030177
:100A300001F0004141F0FE4141F470014FF000002F
:100A400070BD41F0FE4141F4780170BD70B54FF0CA
:100A5000FF0C4CF4E06C1CEA11541DBF1CEA13554A
:100A600094EA0C0F95EA0C0F00F0A7F8A4EB05042C
:100A700081EA030E52EA03354FEA013100F0888023
:100A80004FEA03334FF0805545EA131343EA1263EC
:100A90004FEA022245EA111545EA10654FEA0026A1
:100AA0000EF000419D4208BF964244F1FD0404F55A
:100AB000407402D25B084FEA3202B61A65EB0305B6
:100AC0005B084FEA32024FF480104FF4002CB6EB73
:100AD000020E75EB030E22BFB61A754640EA0C00F3
:100AE0005B084FEA3202B6EB020E75EB030E22BF33
:100AF000B61A754640EA5C005B084FEA3202B6EB74
:100B0000020E75EB030E22BFB61A754640EA9C0032
:100B10005B084FEA3202B6EB020E75EB030E22BF02
:100B2000B61A754640EADC0055EA060E18D04FEAC0
:100B3000051545EA16754FEA06164FEAC30343EA60
:100B400052734FEAC2025FEA1C1CC0D111F4801F2D
:100B50000BD141EA00014FF000004FF0004CB6E726
:100B600011F4801F04BF01430020B4F1FD0C88BFC5
:100B7000BCF5E06F3FF6AFAEB5EB030C04BFB6EBD0
:100B8000020C5FEA500C50F1000041EB045170BDC3
:100B90000EF0004E4EEA113114EB5C04C2BFD4EBF0
:100BA0000C0541EA045170BD41F480114FF0000E74
:100BB000013C90E645EA060E8DE60CEA135594EAF0
:100BC0000C0F08BF95EA0C0F3FF43BAF94EA0C0FF3
:100BD0000AD150EA01347FF434AF95EA0C0F7FF468
:100BE00025AF104619462CE795EA0C0F06D152EABC
:100BF00003353FF4FDAE1046194622E750EA4106A0
:100C000018BF52EA43067FF4C5AE50EA41047FF4B0
:100C10000DAF52EA43057FF4EBAE12E74FF0FF3C15
:100C200006E000BF4FF0010C02E000BF4FF0010CE6
:100C30004DF804CD4FEA410C7FEA6C5C4FEA430C5F
:100C400018BF7FEA6C5C1BD001B050EA410C0CBFAE
:100C500052EA430C91EA030F02BF90EA020F002010
:100C6000704710F1000F91EA030F58BF994208BF77
:100C700090422CBFD8176FEAE37040F00100704734
:100C80004FEA410C7FEA6C5C02D150EA013C07D18B
:100C90004FEA430C7FEA6C5CD6D152EA033CD3D0D6
:100CA0005DF8040B704700BF8446104662468C46D0
:100CB0001946634600E000BF01B5FFF7B7FF002803
:100CC00048BF10F1000F01BD4DF808EDFFF7F4FF2C
:100CD0000CBF012000205DF808FB00BF4DF808EDB7
:100CE000FFF7EAFF34BF012000205DF808FB00BFDA
:100CF0004DF808EDFFF7E0FF94BF012000205DF8FC
:100D000008FB00BF4DF808EDFFF7CEFF94BF0120B0
:100D100000205DF808FB00BF4DF808EDFFF7C4FFA9
:100D200034BF012000205DF808FB00BF4FEA410CF2
:100D30007FEA6C5C02D150EA013C0AD14FEA430CD5
:100D40007FEA6C5C02D152EA033C02D14FF0000012
:100D500070474FF0010070474FEA410212F5001250
:100D600015D211D56FF47873B3EB625212D94FEAF2
:100D7000C12343F0004343EA505311F0004F23FADC
:100D800002F018BF404270474FF00000704750EA31
:100D9000013005D111F0004008BF6FF000407047EE
:100DA0004FF00000704700BF7BB972B90029BEBF89
:100DB00000204FF0004106E008BF00281CBF6FF084
:100DC00000414FF0FF3000F057B8ADF1080C6DE96D
:100DD00004CE002909DB002B1ADB00F057F8DDF800
:100DE00004E0DDE9022304B07047404261EB4101B9
:100DF000002B1BDB00F04AF8DDF804E0DDE90223FC
:100E000004B0404261EB4101524263EB430370473F
:100E1000524263EB430300F039F8DDF804E0DDE90A
:100E2000022304B0404261EB41017047524263EB40
:100E3000430300F02BF8DDF804E0DDE9022304B001
:100E4000524263EB4303704753B94AB9002908BFC4
:100E500000281CBF4FF0FF314FF0FF3000F00CB8FE
:100E6000ADF1080C6DE904CE00F010F8DDF804E0F7
:100E7000DDE9022304B07047704700BF034613F852
:100E8000012B002AFBD1181A013870472DE9F047D1
:100E900086468C460846089E154674461946002B21
:100EA00040F0C1808542B2FA82F245D94AB1C2F11E
:100EB000200300FA02FC954094402EFA03F343EA23
:100EC0000C0C4FEA154EA8B2230CBCFBFEF80EFB2F
:100ED00018CC08FB00F943EA0C43994528D9EB18D4
:100EE00008F1FF3704D2994502D9A8F102072B4433
:100EF000A3EB0903A4B2B3FBFEFC0EFB1C330CFBFB
:100F000000F044EA0344A04214D92C190CF1FF3339
:100F100004D2A04202D9ACF102032C44241A43EAC1
:100F200007401EB1D440002334607360BDE8F087F1
:100F30004746DDE76346F1E792BB431B01214FEAD9
:100F4000154EAFB2200CB3FBFEFC0EFB1C330CFBAA
:100F500007F840EA0343984561D9EB180CF1FF30DC
:100F600004D2984502D9ACF102002B44A3EB08034C
:100F7000A4B2B3FBFEFC0EFB1C330CFB07F744EAE8
:100F80000344A7424DD92C190CF1FF3304D2A742D8
:100F900002D9ACF102032C44E41B43EA0040C0E751
:100FA000C2F120039540944020FA03F12EFA03F396
:100FB0004FEA154E9040AFB20343B1FBFEFC0EFB6F
:100FC0001C10190C0CFB07F841EA0041884522D996
:100FD00069180CF1FF3004D2884502D9ACF1020047
:100FE0002944A1EB08019BB2B1FBFEFC0EFB1C11D6
:100FF0000CFB07F743EA01439F420ED9EB180CF1B3
:10100000FF3104D29F4202D9ACF102012B44DB1B19
:1010100041EA004193E76046E3E76146F7E760464F
:10102000A4E76346B8E7834206D916B9002108460B
:101030007CE7C6E900E0F9E7B3FA83F78FB98342AA
:1010400001D3724508D8BEEB020460EB0303012014
:101050009C461EB9002169E73846FAE7C6E9004C0C
:10106000F8E7C7F1200CBB400EFA07F522FA0CF4A2
:101070002EFA0CF1BA401C4320FA0CF3B8404FEAA8
:10108000144901431FFA84FEB3FBF9F809FB183039
:101090000B0C08FB0EFA43EA00439A4540D9E318CB
:1010A00008F1FF3004D29A4502D9A8F10200234486
:1010B000A3EB0A0389B2B3FBF9F809FB183308FB69
:1010C0000EFE41EA03418E452CD9611808F1FF3329
:1010D00004D28E4502D9A8F10203214443EA00401C
:1010E000A1EB0E01A0FB02984145CE46434602D338
:1010F00006D14D4504D20138B9EB020E68EB04036A
:10110000002EA7D0B5EB0E0261EB030101FA0CFC37
:1011100022FA07F3F9404CEA0303C6E9003199E7E4
:101120004046C5E74346D9E770B514460646CD1795
:10113000A1FB0201002304FB05110A22FFF734FE84
:101140000FA3D3E900230C4D80FB0545204629461B
:10115000FFF72AFE06A3D3E9002330602946204684
:10116000FFF722FE0023054AFFF71EFE726070BDE6
:1011700080A8120100000000D8EF2F0040420F00AD
:1011800000209BF35E1000002DE9F04105460C465F
:10119000002955D007296BD153681068384AD917F0
:1011A000C0FB0231012B71F100025EDB6E68354835
:1011B000B77E181841F100012FA3D3E90023FF09DE
:1011C000FFF7F2FD7BB2002B14BF042202229042F3
:1011D00096F91A401FD0002B14BF202210229042F3
:1011E0001BD0002B14BF08220422904217D0002BE2
:1011F00014BF10230823984237D103275FFA87F8DA
:10120000414630462D690AF02EFF002809DA6FF0BA
:101210000400BDE8F0810027F0E70127EEE7022790
:10122000ECE73D22184B002C33F8173085F81E8070
:10123000AABFA3FB023253435B08EB600020E8E740
:10124000124B12881F4633F8021B8A420AD868687C
:10125000E1B22E690BF07BF80028D8DB37F81430A8
:10126000B383EBE701340B2CEDD16FF01500D0E721
:101270006FF08500CDE700BF3AA3950000000000A5
:1012800040420F009DD14A00F4050100FC05010019
:1012900070B50D46032D114604461A4609D0072D98
:1012A0000BD00221324A33480AF0D7FD6FF0850097
:1012B00046E0BDE87040FFF767BF002941D007292D
:1012C000F4D159681D680A462B4BC817C5FB03208B
:1012D000B425A2FB0531012A05FB001170F10000C5
:1012E00018DB2648181841F100011FA3D3E9002399
:1012F0000025FFF759FD224B33F8022B904211D104
:101300006068E9B226690AF0C5FE002810DA6FF0BD
:10131000040015E01B48181861F1000112A3D3E97D
:101320000023E5E70135072DE6D16FF0150007E052
:1013300041F21712144B33F815305343B3610020B8
:1013400070BD1A88114B33F8020B824206D86068D0
:10135000C9B20BF06AF80028F1DAD8E701310B299D
:10136000F1D1E2E7AFF30080D8EF2F0000000000DA
:101370002D12010070EC000040420F00ECF7170046
:10138000E60501001408E8FFD8050100FC0501008E
:101390002DE9F74F03291446066905D90B1F032BC6
:1013A00053D96FF0850023E00229F7683A4D22D027
:1013B000032923D0012914BFB6F90460B6F90660E9
:1013C000A6FB076732A3D3E9002386FB05653046F9
:1013D0002946FFF7E9FC0023304A206029463046C1
:1013E000FFF7E2FC00232D4AFFF7DEFC62600020DD
:1013F00003B0BDE8F08FB6F90860E1E74FF0000BED
:1014000002F11803DFF894A00236019336F9028F37
:10141000A8FB07831EA3D3E9002388FB0598484651
:101420004146FFF7C1FC524644F8080B5B4648466C
:101430004146FFF7B9FC52465B46FFF7B5FC019BFE
:1014400044F8042C9C42E1D1D1E70629B5690CD0BF
:1014500007290ED02A46052914BFB6F91010B6F98F
:1014600012102046FFF760FEC1E72A46B6F91410B5
:10147000F7E70E3602F1180720462A4636F9021F12
:101480000834FFF751FEA742F6D1B0E7AFF3008072
:101490000010A5D4E80000003AA3950040420F00D8
:1014A0002DE9F04F144697B01D46476A8346239EA8
:1014B000CDE904457FB9102008F07CFB0246CBF84B
:1014C000240020B9A24BEA21A24808F043FBC0E95E
:1014D00001770760C760DBF82430196859B15A6892
:1014E0000123584693404A608B6009F0C3FCDBF847
:1014F000243000221A602B1EB7BF23F000430023C4
:1015000001220593A8BF3360059F934BB8BF32609B
:10151000BB4319D142F20F73229A1360C7F313032E
:10152000234300F0E085249B53B98C4B21E08C4B86
:1015300008930833249A1360089817B0BDE8F08F19
:10154000864B08930333F5E7DDE90423CDE90C234B
:10155000DDE90C0100220023FFF7B6FB804650B105
:101560000123229A1360249B13B17E4B249A1360AB
:101570007D4B0893E0E714ABC7F30A565846019336
:1015800015AB0093DDE90C2309F0FAFE0390002E61
:1015900078D00D9BA6F2FF36CDF84C80C3F3130331
:1015A00043F07F53DDE90C0143F440131946002258
:1015B0006E4BFEF769FF60A3D3E90023FFF71CF928
:1015C0005FA3D3E90023FEF761FF04460D463046D2
:1015D000FFF7A8F85CA3D3E90023FFF70DF9024653
:1015E0000B4620462946FEF751FF04460D46FFF7FD
:1015F000B3FB00220746002320462946FFF76EFB77
:1016000040B13846FFF78EF822462B46FFF75CFBC9
:1016100000B9013F162F54D8554B03EBC703DDE942
:101620000C01D3E90023FFF759FB00284BD0013F01
:1016300000231293149B9B1B5A1E4CBFC3F1010342
:1016400000230A9245BF0693002306930A93002FB6
:101650003BDB0A9B0F973B440A9300230B93209B91
:10166000092B00F28980052BC5BF043B002401240F
:101670002093209B023B032B00F28980DFE803F0DC
:101680002D3A3859DDE914631E4406F23243202B0B
:10169000C9BFC3F14003C3F120039F4006F21243C8
:1016A000D8BF04FA03F006F1FF36C4BF24FA03F3EF
:1016B00047EA0300FFF726F80122A1F1F87313921D
:1016C00074E70123B5E71290B4E7069BDB1B069392
:1016D0007B420B9300230F93C1E700230E93219BC2
:1016E000002B57DC012399461A46099321920CE0FE
:1016F0000123F3E700230E93219BFB1803F101095B
:1017000009934B46012BB8BF0123DBF824000021CD
:10171000042202F114059D4240D94160584609F067
:1017200069FB089000283CD1124B02464FF4D5715A
:10173000CAE60123DFE700BF61436F63A787D23F9B
:10174000B3C8608B288AC63FFB799F501344D33FB0
:10175000CE150100E51501000000F07FCA1501005B
:10176000C1150100201101001F1101000000F83F08
:1017700080ED000059160100012400230E942093EF
:101780004FF0FF330022994609931223AEE701235D
:101790000E93F5E7219B99460993B6E70131520074
:1017A000B7E7DBF82430B9F10E0F089A1A606FD84A
:1017B000002C6DD0002F36DD07F00F02A04BF8058E
:1017C00003EBC203D3E90034CDE910344FEA271408
:1017D00017D59C4B04F00F044FF00308D3E90823FE
:1017E000DDE90C01FFF732F9CDE90401954D5CB953
:1017F000DDE91023DDE90401FFF728F9CDE9040153
:101800002BE04FF00208F1E7E10709D508F10108E4
:10181000DDE91001D5E90023FEF7EEFFCDE9100167
:1018200064100835E3E700F007817C42844B854D66
:101830004FF0020804F00F02241103EBC203DDE9AC
:101840000C01D3E90023FEF7D7FF0023CDE9040103
:10185000002C40F0E580002BD0D1129BDDE904453F
:10186000002B00F04C810022774B20462946FFF7E1
:1018700035FA002800F04381B9F1000F00F03F81F4
:10188000099B002B00F3E480DDE90C34CDE904343E
:10189000159B002B02DB0E2F40F342820E9A002A8A
:1018A00040F067820B9C0025DDF81880B8F1000F2E
:1018B0000DD00A9B002B0ADD4345069AA8BF43467C
:1018C000D21AA8EB030806920A9AD31A0A930B9B22
:1018D0000BB30E9B002B00F0A682002C00F0A1821F
:1018E00029462246584609F0EFFB039A0146054671
:1018F000584609F03FFB03990646584609F0BAFAE4
:101900000B9B1B1B0B9300F091820B9A31465846A0
:1019100009F0DAFB03900121584609F015FB0F9BF3
:101920000446002B00F084821A460146584609F00E
:10193000CBFB209B0446012B03DC049B002B00F017
:101940007C820026236904EB830318690CF08DFA6E
:10195000C0F120000F960A9B184410F01F0000F001
:101960009182C0F12003042B40F38182C0F11C005E
:10197000069B0344804406930A9B03440A93069BF8
:10198000002B05DD1A460399584609F0F7FB039032
:101990000A9B002B05DD21461A46584609F0EEFB4E
:1019A0000446129B002B00F07682214603980CF02F
:1019B000ABFA002880F26F8200230A22039958466E
:1019C00009F07AFA0E9B7E1E0390002B00F05C82D9
:1019D000002329460A22584609F06EFA099B05465B
:1019E000002B03DC209B022B00F35E82B8F1000F7A
:1019F00005DD29464246584609F0C0FB05460F9BC7
:101A0000002B00F0D0826968584609F0F3F90746C8
:101A1000002840F07F820D4B024640F2EA2153E558
:101A2000E20706D508F10108D5E90023FEF7E4FE38
:101A30000123641008350BE74FF002080DE700BFE3
:101A400080ED000058ED00000000F03F5916010045
:101A500020460022AC4B2946FEF7CEFE7E1E08F142
:101A60000108099CCDE904014046FEF75BFEDDE973
:101A70000423FEF7C1FEA54B0022FEF707FDA1F1EE
:101A80005073CDE910011193002C3BD10022A04BE3
:101A9000DDE90401FEF7F8FC02460B46CDE904231C
:101AA000DDE91023FFF738F9002840F05781DDE920
:101AB000102101F10043DDE90401FFF70FF90028CF
:101AC0003FF4E2AE00242546219BDDF820A0DE4352
:101AD0004FF000082146584609F0CCF9002D00F0DF
:101AE000A980B8F1000F05D0A84503D0414658465B
:101AF00009F0C0F92946584609F0BCF99AE03E467B
:101B00004C46B1E7834B03EBC40353E90201089B46
:101B10001C440E9B002B4AD002460B4600207E49F7
:101B2000FEF794FFDDE91023FEF7AEFCDDF820A000
:101B3000CDE91001DDE90401FFF70EF90546FEF7D6
:101B4000F1FD024630350B46DDE90401FEF79CFC51
:101B50000AF8015B02460B46CDE90401DDE91001FC
:101B6000FFF7DAF8002865D100206C49DDE904238D
:101B7000FEF78AFC02460B46DDE91001FFF7CCF8C0
:101B8000002840F00D81A24500F0EA8000225E4B63
:101B9000DDE91001FEF730FE00225B4BCDE91001BC
:101BA000DDE90401FEF728FECDE90401C2E7DDE925
:101BB0001023FEF721FEA046DDF820A0CDE910019C
:101BC000DDE90401FFF7C8F80546FEF7ABFD024664
:101BD00030350B46DDE90401FEF756FC0AF8015BDF
:101BE00002460B46A245CDE904234FF0000223D163
:101BF000494BDDE91001FEF749FC02460B46DDE9E1
:101C00000401FFF789F8002840F0CA80002042490B
:101C1000DDE91023FEF738FC02460B46DDE904013E
:101C2000FFF75CF870B1C24608F1FF381AF8013CC2
:101C3000302BF8D0374655E0334BFEF7DDFDCDE9CC
:101C40000401BDE7DDE90C34CDE90434159B002B1C
:101C5000FFF628AE0E2F3FF725AE2E4B03EBC70342
:101C6000D3E90034CDE90634219B002B02DAB9F127
:101C7000000F64D0DDF820A0DDE90445DDE906238E
:101C800020462946FEF7E2FEFFF766F80646FEF715
:101C900049FDDDE90623FEF7AFFD0246204606F1C9
:101CA00030040B462946FEF7EFFB0AF8014B089C6F
:101CB00002460B46AAEB0404A14540F08280FEF7E1
:101CC000E5FB04460D46DDE90623FFF725F800286D
:101CD00065D120462946DDE90623FEF7F5FF08B168
:101CE000F3075CD40399584609F0C4F80023013780
:101CF0008AF80030229B1F60249B002B3FF41CAC11
:101D0000C3F800A018E400BF0000244000001C40FD
:101D10000000144080ED00000000E03F0000F03FB4
:101D2000A24B03EBC703D3E90034CDE90634219B72
:101D3000002B9FDAB9F1000F9CDC7FF4C3AE0022C8
:101D40009B4BDDE90601FEF757FDDDE90423FEF7B5
:101D5000D9FF044600287FF4B5AE3E462546B4E0E0
:101D6000DDE90C34CDE90434159B002B01DB0E2F8B
:101D7000D6DD209A012A36DC139A82B303F233436C
:101D80000B9CDDF81880069A012158461A440692E9
:101D90000A9A1A440A9209F0D7F8054686E53E46A3
:101DA00053469A4613F8012D392A06D1089A9A42C9
:101DB000F7D13022089901360A701A7801321A7068
:101DC00038E700227B4BFEF717FD00220023044674
:101DD0000D46FEF779FF00283FF450AF82E7149BD1
:101DE000C3F13603CCE709F1FF340B9BA34208DBB8
:101DF000B9F1000FA3EB04040EDBDDF818804B46AD
:101E0000C1E70B9B0F9AE31A0B94DDF818800024AE
:101E10001A444B460F92B6E7069BA3EB0908002332
:101E2000B1E7039E71E50B9A039970E5039672E59D
:101E3000209B012B17DC049BABB9059BC3F3130359
:101E40009BB9059B23F00046360D360536B1069B3F
:101E50000126013306930A9B01330A930F9B002B43
:101E60007FF470AD0F96012075E50026F6E73FF48C
:101E700086AD1C33069A1A44984406920A9A1A446C
:101E80000A927CE50346F4E7099B002B2BDC209BA0
:101E9000022B09DC27E0B9F1000F1DDC209B022B8F
:101EA0001ADD3E46CDF82490099B002B7FF40CAE42
:101EB00021460522584608F0FFFF014604460398D4
:101EC0000CF022F800287FF7FFADDDF820A03123C9
:101ED00001360AF8013BFBE50E9B3E46CDF8249007
:101EE000002B7FF483AD089F214603980BF02FFE53
:101EF000089B00F13009099A07F8019BFB1A9A42E6
:101F000040F3CB8000230A220399584608F0D4FFFF
:101F10000390E9E72A6905F10C010C3002329200C6
:101F20000BF0BBFC01223946584609F027F9089B03
:101F3000A846054603F1010ADDE9082313440A9384
:101F4000049B03F001030B930AF1FF33214603982E
:101F500006930BF0FCFD4146099000F1300903980F
:101F60000BF0D2FF2A4621460746584609F072F97F
:101F7000C268014602B3584608F07CFF002F3ADAE7
:101F800001220399584609F0F9F8214603900BF015
:101F9000BBFF002803DC29D119F0010F26D0B9F1CD
:101FA000390F1DD132E02846C1E700BF80ED0000A7
:101FB00000001440000024400E9003980BF0A4FF92
:101FC0000E990C90584608F055FF0C9A5ABB209B6E
:101FD00053B90B9B43B9B9F1390F17D0002F05DD69
:101FE000099B03F1310901E0002F2ADADDF818A07E
:101FF0000AF8019B6EE5209B3B4304D1049B03F050
:102000000103002BBCD0B9F1390F36D1069F39231B
:1020100007F8013BBA46013F1AF8013C392B5AD068
:1020200001333B7056E5002F06DB209B3B4306D176
:10203000049B03F0010313B9002AA1DCD6E7002AB0
:10204000E1DC0A9B57460AF8019C53452ED0002339
:102050000A220399584608F02FFFA84503904FF035
:1020600000034FF00A02414658460BD108F024FF06
:10207000804605460AF1010A66E7DDF818A009F175
:102080000109B5E708F018FF2946804600230A2217
:10209000584608F011FF0546ECE7099B4FF0000891
:1020A000002BCCBF1F460127089B1F440122039928
:1020B000584609F063F8214603900BF025FF0028ED
:1020C000A8DC02D119F0010FA4D1BA4617F8013DDE
:1020D000302BFAD0FEE4089BBB429BD13123089AF7
:1020E00001361370F6E4249B002B7FF420AA014BE9
:1020F000FFF73FBAC1150100012310B586B0019367
:1021000000238DF808300723CDE9031200908DF8E5
:10211000143007489DF81430826843F002038DF8AC
:10212000143094686A2302226946A04706B010BDA5
:1021300090E200001FB520238DF8013002238DF8B6
:102140000000CDF804D002938DF80C3007489DF8BC
:102150000C30826843F002038DF80C3094686A23D7
:10216000012201A9A04704B010BD00BF90E2000009
:102170002DE9F04F8BB002AF5E4C20460AF0B3FF62
:102180000346B8B921686C4688B002AA5A48C2E929
:1021900005014FF400719183584942F8101F4FF424
:1021A000E251574801F05EFCA54600202437BD46A9
:1021B000BDE8F08F23686C4688B002AA5149C2E995
:1021C00005134FF4007393834C4B42F8103F0023E8
:1021D0004FF4E6514A4801F045FC00233B760F23BB
:1021E000A546012207F1180107F10E00BB73FFF7A6
:1021F00083FF034628B1444A0121414809F036FED5
:1022000009E03B7E6A2B0CD06A22012100923C48F7
:102210003E4A09F035FE01213D4A394809F01DFECC
:10222000C3E703213B4A364809F020FE1020FFF7A0
:1022300081FF034608B1384ADEE71120FFF77AFF35
:10224000034608B1354AD7E70321354A2C4809F03F
:1022500004FE344808F05CFA334C294D236806220A
:1022600001332360282307F110013B7607F11800A2
:10227000FFF742FF034678B12C4A0121284609F0B6
:10228000F5FD012128462A4A09F0E7FD002147F61D
:10229000122006F003FAE1E7B7F9143006223B609A
:1022A000222307F1180107F10F00FB73B7F910A003
:1022B000B7F912B0FFF720FF034608B11D4ADCE76B
:1022C0002368B7F91860B7F91A80B7F91C905A4615
:1022D00051467B6018483B6808F0A8F931464B46E8
:1022E0004246164808F0A2F97968154808F09EF9A8
:1022F000CCE700BF90E200001206010003000001DD
:10230000C8EC00002E06010046060100710601001F
:10231000890701009B060100C5060100EF060100C8
:10232000180701003A070100880B0020AE070100E2
:1023300053080100DB070100040801002508010023
:10234000450801002DE9F04F91B0009302F004031D
:102350000293C2F3C2030133840705460E46DDF83B
:1023600068800392059340F0BB81041D30B10729BA
:1023700009D86FF01B0011B0BDE8F08F01F007061F
:102380003444C6F10806009B4FF000094FF0040AE0
:10239000591E4FF0FF334F460193CB465346CDF8BD
:1023A00010900DB1009A22600598002800F3E88093
:1023B0009848009A824203D397488242C0F0E08056
:1023C000039AA4EB050E92074FEA9E0000F10381E9
:1023D0000F2F00F2B180002D00F0058107F14002BF
:1023E0000DEB020C019A0CF8200C0CF8102C049840
:1023F00001300490E7E07A285DD84B280ED84728B2
:1024000059D829282DD8252852D054D820287AD018
:102410002338D0F1000B4BEB000B74E04C382E2826
:1024200049D8DFE800F070484848484848484848DC
:1024300048484B484848484848484859484B4B59F1
:102440005959704B6D487048184B184848827F4B5B
:1024500048484B487F0000204FF0000B4FF0040A23
:1024600038E001222A38C0B202FA00F010EA0E0F5A
:1024700049D110F0625C2FD110EA020B43D06046C4
:10248000013C5444B4FBFAF40AFB04F4002D61D07F
:10249000A3EB050CA444B4453FF66BAF002868D10C
:1024A000042B47D158F8043B2360042304342AE06A
:1024B000019A013A01924FF0000B24E011F8010C4F
:1024C0006C2834D1002011F8023C83466C2BC5D116
:1024D0004FF0080A5346D3E708F1070828F0070829
:1024E000073424F00704F8E802AB35B1069820441D
:1024F000B0423FF63EAFC4E900AB4FF0000B0834EA
:102500004FF0080A534611F8010F002878D0BBF1AC
:10251000000F7FF470AF2528F5D14FF0010B019B20
:10252000013301934FF0040AECE7584694E700208A
:102530008346A5E7082B02D06FF015001BE708F1D2
:10254000070828F00708F8E80223C4E90023082355
:102550000834D8E768B9042B02D108F10408A4E7CD
:10256000082BE9D108F1070828F0070808F1080846
:10257000EDE7059A013A059258F8042B009210E70E
:10258000039A900720D54FF0010CA4EB050E4FEAFB
:102590009E00BEF5007FCFD20F2FCDD8F5B107F149
:1025A00040020DEB020E019AC0B20EF8200C0EF89C
:1025B000102CBCF1000F3FF41AAF60F07F000EF852
:1025C000200C09F101090137C5F108024FF6DA7E46
:1025D0000434069297E74FF0000CDAE7BCF1000FE5
:1025E00001D00136EFE7029802360028EBD10098BF
:1025F000CDE90631FEF742FCDDE906310644E2E7AB
:10260000631BB3F5806F97D245B9A6F10804E018B3
:10261000B1E600BF80E00000E8160100029A9B08C6
:1026200028602B709DF81030C2B1EB7085F80290D5
:10263000B9F1000F05D0002208A8C5F1010C97429E
:102640000ED14FF0000AC5F101030DF120080193EE
:102650000DF1300B574512D1601B8CE66B70E5E72E
:1026600010F8013B190608D50CEB040EB64503F033
:102670007F033FF67EAE04F8013B0132DFE7B9F19C
:10268000000F03D098F90020002A17DB029BD3B17A
:102690001AF80B2004F8012B0022019B1819104492
:1026A000B0423FF666AE98F80000009904F8010BBE
:1026B000204603920BF0F1F8039A14440AF1010A40
:1026C00008F10108C6E798F8002055F82230009379
:1026D000029B009845F82230FEF7D0FB421CDCE755
:1026E0006FF00D0047E600BF2DE9F04F97B000AF47
:1026F000D7F880B03B62CBF3C0030446894690F81C
:1027000002A0FA62BB6141B9457800780AEB80000B
:1027100020444D4517D8A0EB0409E378FB61BAF1DA
:10272000000F02D01BF0010F16D1FB6953BBFB6AEF
:102730001BB1494620463A6A98474D4628465C37C1
:10274000BD46BDE8F08F461C3046FEF797FB0130D2
:10275000304409F10109DCE7626823787A62FA6A99
:102760009900796104EB8301002A40F001810E4653
:102770004FF000084D4601EB0A094E454CD101EBE4
:102780000A0610E01BF0020FD1D023789A007A617C
:10279000626804EB83017A62FA6A002A77D14D46B7
:1027A000904601EB0A061BF0050F0CBF0223012324
:1027B000FB62FB6906EB430A0BF00203BB62564562
:1027C000BCD016F8021B16F8013C54F82390994B24
:1027D000994502D3984B994536D3BB69002B40D01D
:1027E000786A08F0BFFE00283BD0E9468AB06A4606
:1027F000924B53617B6AC2E906314FF40073138434
:102800008F4B42F8103F00234FF412518D4801F0D6
:1028100029F9023DCD46D2E716F8013BF96254F89A
:102820002300FEF72BFBD7F88430F96A01304BB157
:10283000D7F8883098453EBFD7F8843023F8180081
:1028400008F10108054498E7BB6923B1786A08F0EC
:1028500089FE0028C9D11BF0010F05D1FB6AED1AD2
:10286000ADE7BB6A002BAAD04846FEF707FBD7F8B6
:10287000843053B1D7F8883098453FBFD7F88420CB
:10288000431C22F8183008F10108054497E7BAF113
:10289000000F73D01BF0040673D0D046002607F15A
:1028A000480052463B61B9620AF0F7FFB96A3B69DA
:1028B00001EB0A02BA62FA69F9695200FA60BA6A6F
:1028C00002EB41023A610BF00202BA603A69B96A5E
:1028D0008A4258D162781BF0020F18BF00217A6239
:1028E00008BF4FEA5801B2181BF0010FD2B240F0F6
:1028F0009F801BF0040F14BF40460020BB61627034
:10290000A070E17020463A6A7969FB6A9847051E13
:10291000FFF614AFBB69414623707B6A3A6A637065
:10292000FB6984F802A0E37007F14800FB6A98474E
:10293000B0F10008C0F2BA807B69A9EB0A01C91A9C
:10294000FB683A6AC91AD7E90A0398470028C0F217
:10295000AF804FF0000BA84408EB000507F1380AE0
:10296000B34571D300213A6A0846FB6A9847E5E609
:1029700056464FF0000807F1380092E75646D04619
:1029800096E7B04694E7BA6A12F8021B12F8015CA7
:10299000BA6254F82500274A904202D3264A904250
:1029A0001ED3BA6932B1786A7B6008F0DBFD7B68C0
:1029B00000288BD1BA6802BB08F1280207F1300C5D
:1029C00008F10100944407F1580208F1020852FA94
:1029D00080F00CF8101C5FFA88F800F8105C75E7BE
:1029E000BA693AB1786A7B6008F0BCFD7B68002860
:1029F0007FF46CAF1BF0010F09D006F1280207F13C
:102A00003000711C161806F8205CCEB25EE71BF091
:102A1000040F3FF45BAF08F1280207F1300008F122
:102A2000010102EB000808F8105C5FFA81F84DE73D
:102A3000002063E780E00000E81601007D08010047
:102A40000400000180EC00001BF80A3054F82390C9
:102A500087F83730D7F884302BB3D7F888309B45C8
:102A600021D2D7F8843033F81B8001213A6AFB6AFF
:102A700007F13700984700281ADB0544B8F1000F2A
:102A800006D14846FEF7FAF900F101081FFA88F866
:102A9000414648463A6AFB6A9847002808DB0544E5
:102AA0000BF1010B5CE74FF00008DEE7454645E619
:102AB000054643E6014B1860704700BFD000002078
:102AC00030B5002587B0CDE903010446009503A980
:102AD0000548059500F06EF8DDE904309842B8BF6E
:102AE000255407B030BD00BFB3B50000F0B50246B5
:102AF00001680A270020074E0B461C780131355D1E
:102B00006D0701D41360F0BD07FB0043A3F1300053
:102B1000F2E700BF821401002DE9F84F15469A46EE
:102B2000D378234A6F2B12F803B081460F460BF07F
:102B3000030B2BD026D8582B0CBF10260A26DDF805
:102B400028803246002348463946FEF77DF9092A97
:102B500008F1FF38D4B21ED83034B145E4B277F171
:102B6000000788F8004001D3D04511D82B789B0688
:102B700005D5082E15D1AB7843F00803AB7040465D
:102B8000BDE8F88F03F0F703702BD5E70826D6E7EA
:102B900081460F46D5E7BBF1010F0CBF37345734E0
:102BA000DBE7102EEBD1AB7843F01003E6E700BF74
:102BB000821401002DE9F04F8A4616461C46002576
:102BC00097B00390307808B9284655E325280AD0F5
:102BD0005146039B98470028C0F24E83731C013571
:102BE0000493049EEEE71822002110A80AF062FE6A
:102BF0007378252B00F0A380002398469E469C46C0
:102C00001846711C0F4611F8012B2B2A00F0C680C4
:102C100000F2BD80202A00F0C480232A00F0C48086
:102C20002BB19DF8483043F040038DF84830B8F19F
:102C3000000F05D09DF8483043F020038DF8483050
:102C4000BEF1000F05D09DF8483043F010038DF819
:102C50004830BCF1000F05D09DF8483043F0080320
:102C60008DF8483028B19DF8483043F004038DF8C2
:102C700048309DF8483003F04401442903D16FF3F4
:102C800086138DF848309DF848302A2A43F0800397
:102C900009978DF8483040F08C809DF8493043F01A
:102CA00001038DF849307B1C1A782E2A0CBF0121B4
:102CB00000219DF8492061F341028DF849200CD193
:102CC0005A1C09925A782A2A40F083809DF849209C
:102CD000023342F004028DF849201A786C2A00F081
:102CE000A48000F28680682A00F08C806A2A00F0B6
:102CF000A5804C2A00F0AA801A4612F8013B782BD6
:102D000004928DF84B309DF8492000F217816D2B0D
:102D100000F2A980692B00F21181572B00F2BE80CE
:102D2000412B03D0453B022B00F2088104229DF881
:102D30004A3062F302038DF84A300123CAE08DF86D
:102D40004B30B31C04939DF84930D90740F1FD8006
:102D500054F8048BB8F1000F07DA9DF84820C8F149
:102D6000000842F004028DF848205A0740F1F6802E
:102D700054F804BBBBF1000F80F2F5809DF8493098
:102D80006FF341038DF849304FF0FF3BEBE02D2A04
:102D90000DD0302A7FF444AF012333E74FF0010C0C
:102DA00030E74FF0010E2DE74FF001082AE7012030
:102DB00028E709A8FFF79AFE099BBB423FF474AFCE
:102DC0009DF848201390C00F60F341028DF8482011
:102DD0006AE709A8FFF78AFE9DF848301490C3F30C
:102DE000400242EAD07262F341038DF84830099BF9
:102DF00073E7742A26D07A2A7FF47EAF06219DF8E5
:102E000049200CE05A78682A9DF8492006D1012112
:102E100061F3C6028DF8492002336DE7022161F3A8
:102E2000C6028DF84920013366E75A786C2A9DF86E
:102E3000492001D10421EBE70321F0E705219DF8AA
:102E40004920ECE707219DF84920E8E7BDF8482034
:102E500022F4F04222F0020242F4804242F00202E6
:102E6000ADF84820DFE76E3BD9B201238B4040F23A
:102E700082410B4238D113F0240F52D1DF075DD5C8
:102E800003219DF84A3061F302038DF84A3002F0C5
:102E90007803A3F14000434243411BE00120A3F12A
:102EA0005801C9B200FA01F111F4624F7FF43EAF4C
:102EB00040F6010739421DD111F4043F3ED09DF880
:102EC0004A3060F3020302F07802402A8DF84A305B
:102ED00034D000239DF84820C2F340010B4363F334
:102EE00041028DF848202EE702219DF84A3061F317
:102EF0000203E8E702209DF84A1002F0780260F32E
:102F00000201402A8DF84A1002BF9DF8481041F096
:102F100001018DF84810632BDBD1131E18BF01236C
:102F2000D8E703219DF84A3012F0780F61F30203CD
:102F30008DF84A3014BF01230023CBE79DF84830B9
:102F400043F001038DF84830C3E79DF94820002A7B
:102F5000ACBF4FF0FF38DDF84C8006E79F077FF5E8
:102F600013AFDDF850B00023CDE913339DF84A309C
:102F70009DF8491003F00703012BC1F3C30132D1BF
:102F8000CB1E042B04D8DFE803F0204545202000A9
:102F9000236801294FEAE372CDE910321BD19DF974
:102FA0004030DA17CDE9103204349DF8483013F080
:102FB00003074FD032465146049B039808F02FFB7D
:102FC0000028C0F2598105440BE654F8043BDA1797
:102FD000CDE91032E9E70229E6D11AB243F3C03352
:102FE000CDE91023E0E7022B24D1CB1E042B04D81B
:102FF000DFE803F018101018180001294FF0000244
:1030000054F8043B14D00229CDE91032CDD19BB243
:103010001093CAE7073424F00704F4E80223CDE94B
:103020001023C2E754F8043B109300231193BCE72C
:10303000DBB2CDE7042B08D1073424F00704D4E930
:1030400000230834CDE91023AFE7032BADD154F8AA
:10305000043BDDE79DF84B0078283FF6C2AD6228BF
:103060001ED8252850D058287FF4BBADDDE91001CB
:103070000DF13E03009312AA0AABFFF74DFDBBF121
:10308000000F814680F2C180B9F1000F3FF4A9AD75
:103090000DF13E06A6EB0903002F7BD0013379E04A
:1030A000633815283FF69DAD01A252F820F000BF0D
:1030B00083310000E1310000E32B0000E32B00002E
:1030C000E32B0000E32B0000E1310000E32B0000C4
:1030D000E32B0000E32B0000E32B00002D32000067
:1030E0000532000041310000E32B0000E32B00001B
:1030F00019310000E32B000005320000E32B000033
:10310000E32B0000053200005146039B984700283E
:10311000C0F2B280013564E5BBF1000FDDF84090EC
:103120000ADB594648460AF006FDB9F1000F3FF4A4
:1031300058AD09EB000620E04846FDF79FFEF8E792
:103140001098002800F086800DF13E060AAB0021A1
:10315000009612AAFFF7E0FCBDF84A30BBF1000F61
:1031600003F0EF0343F4F04343F010038146ADF85E
:103170004A3049DA00283FF434AD0027A6EB0903B2
:1031800008E0109B00278DF8283001230DF1290657
:103190000DF128099DF84A1011F0100206925FD037
:1031A0000233139A134405924A0644BF14995B18DC
:1031B000B8F1000F6DDDA8EB03089DF84830580703
:1031C000C3F3800B65D4590659D53FB151463846F3
:1031D000039B984700284FDB5F46013530234FE0C3
:1031E0001E075ABFC3F300135F012B27DDE910232D
:1031F000002BBFF63BAF524263EB43032D27CDE9D3
:10320000102333E7002731E700279DF848100DF120
:103210003E03A3EB09036FF386119B458DF848101D
:103220007FF632AFABEB030313932DE7109B072917
:103230003FF6D7ACDFE801F00C04060C08080C0CD4
:103240001D70CEE41D80CCE4EA17C3E90052C8E447
:103250001D60C6E4304E07460523A6F1050999E72F
:10326000080748BF01339CE7184607935146039B64
:1032700098470028079B04DA17B0BDE8F08F202399
:10328000C346594600290BF1FF3BEDDC4544D846C7
:103290006D1A37B151463846039B98470028EBDB3F
:1032A00001359DF84A30DA0601D41B0706D5514690
:1032B0003020039B98470028DEDB0135069B3BB19D
:1032C00051469DF84B00039B98470028D4DB0135FD
:1032D000059F2F4406E051463020039B9847002865
:1032E000CADB01357B1B002BF5DC33464A465146D1
:1032F000039808F094F90028BEDB0544A844A8EB25
:103300000503002B7FF76DAC51462020039B9847A7
:103310000028B1DB0135F2E7360901002DE9F0475D
:10332000058B04462807904611D4022905F00705AD
:1033300040F0CC80204608F0F5FB78B10138218BB5
:10334000042811D8DFE800F0C2106D85950001292E
:103350000CBF45F0100545F02005258388F3118842
:10336000BFF36F8FBDE8F08701F0070AAA4500F0B0
:10337000A5800027B9463E46A368002B00F0BC801C
:1033800041F00801218388F31188BFF36F8FA16892
:10339000002900F0BA800D68002900F0B68033469D
:1033A00052462046D1F80480C047002D76D02B68C5
:1033B00029461D46F0E701F007035A1F012A1BD8D2
:1033C000002221F00701062B276889B2C4E90022F8
:1033D00009D13B4603E0628B013262831B68002BFC
:1033E000F9D141F002012046218308F09BFB00281F
:1033F0007AD041F0200176E0042B0AD121F00701B8
:1034000089B22046218308F08DFB10B141F02001E4
:103410002183218B01F0070AAA454FD00027B94626
:10342000AAE7236921F0070141F00601062DD3F830
:10343000009021832DD1B9F1000F3FD041F0080158
:10344000218388F31188BFF36F8F20463949C8471D
:1034500029E021F00701236941F0040189B2042D1C
:10346000D3F804902183E6D000274FF0040A3E46AB
:1034700082E721F00701236941F0050189B2052D9A
:10348000D3F808902183D6D000274FF0050A3E4696
:1034900072E700274FF0060A3E466DE72B4687E7A6
:1034A000B9F1000FD1D1EFF31188202383F31288F3
:1034B000BFF36F8F238B23F008032383258BEA064A
:1034C0002ED525F01003238305F007056669218BAF
:1034D000002EBFF670AF00232768C4E9003321F047
:1034E000070141F001012183218B4FF0000901F018
:1034F000070AAA457FF440AF002F9CD041F0080195
:10350000218388F31188BFF36F8F002FC8D03D68E7
:10351000394633465246204608F030FB2F46F4E742
:10352000AB067FF51BAF25F02003238305F00705CD
:1035300000E700BFA9BB00002DE9F047044607469D
:103540004FF00109DFF8508014B93846BDE8F08724
:1035500094FAA4F5B5FA85F509FA05F32E0108EBFE
:1035600005156FEA030A24EA03042B7B002BEBD03A
:1035700058F806301B694BB9464473680422284644
:10358000196807EA0A0708F0F9FBDDE728469847BB
:103590000028D9D1F0E700BF08ED000030B50022C7
:1035A00089B00F490F4809F0FBFE002200230024D8
:1035B000CDE906230E230C4DCDE903344FF44072C0
:1035C0002846CDE90144094B0949009404F0C6FDA1
:1035D0000849284609F0E1FD204609B030BD00BF8A
:1035E000F93500003009002098040020113900004E
:1035F0003015002037090100014804F021BD00BF4B
:103600006C0400202DE9F047804621480F4608F061
:1036100099FB0646002833D000252846BDE8F087F0
:10362000237B83B12368DB680BB12046984763682E
:1036300083F8069023681B69D3B963680422204687
:10364000196808F09BFB013610345445E8D3B8F1F3
:10365000000FE2D0002DDFD02846FFF76DFF0546B2
:10366000002FF7D0002140F2391005F017F8F1E7EC
:10367000204698470028E0D009FA06F31D43E2E708
:1036800005464FF00109034CDFF80CA0DDE700BF51
:103690009C0B002008ED000018ED0000014B53F8D2
:1036A000200070475CEE000008B5034608462BB1C9
:1036B000044A136000F070FC002008BD6FF0150094
:1036C000FBE700BFD400002010B5044C237813B9E9
:1036D000034804F0B5FC0123237010BD041500203D
:1036E0006C04002010B50446094808F02BFB3CB1DF
:1036F000084BD3E8EF1F0139C3E8E21F002AF8D1D5
:10370000054809F059FEBDE81040044804F098BC93
:10371000940B0020980B0020300900206C0400203E
:1037200000200146034BD3E8EF0FC3E8E21F002A55
:10373000F9D17047940B002070B5FFF7F1FF0546F3
:10374000074C084EB44200D370BD63685B792BB15F
:1037500023685B6813B12946204698471034F1E787
:1037600008ED000018ED000010B5044C0449204697
:1037700008F071F8034B1C6010BD00BF90030020DF
:1037800048EE00008C0B002000230D4A10B513708A
:103790000C4A0D4913600D4A0D481360FFF784FF72
:1037A000FFF7E2FF0B4B0C4918468B4200D310BDCC
:1037B0001A1A5C681211013222711033F5E700BF4A
:1037C00005150020940B002040420F00980B0020AC
:1037D00041BD000008ED000018ED00000146002288
:1037E0000023014808F058B890030020014808F071
:1037F000F1B800BF90030020024B0146186808F0A2
:103800003DB900BF8C0B0020014808F072B900BF21
:103810009003002070B5274B1878002849D0FFF797
:10382000E5FF0546002841D1234B244C1B68002BA3
:1038300019DD09F0B3FD4FF47A75A0FB050647F6D4
:103840001222002305FB0161FDF7FEFAD4E90032E4
:10385000C01A40F2E93361EB0201984271F10001B4
:1038600001D3FFF769FFD4E9003213F57A7342F10F
:103870000002C4E90032BDE87040FFF7C5BF6368CD
:103880005B7923B12368294620461B68984710348A
:10389000B442F4D32846FFF7AFFF094BD3E8EF1F3C
:1038A0000139C3E8E21F002ABED0F7E7054C064EF7
:1038B000EEE770BD04150020940B002028090020BD
:1038C000980B002008ED000018ED000070B50D4DBC
:1038D000297861B90120FFF795FE0B4C0B4EB442DD
:1038E00006D3FFF797FF0028FBD101232B7070BD93
:1038F00063685B791BB1236820469B689847103446
:10390000EDE700BF0515002008ED000018ED0000F0
:1039100000212DE9F0470846FFF774FE044648B33E
:1039200040F21B684FF0000904F00AFF1A4B1860C0
:1039300030B11A4B1B68092B02DD194804F080FBDB
:103940000025184FDFF858A044B12046FFF7F4FDDA
:10395000044618B94FF0FF384FF0FF39FFF75AFF10
:10396000064628B9B5B942464B46504604F09CFB82
:103970003546E9E74FF0FF384FF0FF39D4E72B68C1
:103980009B691BB100222846114698471035BD425D
:10399000F5D3E8E7044DFAE7900B0020980B0020E0
:1039A0006C04002018ED000008ED000013B5184865
:1039B00008F0C8F9174B1B7873B1EFF3118420237B
:1039C00083F31288BFF36F8FFFF724FF84F311880E
:1039D000BFF36F8F02B010BD0F4B1B68002BF9D0E7
:1039E00050B9002200230D48CDE9002347F61222EA
:1039F000002305F08FF9EDE70928EBD1074809F01E
:103A0000DBFC074802B0BDE8104004F019BB00BF62
:103A1000980B002005150020900B00203009002095
:103A20006C04002010B5064B04461B6898472146DD
:103A3000A060044807F0AFFFBDE81040FFF7B6BF35
:103A4000D400002090030020044A054B9B1AB1EBE0
:103A5000D30F34BF52F831000020704770EC0000E3
:103A600008ED00002DE9F04F8FB0C1F34A2804AFF4
:103A70000D469146B8607B600C0DB8F1000F63D025
:103A800000264FF0040B4FF00A0A07F11403C7F8A1
:103A90000C80C7E907667E620193CDF808B0CDF8C7
:103AA00000A007F11C0332464846F968FEF71CFEE9
:103AB000B0F5006F03461CD36C468AB0D9F80410E9
:103AC00004AB26481A46C3E9050140F2FF71D961EB
:103AD0004FF400711984224B42F8103F4FF41251F9
:103AE00033462048FFF7BEFFA5462C37BD46BDE84C
:103AF000F08FC0F30A0804F11700184420F0070003
:103B000080083B60FFF76AFE68F35325044690B1D6
:103B10003B6800F11001C7E9083607F11403F961A9
:103B2000CDE900A3CDF808B048460F4AF96807F17F
:103B30001C03FEF7D9FD68F353252A4620467B680F
:103B4000B96808F03AF9D0E704F1170020F007004F
:103B50008008FFF743FE0446EDE700BF4C09010073
:103B600004000001B0EC00008FBD00002DE9F04F13
:103B700087B00446DDE9105ADDE91279934698468C
:103B80000391BFB13B46524610210020CDF8009072
:103B9000CDF81490FEF7D6FBB0F5006F06460AD3B9
:103BA00040F2FF730221174A174807B0BDE8F04FF3
:103BB00008F05CB93E4605F11700304420F00700DC
:103BC0008008FFF70BFE04F007040BF0070BE4007E
:103BD00044EA8B1444EA462444EA0554054640B1BD
:103BE0003FB13B4652463146CDF800901030FEF7CB
:103BF000A9FB434622462846039907B0BDE8F04F8B
:103C000008F0DBB88B090100B0EC0000406820B17F
:103C1000034BC01A40F3CF0070474FF0FF3070479E
:103C200070EC00000EB403B503AB53F8042B01464F
:103C30000448019308F04BF902B05DF804EB03B0BF
:103C4000704700BFDDBE0000CA0605D48B064CBF1E
:103C500002490349FFF7E6BF704700BF5108010062
:103C6000C30901002DE9F04F89B09A46149B9DF8D5
:103C70004CB00693159B04460593169B0D46904643
:103C8000179E0493BBF1000F00F09D8006F4807333
:103C9000079308F071F806F00209024600283ED0AA
:103CA00020469249FFF7BEFF0746B9F1000F08D042
:103CB00016F0440F35D12A4620468D49FFF7B2FF52
:103CC000074406F0010353B18A4B204653F82B20DA
:103CD000894B8A49002A08BF1A46FFF7A3FF06F45A
:103CE0008073002B49D006F00803002B63D1B8F194
:103CF000000F66D0424620468149FFF793FF0546F4
:103D0000069B3D44002B6DD1049B002B73D1F30720
:103D100000F1E58031462046FFF796FFD9E00746DF
:103D2000C3E7784B18680028CAD0774B4FF47A79EC
:103D30001B684FF03C0CB5FBF3F5B5FBF0F14FF40D
:103D4000616300FB115509FB05F5B1FBF3F2B5FB0F
:103D5000F0FE03FB121100FB1E55B1FBFCF309FB47
:103D600005F5B5FBF0F50CFB131120460091CDE9EC
:103D700001E56649FFF756FFA2E706F00803EBB13D
:103D8000634B204653F82B206249FFF74BFF054653
:103D9000B8F1000F05D0424620465949FFF742FFCF
:103DA0000544BAF1000FABD0524620465A49FFF7FE
:103DB00039FF0544A4E74FF0000AE1E706F00805E3
:103DC000E6E745469CE7BAF1010F069B06D1002BBA
:103DD00065D1049B002B7CD000250CE0002BF8D093
:103DE0004E485DE04E48069B22464E4907F089FB4F
:103DF000049B002B69D0DFF83081DFF83091049FFD
:103E00003146102F204628BF10274FF0000AFFF739
:103E10001BFF554546DC059B494620461A78FFF7AF
:103E200001FF4FF0010A1AF0070F03D14146204667
:103E3000FFF7F8FE57453CD9059B4946204613F845
:103E40000A20FFF7EFFE0AF1010ABAF1100FEAD1DA
:103E50004FF0000A20463649FFF7E4FE5246059B24
:103E600020469A5C334B995C11F0970F08BF2E22C5
:103E70003149FFF7D7FE0AF1010ABAF1100F1DD040
:103E80001AF0070F03D141462046FFF7CBFE5745F6
:103E90005246E4D841462046FFF7C4FEEBE72048EF
:103EA0005D46A0E741462046FFF7BCFE0AF1010A45
:103EB000AFE720462149FFF7B5FEC4E7059B3B4429
:103EC0000593049BDB1B049399D1BBF1000F7FF496
:103ED0001EAF204609B0BDE8F04F07F0EBBF20460B
:103EE000054A0649FFF79EFE14E700BFCB09010013
:103EF000CF0901006CEE0000C6090100AF110100FE
:103F0000F4090100A40B0020A00B0020D809010037
:103F100080EE0000F8090100FE0901000BBF00005F
:103F2000DDBE0000CFBE00000B0A0100030A010045
:103F30000D0A0100821401000F0A0100090A0100A4
:103F400042F20F7373B58B4228BF0B4605680446D7
:103F5000052168460D4A07F04BFB06466368284674
:103F60000B225B680A4907F097FF6368324669468F
:103F700028465B6807F090FF63681B2228465B6851
:103F8000044907F089FF02B070BD00BFA20B010019
:103F90002E0A0100120A010000210123064A904264
:103FA00006D8064A01B901231360054B1860704713
:103FB000012140085B00F2E740420F00A00B002007
:103FC000A40B00202DE9F34143680DF107011C68A3
:103FD0001048656807F0FCFF30B99DF8071001290B
:103FE00002D10C4800F030F801232B7525682F68AA
:103FF000D5E90136D3E9004824B96B681C6002B0EA
:10400000BDE8F081214630464246B847241A0644AE
:10401000F2E700BFDCE10000F8B50D460446064FAC
:104020004618B44201D12846F8BD14F8011BBB68FC
:1040300001485B689847F4E7DCE10000014B03604E
:1040400000207047C8EE000070B5046A0D469CB3AE
:104050001E4A2379565CB34231D01D4A525C9A42C3
:1040600030D1A3689847002810DA022D0CD0032D18
:104070000BD110F1860F07D0D4E8EF3F43F00203D5
:10408000C4E8E23F002AF6E7267170BD022D2671D2
:1040900001D00020F9E7D4E8EF3F23F00403C4E89F
:1040A000E23F002AF7D1D4E8EF3F23F00203C4E84F
:1040B000E23F002AEDD0F6E76FF05700E5E76FF03A
:1040C0007700E2E76FF08500DFE700BF900A0100AC
:1040D0008C0A010008B5044807F07DFABDE80840E5
:1040E000024807F078BA00BF940A0100C90A01002B
:1040F0002DE9F04706460C4600AF002936D0D1E93D
:104100000012E9468AB06D46A3684FF0050AA8463A
:104110001F48C5E90723C5E9050148F810AF00238A
:1041200042464FF421511B48FFF79CFCD4E903128F
:10413000CD466369AD461848C5E90723C5E90501C1
:10414000C5F810A0002342464FF421511148FFF753
:1041500089FCCD46E3690121104A0E4807F086FE2E
:10416000A36901210E4A0B4807F080FE012E07D1FA
:10417000EFF305830B4A31460648103B07F076FE05
:104180002146304603F0FEFCBD46BDE8F08700BF87
:10419000F70A0100D8EC0000260B0100550B0100C6
:1041A000640B0100920B010030BFFFF7FDBF00BFA1
:1041B000054B5A699B689A421FBF044A536843F0F3
:1041C00080535360704700BFCC0E002000ED00E02C
:1041D00070B52A4C06460D4629482A4908F0DEF9F2
:1041E000A36ADB0647D52648274908F0D7F91120EE
:1041F000A36A1C0704D52248244908F0CFF91220ED
:104200001E4CA36A990712D521491D4808F0C6F92A
:10421000636BA26A120609D501211E4A184807F0ED
:1042200025FE1EB1A36A23F08003A3621320134C62
:10423000A36ADE0704D51248174908F0AFF9142025
:10424000A36A9C0604D50E48144908F0A7F9152066
:104250000A4B9A6AD10658BF9A6A9A6A920642BF76
:104260005A6A22F400525A629A6A42F0FF029A6233
:1042700000232B7070BD1020BAE700BF00ED00E0F6
:10428000D8EC0000A50B0100BB0B0100EE0B0100F8
:10429000010C0100190C01002F0C01004E0C010053
:1042A00010B5244C2449254808F078F9A36A9901EF
:1042B0003ED52248224908F071F91E20A36ADA018E
:1042C00004D51E481F4908F069F91F20194CA36A3C
:1042D000DB0204D519481C4908F060F90220A36AE2
:1042E0001C0304D51548194908F058F92120114C30
:1042F000A36A590304D51148154908F04FF9222043
:10430000A36A9A0304D50D48124908F047F92320FF
:10431000084CA36ADB0304D508480F4908F03EF9AE
:104320002420A36A6FEA03436FEA1343A36210BD1C
:104330001D20C3E700ED00E07D0C0100D8EC00007B
:10434000950C0100A80C0100C20C0100EC0C01004E
:104350000A0D01002F0D0100490D010070B5294C17
:1043600006460D462848294908F018F9A36AD904D9
:104370003CD52548264908F011F91720A36A1A05EB
:1043800004D52148234908F009F918201D4CA36AD7
:104390009B0512D51C48204908F000F9A36BA26ABE
:1043A000100409D501211D4A174807F05FFD1EB111
:1043B000A36A23F40043A3621920124CA36A59058F
:1043C00004D51148164908F0E9F81A20A36ADA055D
:1043D0000ED50D48134908F0E1F81B20094A936AED
:1043E00043F47F43936200232B7070BD1620C5E712
:1043F000A36A9B04F2D504480B4908F0CFF81C20AF
:10440000ECE700BF00ED00E0D8EC0000740D010007
:104410008A0D0100EE0B01009B0D0100B40D01009F
:10442000C90D0100E40D01004E0C01002DE9F04121
:104430008AB0654B0446D3F80480002600AFC8F369
:10444000080586F31188BFF36F8F02F07F43B3F145
:104450007F4F07D102F00C03082B12D15B495C4857
:1044600008F09CF8002634460023FB71EB1E092B54
:1044700000F28980DFE803F00A7F827B87878787E5
:10448000878510074CBF0C460126EDE7514950487F
:1044900008F084F800234C4DFB71EB6A9A0705D5B0
:1044A0004D494B4808F07AF8002331E0EB6A002BC5
:1044B00001DA4A49F5E7EB6A5B00F5D5484944481B
:1044C00008F06CF86B69A26943F480736B61BFF309
:1044D0004F8FBFF36F8F6B6932F8022C23F4807318
:1044E0006B61BFF34F8FBFF36F8F4DF602739A422C
:1044F00007D0AB6ADBB26BB30120F91DFFF768FE92
:1045000037E023680121374A314807F0AFFC2368C0
:10451000FA79DAB907F1080504F1200C2A46206877
:104520006168083403C264451546F7D17A6A002EE3
:1045300045D0C2F3080121B96FEA52226FEA422244
:104540007A62184607F10801FFF7D2FD2837BD4609
:10455000BDE8F081AB6A13F47F4F04D00120F91D50
:10456000FFF7FCFE05E0AB6AB3F5803F9CD3FFF795
:1045700097FE0346CCE70020F91DBFE70020F91D98
:10458000EEE719498DE7194A18F4F87FE8468AB032
:10459000174B18BF13466A461649103DC2E905136A
:1045A0004FF400731384144BD56142F8103F00237D
:1045B0004FF411510648FFF755FAC54674E722F447
:1045C000FF7222F00102BBE700ED00E02A0E0100BD
:1045D000D8EC0000550E01006C0E01008D0E01009C
:1045E0009B0E0100BA0E0100D60E0100110E010053
:1045F000FC0D0100FA0E010004000001064B5A698F
:1046000042F010025A615A6942F480625A615A6952
:1046100022F008025A61704700ED00E0EFF30880D5
:10462000EFF3098101B57246FFF700FF01BD00BF3E
:10463000002080F31488BFF36F8F002080F30A8876
:1046400080F30B880F4880F3088801F0D7FD002025
:104650000D490860BFF34F8F00F02CF8202080F345
:1046600011880A484FF40061401880F30988EFF37D
:1046700014800221084380F31488BFF36F8F00F089
:10468000E9F800007025002094ED00E030180020CB
:10469000002318460649D1F89020C2F3072293421E
:1046A00000DB7047C1F89830C1F8A0000133F6E78D
:1046B00000ED00E010B572B6002484F31388FFF714
:1046C000E7FF23464FF0FF300C4A03F1200101338E
:1046D000102B42F82100F8D100234FF0FF30074A99
:1046E00003F160010133102B42F82100F8D162B6CA
:1046F000BFF34F8FBFF36F8F10BD00BF00E100E02D
:10470000084B9B6883420BD1EFF3058343B1064B03
:104710005A6842F080525A605A6A22F400425A6241
:1047200004F014B8CC0E002000ED00E014498A68B3
:104730004FF030001044EFF3098C80E8F01F202088
:1047400080F31288BFF36F8F0E4F4FF000664A69F7
:104750008A603E60D2F884000023C2F8843080F37F
:10476000118802F1300090E8F01F8CF3098802F103
:10477000000004B507F01AFFBDE8044070470000D0
:10478000CC0E002004ED00E01EF0040F0CBFEFF390
:104790000880EFF30980816911F8021C0229FFD01B
:1047A00001B5724607F0EFFE01BD00BF00B2002860
:1047B00007DB01234109034A00F01F00834042F850
:1047C0002130704700E100E000B200280CDB01223C
:1047D0000649430900F01F008240203341F823209E
:1047E000BFF34F8FBFF36F8F704700BF00E100E052
:1047F000054B420953F82220012300F01F0003FA61
:1048000000F01040704700BF00E100E000B2002857
:1048100001F10101ACBF00F16040064B4FEA4111CC
:10482000C9B2ABBF00F5614000F00F0080F8001383
:104830001954704714ED00E0044B054A23F07F0340
:104840009360BFF34F8FBFF36F8F7047000000007E
:1048500000ED00E008B5FFF7EFFF074AD2F8883017
:1048600023F47003C2F8883003F078FA04F090F86B
:1048700000F040F803F0B2FA00ED00E042F8203C0E
:10488000009B0B4942F81C3C019B21F0010142F8BE
:10489000183C029B42F8081C42F8143C4FF080730D
:1048A00042F8043C0023203A0265C0F88430704787
:1048B0000BB6000000B5094B0E4698601546436FD5
:1048C00083F30B882C4686F309880020044B984715
:1048D0002046002100220023024C2047CC0E00205D
:1048E000B5C500000BB600001022014B1A617047DD
:1048F00000ED00E00023202040F20F1210B5044C20
:10490000E1180133934281F80003F9D110BD00BFD3
:1049100000E100E008B5EFF30583064A103B02EB27
:10492000C30152F8330049688847BDE80840FFF7E3
:104930003FBC00BF20E300001FB5094C094A2346D5
:104940000121094800F012F900230393074B0121CC
:10495000E41A01A80193029400F012F904B010BD0A
:1049600000F0022000000020C8EE000098040020A3
:1049700010B50C7A0B6804F01F0223F01F031A43D2
:10498000CB68640923F01F03054943EA440343F05D
:104990000103C1F89800C1F89C20C1F8A03010BDF7
:1049A00000ED00E010B50A4BD3F89030C3F30723B5
:1049B000013B984208D901210346064A064807F000
:1049C00055FA6FF0150010BDFFF7D2FFFBE700BFEF
:1049D00000ED00E0110F0100D0EC00002DE9F04FD8
:1049E0008946144606464FF00008514D85B0C8452B
:1049F00027DAD6F804A0BAF1000F44D0BAF11F0F9D
:104A000017D91AF01F0F14D1D6F800B01BF01F0FE2
:104A10000FD1584607F0F1FD07460AEB0B000138AD
:104A200007F0EBFD874210D06FF01507414A3B4677
:104A300001E04346404A0121404807F017FA6FF071
:104A40001504204605B0BDE8F08F17F1160FEDD024
:104A5000BC42EBDDC5F89870D5F89C10C5F898708D
:104A6000D5F8A03021F01F0143F01F0BD6E900322A
:104A70001A44994202F1FF3A1DD1D34507D131467C
:104A8000F8B207F0C3FD08F101080C36AFE7314674
:104A9000C5F89870D5F89C3022F01F0203F01F0370
:104AA0001343C5F89C30E0B207F0B0FD10F1160FCB
:104AB000C5D0441CE7E7C5F89870D5F8A020013BA5
:104AC00023F01F0302F01F021343D3453146E0B227
:104AD000C5F8A030E8D007F099FD10F1160FAED060
:104AE000C5F89870D5F89C209DF808300BF1FF3B75
:104AF00062F304038DF80830D5F8A0309DF8082043
:104B00005B0863F347128DF80820D6E9003213449E
:104B1000009323F01F035B44A3EB0A03013023F04F
:104B20001F036946C0B20393FFF73CFFBEE700BF17
:104B300000ED00E05A0F0100370F0100D0EC00003B
:104B40000522044BC3F89420BFF34F8FBFF36F8F40
:104B5000704700BF00ED00E0BFF35F8F0022024B03
:104B6000C3F89420704700BF00ED00E010B5034C7F
:104B70002278FFF733FF207010BD00BF071500201B
:104B80002DE9F74F294D8A4606464FF00008AB46FF
:104B9000274FD0451BDAD6F80490B9F1000F3FD06B
:104BA00031680846019107F028FD0199044609EB98
:104BB0000100013807F021FD84424FF014021D4B23
:104BC00008D002FB08F36FF015024BF8032003B086
:104BD000BDE8F08F14F1160F2C60F8D01978A142BF
:104BE000F5DD02FB08B0C7F89840C7F89840D7F841
:104BF0009C4000F10801007B64F304000871D7F8C1
:104C0000A0000C79400860F347140C71D7F89C1091
:104C100021F01F016960D7F8A01021F01F01296160
:104C200008F1010814350C36B3E700BFCC0B0020A7
:104C300000ED00E007150020F0B54149414CD1F8E6
:104C400090302568C3F307239D4287B075D80020B4
:104C5000FFF782FF3C4BC1F8C030854216D13B4C78
:104C600001A82570FFF7EAF900250646384FAE4245
:104C700013D1002023783249D1F89020C2F30722C3
:104C8000934254DBFFF75CFF00202FE0616801EBEB
:104C90000011FFF76DFE0130DFE70199280101EBFC
:104CA0000513DA683A40B2F5001F21D0B2F5800F43
:104CB0002BD0B2F5801F38D15A689B680958013B48
:104CC00022F01F0003440120844623F01F0340EA22
:104CD0004C10CDE902218DF8100002A9207805932F
:104CE000FFF760FE00281DDA6FF0150007B0F0BD79
:104CF0005A689B680958013B22F01F0003444FF09B
:104D0000020C012023F01F03E1E75A689B68095851
:104D1000013B22F01F0003444FF0000C062023F05B
:104D20001F03D4E723780133237001359FE7C1F8CF
:104D30009830C1F8A00001339EE74FF0FF30D5E76F
:104D400000ED00E0D4EE0000AAFF440007150020AB
:104D50000000F0FF014B1860704700BFE400002026
:104D6000F8B506460D460024064FAC4208DA3B680B
:104D700098470A28305504F1010401D00D28F4D1D8
:104D80002046F8BDE0000020F8B50D46094F461E4C
:104D9000C0F10104A3199D4201DC2846F8BD7378D7
:104DA0000A2B02D10D203B6898473B6816F8010F8B
:104DB0009847EFE7E400002010B5074C2368C218BD
:104DC0000648C0F1005101F53C318A4236BF2260ED
:104DD0004FF0FF30C01810BDE00B00207025002000
:104DE00008B5054806F0F7FB002383F31188BFF3ED
:104DF0006F8F0423184602DF8C0F010008B5234A89
:104E0000234B1A6000F05EF84FF47A612148D0F825
:104E10002436C3F30802C3F309434B4382F4807280
:104E20001D49883201FB02334FF4FA215B00B3FBCA
:104E3000F1F201FB12331949B3F57A3F28BF013271
:104E4000C1F80429D0F820364FF47A60C3F3080281
:104E5000C3F30943434342F6041082F4807202F222
:104E6000172200FB02334FF47A701B0AB3FBF0F2F7
:104E700000FB1233B3F5FA7F4FF0010328BF013274
:104E8000C1F81C27C1F80036002008BD0020A1078A
:104E90006401002000C0FF001027008000001250B5
:104EA00048B1054B054A1B68B3FBF2F35843044B6A
:104EB00043F00103184770476401002040420F008F
:104EC00040ED00000122024BC3F80424704700BFEC
:104ED000002008E0084B70B5C31A0D4607499B1027
:104EE000044659434022064807F0E2FB2B460146A0
:104EF0002046BDE870401847F80B0020B76DDBB6C0
:104F000028E10000402373B50B4C0093041B0B46B3
:104F10000D460A49A41061430646094A094807F0AC
:104F2000F2FB011E05DA30462B4602B0BDE87040A8
:104F3000184702B070BD00BFF80B0020B76DDBB69C
:104F40006FC7000028E1000010B5EFF311842023A3
:104F500083F31288BFF36F8F074A136823F00201AF
:104F6000DB07116002D4012007F06DFF84F3118884
:104F7000BFF36F8F10BD00BF480C002070B500223A
:104F80000121044640F20510FFF740FC0F4801F0F4
:104F90007BFA0F4B984215D101F086FA26690D492C
:104FA000304606F00EFE00280BDB0125356424692F
:104FB000084904F11C0006F004FE002801DB002073
:104FC000E56470BD6FF00400FBE700BF93C700000D
:104FD0000000AD0BFCEE00001FB500220123CDE95F
:104FE00002236B46084ACDF800D0CDF804D007F074
:104FF000B7FB002805DB43F609520023684603F09F
:1050000053F805B05DF804FB8DC700000C22104B6F
:10501000014602FB0033002030B4D3E90E529863FE
:10502000EFF31180202484F31288BFF36F8F1C6C80
:1050300004F0C00444F002041C6480F31188BFF340
:105040006F8F1DB12B4630BC0248184730BC7047EB
:10505000F80B002028E1000010B4EFF311822023A8
:1050600083F31288BFF36F8F1648016841F0020482
:105070000460C80707D482F31188BFF36F8F012043
:1050800010BC01F02DBA1049D1F80C14C903F2D5A7
:10509000EFF3118083F31288BFF36F8F0B490B6C12
:1050A00003F0C00343F002030B6480F31188BFF3E5
:1050B0006F8F82F31188BFF36F8F002010BCFFF752
:1050C000A5BF00BF480C002000E01050F80B0020E6
:1050D000C3B21C20014A03FB00207047F80B0020DC
:1050E0002DE9F041012207463449D1E8EF3FC1E8FC
:1050F000E02F0028F9D133B9314932484B60CB60F9
:105100008A6006F071FD7B1E012B28D8012F06D185
:105110002D4BD3F8503403F00303012B1FD008F0BC
:1051200036F80546E8B9294B1B78D3B10422064668
:10513000254BC3F80823244CDFF89480D4F84C2482
:10514000D4F84C34D20315D503F00303012B01D05E
:10515000012F0FD165B386F31188BFF36F8FBDE8C0
:10516000F081EFF31186202383F31288BFF36F8F52
:105170000125E0E7BDB1304607F030FAD4F84034FD
:1051800013F0FF03DAD1D4F80821002AD6D0C4F8EE
:105190000831D4F8083120220123C4F84034C8F87B
:1051A000A0212361CAE70021202003F077FAE5E778
:1051B0000422054BC3F80423D1E700BFF40B002001
:1051C000E40B0020140C002000E010502D150020EE
:1051D00000E100E008B5074807F085FF38B1064850
:1051E000FFF7B8FD0448FDF765FC002008BD6FF02F
:1051F0001200FBE7DCE10000FD5100000A2838B591
:105200000446074D04D1AB680D2128465B689847DA
:10521000AB6803485B68E1B29847204638BD00BFE1
:10522000DCE1000070B5456806462B69E3B1103536
:10523000284601F0E5FD0446B0B90146284601F0D4
:105240009FFD0E4B984215D1224628460C4901F08D
:105250006BFD22460121DB20FFF7D8FA224601210F
:1052600040F20D10FFF7D2FA3046BDE87040054914
:1052700006F0C3BE6FF0040070BD00BF0000AD0BB0
:105280001154000041C800002DE9F04340F20635FA
:105290004668D00648BF0320337B02EA050558BFA5
:1052A000C2F3401087B001F01F07B5F5837F1446A5
:1052B00047EA43178DF8030045D00FD8062D44D098
:1052C00007D8B5B1022D14D06FF0150007B0BDE8B6
:1052D000F083B5F5807FF7D101250AE040F2022284
:1052E000954234D0B5F5407F33D0B5F5007FEBD192
:1052F000042522032FD5012372688B405360326945
:1053000082BB5F2F07F01F034FEA571177D83E4A41
:1053100052F8212084F4803102EB8302D2F88030ED
:10532000C1F30041C4F3404423F4706344EA4104F0
:1053300023F00F031C4344EA800444EA0524C2F826
:1053400080400020C2E70925D3E70825D1E70625DC
:10535000CFE70525CDE7630341BF012372688B408A
:105360009360CCE71036394630460DF1020201F069
:10537000E9FC14F4403F80460CD13946304607F032
:1053800027FE224B9845DCD130469DF8021001F0F3
:1053900045FDD6E74FF0000901AB3946304603AA78
:1053A000CDE90439CDE90199CDF80C9001F03CFB31
:1053B000164B984288D114F4003315D09DF8033071
:1053C00084F48034C4F300448DF80E3039464B46E3
:1053D000304603AA8DF80C508DF80D4001F010FCFA
:1053E0000A4B9842CDD06FE7CDE9043339460DF131
:1053F0000303304603AA039301F016FBF0E72033C2
:1054000052F82330FFDE00BF20EF00000000AD0B9C
:105410004209022A034670B503D0012A18D0CAB146
:1054200070BD0E4E326951680029F9D0012503F094
:105430001F030C689D400029F2D08A682A4002D0E0
:1054400030464B6898473CB1236821461C46F2E73A
:10545000034EE7E7034EE5E72346F6E794E1000055
:1054600070E100004CE10000F0B51646426801F022
:105470001F04107B87B044EA40141069002871D0E3
:10548000B6F5001F02F1100506D12146284607F0A7
:10549000A1FD002007B0F0BD0027B6F5800F01A8E0
:1054A000019747603BD1B3F1007F14BF052304236C
:1054B0008DF804300023CDE90403039393680DF1C4
:1054C000030723FA01F111F001013DD1B6F1A07FEC
:1054D0003AD104F01F035F2C4FEA541003F120036C
:1054E00046D8254A52F8202052F82330DB072BD427
:1054F0003A462146284601F025FC204B984219D017
:1055000002972146284603AA01F08EFA1C4B9842C6
:105510002BD101222146284601F090FCB9E7B3F1D6
:10552000C06F05D0B3F1007F14BF01230223BFE792
:105530000323BDE73946284601F078FC104B98421A
:10554000DED06FF00B00A5E73A462146284601F071
:10555000F9FB0B4B9842D4D128469DF8031001F07B
:105560005DFCCEE76FF0850094E76FF0150091E7E2
:1055700051F82330FFDE00BF20EF00000400AD0B28
:105580000000AD0BB0B500AF224D284607F0ABFDD3
:10559000034678BB6C4688B029686A461E48C2E953
:1055A00005014FF4007191831C4942F8101F4FF41C
:1055B000E2511B48FEF756FAA5466FF0120420464A
:1055C000BD46B0BD2B686D468AB06A461549C2E932
:1055D00005130123C2E907344FF400739384124B7F
:1055E00042F8103F00234FF431510D48FEF73AFACC
:1055F000AD46E4E72A69A9681368284623F0020348
:1056000013600B68002201219847041EDADB002496
:10561000D5E700BF4CE10000ED0F010003000001E1
:1056200098EC0000041001000500000102780B69ED
:10563000012A08D0022A08D04AB9064A1A6203F1A0
:10564000100002F0FDBC044AF8E7044AF6E7044AF9
:10565000F4E700BF0000AD0B0100AE0B0200AE0B83
:105660000100AD0B2DE9F04F89B002AFBB600369BB
:1056700093463B6143684FF0FF32D3F828A09B8BE1
:105680000546FB604FF0FF330C4607F0FFF83B691F
:1056900010337B61002600230022786902F004FDAC
:1056A00033465E4501D3002340E0207A010700F134
:1056B000938001365E4521680BD2820709D4227D92
:1056C00080EA020C0CF0010C02F004025CEA020C0D
:1056D00008D023B901F06042B2F1005F3FD04FF033
:1056E000000801E04FF001086268D7F80CE003EB16
:1056F000020CF44524D96C468CB0286802A9384EB7
:10570000CA61C1E90563FB680A46C1E9083040F295
:1057100003530B85334B42F8103F00234FF4515194
:105720003148FEF79FF96FF01B03A54628467B61C1
:1057300007F0AFF87B691C371846BD46BDE8F08F0F
:10574000C00705D40AEB03007B6008F0A6F87B686D
:1057500062681A4493B2B8F1000F27D1D3B94FF061
:105760000008D4F80090A388BA68217A28460092ED
:105770004A4600F08FF8031ED8DB43F60952002397
:10578000786902F091FC40B1284600F031F86FF0E2
:105790000403CBE79846D146E6E73B69134A1B6A08
:1057A0009342F4D1237ADB0702D400230C3478E748
:1057B000CA45FAD123460AE0A8EB0201D8681FFACD
:1057C00081F819FA81F17B6008F067F87B685A6804
:1057D0000C3B9045F0D2E8E76FF08503A6E700BFE9
:1057E0004B10010006000001A8EC00000000AD0B0A
:1057F00073B544680DF107012368D3F80056D3F858
:10580000046606F0E5FB9DF8073013B9204601F069
:1058100037FF3146284602F03BF99DF80710054650
:1058200029B9606A07F038F8204601F019FF044BE7
:105830009D4214BF6FF00F00002002B070BD00BF8A
:105840000000AD0B08B5CA0743681BD4C1F3420181
:1058500002290AD003290CD001290ED14FF0CC72B5
:105860001B680020C3F8242508BD4FF0C8621B68E0
:10587000F7E74FF07F621B68F3E70121034A044812
:1058800006F0EBFA6FF01500EEE700BF39110100EA
:10589000A8EC0000F0B50C461D46164689B04768D6
:1058A000122200210DF10E0008F004F804F00103AB
:1058B0008DF80C30BDF8383004958DF80D30BB8D67
:1058C0000696AB420AD21048009301212B460F4A9C
:1058D00006F0D6FA6FF01B0009B0F0BD84F00202AA
:1058E000C2F340023846520103A901F011FF084BF0
:1058F000984207D00B33984214BF6FF004006FF04A
:105900000F00E9E70020E7E7A8EC00004B110100D9
:105910000000AD0BB0B50446456800AF2B6A984750
:105920000121686A06F0B8FF23462846AA6905F1F6
:10593000080101F05BFE104B984217D023686C46BB
:1059400088B06A460D49C2E905134FF4007393838A
:105950000B4B42F8103F0B4800234FF4E251FEF787
:1059600081F86FF00400A546BD46B0BD204606494B
:1059700006F043FBF8E700BF0000AD0B92110100F9
:1059800003000001A8EC0000E3C8000013B50DF10E
:105990000701446806F01CFB9DF8073003F0FD0387
:1059A000012B08D006480121064A06F056FA6FF08E
:1059B0000F0002B010BD204601F082FE0020F8E783
:1059C000A8EC0000B2110100036803F01F025F2B76
:1059D00002604FEA53129ABF024B53F82200002094
:1059E000704700BF2CF000002DE9F04F16468346AB
:1059F00040F2FF18DFF89091DFF890A185B000EB3E
:105A00008101594503D1002005B0BDE8F08FDBF8D6
:105A10000030C3F3C322082AC3F3080400F2B180A4
:105A2000444508BF4FF0FF34B3F1D05F19F802705E
:105A30004FEA136210D2192A10D8DFE802F01219C7
:105A40001F372228370F0F0F0F3A670F0F0F0F0F57
:105A50000F0F6A6D7085888B382A7ED06FF08500B5
:105A6000D2E7C6F80446621C63D10BF1040BC8E709
:105A7000C6F80C46631CF8D0002563E0C6F8104653
:105A8000F1E7631CC6F80046EFD0002504E0C6F835
:105A90000446651CE9D0012503A80394FFF794FF91
:105AA0000122039B02FA03F383600BE0C6F8084669
:105AB000E0E7C6F80046002FDCD1671CD5D00025F2
:105AC00008272A46DBF80030039403F4004000283E
:105AD00018BF002203A818BF012501930092FFF709
:105AE00073FF039C019B00EB8400D0F88040C3F35C
:105AF000412C009A3B0243EA8C03134304EA0A0454
:105B0000234343EA4503C0F88030AEE7C6F80446B5
:105B1000D1E7C6F84045BCE7C6F84445AAE7C6F851
:105B20006045601CDBF800309FD0C3F30043002BBE
:105B3000B1D0012503A80394FFF746FF039B05FAA4
:105B400003F343602A46BDE7C6F86445E9E7C6F8B3
:105B50006845E6E7C6F86C45E3E703A80394FFF75A
:105B600033FF039B621C00EB8300D0F8803023F0EE
:105B7000E04343F08043C0F880303FF476AF012526
:105B8000E0E76FF015003FE7C0110100F0F0FCFF07
:105B9000F8B5446800AF054606F0D0FEA06A28B903
:105BA0000021284606F043FFBD46F8BD07F09BFAEA
:105BB0000346B0B9A26A6C4688B011686A461548B7
:105BC000C2E905014FF400719183134942F8101F97
:105BD00012484FF4E251FDF745FF6FF01200A54661
:105BE000E2E7E38DA06A94F82C1043F4003201241C
:105BF000066913F0010F336804FA01F414BF23435C
:105C0000A343D0F808C03360DCF800309847002880
:105C1000C6DAC9E7C911010003000001E8EC000081
:105C20000122014B1A60704700700D500C29036966
:105C30000BD15B6A064907484B4393FBF0F100FB2D
:105C4000113311600020536070476FF0850070477A
:105C500090D0030040420F000022044B0069C3F8BB
:105C60000021D3F8003102F0EBB900BF00700D50F5
:105C70007FB50569AB6A63B3402901D00C292BD1EC
:105C800005F110064FF0FF324FF0FF33304602F0BF
:105C90000FF9134B0024019303236946A86A039468
:105CA000029305F0A1FF4FF0FF324FF0FF3328467B
:105CB00002F0FAF9A86A05F0EEFF0A4BD3F80825BE
:105CC0006A6201225A60304602F06AF9204604B046
:105CD00070BD6FF00A00FAE76FF08500F7E700BFCC
:105CE000215C000000700D5010B504690020FFF722
:105CF000EFF9A0624FF0FF320021204607F03BFA97
:105D000004F1100007F030FA00220121D720FEF73D
:105D10007DFDD720FEF74AFD0122024B0020C3F88B
:105D2000042310BD00700D502DE9F04782B06E467F
:105D300000AF88B005466A46046903686749C2E94E
:105D400005134FF400739383654B42F8103F002313
:105D50004FF4E6516348FDF785FE25606C68B54653
:105D600000212046D5F8108006F041FA002847DBD4
:105D70002046B91D06F04AFA002841DBBB79032111
:105D8000594A584806F072F8BB796C2B38D18021FB
:105D9000204606F059FA002832DB2046F91D06F0AD
:105DA000D6FB00282CDBFB793BB10021204606F016
:105DB000AAFB4FF4967007F091F90121204606F0F6
:105DC0002CFA00281CDB642007F088F9217E0129C9
:105DD00002D0022918BF0021204606F089F9A67ECC
:105DE000686806F03F063146D5F8109006F03BF99A
:105DF00000280BDA33463D4A01213A4806F036F8CE
:105E00006FF004000837BD46BDE8F08789F81E60D2
:105E100094F91A20364B002A4FF03D0233F8163021
:105E2000AABFA3FB023253435B08C8F80C3094F8B6
:105E30001990B9F10A0F8CBF41F60B262D4B49463C
:105E400098BF33F81960B6B2A8F81C606868D5F836
:105E500010A006F07CFA002811DBAAF81C60E17E95
:105E600001290FD1204606F06FF9667F6868314638
:105E700006F010F9002807DA1F4A3346BCE71F4A2C
:105E80004B46B9E70021EDE741F217121C4B33F8FE
:105E900016305343C8F81830267F0A2E8CBF41F6BF
:105EA0000B23144B314698BF33F81630A8F8203036
:105EB000686806F0BAFA002802DA124A33469BE70D
:105EC0000021204606F0EEF9002899DB012120464A
:105ED00006F0F7F8002893DB002093E75712010043
