:10000000C8190020A10F0000AB5F00008D0F000099
:100010008D0F00008D0F00008D0F00008D0F000070
:1000200000000000000000000000000019110000A6
:100030008D0F000000000000B11000008D0F0000C7
:10004000C9120000C9120000C9120000C912000044
:10005000C9120000C9120000C9120000C912000034
:10006000C9120000C9120000C9120000C912000024
:10007000C9120000C9120000C9120000C912000014
:10047C0053B94AB9002908BF00281CBF4FF0FF31FF
:10048C004FF0FF3000F00CB8ADF1080C6DE904CE64
:10049C0000F008F8DDF804E0DDE9022304B0704751
:1004AC00704700BF2DE9F04786468C460846089EEB
:1004BC00154674461946002B40F0C1808542B2FAAD
:1004CC0082F245D94AB1C2F1200300FA02FC9540F0
:1004DC0094402EFA03F343EA0C0C4FEA154EA8B2E3
:1004EC00230CBCFBFEF80EFB18CC08FB00F943EA0E
:1004FC000C43994528D9EB1808F1FF3704D29945DC
:10050C0002D9A8F102072B44A3EB0903A4B2B3FB55
:10051C00FEFC0EFB1C330CFB00F044EA0344A0422F
:10052C0014D92C190CF1FF3304D2A04202D9ACF12E
:10053C0002032C44241A43EA07401EB1D440002382
:10054C0034607360BDE8F0874746DDE76346F1E74A
:10055C0092BB431B01214FEA154EAFB2200CB3FBEB
:10056C00FEFC0EFB1C330CFB07F840EA03439845DA
:10057C0061D9EB180CF1FF3004D2984502D9ACF1DB
:10058C0002002B44A3EB0803A4B2B3FBFEFC0EFB4E
:10059C001C330CFB07F744EA0344A7424DD92C1932
:1005AC000CF1FF3304D2A74202D9ACF102032C4464
:1005BC00E41B43EA0040C0E7C2F12003954094409D
:1005CC0020FA03F12EFA03F34FEA154E9040AFB226
:1005DC000343B1FBFEFC0EFB1C10190C0CFB07F8C3
:1005EC0041EA0041884522D969180CF1FF3004D248
:1005FC00884502D9ACF102002944A1EB08019BB259
:10060C00B1FBFEFC0EFB1C110CFB07F743EA01438C
:10061C009F420ED9EB180CF1FF3104D29F4202D944
:10062C00ACF102012B44DB1B41EA004193E760462D
:10063C00E3E76146F7E76046A4E76346B8E7834221
:10064C0006D916B9002108467CE7C6E900E0F9E7AF
:10065C00B3FA83F78FB9834201D3724508D8BEEB46
:10066C00020460EB030301209C461EB9002169E7DC
:10067C003846FAE7C6E9004CF8E7C7F1200CBB4056
:10068C000EFA07F522FA0CF42EFA0CF1BA401C43C0
:10069C0020FA0CF3B8404FEA144901431FFA84FEC8
:1006AC00B3FBF9F809FB18300B0C08FB0EFA43EA04
:1006BC0000439A4540D9E31808F1FF3004D29A451B
:1006CC0002D9A8F102002344A3EB0A0389B2B3FBBD
:1006DC00F9F809FB183308FB0EFE41EA03418E457D
:1006EC002CD9611808F1FF3304D28E4502D9A8F138
:1006FC000203214443EA0040A1EB0E01A0FB029847
:10070C004145CE46434602D306D14D4504D201386D
:10071C00B9EB020E68EB0403002EA7D0B5EB0E026A
:10072C0061EB030101FA0CFC22FA07F3F9404CEAE5
:10073C000303C6E9003199E74046C5E74346D9E7CC
:10074C0010B502F021FC0F4806F02CFEB8B104469F
:10075C004FF4D0110C4805F0E6F8002807DA0DE04C
:10076C0084F00104E4B24FF47A7005F004F92246E7
:10077C000021044805F0F2F80028F1DA10BD4FF022
:10078C00FF30FBE7407E00002888000008B5024BD4
:10079C001B68984708BD00BFD000002000B585B08D
:1007AC000A460023009301930293039302238DF8CE
:1007BC000230044B01930146684604F031FE05B04B
:1007CC005DF804FB9907000080B505460E461746F8
:1007DC00984603F001FB034607F0B4FA0446DFF831
:1007EC00189049F80030424639463046A84754F82C
:1007FC00090000F03DFC00BF080000002DE9F043AB
:10080C0083B0044608461546238B13F0080F05D118
:10081C0003F0070600230093019354E0012909D04B
:10082C0043F02003238385F31188BFF36F8F03B04C
:10083C00BDE8F08343F010032383F4E7204605F072
:10084C0017FA42E0D4F814904A466946204605F05F
:10085C0028FA4FF00008238B03F00707B74269D042
:10086C00A268002A66D0012243F00803238385F393
:10087C001188BFF36F8F002A64D1009B2BB14B46BC
:10088C003A466946204605F085FAB8F1000F02D0C9
:10089C0034492046C047EFF31185202383F3128897
:1008AC00BFF36F8F238B23F008032383238B13F069
:1008BC00100F4DD023F0100323830120268B06F05C
:1008CC0007060028AFD00228B8D00028ABD00138DA
:1008DC0004282BD801A353F820F000BF51080000C6
:1008EC0039090000FD08000011090000250900006D
:1008FC002369D3F800800621204605F08FF94FF0CC
:10090C000009A8E72369D3F804800421204605F0E8
:10091C0085F94FF000099EE72369D3F8088005217B
:10092C00204605F07BF94FF0000994E74FF00008E2
:10093C00C14690E7009A0AB1002295E7B8F1000F82
:10094C0092D1B3E74A463946204605F06FF994E751
:10095C0013F0200F04D023F0200323830220ADE7F3
:10096C000020ABE7CF5D0000014B03600020704717
:10097C003088000008B5034805F042F9024805F03C
:10098C003FF908BD308800007088000008B50348A6
:10099C00034A121A002105F0F4FA08BDE001002008
:1009AC00880C002008B50648064A121A064905F0BC
:1009BC00ECFA0648064A121A064905F0E6FA08BD92
:1009CC0040000020DC010020548F0000400000207B
:1009DC0040000020548F000010B504468368426824
:1009EC000168094805F00CF963692269E168074858
:1009FC0005F006F9E169064805F002F9A169054818
:100A0C0005F0FEF810BD00BFA0880000D0880000E3
:100A1C00008900001089000038B504460D4611B15C
:100A2C000846FFF7D9FF012C04D02946204602F0D6
:100A3C001FFB38BDEFF305811039024805F0E0F8D3
:100A4C00F3E700BF4089000030BFFFF7FDBF00BFD8
:100A5C0038B50446054D2A46054907F0FCF8054A09
:100A6C000021601907F004F938BD00BF0000000038
:100A7C00E88700000400000070B50646064D074BE1
:100A8C001D444C1B2046FFF7E3FF083CC6F8804092
:100A9C0005F1080070BD00BF00000000040000005C
:100AAC00054B5A699B689A4204D0044A536843F038
:100ABC0080535360704700BF1406002000ED00E027
:100ACC0081690D4B5A6942F480725A61BFF34F8FA2
:100ADC00BFF36F8F31F8021C5A6922F480725A618D
:100AEC00BFF34F8FBFF36F8F4DF60273994201D056
:100AFC00002070470120704700ED00E04FF0000C23
:100B0C0083F800C002F07F4CBCF17F4F12D102F091
:100B1C000C0CBCF1080F04D012F0080F07D00846DB
:100B2C00704708B5044805F06BF8002008BD012299
:100B3C001A7070470020704754890000F8B50546BC
:100B4C000F461446324805F05BF8324B9B6A13F0A3
:100B5C00100F31D110262F4B9B6A13F0080F30D198
:100B6C002C4B9B6A13F0020F30D12A4B9B6A13F06B
:100B7C00010F43D1274B9B6A13F0200F43D1254B18
:100B8C009B6A13F0100F01D1224B9B6A214B9B6A7D
:100B9C0013F0200F04D01F4A536A23F400535362FE
:100BAC001C4A936A43F0FF0393620121284605F027
:100BBC00FCF920703046F8BD174805F021F81126D5
:100BCC00C9E7164805F01CF81226C9E7144805F0C9
:100BDC0017F8104B596B9B6A13F0800F01D1132639
:100BEC00C3E7104805F00CF837B10A4A936A23F0B2
:100BFC00800393621326B8E71326B6E70A4804F07D
:100C0C00FFFF1426B6E7094804F0FAFF1526B6E7ED
:100C1C008089000000ED00E098890000CC8900007C
:100C2C00E0890000FC890000148A0000348A00006E
:100C3C00F8B505460F4614462F4804F0E1FF2F4B3C
:100C4C009B6A13F4805F25D116262C4B9B6A13F4F8
:100C5C00006F24D1294B9B6A13F4007F24D1274BBE
:100C6C009B6A13F4806F37D1244B9B6A13F4807FFB
:100C7C0037D1224B9B6A13F4005F37D11F4A936A1A
:100C8C0043F47F4393620121284605F08EF92070CE
:100C9C003046F8BD1A4804F0B3FF1726D5E71948BB
:100CAC0004F0AEFF1826D5E7174804F0A9FF134B44
:100CBC00996B9B6A13F4004F01D11926CFE71348A7
:100CCC0004F09EFF37B10D4A936A23F400439362FC
:100CDC001926C4E71926C2E70D4804F091FF1A261D
:100CEC00C2E70C4804F08CFF1B26C7E70A4804F047
:100CFC0087FF1C26C2E700BF648A000000ED00E0FD
:100D0C007C8A0000CC890000908A0000AC8A00002C
:100D1C00C48A0000E08A0000348A000008B5294823
:100D2C0004F06EFF284B9B6A13F0007F26D11D2028
:100D3C00254B9B6A13F0807F25D1234B9B6A13F4C0
:100D4C00801F25D1204B9B6A13F4002F25D11E4BFD
:100D5C009B6A13F4802F25D11B4B9B6A13F4003F25
:100D6C0025D1194B9B6A13F4803F25D1164A936AFF
:100D7C006FEA03436FEA1343936208BD134804F010
:100D8C003FFF1E20D4E7124804F03AFF1F20D4E79F
:100D9C00104804F035FF0220D4E70F4804F030FF70
:100DAC002120D4E70D4804F02BFF2220D4E70C4877
:100DBC0004F026FF2320D4E70A4804F021FF242066
:100DCC00D4E700BFFC8A000000ED00E0188B0000A7
:100DDC002C8B0000488B0000748B0000948B00005F
:100DEC00BC8B0000D88B000070B506460D4626481B
:100DFC0004F006FF00232B70244BDC6A14F0020471
:100E0C000AD1224BDB6A002B0BDB204BDC6A14F083
:100E1C0080440AD1204670BD1D4804F0F1FE002428
:100E2C00F8E71C4804F0ECFEF4E71B4804F0E8FE7D
:100E3C003046FFF745FE98B9144B9B6A13F0FF0F31
:100E4C0014D1124B9C6A14F47F4416D10F4B9B6A3D
:100E5C00B3F5803FDED33046FFF760FF0446D9E799
:100E6C0031680E4804F0CCFE3468D3E72A460121E1
:100E7C003046FFF763FE0446CCE72A460121304694
:100E8C00FFF7D6FE0446C5E7048C000000ED00E039
:100E9C001C8C0000408C0000508C0000708C0000FA
:100EAC0008B500230B70024804F0AAFE08BD00BF71
:100EBC00908C000008B50A460F2905DC0349103A4E
:100ECC00034804F09DFE08BD0249F8E7B88C000009
:100EDC00EC8C0000D08C000030B58BB01F4B5D68E3
:100EEC00C5F30805002383F31188BFF36F8F0DF151
:100EFC002603FFF703FE04460DF12702294605F0F1
:100F0C0056F89DF827300BB10BB030BD05460DF1EE
:100F1C00040C20686168A268E368ACE80F002069E3
:100F2C006169A269E369ACE80F009DF826304BB10A
:100F3C00089BC3F308025AB96FEA53236FEA4323A1
:100F4C00089305E0089B23F4FF7323F00103089337
:100F5C0001A92846FFF760FDD6E700BF00ED00E0D1
:100F6C00064B5A6942F010025A615A6942F4806287
:100F7C005A615A6922F008025A61704700ED00E08C
:100F8C00EFF30880EFF3098101B57246FFF7A4FF78
:100F9C0001BD00BF002080F31488BFF36F8F0020C9
:100FAC0080F30A8880F30B880F4880F3088801F0DF
:100FBC0077F800200D490860BFF34F8F00F02EF832
:100FCC00202080F311880A484FF40061401880F308
:100FDC000988EFF314800221084380F31488BFF3CF
:100FEC006F8F00F0F5F80000C819002094ED00E0B8
:100FFC00880C0020084BD3F89000C0F30720002386
:10100C0006E0054AC2F898300021C2F8A01001335E
:10101C008342F6DB704700BF00ED00E010B572B6FE
:10102C00002484F31388FFF7E5FF234608E003F15F
:10103C0020010E4A4FF0FF3042F821000133DBB2A1
:10104C000F2BF4D9002308E003F16001074A4FF09D
:10105C00FF3042F821000133DBB20F2BF4D962B61A
:10106C00BFF34F8FBFF36F8F10BD00BF00E100E0E7
:10107C0008B50A4B9B68834202D002F0B3FE08BD50
:10108C00EFF30583002BF8D0054B5A6842F08052E1
:10109C005A605A6A22F400425A62EEE714060020A3
:1010AC0000ED00E016498A684FF030001044EFF371
:1010BC00098C80E8F01F202080F31288BFF36F8F1B
:1010CC00104F4FF000664A698A603E60D2F880008B
:1010DC000D4C2060D2F884000023C2F8843080F3D9
:1010EC00118802F1300090E8F01F8CF3098802F1AE
:1010FC00000004B504F096FFBDE804407047000002
:10110C001406002004ED00E0000400201EF0040F83
:10111C000CBFEFF30880EFF30980816911F8021C12
:10112C000229FFD001B5724604F033FF01BD00BFA8
:10113C00002807DB00F01F02400901239340024AFC
:10114C0042F82030704700BF00E100E000280CDBC3
:10115C0000F01F024009012393402030034A42F85B
:10116C002030BFF34F8FBFF36F8F704700E100E06B
:10117C00002808DB4901C9B200F1604000F561406C
:10118C0080F80013704700F00F004901C9B2014B01
:10119C001954704714ED00E04209054B53F8222016
:1011AC0000F01F00012303FA00F01040704700BF4D
:1011BC0000E100E0044B23F07F03044A9360BFF38B
:1011CC004F8FBFF36F8F70470000000000ED00E001
:1011DC0008B5FFF7EFFF074AD2F8883023F4700305
:1011EC00C2F88830FFF7D2FBFFF7DCFB00F04CF8BD
:1011FC0002F058F800ED00E010B4A2F120040E4902
:10120C0042F8081C21F0010142F8081C42F8203C6D
:10121C00019B42F81C3C029B42F8183C039B42F891
:10122C00143C4FF0807342F8043C04650023C0F872
:10123C00843010BC704700BFD507000000B50E46C7
:10124C0015460C4B9860D0F880200B4B1A60036F3E
:10125C0083F30B882C4686F309880020034B9847B0
:10126C002046002100220023014C20473F60000053
:10127C00D50700001406002000040020014B1022AA
:10128C001A61704700ED00E0002206E003F00F0346
:10129C000949194420230B760132B2F5877F0ADC09
:1012AC0013B2002BF2DB03F1604303F56143202101
:1012BC0083F80013F0E77047FCEC00E008B5EFF39F
:1012CC000583103B044A02EBC301496852F8330012
:1012DC008847FFF7E5FB08BDF47E000010B584B02D
:1012EC000A4C23460A4A01210A4804F09EFF0023B7
:1012FC00019302930393084B0193E41A0294012186
:10130C0001A804F096FF04B010BD00BF00F002204D
:10131C0000000020008D0000E0010020024B034A79
:10132C00C3F8C020704700BF00ED00E0AAFF4400E6
:10133C00034BC3F89800C3F89C10C3F8A020704767
:10134C0000ED00E00E4BC3F89800C3F89800D3F8FA
:10135C009C000A7A60F304020A72D3F8A020C2F34C
:10136C004202087A62F347100872D3F89C2022F0EC
:10137C001F020A60D3F8A03023F01F03CB60704724
:10138C0000ED00E0084BD3F89030C3F30723013B8A
:10139C00984205D810B5044604F078FE204610BDDE
:1013AC006FF01500704700BF00ED00E02DE9F04F25
:1013BC0087B08146009101931446002734E0C34561
:1013CC0065D12946C0B204F087FE2CE0584AC2F819
:1013DC009860D2F89C3003F01F0321F01F010B43DF
:1013EC00C2F89C302946E0B204F076FE044610F1B7
:1013FC00160F00F09680013415E0013B4C49C1F802
:10140C009860D1F8A02002F01F0223F01F031343B1
:10141C00C1F8A0302946E0B204F05EFE044610F19B
:10142C00160F7ED001340137009B9F4279DA07EB0F
:10143C0047054FEA850A09EB85056E68002EF2D048
:10144C00019B23B1284604F035FE002865D03146B7
:10145C0059F80A0004F062FE064610F1160F5FD030
:10146C00844262DD324BC3F89800D3F89C2022F002
:10147C001F02C3F89800D3F8A03043F01F0859F8A6
:10148C000A306968194401F1FF3B934297D09342AB
:10149C009CD0C345B1D0013B2549C1F89860D1F827
:1014AC00A02002F01F0223F01F031343C1F8A03049
:1014BC002946E0B204F010FE044610F1160F30D0AD
:1014CC0001301B4BC3F89860D3F89C109DF810208A
:1014DC0061F304028DF81020D3F8A030C3F342035B
:1014EC00D2B263F347128DF8102059F80A306A68AB
:1014FC001344029323F01F03A8EB0B084344013B56
:10150C0023F01F03059302A9C0B2FFF73BFF04466B
:10151C0010F1160F05D0013485E76FF0150400E0CB
:10152C000446204607B0BDE8F08F6FF01504F8E7CD
:10153C0000ED00E010B5034C01232278FFF736FFD5
:10154C00207010BD840C002070B505460E4600249A
:10155C0000E00134A6421EDD04EB44039A0005EBC7
:10156C00830359680029F4D0A85804F0D7FD04EB84
:10157C0084030B4A42F8230010F1160F0CD0094BD0
:10158C001B78984209DA04EB840302EB83010431E3
:10159C00FFF7D8FEDDE7002070BD6FF01500FBE70C
:1015AC0004040020840C0020044B0522C3F8942072
:1015BC00BFF34F8FBFF36F8F704700BF00ED00E09C
:1015CC00BFF35F8F024B0022C3F89420704700BF1B
:1015DC0000ED00E038B51C4B1D681C4BD3F8903067
:1015EC00C3F307239D422BD8FFF7EAFFFFF796FEC4
:1015FC00002407E0144B596801EB0411204604F059
:10160C0045FD0134A542F5D81148057004F097FD4D
:10161C0010F1160F13D00E4B1A780C4BD3F89030E8
:10162C00C3F307239A4207DA084BC3F8982000212A
:10163C00C3F8A0100132F0E7FFF7B6FF002038BD69
:10164C004FF0FF30FBE700BF0C8D000000ED00E019
:10165C00840C002008B5064921F00701C1F10052A5
:10166C0002F53C32034804F04BFA002008BD00BFE1
:10167C00CF1900201804002068B108B5064A074BA2
:10168C001B680749A1FB03139B0C00FB03F042F002
:10169C000103984708BD7047108800001001002016
:1016AC0083DE1B43124BD3F82436C3F3080282F4B7
:1016BC008072C3F3094388324FF47A6101FB03F360
:1016CC000C4901FB02335B000B4AA2FB0312D20B49
:1016DC004FF4FA2101FB1231B1F57A3F00D30132FC
:1016EC00064BC3F804290122C3F80026704700BF3B
:1016FC0000C0FF0010270080D34D62100000125074
:10170C0008B5044B044A1A6000F008F8FFF7CAFF4A
:10171C00002008BD100100200020A107024B01226F
:10172C00C3F80424704700BF002008E0004870474D
:10173C0078040020034BC01A8010034B03FB00F00D
:10174C00704700BF38040020B76DDBB638B50546CE
:10175C000C46FFF7EFFF01464022034804F000FE61
:10176C0001462846A04738BDD47D000030B583B073
:10177C0005460C46FFF7DEFF014640230093234647
:10178C00054A064804F006FE011E01DB03B030BD1D
:10179C002846A047FAE700BFE9630000D47D0000AB
:1017AC0008B5022806D0042803D10021044804F00F
:1017BC00C5FD08BD0121024804F0C0FDF9E700BFDA
:1017CC00D47D000010B582B0EFF31184202383F395
:1017DC001288BFF36F8F144A136843F00201116033
:1017EC0013F0010F09D1002384F31188BFF36F8F1D
:1017FC00A3B904F0FBFD02B010BD0DF107020121ED
:10180C000A4804F01EFD9DF807300BB10023EBE7EE
:10181C00FFF78CFF04F080FD0123E5E7002104486D
:10182C0004F08CFDE7E700BF8804002000E01050B6
:10183C00D47D000010B5EFF31184202383F31288BC
:10184C00BFF36F8F074A136823F00201116013F086
:10185C00010F04D084F31188BFF36F8F10BD04F017
:10186C00CFFDF7E78804002070B582B0054601284B
:10187C0006D12C4BD3F8503403F00303012B4AD080
:10188C0005F0E7FD044618B9274B1B78002B37D120
:10189C00EFF31186202383F31288BFF36F8F01249B
:1018AC001CB9204B0422C3F808230DF107020021B8
:1018BC001C4804F0C6FC28B19DF80730012B25D03C
:1018CC00012D23D0F4B1304604F0C7FB154BD3F8EF
:1018DC00403413F0FF0FE8D1124BD3F80831002B32
:1018EC00E3D0104B0022C3F80821D3F808210122C1
:1018FC00C3F840240D492020C1F8A0011A61D4E797
:10190C000026CDE7012004F085FDDFE72CB186F33E
:10191C001188BFF36F8F02B070BD024B0422C3F865
:10192C000423F8E700E01050870C002000E100E0F1
:10193C0000B585B0CDF800D0CDF804D000230293CB
:10194C00012303936B46074A04F040FD002805DB96
:10195C0043F609520023684601F0FAFD05B05DF824
:10196C0004FB00BF7D64000070B506460022012117
:10197C0040F2051004F04AFB114800F0C1FC114B79
:10198C00984219D100F0CEFC0024012C12D821462B
:10199C00304604F073FC05462146304604F079FCD1
:1019AC00094904F01CFA002805DB0123AB601C4438
:1019BC00E4B2EAE7002070BD6FF00400FBE700BF63
:1019CC00AD1700000000AD0B448D000010B50446AF
:1019DC000E4B0121D3E8EF2FC3E8E01F0028F9D10B
:1019EC001AB1631E012B0DD910BD094804F051FC2E
:1019FC00084900234B608B60CB6001238B6004F0A3
:101A0C000BFAEEE72046FFF72FFFEDE7340400203A
:101A1C00D47D000024040020036803F01F02026040
:101A2C005B09012B06D0022B06D00BB100207047AE
:101A3C0002487047024870470248704700A0105097
:101A4C0000820D5000040550022806D0012806D053
:101A5C0008B9044870470020704703487047034892
:101A6C00704700BFF87D0000407E00001C7E000027
:101A7C002DE9F04786B0884616469946446801F031
:101A8C001F05237B45EA4315204604F0C2FD0028C0
:101A9C0064D0B6F5001F35D00DF10C0A0027039762
:101AAC0004974946304604F0E9FD8DF80C00009788
:101ABC0001970297CDF804A0A36823FA08F313F05A
:101ACC00010F02D1B6F1A07F23D004F110060DF165
:101ADC0017022946304605F0A9FB234B984237D014
:101AEC0010346A462946204605F094FB1E4B98425A
:101AFC0037D101222946204605F0B0FB002006B064
:101B0C00BDE8F087294604F1100005F0ABFB00207E
:101B1C00F5E7284604F02FFD0028D6D10DF1170269
:101B2C00294604F1100005F081FB104B984203D0BC
:101B3C000DF117030493D3E70DF11702414620462C
:101B4C0004F0D8FD084B9842F2D06FF00B00D6E7AA
:101B5C009DF81710304605F079FBC1E76FF0850052
:101B6C00CDE76FF01500CAE70000AD0B0400AD0B1C
:101B7C00F0B589B00F461446456801F01F062B7B63
:101B8C0046EA4316104604F049FD8DF81E0040F25B
:101B9C0006332340B3F5837F53D016D8062B4CD095
:101BAC0006D9B3F5807F0DD101238DF81D3024E0CB
:101BBC0003B3022B03D102238DF81D301DE06FF00F
:101BCC00150038E06FF0150035E040F20222934228
:101BDC003BD0B3F5407F03D105238DF81D300CE0CD
:101BEC00B3F5007F03D104238DF81D3005E06FF0B1
:101BFC00150020E000238DF81D3014F4002F28D0A0
:101C0C006A680123BB405360284604F002FD40B3D0
:101C1C0010350DF11F023146284605F007FB07462B
:101C2C0014F4403F36D13146284605F00BFB3C4BB3
:101C3C009F426DD0002009B0F0BD08238DF81D30F7
:101C4C00DBE709238DF81D30D7E706238DF81D300F
:101C5C00D3E714F4802FD7D06A680123BB4093607C
:101C6C00D2E7C4F340438DF8083014F4803F0CBF26
:101C7C00012300238DF81030002401940DF11D0375
:101C8C0000930DF11E0304AA02A9304604F018FCBF
:101C9C002046D0E702AA00230293039304930593F2
:101CAC000693059204AA3146284605F0B3FA1C4B5C
:101CBC0098421DD114F4003F1DD09DF81D308DF8B5
:101CCC00103014F4803F0CBF012300238DF8113029
:101CDC009DF81E308DF81230002304AA3146284698
:101CEC0005F09CFA0E4B9842A1D06FF01500A2E7BC
:101CFC006FF015009FE700230493059306930DF1F5
:101D0C001E03049304AA3146284605F083FAE9E73A
:101D1C009DF81F10284605F099FA00208BE700BFAC
:101D2C000000AD0B38B504464568284604F071FC3C
:101D3C0020B91349204604F002F938BD1035284665
:101D4C0005F07CFA0028F4D10021284605F072FA3F
:101D5C000C4B984210D100220B49284605F062FA30
:101D6C0000220121DB2004F051F90022012140F274
:101D7C000D1004F04BF9DCE76FF00400DDE700BF59
:101D8C00E76600000000AD0BC166000038B500240A
:101D9C000CB1002038BD04EB4403104A52F8230068
:101DAC0005F000FB18B1254625B10134F0E76FF0C2
:101DBC001200EFE7094A04EB440102EB81035B6874
:101DCC0003EBC50C52F8210013F83510DCF8042095
:101DDC0004F096FC0028DDDB0135E5E7DC8D000026
:101DEC0000B583B002460B4601210091024801F078
:101DFC007FF803B05DF804FB0401002030B583B01C
:101E0C0014461D46684600F0B9FF009BA342019B97
:101E1C00AB4111D3094A13685168E41A65EB01050B
:101E2C00600924F01F041B1941EB0501136051607C
:101E3C0040EAC56002F0DAF903B030BDE8010020D9
:101E4C0000B583B000220121E42004F0DFF81A4A27
:101E5C00D2F8183723F44033C2F81837002000F0BA
:101E6C00AFFF164B984223D11549012000F0F4FF27
:101E7C00124B98420AD00233984204D04FF0FF30F4
:101E8C0003B05DF804FB6FF00B00F9E7684600F057
:101E9C0075FF0199009B23F01F030A4A13605160E0
:101EAC00094A13605160094B67221A600020E7E76A
:101EBC004FF0FF30E4E700BF00200E500000AD0BE8
:101ECC000C010020E8010020E0010020100500209A
:101EDC0000B583B0684600F051FF0098064A1368BD
:101EEC005268C01A019B63EB0203400940EAC360CD
:101EFC0003B05DF804FB00BFE801002030B583B0EF
:101F0C00B0F1FF3F21D020EAE074E5176D0145EAFE
:101F1C00D4656401684600F031FF009BE418019B16
:101F2C0045EB03050C4B18685968241A65EB010541
:101F3C00402C75F100030BD324F01F04001941EB66
:101F4C000501FFF74DFF03B030BD6FF00044DCE737
:101F5C0020240025F2E700BFE8010020074BD3F84E
:101F6C004023D3F844331C2A01D000207047012BA6
:101F7C0001D0002070470120704700BF00C0FF0057
:101F8C00074BD3F84023D3F844331C2A01D000204C
:101F9C007047012B01D0002070470120704700BF13
:101FAC0000C0FF00044BD3F840331C2B01D00020A1
:101FBC0070470120704700BF00C0FF00074BD3F8EB
:101FCC004023D3F844331C2A01D000207047012B46
:101FDC0001D0002070470120704700BF00C0FF00F7
:101FEC00044BD3F840331C2B01D000207047012048
:101FFC00704700BF00C0FF00036813F0020F0DD044
:10200C00036813F0010F0DD0074B0922C3F80C2500
:10201C000F22C3F8042501221A60FEE7034B03606C
:10202C00EF3B0360704700BF00801050F000FA5087
:10203C00036813F0020F0DD0036813F0010F0DD0DD
:10204C00074B0922C3F80C250F22C3F804250122E3
:10205C001A60FEE7034B0360EF3B0360704700BF61
:10206C0000801050F000FA5008B50848FFF7C4FF84
:10207C000748FFF7C1FF0748FFF7DAFF0648FFF7ED
:10208C00D7FF0648FFF7B8FF08BD00BF00C50D50CD
:10209C0008C50D5010C50D5018C50D5000C70D507A
:1020AC0008B53B4B0122C3F80028FFF77BFF18B1A2
:1020BC00384B0122C3F80C24FFF7D6FF364AD2F86E
:1020CC008C3043F44063C2F88C30002309E0334A6F
:1020DC0003F1800152F8310002EBC1025268026038
:1020EC0001333F2B0DD803F180022C4951F83220DB
:1020FC00B2F1FF3F05D003F1800251F83220002AE3
:10210C00E5D1234BD3F840341BB9214BC822C3F87B
:10211C004024FFF735FF48B1204BD3F83423204B34
:10212C009A4203D81A4B1F4AC3F84026FFF746FFC2
:10213C0018B11D4B1D4AC3F8AC27FFF70FFF48B170
:10214C00134B3422C3F82426D3F83C2622F4002265
:10215C00C3F83C26FFF744FF50B1154BD3F80036BB
:10216C0013F0010F04D0124B6FF00102C3F80026DC
:10217C00104A0323C2F818350749D1F88C3043F4C0
:10218C004063C1F88C300023C2F8A03508BD00BFF5
:10219C00000012500030055000ED00E000C0FF00C0
:1021AC00001D0A1840E0A91E00A0085078000A047F
:1021BC0000E0105000B0045010B50468ACB1B4FA93
:1021CC0084F3C3F11F03DBB201229A4024EA02021A
:1021DC00D0E8EFCFA44504D1C0E8EE2FBEF1000F3C
:1021EC00F6D1EAD10B70024810BD0248FCE700BFE3
:1021FC000000AD0B0200AD0B0368CB4013F0010FD8
:10220C0011D100B5026801238B401343D0E8EFCF06
:10221C00944504D1C0E8EE3FBEF1000FF6D1F1D1E8
:10222C0002485DF804FB0248704700BF0000AD0B8C
:10223C000400AD0B044BD3F840331C2B01D0002011
:10224C0070470120704700BF00C0FF0070B582B01E
:10225C000646F0B1012849D104224FF48073712154
:10226C002548C0F8081302F1A04202F5871201219B
:10227C00116003F1A04303F5871300221A601B6859
:10228C00FFF7D8FF68B1012E08D000258DF8075054
:10229C000DE014224FF484730421E1E7164B012264
:1022AC00DA6000238DF80730012E03D0002542F2AE
:1022BC00107407E00DF10705F9E7012004F046FC66
:1022CC00013C0DD02A4631460B4804F043FC024633
:1022DC0040B1002DF1D09DF80730002BEDD002E07D
:1022EC00002200E001220AB1012E01D002B070BD23
:1022FC00024B00225A71F9E700E01050140500203F
:10230C00054B1B792BB9044B186001221A71034839
:10231C0070470348704700BF140500200000AD0B48
:10232C000C00AD0B08B5074B1B680BB104F031FC6E
:10233C0004F02DFC044BC3F84004044B01221A702A
:10234C0008BD00BF1405002000E01050850C0020D3
:10235C0000B583B020B101285CD003B05DF804FB5C
:10236C003F4BD3F84C24D3F84C3403F003038DF8D3
:10237C00073012F4803F27D1394BD3F8483413F08F
:10238C00010F26D104F003FC8DF807009DF80720FF
:10239C00334BC3F8402410224FF48473042003F110
:1023AC00A04303F5871300211960196802F1A042BC
:1023BC0002F58712012111602A4A1268002A47D0BF
:1023CC00274BC3F80403C8E70DF1070004F0EDFB3D
:1023DC00DCE7234BD3F8503403F003038DF80730BC
:1023EC000DF1070004F0E1FB0028CFD01D4B1B685A
:1023FC0023B11B4B0422C3F80423AEE7184BD3F8CC
:10240C000831002BFAD0164B0022C3F80821D3F860
:10241C000831A2E7124B0022C3F81021D3F8101197
:10242C00C3F81821D3F81811C3F81421D3F81431B8
:10243C00FFF700FF38B10A4B01229A6000224FF4DB
:10244C0080737120ABE700224FF480737120A6E7F4
:10245C001A68002AFCD000221A601B687DE700BFB6
:10246C0000E010501405002008B5244BD3F80C03E1
:10247C0011E0234B02225A71204B0022C3F8142185
:10248C00D3F814212022C3F804231D4B1B68984752
:10249C001A4BD3F80C0380B3B0FA80F0C0F11F00D4
:1024AC00012303FA00F283009BB203F580739BB205
:1024BC00C0B203F1A04303F58713002119601B6818
:1024CC00D3B20E4AC2F80833102BD2D0402B10D006
:1024DC00042BDAD1D2F84C14D2F84C2412F0030F9E
:1024EC00D3D1064A0121C2F84014C2F80433116159
:1024FC00CEE7034B00225A71C7E708BD00E010502D
:10250C001405002030B401F5A27150F821500E4C86
:10251C002C4040F8214050F8214041F6F07C0CEA68
:10252C00021C1B0403F440334CEA030C9DF80830E6
:10253C001B0503F480134CEA030C44EA0C0440F82A
:10254C00214030BC704700BF0FE0ECFF036803F084
:10255C001F0202605B09012B06D0022B06D00BB1C7
:10256C000020704702487047024870470248704785
:10257C0000A0105000820D500004055000B583B02F
:10258C00019001A8FFF7E2FF019A203250F82210C7
:10259C00044B0B4043F0020340F8223003B05DF8CB
:1025AC0004FB00BFF0F0FCFF30B585B086460D464D
:1025BC0094460C4B93E8070004AB03E90700734601
:1025CC0009E004AA02EB830252F80C2C146A4CF8B2
:1025DC00044B146201330EEB05029A42F1D805B09C
:1025EC0030BD00BFF08700004309034AD35C00F004
:1025FC001F001844C0B27047E08E0000C0EB001002
:10260C00014B03EBC00070471C050020014B03EB92
:10261C00C0007047F88E00002DE9F04184B00546EB
:10262C000C4616461F460846FFF7DEFF804656B39B
:10263C002146284604F012FC28B12146284604F015
:10264C00CDFB002843D12146284604F0D6FB10B11F
:10265C007378012B3BD001238DF80F3000230193AD
:10266C000096B31C721C0DF10F01204604F012FBF6
:10267C002879FFF7C3FF08F1080230F8123043F055
:10268C00030320F81230002F3BD02146284604F0DB
:10269C00E5FB002837D13E782B6806F5A2720021A5
:1026AC0043F8221043F822102879FFF7A7FF08F10E
:1026BC00080230F8123023F02003DB04DB0C20F886
:1026CC0012307B782BB9114804B0BDE8F08110486A
:1026DC00FAE7BA780092224631462868FFF712FFD3
:1026EC002879FFF78BFF024608F1080032F810300A
:1026FC007603B6B2334343F0200322F8103003487C
:10270C00E2E70248E0E70248DEE700BF0000AD0B5D
:10271C000400AD0B70B506460D46144604F05EFB86
:10272C0068B13079FFF76AFF06462846FFF75CFF71
:10273C00083036F810305B0B2370024870BD02482D
:10274C00FCE700BF0000AD0B0400AD0B30B583B04F
:10275C0005460191002400E00134022C18D80E4BE0
:10276C001B5D03F0070202A901EBD30313F8043C31
:10277C00D34013F0010FEFD005EB8402012120466A
:10278C00FFF712FF55F82430002BE5D0012000E0B4
:10279C00002003B030BD00BFF08E000008B50079FA
:1027AC00024B03EB8000FFF707FD08BD140100206E
:1027BC002DE9F04182B00546884616461F4604F0C6
:1027CC008EFCAEB33A463146284604F0A3FB041EF9
:1027DC0020DB2879FFF712FF40F834602879FFF7E7
:1027EC000DFF00EBC40047602879FFF707FF054693
:1027FC004046FFF7F9FE083035F81030E4B26402B9
:10280C00A4B2234343F4807325F81030094802B076
:10281C00BDE8F0812879FFF7F1FE0DF1070160307A
:10282C00FFF7CAFC034B9842F1D19DF80740D0E763
:10283C000048ECE70000AD0B2DE9F04784B00646EC
:10284C000C4690460846FFF7CFFE07463079FFF757
:10285C00D5FE0546D8F80090B9F1000F21D02146DD
:10286C00304604F0EAFA002843D100238DF80E30EC
:10287C008DF80F30019300934B460DF10F020DF1C3
:10288C000E01204604F006FA07F1080235F8123062
:10289C0023F002039BB225F8123043F0010325F814
:1028AC001230D8F80430BBB193F80090D3F804A0E0
:1028BC002146304604F0B2FAE8B1BAF1000F61D10A
:1028CC00083735F8173023F01C039BB225F8173066
:1028DC0043EA890325F81730D8F80820002A55D088
:1028EC005368126821463046FFF762FF04B0BDE81A
:1028FC00F0872748FAE707F1080235F8123023F081
:10290C002003DB04DB0C25F81230BAF1000FD7D012
:10291C00B9F1030F38D8D8F804305B6893F800A0ED
:10292C00B9F1000F08D133680AF5A27A002243F8F6
:10293C002A2043F82A20C3E7484604F097FA0346B6
:10294C0031680AF5A27C51F82C2022F0030241F8E0
:10295C002C2022465146306804F041F90AF130032C
:10296C0005EB43039C8007F1080235F812304FEA5F
:10297C004A3A1FFA8AFA43EA0A0343F0200325F87D
:10298C0012309DE70248B1E70148AFE70148ADE7D7
:10299C000400AD0B0000AD0B38B505460C4604F039
:1029AC000EFA08B9074838BD2146284604F08FFABC
:1029BC002146284604F0BEFB2046FFF7DFFD024807
:1029CC00F1E700BF0400AD0B0000AD0B08B50079BA
:1029DC00024B03EB8000FFF70FFC08BD1401002035
:1029EC00F0B583B005460E460079FFF707FE90F868
:1029FC00743013B10D4803B0F0BD044646220021DB
:102A0C00103005F035F92F682879FFF7FFFD0368C2
:102A1C000093002332464FF40031384604F0ACFBEF
:102A2C00012384F8743023660148E4E70C00AD0BF5
:102A3C000000AD0B2DE9F04784B081460F4690465F
:102A4C000023019302930393516801A8FFF77EFEC4
:102A5C004DE094FAA4F4B4FA84F404F01F05264B68
:102A6C009B5D45EA43152846FFF7BEFD083037F855
:102A7C0010A0CAF3820A01AB03EB8603E00804F052
:102A8C0007041A5C0121A14022EA01021A542846CB
:102A9C0004F079F9034652462946384604F0E9FA1F
:102AAC00284604F07FF904AB03EB860353F80C4C77
:102ABC00002CCED10136022E0DD8104B9B5D08F1A7
:102ACC000402D90803F00703525C22FA03F313F053
:102ADC00010FEFD0E7E700224FF40031484604F035
:102AEC00B7F8D8F8041001A8FFF730FE08B100269B
:102AFC00E1E704B0BDE8F087F48E0000F08E000032
:102B0C00F8B504460E461248081A124BA3FB0030C7
:102B1C008009FFF77BFD0746D4F81413C9B202688D
:102B2C0041F40031204604F093F8054610F4003FC0
:102B3C0005D12A463146204604F04AFBF8BD3A46F8
:102B4C0031462046FFF776FF25F40035F1E700BF4C
:102B5C001C0500208988888808B502490248FFF7BF
:102B6C00CFFF08BD1C05002000A00D5008B5024980
:102B7C000248FFF7C5FF08BD9405002000C01050A7
:102B8C0010B5D0F8103523F00203C0F8103540F61C
:102B9C00FF73C0F8283300220AE0930003F5C07CD1
:102BAC00002440F80C40DBB28033C4500132D2B266
:102BBC000B2AF2D90123036669B1074B074A106847
:102BCC00074AA2FB0020800C00EB4000C0EB401039
:102BDC0043F00103984710BD20880000100100202D
:102BEC0083DE1B43024B5868C04300F067007047FC
:102BFC0040000020024BD3F81005C0F34000704792
:102C0C0000200E5003498B680122824013438B60D5
:102C1C00704700BF4000002010B5044604F05CFB78
:102C2C0028B1204604F04EFB18B1034810BD0348F0
:102C3C00FCE70348FAE700BF0000AD0B0800AD0B42
:102C4C000400AD0B10B5037A0C49CA1892F8542045
:102C5C001B0103F1A04303F562230024C3F82C45A8
:102C6C0002EB420301EB83030468DC6044681C61E3
:102C7C00007A1875FFF7C6FF10BD00BF400000209A
:102C8C00027A0A4BD3F8103523F001035AB1012212
:102C9C001343064AC2F810350368C2F8A4364368D9
:102CAC00C2F8AC3670470022F2E700BF00200E508D
:102CBC0070B582B02D4BD3F82C4320E02C4B01F196
:102CCC000C0203EBC20553F832206B684FEA800C00
:102CDC00284D55F80C6096B1002645F80C60244D33
:102CEC0001EB41064FEA860CAC44DCF80C6001EBBE
:102CFC0041014FEA810C654429690091B04794B3B6
:102D0C0094FAA4F0B0FA80F001238340DD4324EA66
:102D1C000304174B1A1892F8541001EB410C4FEAAC
:102D2C008C021344DB68B3B1134AD2E8EF3F03EAD9
:102D3C000506C2E8EC6FBCF1000FF6D1C34013F0EE
:102D4C00010FBBD0094A00F152031D0102EB031322
:102D5C005B685259BAE78000064B1A58002ACED04D
:102D6C0000221A50CBE702B070BD00BF00200E50FD
:102D7C004000002000210E50C800002030B4EFF3BA
:102D8C00118C202383F31288BFF36F8F0A4BD3E986
:102D9C0000454FF0FF31A1426FF04041A941F5D3FE
:102DAC00C5F31303046043608CF31188BFF36F8F7A
:102DBC00024830BC704700BF40270E500000AD0BDE
:102DCC0030B585B01E4B1C7814B11E4805B030BD13
:102DDC0005461D4A01AB07CA83E807001B49D1F819
:102DEC00102522F00202C1F810251846FFF748FF03
:102DFC00672004F05CFA05280FD01548E6E720465A
:102E0C0004F072FA0E4B04EB440103EB81010875DC
:102E1C00034483F854400134E4B2042CEFD90B4C36
:102E2C0000232A466721204604F073FA012120462C
:102E3C00FFF7A6FE024B01221A700648C6E700BF38
:102E4C00400000200C00AD0BFC87000000200E5051
:102E5C000100AD0B0000AD0B70B582B005460E46FF
:102E6C001C494B6803F001030193143101A8FFF7CF
:102E7C00A3F90446184B984202D0204602B070BD0C
:102E8C0000203070134A536823F001035360FFF79E
:102E9C00B9FEFFF7AFFED0B92946104804F0E6F9A9
:102EAC000F4B1B680F4AA2FB03239B0C03EB431332
:102EBC0000E0013B3BB1094AD2F84017D2F8442755
:102ECC0012F0804FF5D1002BD7D1074CD5E7074C2A
:102EDC00D3E700BF400000200000AD0B00200E50D7
:102EEC001001002083DE1B430700AD0B0C00AD0B63
:102EFC002DE9F041044617461E469DF81880007ACD
:102F0C00FFF78AFE05461C4B984202D02846BDE8C6
:102F1C00F0812046FFF796FEEFF31181202383F317
:102F2C001288BFF36F8F227A9200144B1344002245
:102F3C001A60237A124A5233180102EB031317500A
:102F4C00C6F313065E6081F31188BFF36F8FB8F17F
:102F5C00000FDBD0227A012303FA02F20949D1E8EF
:102F6C00EF6F1643C1E8E06F0028F8D1227A934046
:102F7C00034AC2F82433C9E70000AD0B00210E5000
:102F8C0000200E50C8000020EFF31181202383F3A2
:102F9C001288BFF36F8F094A13780133DBB21370B9
:102FAC00012B05D0064881F31188BFF36F8F704752
:102FBC00044B01221A630448F5E700BF860C00207D
:102FCC000C00AD0B00E010500000AD0B10B51A4B0F
:102FDC00D3F8044314F4805F0BD0D3F8303143B1F1
:102FEC00154B0022C3F83021D3F83031134B1B683A
:102FFC00984714F4005F0CD00F4BD3F8343143B125
:10300C000D4B0020C3F83401D3F834310C4B1B6842
:10301C00984714F4804F0DD0074BD3F838314BB18F
:10302C00054B0022C3F83821D3F83831044B1B6808
:10303C000120984710BD00BF00E010501006002082
:10304C000C06002082B08DF80400C9B28DF8051072
:10305C0040EA0120054BC3F80005044BD3F80034BB
:10306C0013F0010FF9D002B0704700BF00B004504C
:10307C0038B5EFF31185202383F31288BFF36F8FDC
:10308C00054B9C6804F0A6F985F31188BFF36F8F8C
:10309C002046FDF7EDFF38BD14060020F0B587B0D3
:1030AC0000EBC0060F4D05EB061600EB80000E4B37
:1030BC0003EB800300220592012104910F2103915F
:1030CC00029201920093094B4FF4A072084901EB54
:1030DC008011304600F064FA737B23F004037373A1
:1030EC0007B0F0BDF001002014060020E7730000CB
:1030FC008814002038B505460B4B53F8204002E0ED
:10310C002368984708346B1C074A52F82330A342B3
:10311C0009D960680028F3D0037F13F0010FF1D1B7
:10312C0004F027F9EEE738BD108F000008B553EA1C
:10313C00020102D100F02CFE08BD0249183000F04B
:10314C00BBFFF9E7FB75000010B586B0184C14E016
:10315C00636A0593236A0493E3690393A369029357
:10316C006369019323690093E368A268616820682E
:10317C0000F016FA23685C6530340E4B9C42E7D3A2
:10318C0000F0E0FC0A4C00E030340A4B9C420BD2BD
:10319C00A26AE36AB3F1FF3F08BFB2F1FF3FF3D07D
:1031AC002068FFF7C3FFEFE700F0E4FC06B010BDAA
:1031BC006C8700006C87000008B50A4B01221A705E
:1031CC000320FFF797FFFDF7D5FB0420FFF792FFD5
:1031DC00FFF7BAFFFDF7B4FA034A137B23F00103A0
:1031EC00137308BD870C00208002002008B501462F
:1031FC00014A0248FEF722F8C53100008002002087
:10320C0010B50446FFF74AFF04EBC4030A4901EB6F
:10321C0003110A4A04EB840302EB8303D9601C7488
:10322C00074B03EBC42303F5006304EB840402EBAC
:10323C008402536010BD00BFF00100201406002072
:10324C00880C002070B586B000F0CCFC104D114BF2
:10325C005D61114B059301230493002403940294A4
:10326C00019400940D4B4FF480620D49284600F0F8
:10327C0097F906466B7B23F004036B73284604F026
:10328C0061F92046FFF7BCFF304606B070BD00BFA9
:10329C008002002014060020088F0000C5310000B9
:1032AC00C815002008B50020FFF724FF184B03F5C4
:1032BC00006282F3088883F30A88164CE02384F8B2
:1032CC0022300023E37723766376A37684F82030CC
:1032DC00626A42F4E022626284F82330FDF740FE19
:1032EC00FDF7CCFF4FF0FF33A362E362FEF772F9F8
:1032FC00FDF7F4FF084800F085F90120FFF7FAFE0E
:10330C000220FFF7F7FEFFF79DFFFFF76FFF00BFEF
:10331C00880C002000ED00E0100300202DE9F041A6
:10332C0082B00446EFF31187202181F31288BFF39A
:10333C006F8FC16899B9002950D1364B9B6893F9AE
:10334C000E3023610131E160324B9B68A36087F33F
:10335C001188BFF36F8F002002B0BDE8F0811646D4
:10336C001D4682682B4B9B689A42E4D055EA0601B5
:10337C0036D092F90E80414693F90E0004F03AF8DB
:10338C00804534DC4FF00008009601952246394602
:10339C00214800F0E9FA0028DED0EFF31185202354
:1033AC0083F31288BFF36F8FA36843B323689C42E7
:1033BC0023D013B3216993F90E0004F01BF80146D6
:1033CC00204604F022F8E8B9B8F1000F1AD185F3C1
:1033DC001188BFF36F8F6FF00A00BDE72369B0E768
:1033EC0087F31188BFF36F8F6FF00F00B4E70146BE
:1033FC00204604F00AF88046C6E72169E0E7B8F1F8
:10340C00000FE4D02946044800F070FB6FF00A006E
:10341C00A2E700BF1406002034060020F8B583682C
:10342C00002B47D00446264A9268934245D1C36884
:10343C00012B04D9013BC36000252846F8BDEFF3EE
:10344C001186202383F31288BFF36F8F016903F079
:10345C00DCFF2768BC420CD03D1E18BF012557B9B4
:10346C00A760CDB90023E36086F31188BFF36F8F9B
:10347C00E3E70027F0E77A683B6813605A600023A3
:10348C003B607B607A7B22F002027A73BB6007F1AF
:10349C00180004F022F9E3E797F90E3023610025B8
:1034AC00C7F88850384604F04DF83146054800F00E
:1034BC001DFBC2E76FF01505BFE74FF0FF35BCE70A
:1034CC001406002034060020F8B50446EFF31187EB
:1034DC00202383F31288BFF36F8F0568A84212D0A4
:1034EC002E1E18BF012685B906BBA368E26893425D
:1034FC0024D001221344A36000230BBB87F3118853
:10350C00BFF36F8FF8BD0025EAE76A682B6813607C
:10351C005A6000232B606B606A7B22F002026A7394
:10352C00AB6005F1180004F0D8F8DDE70023C5F80E
:10353C008830284604F006F80123DEE70022D9E79C
:10354C003946024800F0D2FADCE700BF340600200E
:10355C0010B582B0EFF31181202484F31288BFF3ED
:10356C006F8F846844B1013C846081F31188BFF390
:10357C006F8F002002B010BD53EA020406D00092F7
:10358C0001930246054800F0EFF9F3E781F3118847
:10359C00BFF36F8F6FF00F00ECE700BF3406002015
:1035AC00F0B585B004460E4615461F4600F158038B
:1035BC008365C3650E9B04220D9903F050FF2A46C8
:1035CC003146204603F033FF05460C9B02930B9BC0
:1035DC0001930A9B00933B46024631462046FDF779
:1035EC000BFE0023636584F86C30054B9B6823B19C
:1035FC00DB6FE367284605B0F0BDE367FAE700BF71
:10360C0014060020012343730373002303674367ED
:10361C00C367014B98607047140600200A4A9368F0
:10362C00C3F884006FF00A01C3F8881007494B688F
:10363C0043F080534B60002383F31188BFF36F8FEB
:10364C009368D3F8880070471406002000ED00E062
:10365C00437B90F90D20002A51DB13F01F0F4ED144
:10366C0010B563F07F034373254A52F8183F934219
:10367C000ED100230CE05A68426003601060586061
:10368C001EE01A461E49C9698A420FD01B687BB1DD
:10369C0073B190F90E1093F90E209142F1D0521A99
:1036AC00002AE8DC1A46002BECD1F0E70023EEE709
:1036BC00134BDA6903F11801016042601060D861A4
:1036CC000F4B53F8184F9C420ED06CB10C4B9B68AF
:1036DC005A7B12F01F0F0AD1DA897F2A07D9A26907
:1036EC002AB9074A536109E0054BDC68EEE7A342AF
:1036FC0002D0204600F05EFC014B5C6110BD7047AF
:10370C001406002010B5437B90F90D20002A14DB21
:10371C00154B9A6853F8184F9C4219D0C4B1824289
:10372C0019D0537B13F01F0F15D1D3897F2B12D9CE
:10373C00A36983B90C4B5A6114E003F07F03437304
:10374C004268036813605A60002303604360DFE73C
:10375C00054BDC68E3E7A24202D0204600F02AFCCD
:10376C00014B5C6110BD00BF140600202DE9F8432D
:10377C0005460C46404B9E68737B13F0600F28D0B7
:10378C0013F0200F2AD008271F4222D13B4373731A
:10379C0013F0800F24D1082F2DD04FF00009364B99
:1037AC0053F8188F98454BD0B8F1000F48D0324BD6
:1037BC009B68434502D0404600F0FCFB2E4BC3F8FF
:1037CC001480102F05D0304602F030FCB9F1000FF8
:1037DC003AD184F31188BFF36F8F46E01027D3E7FB
:1037EC0003F07F0373737268336813605A600023AD
:1037FC0033607360CFE7B3685BB172683368136092
:10380C005A60002333607360727B22F00202727381
:10381C00B360304603F062FE06F1580003F063FE1D
:10382C00154B9B689E4202D04FF00009B7E7EFF3AF
:10383C00058313B94FF00009B1E74FF00109AEE76A
:10384C000D4BD3F80C80B2E70C48FFF7DBFEC0E75A
:10385C00EFF31184202383F31288BFF36F8F03F0EF
:10386C00C7FD84F31188BFF36F8F6B7B13F0600F70
:10387C00EED1BDE8F88300BF140600201003002031
:10388C00B3F1FF3F08BFB2F1FF3F00D1704708B55D
:10389C000249183000F010FC08BD00BFFB75000099
:1038AC0010B5437B90F90D20002A0ADB437B63F0B3
:1038BC007F0343732B4A52F8183F934219D10023CC
:1038CC0017E003F07F0343734268036813605A6088
:1038DC00002303604360E9E75A68426003601060AC
:1038EC0058601EE01A461F49C9698A420FD01B68EE
:1038FC007BB173B190F90E1093F90E209142F1D077
:10390C00521A002AE8DC1A46002BECD1F0E700230F
:10391C00EEE7144BDA6903F11801016042601060A4
:10392C00D861104B9A6853F8184F9C420ED06CB16A
:10393C0082420ED0537B13F01F0F0AD1D3897F2BF9
:10394C0007D9A3692BB9074B5A6109E0054BDC6811
:10395C00EEE7A24202D0204600F02CFB014B5C614A
:10396C0010BD00BF1406002010B50C4611460A48C5
:10397C0082680A4B1A60EFF31183202383F31288B9
:10398C00BFF36F8FDDE90223806803F0CFFD204683
:10399C00FFF744FE10BD00BF1406002034060020C3
:1039AC002DE9F04104460E460023EFF31185202249
:1039BC0082F31288BFF36F8F1F4650E003F07F0332
:1039CC0063736268236813605A600023236063602A
:1039DC0071B2A173637B63F07F036373424A52F845
:1039EC00183F93420ED100230CE05A6862602360AA
:1039FC0014605C601CE01A463B48C06982420DD0E2
:103A0C001B686BB163B193F90E209142F3D0521A3B
:103A1C00002AEADC1A46002BEED1F2E70023F0E78D
:103A2C00314BDA6903F11801216062601460DC61CA
:103A3C002D4B53F8188F984520D0B8F1000F1DD09E
:103A4C00294B9B68984502D0404600F0B3FA264BB0
:103A5C00C3F8148085F31188BFF36F8F0123002BFB
:103A6C003FD1637B03F01F02002A0CBF0127002704
:103A7C00A4D013F0020F05D1A673EBE71A4BD3F8C1
:103A8C000C80DDE7A1686268236813605A6000232C
:103A9C002360636070B2A0730B6899420DD1002350
:103AAC000BE05A686260236014605C60D2E79C464D
:103ABC004A6894450DD01B686BB163B193F90E2025
:103ACC009042F4D0121A002AEBDC9C46002BEFD16A
:103ADC00F2E70023F0E74B68216063601C604C60E8
:103AEC00B8E73846BDE8F0811406002008B50B464F
:103AFC0059B9EFF3058242B9064A5069926890426F
:103B0C0003D00846FFF78AFD03E083F31188BFF367
:103B1C006F8F08BD1406002008B5034650B9EFF3AB
:103B2C0005823AB9064A51699268914202D0FFF770
:103B3C0075FD03E083F31188BFF36F8F08BD00BFE1
:103B4C00140600200023EFF31181202282F3128847
:103B5C00BFF36F8F09E0064B9A68D37B013BD3739D
:103B6C0081F31188BFF36F8F0123002BF3D07047C3
:103B7C001406002038B50023EFF31185202282F3C0
:103B8C001288BFF36F8F0EE0154BDC6817E0A24272
:103B9C0002D0204600F00EFA114B5C6185F31188BF
:103BAC00BFF36F8F0123BBB90D4B9A68D17B0131E9
:103BBC00D17353F8184F9C42E6D0002CE4D0537BC1
:103BCC0013F01F0FE3D1D3897F2BE0D9A369002B0E
:103BDC00DDD1034B5A61E1E703F00FFD38BD00BFA7
:103BEC001406002008B5024803F012FD08BD00BF02
:103BFC002806002038B5EFF31184202383F31288B4
:103C0C00BFF36F8F224B9A68DB699A4205D0136819
:103C1C00516812680A60516006E00023F8E71C4AFC
:103C2C00D269934212D01B6893B1194A906890F9EB
:103C3C000E1093F90E209142F1D0521A002AEEDDAB
:103C4C005A6842600360106058600AE00023EBE79A
:103C5C000F4B9A68D96903F11800106051600A6023
:103C6C00DA610B4B53F8185F9D420DD065B1084BD0
:103C7C009B689D4202D0284600F09CF9044B5D6184
:103C8C002046FFF7CBFC38BD014BDD68EFE700BFEA
:103C9C0014060020F8B551EA000328D005460C465E
:103CAC00EFF31187202383F31288BFF36F8F154E28
:103CBC00B068154B1860FFF725FDB0682A462346FF
:103CCC001249183000F0F8F90446B268537B43F0FF
:103CDC00040353733846FFF7A1FCB3689A6ADB6A96
:103CEC00B3F1004F08BF002A05D00020F8BDFFF744
:103CFC0081FF0020FAE703F01FFD201A0028F5DCF5
:103D0C000020F3E71406002034060020FB750000A9
:103D1C0038B504460D46FFF7BDFF02462046B5F107
:103D2C00FF3F08BFB4F1FF3F2CD0D1174FEA411C25
:103D3C004CEAD26C53019B1A6CEB010C4FEA8C0CC5
:103D4C004CEA937C9B00981841EB0C01C90041EAAA
:103D5C005071C00047F61123C01841F1000147F61D
:103D6C001223984271F100030BD3084B834243F6A4
:103D7C0008538B4107D347F612220023FCF778FB3C
:103D8C0000E0002038BD6FF00040FBE7ED85FFFF41
:103D9C0038B5EFF31185202383F31288BFF36F8FAF
:103DAC00437B13F0040F04D185F31188BFF36F8F9D
:103DBC0038BD0446183003F090FC637B23F00403F9
:103DCC0063732046FFF744FC29460248FFF78EFE3A
:103DDC00EEE700BF34060020014B9868704700BF27
:103DEC00140600202DE9F843037B03F00107EFF3E1
:103DFC001186202383F31288BFF36F8F457B15F058
:103E0C00080F1AD10446B14600F1580803F032FBF2
:103E1C0010B345F020056573EFF305839BB1314674
:103E2C002046FFF7A3FC67B1002383F31188BFF38F
:103E3C006F8F0423184602DF03E086F31188BFF36B
:103E4C006F8FBDE8F88341463D4B986803F014FB37
:103E5C003046FFF7E3FBE6E745F00803637313F026
:103E6C00800F33D1A3685BB16268236813605A601A
:103E7C00002323606360627B22F002026273A36002
:103E8C0004F1180003F029FC404603F02CFB2C4BEA
:103E9C009A68944227D00026294B53F8185F9D420C
:103EAC0028D03DB3AA4202D0284600F083F8244B18
:103EBC005D61204602F0BAF8FEB9214B9B689C422A
:103ECC001FD089F31188BFF36F8FACE705F07F0526
:103EDC0045F0080565736268236813605A60002317
:103EEC0023606360BEE7EFF305830BB90026D3E7CD
:103EFC000126D1E7124BDD68D4E71248FFF782FBAD
:103F0C00DBE7EFF30583002BDBD1237B13F0010FF1
:103F1C0012D089F31188BFF36F8F002383F31188BC
:103F2C00BFF36F8F0423184602DFEFF311892023B0
:103F3C0083F31288BFF36F8F4846FFF76FFB72E76E
:103F4C001406002010030020044BC01AC010044BB0
:103F5C0003FB00F0034B01221A547047A00300200E
:103F6C00ABAAAAAA38060020C3897F2B11D80E4B06
:103F7C001B687BB190F90E200C4B1B689A420CDB32
:103F8C00437B13F01F0F0AD1094B984209D0012330
:103F9C0000E0002303F0010070470023FAE7002340
:103FAC00F8E70023F6E700BF1C0100203C060020C8
:103FBC00F001002070B505460D4B1E7C06EB460348
:103FCC000C4C04EBC304204603F087FB0A4B002285
:103FDC009A552846FFF7C8FF00B970BD074B1A6801
:103FEC00013AD3170649204600F066F8F5E700BF02
:103FFC0014060020A0030020380600201C0100201D
:10400C00553F000038B5EFF31185202383F3128858
:10401C00BFF36F8F144B9C68144B1B68A34217D0D3
:10402C00124B00221A60104B1B7C114AD35C53B10B
:10403C002046FFF799FF30B1637B13F01F0F0FD0B1
:10404C002046FFF7B7FF85F31188BFF36F8F38BD9C
:10405C002046FFF7AFFF85F31188BFF36F8FF6E7AC
:10406C002046FFF71DFCEBE7140600203406002069
:10407C0038060020034B1868984200D07047002087
:10408C00FCE700BF2001002030B1044A5268904286
:10409C0001D0006870470020704700BF200100204D
:1040AC0008B5044B1B680BB1002008BDFDF710FFD1
:1040BC00FBE700BF400600202DE9F04F83B0B3F1C1
:1040CC00FF3F08BFB2F1FF3F0ED0044691461F469A
:1040DC0081600023EFF3118A202282F31288BFF350
:1040EC006F8F1D46019335E00025019528460199F7
:1040FC0003B0BDE8F08FFFF7D3FF8046013547F1E1
:10410C000006451946EBE07625616661344A136872
:10411C005268ED1846EB020301934FF0010B38E0A7
:10412C00C91A66EB02020161426143686360206058
:10413C001C60446005E02B4B5A682360626014607D
:10414C005C60FFF797FF844237D08AF31188BFF386
:10415C006F8F0123002BC9D14D460197002FCADA6E
:10416C001F4B19685B68691843EB07036FF001027A
:10417C00521A4FF0FF3161EB030310461946012A26
:10418C0073F1000301DA01200021206161614FF01D
:10419C00000BFFF76FFF0028CDD00169466923693A
:1041AC0062698B4272EB060EBADB5B1A62EB06029B
:1041BC0023616261FFF768FFEDE70B4B1B68002B77
:1041CC00C3D1BBF1000F06D0404603F06BFA0021BF
:1041DC00FDF794FEB9E7FFF763FF8046F4E700BFF5
:1041EC00B8030020200100204006002070B5EFF33A
:1041FC001186202383F31288BFF36F8F2A4B18602C
:10420C00FFF738FF044623E0284A136851685B190E
:10421C0041EBE5711360516000220023C4E90423D3
:10422C00204603F028FA86F31188BFF36F8FA3683A
:10423C0020469847EFF31186202383F31288BFF3AF
:10424C006F8F194A13685B1B1360FFF713FF04464B
:10425C003CB125696169144B1A68D317AA428B418A
:10426C00D2DA44B1236962690F4909685B1A62EBBF
:10427C00E172236162610D4A0B4D28681368516825
:10428C001B1841EBE0711360516000242C60204638
:10429C0003F008FA2146FDF731FE86F31188BFF3CF
:1042AC006F8FFFF7AFFE70BD40060020B8030020F3
:1042BC0010B50022EFF31184202383F31288BFF38F
:1042CC006F8F134611460CE0FFF7EAFE074A13689E
:1042DC005168C31841EBE07184F31188BFF36F8F01
:1042EC000122002AF0D0184610BD00BFB8030020F0
:1042FC0070B5104D104C2368284698470F4B5E78CC
:10430C000F4B1B682846984723680E489847022E87
:10431C0007D00024E4B20A4B1B680A489847204691
:10432C0070BD064B1B78072B01D00024F2E701244B
:10433C00F0E700BFB00100204C0100204406002033
:10434C00480100209C01002010B5244B1B68244818
:10435C009847244B1B7813F0040F03D023F004036D
:10436C00204A13701F4B1B7813F0020F22D11E4BE7
:10437C001B681B489847194B1B681C489847194BDE
:10438C005B78FBB9174C002363700421601800F0B4
:10439C000FF9154B1B6815489847104B1B681048B4
:1043AC009847237813F0010F10D10F4B1B680C4862
:1043BC00984710BD00F0D8F80A4A137823F002038E
:1043CC001370D4E70A4803F0F2F9DBE703F0ECF9D9
:1043DC00237823F001032370E7E700BF4C01002092
:1043EC009C0100204406002048010020B001002060
:1043FC004806002038B5FFF77BFF002840F09E8070
:10440C004F4B1B684F4898470446002840F081806A
:10441C004D4B1B7813F0010F09D04C4B1B684948CE
:10442C00984768B1002C76D16FF08F0473E003F0DD
:10443C00B7F90446444A137843F001031370ECE7D0
:10444C00002C68D13E4B1B683E489847002866D12B
:10445C003D4B1B7813F0020F09D03C4B1B683948BD
:10446C00984768B1002C56D16FF08F0453E000F0E0
:10447C0073F80446344A137843F002031370ECE7E4
:10448C00002C48D12E4B1B682E489847002849D148
:10449C002D4B1B7803F001052C4B1B6829489847C2
:1044AC00002842D1264B1B682948984700283FD149
:1044BC00254B5B7803B945B9244B1B6824489847B6
:1044CC0060B144BB6FF08F0425E0224D284603F009
:1044DC006CF90446022305F8033CEDE7DCB9184BF4
:1044EC001B681848984730BB174B1B7813F0040F08
:1044FC0004D143F0040314490B700446134B1B689E
:10450C001048984718B134B96FF08F0403E024B108
:10451C0001E06FF08F04FFF717FF204638BD6FF0F6
:10452C008F04F8E76FF08F04F5E76FF08F04F2E774
:10453C006FF08F04EFE76FF08F04ECE70024ECE7EB
:10454C004C0100209C010020440600204801002062
:10455C00B001002048060020024B012283F8802580
:10456C00002070474C06002038B500259DB10B4B40
:10457C00002283F8802538BD2C23084803FB040057
:10458C00012303620323037703F0E5F801341F2CA6
:10459C00F2D90135EAE72C46F9E700BF4C060020BA
:1045AC0008B5024B1B68984708BD00BF28010020C6
:1045BC0039B110B504460A46024B1B6800219847D6
:1045CC0010BD70472C01002008B5482001F019FDE2
:1045DC00024B0722C3F8082308BD00BF008004501B
:1045EC0008B50C4B186803F079FA0B4A1368591C80
:1045FC00116023B1074B186803F078FA08BD074A1D
:10460C00D2F8003443F00703C2F80034482001F01C
:10461C00F3FCEFE734010020D00B002000800450A5
:10462C0008B5154B186803F059FA144A1368013B86
:10463C00136023B1104B186803F058FA08BDFFF74C
:10464C00C3FF0F4BD3F8002422F00702C3F8002459
:10465C000022C3F80021D3F80011C3F80421D3F8C9
:10466C000411C3F80821D3F80831064B4FF48072BB
:10467C00C3F88821DEE700BF34010020D00B0020F6
:10468C000080045000E100E010B50E4B1A680E4B90
:10469C009A4214D0FFF7A4FF00F02CFE00F066FE47
:1046AC0048B900F0FBFB0446FFF7BAFF44B9054BD1
:1046BC00054A1A6004E000F009F80446F4E7002407
:1046CC00204610BD30010020117365000A2846DC1D
:1046DC0010F1550F35DB00F155035F2B3CD8DFE8AB
:1046EC0003F0383B3B3B3B3B3B3B3B3B3B3B603B6F
:1046FC003B3B3B3B3B3B63603B3B3B3B3B3B3B3BB1
:10470C003B3B3B3B3B3B3B3B3B3B3B3B3B3B3B3BED
:10471C003B3B3B3B3B3B69663B3B3B3B3B3B3B3B84
:10472C003B3B3B3B3B3B3B6C3B3B3B3B3B3B3B3B9C
:10473C003B3B3B3B7E663B833B3B3B3B3B3B6C3BD6
:10474C003B6C6FF086007047002070476FF086005E
:10475C0070476FF0930070476FF0860070476D28BC
:10476C0040DC64281ADB64380928EFD801A353F81D
:10477C0020F000BFE54700005947000059470000F2
:10478C0055470000CD470000DF470000D947000027
:10479C005947000059470000D34700006FF08600CE
:1047AC0070476FF0840070476FF0890070476FF0AE
:1047BC00920070476FF0880070476FF0940070475C
:1047CC006FF0850070476FF08C0070476FF09300AE
:1047DC0070476FF0860070476FF0980070476FF06D
:1047EC00850070476FF08600704700BFF0B59FB032
:1047FC0007460DF12F0323F01F050024179418947E
:10480C0019941A941B941C941D944FF41053ADF8E6
:10481C005C304FF48073ADF85E30039303A803F063
:10482C0005F8039B1993264608E010361B4A136BB8
:10483C00516B013341F10001136351632F2E13D8D7
:10484C00174C01221021204602F0D0FF10230193B7
:10485C00AA19009222462021A4F1200000F06CFB42
:10486C0004460028E1D016E027B13022394628460C
:10487C0002F0A9FFDFF824C066462F460FCF0FC603
:10488C0097E80F0086E80F000CF1200605F12003D5
:10489C000FCB86E80F0020461FB0F0BDC0030020F0
:1048AC00E003002010B58CB03021684602F0CDFF3B
:1048BC0098B96846FFF79AFF044610B120460CB031
:1048CC0010BD302300221946684602F098FF044BB5
:1048DC0000200021C3E90C01F0E76FF09204EDE732
:1048EC00C00300201A4B9A6B1A4B9A422ED010B56B
:1048FC008CB0194B186803F0F1F8402300221946CC
:10490C00134802F07CFF3021684602F09EFF0446FB
:10491C0040B1114B186803F0E9F82046FFF7D6FEBA
:10492C000CB010BD6846FFF761FF08B10E24F0E72C
:10493C00302300221946684602F061FF044B012027
:10494C000021C3E90C01034A9A63E2E70020704797
:10495C00C0030020B4A5B4A5380100202DE9F04116
:10496C0096B004460E4690460DF12F0727F01F0710
:10497C0002F10F052D0922B100297DD0B2F5803F3F
:10498C007DD8404B186803F0A9F83F4A136B526B63
:10499C00134327D03C4B1A6B5B6BAD1843F10003F0
:1049AC004FF0FF32AA424FF6FF729A4103D2FFF743
:1049BC0079FF044608BB00230F93109311931293B5
:1049CC001393149315934FF41053ADF83C304FF4EC
:1049DC008073ADF83E30039303A802F027FF039BCE
:1049EC0011931FE02046FFF77DFF04460028D1D02D
:1049FC00244B186803F07AF83AE0224B186803F05D
:104A0C0075F835E03B5D33550134AC42FAD3A8EB75
:104A1C0005082E441C4A136B516B013341F1000104
:104A2C0013635163B8F1000F1AD04546102D28BFFF
:104A3C001025164C01221021204602F0D7FE10231F
:104A4C000193009722462021A4F1200000F074FA73
:104A5C0004460028D9D00B4B186803F047F807E040
:104A6C000020FFF7C3FE0446064B186803F03EF81F
:104A7C00204616B0BDE8F0816FF08604F8E76FF0C1
:104A8C008604F5E738010020C0030020E003002075
:104A9C00074B0022C3F81021C3F80C21C3F80021E6
:104AAC00C3F80421C3F80821C3F81421704700BFD0
:104ABC000050045038B505460C46FFF7E9FF0123BA
:104ACC002B60236843B9104BD3F80C3123B90E4B30
:104ADC00D3F80831002BF4D0236853B90B4B9C420C
:104AEC000CD0A3F58473D3F8083153B94FF0FF34CD
:104AFC0000E00024FFF7CCFF204638BD4FF0FF3418
:104B0C00F8E76FF00204F5E7005004500851045028
:104B1C0038B5A1B104460D4600210120FEF792FAEA
:104B2C000848C0F80045C0F804550749FFF7C2FF14
:104B3C00044600210846FEF785FA204638BD6FF082
:104B4C000104FAE7005004500051045010B504461B
:104B5C0000210120FEF776FA064BC3F80045064902
:104B6C000648FFF7A7FF044600210846FEF76AFA3D
:104B7C00204610BD005004500851045008500450F9
:104B8C0071B110B50C46084BC3F80005074908482D
:104B9C00FFF790FF18B9044BD3F80835236010BD0C
:104BAC006FF00100704700BF0050045010510450CA
:104BBC000C50045000230B604369C3F301330A7893
:104BCC0063F305120A70D3B213F0300308D1826874
:104BDC0012F0010F40F08F8012F0020F40F08E8027
:104BEC00102B07D0037DF82B40F08B8010B50023E1
:104BFC009E460CE04B88022262F3C8134B808B78E4
:104C0C00052262F306138B70002070470133062BCC
:104C1C0012D88268424C54F823401442F6D0CA7819
:104C2C004FF0010C0CFA03FC4CEA520C6CF34702EB
:104C3C00CA704EEA040EE9E7836833EA0E0363D1C7
:104C4C004388FF2B3DD00CD8802B16D0C02B05D120
:104C5C008B78022262F306138B7013E06FF08500E1
:104C6C000AE0B3F5807F05D18B78042262F306133A
:104C7C008B7007E06FF0850010BD8B78012262F31A
:104C8C0006138B704369C3F301330A7863F305127F
:104C9C000A70D3B213F0300F06D1836813F0010FF2
:104CAC0035D113F0020F35D10379022B1DD011D859
:104CBC00012B0CD14B88012262F3C8134B800020CE
:104CCC00DAE78B78032262F306138B70DAE76FF066
:104CDC008600D1E7032B01D0FF2B1ED14B8802227B
:104CEC0062F3C8134B800020C6E74B8843F4C073B3
:104CFC004B800020C0E76FF0860070476FF0860095
:104D0C0070476FF0850070476FF08500B4E76FF067
:104D1C008600B1E76FF08600AEE76FF08600ABE778
:104D2C00288F00002DE9F04788B004460D46164642
:104D3C001F4602F0EEFD814618B1484608B0BDE8AA
:104D4C00F08707A92046FFF735FF81460028F4D1EC
:104D5C009DF81C30C3F30113012B28D0032B13D067
:104D6C0013B16FF08609E8E72388B3F5105F7ED1A5
:104D7C00A7F11002102A7DD8444BD34013F0010F39
:104D8C0026D16FF08609D8E7412F0BD0A7F110027E
:104D9C00102A72D83D4BD34013F0010F1BD16FF08A
:104DAC008609CAE70136013FDFF8E4A003E0302FA3
:104DBC0066D1DFF8E0A00F374FEA171800244445FE
:104DCC000CD2281902F071FD00285CD00134F6E7F2
:104DDC00DFF8C4A0EFE7DFF8B8A0ECE71F2F08D886
:104DEC000024009401940294039404940594069472
:104DFC0020E04146284602F072FD81460028EFD0A3
:104E0C009BE7079B0693BDF81E30C3F3C1130493B5
:104E1C00B318EC46B05859689A68DB68ACE80F00D8
:104E2C0069462819FFF774FE80B91C21684602F008
:104E3C00F1FC013444450DD222010AEB0413059315
:104E4C00002CDED04FF0FF330693DCE702F061FD5F
:104E5C006FF092091F2F7FF670AFB9F1000F7FF43E
:104E6C006CAF4146284602F07BFD814665E76FF04A
:104E7C00850962E76FF086095FE76FF086095CE7EA
:104E8C006FF0860959E76FF08A0956E701010100B6
:104E9C0000000020108404504000815110B590B0E7
:104EAC0000230193029303930493059306930793B2
:104EBC00F82002F0FAFC28B101235BB9002420464B
:104ECC0010B010BDF92002F0F0FC08B90023F4E793
:104EDC000123F2E720220DEB02010020FFF73EFD3B
:104EEC0004460028EBD14FF480740094684602F01D
:104EFC00E7FC009B03930D4B04934FF41053ADF858
:104F0C000430ADF806400A4B02930A4B069320235B
:104F1C000DEB0302F82101A8FFF704FF0446202142
:104F2C000DEB010002F076FCC9E700BF0010C004D5
:104F3C00014B4E80F800FF7F2DE9F04182B0804696
:104F4C000E4617461D464FF480730193002000F067
:104F5C0075F9274C01AB2360264BA3601123E3604A
:104F6C0004F110036360C4F8108046F00056A6618B
:104F7C0040F61103E36104F120036361276245F0FD
:104F8C000055A5622123E362012161621A4B089A44
:104F9C001A60099A42F000529A6059602022DA6035
:104FAC00BFF35F8F4FF0A3421460BFF35F8FBFF36B
:104FBC005F8F1361BFF35F8FBFF35F8F0323536367
:104FCC00BFF35F8FBFF35F8F9363BFF35F8F4FF0C0
:104FDC00FF3402E002F01FFD0446B4F1FF3FF9D0AC
:104FEC00002000F03BF9204602B0BDE8F08100BF84
:104FFC00E40B002004000020D40B0020BFF35F8FD3
:10500C00094B1B6BBFF35F8F5A08C3F34203052B8D
:10501C0004D012F0060F04D0002070476FF051003E
:10502C0070474FF0FF30704700108051BFF35F8F17
:10503C00054A1368BFF35F8F43F00103BFF35F8F23
:10504C001360BFF35F8F704700108051BFF35F8F09
:10505C00094A1368BFF35F8F43F48071BFF35F8F0E
:10506C001160BFF35F8F23F48073BFF35F8F136006
:10507C00BFF35F8F704700BF00108051BFF35F8F8D
:10508C00144B5B68BFF35F8F032B1FD910B504461D
:10509C00002212E0BFF35F8F0E4BD3F88010BFF3EA
:1050AC005F8F131D9B0003F1A34303F58053BFF3E4
:1050BC005F8F1960BFF35F8F0132032AEAD9204654
:1050CC0002F0ADFC01236360002010BD4FF0FF30F7
:1050DC00704700BF0010805170B505460C46002388
:1050EC0003604360FFF77CFA01232B70FFF7AEFFE0
:1050FC00BFF35F8F204BDB68BFF35F8F9B08013BD7
:10510C00A4B3226812B19A4229D81346A6686068E3
:10511C0008B94FF40070E56805B9F1252269BFF3B1
:10512C005F8F15498B60BFF35F8FBFF35F8F0E648A
:10513C00BFF35F8FBFF35F8F4D64BFF35F8FBFF320
:10514C005F8F4863BFF35F8F42F4802242F001020D
:10515C00BFF35F8F0A60BFF35F8F002070BDFFF756
:10516C005FFA00232B706FF03F00F7E700224FF43B
:10517C000070F1251646D2E7001080510378002B01
:10518C0038D070B506460D461446FFF737FFE0B928
:10519C007368ABB1BFF35F8F194B9B68BFF35F8F25
:1051AC000133B4EB031F28D8BFF35F8F144B5B683C
:1051BC00BFF35F8FB4EB830F11D94FF0FF3004E0D6
:1051CC003046FFF75BFF0028E4D070BD05F8012BDB
:1051DC00120A0133013C032B01D8002CF6D1002C10
:1051EC00F3D0BFF35F8F064BD3F88020BFF35F8FF4
:1051FC000023F0E76FF0200070476FF03F00E4E70A
:10520C0000108051BFF35F8F4FF0A3430022DA618F
:10521C00BFF35F8FBFF35F8F4FF0FF321A63BFF3A3
:10522C005F8FBFF35F8F3422DA61BFF35F8F024B66
:10523C000122C3F8042370470080045010B50446C3
:10524C00FFF7CEF9044B186802F048FC0CB10123AF
:10525C002370FFF7D7FF10BD3C01002010B50446AA
:10526C0008B1037843B1FFF7DBF9044B186802F07F
:10527C003DFC0CB10023237010BD00BF3C0100208D
:10528C0008B5194BD3F8003123B9174BD3F80831B3
:10529C00CBB908BDBFF35F8F4FF0A343996ABFF33F
:1052AC005F8FBFF35F8F4FF0FF321A63BFF35F8FD7
:1052BC000D4B0022C3F80021D3F800310B4B1868BA
:1052CC0002F02EFCE5E700F071F802F0CDFB064B86
:1052DC000022C3F80821D3F808310121044B1868C7
:1052EC0002F01EFCD5E700BF0080045044010020F2
:1052FC004001002008B5074B186802F0FBFB064B79
:10530C00186802F0F7FB00221146482000F07EFEE0
:10531C0008BD00BF440100204001002008B5054B2A
:10532C001B780BB9002008BD034B186802F08BFBEF
:10533C00F9E700BF870C002044010020094B1B6DCE
:10534C000BB10948704710B5064C1821204602F0E5
:10535C0091FB04F1500102F090FB012323650248FC
:10536C0010BD00BF140C0020640C002008B50D4BC0
:10537C000022DA660C4A1A6002F5C0425A60FFF746
:10538C00DDFF68B1074B5B6DB3F5007F05DC4FF4B7
:10539C000072044B9A60002008BD4FF48062F8E75D
:1053AC000E20F9E7140C00200020805100487047B3
:1053BC00140C00202DE9F04184B005460024019422
:1053CC0000F10C07EFF31188202383F31288BFF34D
:1053DC006F8F836803EA0206594011404B400293D9
:1053EC00039401AA0D4902F017F9019C44B1002164
:1053FC00C4F888102046246E02F0BFF8002CF6D1B9
:10540C00029B039A23EA0203AB6041463846FEF73F
:10541C006DFB304604B0BDE8F08100BF477B000057
:10542C002DE9F04F43688DB0154680460293837882
:10543C009A0740F10D8100240E78002E00F00A81AD
:10544C00252E0BD04B1C0393013441463046029B56
:10545C0098470028C0F2F6800399EDE74E788B1C34
:10546C00252E0393F0D00027B946BB46BBF11F0F86
:10547C0038D8A6F12003102B0AD8DFE803F02A094C
:10548C0009300909092109090928092D09091F00F1
:10549C00A6F13003092B33D92A2E37D11BF0400F3C
:1054AC0055F8043B40F08280002BA7BF4BF0200B3B
:1054BC009946C3F100094BF0280B01E04BF0010BAE
:1054CC00039B13F8016B0393002ECFD130E04BF00C
:1054DC00020B4BF0040BF3E74BF0080BF0E74BF02F
:1054EC00100BEDE7BBF17F0F19D8A6F13003092B98
:1054FC00D2D81BF0400F03D00A2101FB0737DFE79E
:10550C000A214BF0200B01FB0939D9E72E2E06D1CD
:10551C001BF0400F40F09E804BF0400BD0E76C2E00
:10552C0031D02BD8682E36D06A2E3CD04C2E3AD0A7
:10553C00002F46F02003B8BF2BF04002A3F1650109
:10554C00BCBF00271FFA82FB022901D9612B2FD186
:10555C0007350727DFF8ACA225F0070508351BF047
:10556C00080F66D00AEB070B56465E4563D1A4EBD9
:10557C000A0AA9EB070906EB0A026FE1742E9FD009
:10558C007A2E9DD0D4E71BF0800F18BF4BF4007B14
:10559C004BF0800B94E71BF4807F18BF4BF4007B1F
:1055AC004BF4807B8CE74BF4207B89E71F4687E725
:1055BC00A6F16301122900F2F080DFE811F013006C
:1055CC004F00EE00EE00EE00EE004F00EE00EE009D
:1055DC00EE00EE00EE00FE00E900EE00EE001B0017
:1055EC00EE00AF0055F8043B01270DF1180A8DF8B9
:1055FC001830B4E755F804AB834BBAF1000F08BF71
:10560C009A461BF0400F504614BF39464FF0FF31FD
:10561C0002F036FB0746A2E741462020029B984742
:10562C0000280FDB013EB742F6D34C44B146A41B15
:10563C0098E74E46F7E7414616F8010B029B984750
:10564C00002892DA98F8023043F0040388F802300C
:10565C004FF0FF3420460DB0BDE8F08F1BF0800FEB
:10566C0034D01BF4007F2CD0073525F00705AA4653
:10567C0069685AF8080B2BF010050029ADB237DA1F
:10568C00404245F4806561EB41010DF1180B0A2392
:10569C005A4602F001FBA0EB0B0301936B0662D59B
:1056AC00019B25F001019F4289B240F3A180002E9D
:1056BC0000F0998015F0100240F09C80BB460D461E
:1056CC0023E0AA465AF8040BC117D4E7AA461BF4E8
:1056DC00807F5AF8041B01D10846F5E71BF4007FC4
:1056EC0019BF48B241F3C01108B241F3C031C2E74F
:1056FC0050EA0103C9D11BF0400FC6D0002FC4D112
:10570C002BF01102BB46019795B240F2064115EA07
:10571C0001021CBF0BF1010B00222CE02BF010023C
:10572C000A231FFA82FB1BF0800C49D01BF400717A
:10573C0015BF0735AA4625F007055AF8040B1EBFFE
:10574C00AA4669685AF8080B50EA010545D12BF0B6
:10575C0016051BF0400FADB242D0002F40D12BF0FC
:10576C001702019795B215F0100248D0019B002E3C
:10577C0042D103F1010B29075AD4EB0706D5D945C1
:10578C006FDDA9EB0B030199CB465F185B4649E033
:10579C004BF0100B10237826C5E7782B04D1C6F1FB
:1057AC00780343F01003BEE741462520029B98473F
:1057BC000028FFF647AF023447E608230026B2E77D
:1057CC00AA461BF480715AF8040BBDD01BF400716F
:1057DC001ABFC0B2614680B2B6E72BF0060295B292
:1057EC000DF1180B54E725F01105BB46ADB28CE753
:1057FC000D46B8E73B460D4603F1020BBBE7DDF85F
:10580C0004B082E74B8F0000448F0000CDE90432D6
:10581C0041462020029B98470028FFF613AF049BBB
:10582C00059A01339945F1DCA4EB0B019B46CC188E
:10583C000AB341463020029B98470028FFF602AF7E
:10584C008EB901342744391B019B994224DC1D4637
:10585C0055BB019AA9EB0B095546224414469144B9
:10586C0033E0019F92E7023441463046029B984751
:10587C000028E7DAE6E640F206410D42E2D015F0E8
:10588C00020F04F10104414614BF2B20202015F413
:10589C00806F18BF2D20E9E741463020029B013470
:1058AC0098470028CFDACDE606AB013D4146585D5E
:1058BC00029B98470028CBDAC4E641462020029B85
:1058CC00013498470028FFF6BDAEA9EB0403002B6A
:1058DC00F3DCC1E5704738B513468568046912F4EA
:1058EC00801F07D012F4402F04D012F0010F01D00A
:1058FC0082F4402323F4801213F0010F0AD02368A2
:10590C004FF0010C0CFA01FC43EA0C0323602B68EA
:10591C00984738BD23684FF0010C0CFA01FC23EAC0
:10592C000C032360F3E708B503468C46006819792D
:10593C00DA8842EA0C02FFF7CEFF08BD08B532B197
:10594C00012303FA01F18368DB68984708BD012342
:10595C0003FA01F183681B699847F7E710B50369EF
:10596C001C6801238B401C4202D0B2FA82F252090D
:10597C00FFF7E4FF10BD08B520EAE072D1174B0128
:10598C0043EAD2634FEA421CBCEB020C63EB010E00
:10599C004FEA8E1343EA9C634FEA8C10B0EB0C0079
:1059AC0063EB0E03DB0043EA5073C000801841EB3D
:1059BC0003010018494140F2E733C0184FF47A72E2
:1059CC004FF0000341F10001FAF752FDFEF7A0F988
:1059DC0008BD00EBC1018368B3F5004F0AD322B1B7
:1059EC004B6843F001034B6070474B6823F0010395
:1059FC004B60704722B14B8843F001034B807047DA
:105A0C004B8823F001034B807047131D50F8233053
:105A1C00DBB9C3684FF0010C0CFA02FC43EA0C032F
:105A2C00C360043240F8221000EBC1038268B2F567
:105A3C00004F06D399608268B2F5004F03D3D9604A
:105A4C0070479980F7E7D980704710B500EBC30C0D
:105A5C008468B4F5004F1CD3DCF8082000EBC10EB1
:105A6C00B4F5004F18D3CEF808208468B4F5004F75
:105A7C0015D3CEF80C3000EBC2028368B3F5004F9F
:105A8C0010D3D1608368B3F5004F0DD3CCF8081058
:105A9C0010BDBCF80420E1E7AEF80420E5E7AEF851
:105AAC000630E8E7D180EDE7ACF80410F0E708B574
:105ABC008368B3F5004F07D300EBC102526852085C
:105ACC00012A02D0002200E00022A2B900EBC102A0
:105ADC00B3F5004F10D352685208B3F5004F0DD3F5
:105AEC0008230833A2EBD3020132B2FA82F2C2F1DC
:105AFC001F02FFF78AFF08BD5288EDE70423F0E789
:105B0C00F8B5B2F5802F23D30823D21ACC1D24F07C
:105B1C00070401EB020C2CF0070CACEB040C4FEA65
:105B2C00DC010460A1600023E360BCF5802F11D37D
:105B3C0008230833A1EBD3030133B3FA83F3C3F186
:105B4C00200EC3F124039B00DE1DF508002308E0A2
:105B5C000423DAE70423ECE71A1D002044F82200A2
:105B6C0001337345F8DB6B00BCF5802F32D36360D7
:105B7C00BCF5802F30D300232360BCF5802F2ED3AF
:105B8C00636843F0010363604A1B570026F0070368
:105B9C00E018BCF5802F27D34760A068B0F5004F04
:105BAC0024D3E5502CF00703A444A068B0F5004FB3
:105BBC001ED30020CCF80400A068B0F5004F1BD316
:105BCC00E25001222046FFF704FF29462046FFF74A
:105BDC006EFFF8BD6380CBE700232380CDE763889D
:105BEC0043F001036380CFE74780D6E7E552D9E75E
:105BFC000020ACF80200DFE7E252E2E70020704739
:105C0C000FB400B583B004A951F8040B0191FAF755
:105C1C00C5FD03B05DF804EB04B0704701F007015B
:105C2C00038B23F007030B43038370472DE9F041EB
:105C3C0006460F469046816821B10C683CB131B9DB
:105C4C000C4604E00C4602E0234621461C4669B192
:105C5C004D6843463A463046A847002CF4D023689A
:105C6C00002BF2D0002CF0D12346EEE7BDE8F081FA
:105C7C00038B13F0070303D102680AB103207047AA
:105C8C00022B03D0012B06D000207047428B002A38
:105C9C00F8D10420704703680BB105207047002031
:105CAC00704710B504468C46038B002A07DB03F0C3
:105CBC0007035A1F012A0ED9042B36D010BDD0E988
:105CCC0000018CE80300002323606360012120465F
:105CDC00FFF7A4FFF2E7D0E900018CE803000022F3
:105CEC0022606260062B1BD1DCF8003053B1628B52
:105CFC00013262831A461B68002BF7D0002AF5D1BB
:105D0C001346F3E702212046FFF788FF2046FFF7F2
:105D1C00AFFF0028D2D0238B43F020032383CDE7A1
:105D2C0000212046FFF77AFFF0E70021FFF776FF0E
:105D3C002046FFF79DFF0028C0D0238B43F02003A3
:105D4C002383BBE750B110B50C4651B1081D00F0D0
:105D5C00C2F810B9A368032B06D810BD6FF015005C
:105D6C0070476FF01500F8E76FF01500F5E72DE9B7
:105D7C00F04107460C4616461D461946201D00F0FC
:105D8C00C1F828B180462B46324621463846C047DA
:105D9C00BDE8F0812DE9F04180460C4617461E46C1
:105DAC0004E033463A464046FFF7E1FF216831B143
:105DBC000D68256063688B42F3D16560F1E7BDE83F
:105DCC00F08108B5EFF311824FF0200C8CF31288A0
:105DDC00BFF36F8F41610121FAF710FD08BD034637
:105DEC0070B181B10A688AB14A6892B1002018601A
:105DFC0058609860D8601861586198611961704753
:105E0C006FF0150070476FF0150070476FF01500BC
:105E1C0070476FF01500704770B505460E46FFF7DA
:105E2C0091FF041E2EDBEFF31182202383F31288E3
:105E3C00BFF36F8FB5F818C00CF0070C6B8B4FF6D7
:105E4C00FF718B422CD06446BCF1020F08D0BCF120
:105E5C00060F19D8DFE80CF01E1818181E2A1E00A1
:105E6C0001336B8301230021084628B100203060E8
:105E7C00686808B306606E6009BB82F31188BFF3D3
:105E8C006F8F0BBB204670BD6FF0040400231946C6
:105E9C001846EAE7BCFA8CF1490900230120E4E733
:105EAC006FF00A04002319461846DEE76FF08504EC
:105EBC00002319461846D8E76E602E60DCE70221F5
:105ECC002846FAF79BFCDDE700236246314628465C
